:020000040800F2
:10000000D82800209D0100089F350008CB2A000851
:100010009D35000899070008053F00080000000012
:1000200000000000000000000000000005010008C2
:10003000570900080000000049010008F5360008D3
:10004000B7010008B7010008B7010008B7010008B0
:10005000B7010008B7010008B7010008B7010008A0
:10006000B7010008B7010008B7010008B701000890
:10007000B7010008B70100081509000821090008A8
:10008000B7010008B7010008B7010008B701000870
:10009000B7010008B7010008B7010008B701000860
:1000A000B701000899370008B7010008B701000838
:1000B000A5370008B1370008B7010008B7010008EC
:1000C000B7010008B7010008B7010008B701000830
:1000D000B70100086D3E0008893E0008B70100081E
:1000E000B7010008B7010008B7010008DFF810D019
:1000F00000F0C2FA00480047495A0008AFF30080F8
:10010000D8280020224B19680868B0E8F00F80F367
:100110000988BFF36F8F4FF0000080F311884EF015
:100120000D0E70470000000006480068006880F36C
:10013000088862B661B6BFF34F8FBFF36F8F00DFE1
:1001400000BF00BF08ED00E0EFF30980BFF36F8F41
:100150000F4B1A6820E9F00F106008B54FF05000FF
:1001600080F31188BFF34F8FBFF36F8F06F020FB32
:100170004FF0000080F31188BDE808401968086856
:10018000B0E8F00F80F30988BFF36F8F704700BFAE
:100190003C000020EFF305807047000006488047D0
:1001A00006480047FEE7FEE7FEE7FEE7FEE7FEE75C
:1001B000FEE7FEE7FEE7FEE797370008ED000008E0
:1001C000202A04DB203A21FA02F00021704721FAAC
:1001D00002F3D040C2F12002914008431946704713
:1001E00040EA01039B0703D009E008C9121F08C0B9
:1001F000042AFAD203E011F8013B00F8013B521E39
:10020000F9D27047D2B201E000F8012B491EFBD2AF
:1002100070470022F6E710B513460A460446194611
:10022000FFF7F0FF204610BD30B505462A460B46C5
:1002300012F8010B13F8014B08B1A042F8D01CB121
:10024000002802D06D1CF1E7284630BD421C10F892
:10025000011B0029FBD1801A704730B505460020EC
:10026000034600E05B1C934205D2EC5CC85C201A9C
:1002700001D1002CF6D130BD30B50B46014600202F
:100280002022012409E021FA02F59D4205D303FA58
:1002900002F5491B04FA02F52844151EA2F10102D9
:1002A000F1DC30BD2DE9F05F0546002092469B460B
:1002B00088460646814640241BE02846414647467C
:1002C0002246FFF77DFF53465A46C01A914110D38C
:1002D00011461846224600F0E1F92D1A67EB010895
:1002E0004F4622460120002100F0D8F917EB000903
:1002F0004E41201EA4F10104DFDC484631462A4667
:100300004346BDE8F09F2DE9FE4F804681EA030099
:10031000C00F0C46009021F0004123F00045B8EBDF
:100320000200A94105D24046214690461C460B4694
:10033000024623F00040104347D0270DC7F30A00C0
:10034000C3F30A510290401A019040286BDAC3F3BC
:10035000130040F4801B0098924620B10023D2EB9A
:10036000030A63EB0B0B01985946C0F1400250465B
:1003700000F094F906460D4650465946019A00F0A1
:100380009CF910EB08006141002487EA115284EACD
:10039000E7731A4340D0009A62B3019A012A4FEAE8
:1003A000075215DC001B61EB02014FF0004202EA2C
:1003B0000752CDE90042001C41F5801132462B4620
:1003C00000F09CF903B0BDE8F08F40462146F9E704
:1003D000001B61EB0201001C41F5801300185B411A
:1003E0002018A2F5001747EB030140EAD570B619B3
:1003F0006D4111E06D084FEA360645EAC0754FEAD7
:100400000752001B61EB0201001C41F580114908F5
:100410004FEA30000019514132462B4603B0BDE887
:10042000F04F00F05CB90098012240000023D0EBAF
:10043000020263EBE073009821464FEAE074B8EBE8
:10044000000061EB0401E9E783F000435BE781F022
:10045000004158E72DE9FE4F81EA030404F000440F
:1004600021F0004100944FF0000B23F0004350EACC
:1004700001045ED052EA03045BD0C3F30A54C1F313
:100480000A552C44A4F2F3340194A0FB0254C1F3A6
:10049000130141F48011C3F3130343F4801301FBF0
:1004A000024400FB034E840A970A44EA815447EA57
:1004B0008357A4FB076802958D0A05FB07854FEA61
:1004C000932C04FB0C542705029D4FEA065847EA7B
:1004D0001637B5EB08056EEB070C870E920E47EA50
:1004E000811742EA8312A7FB0201B6EB0B0164EB12
:1004F00000042B0D43EA0C335E1844EB1C50DA4623
:100500005146E7FB0201C5F313044FEA0B3343EAFC
:1005100014534FEA0432019C43EA0603A4F10C048D
:100520000294009CCDE900B400F0E8F803B0BDE807
:10053000F08F00200146F9E72DE9F04D81EA030430
:1005400004F0004B21F0004514464FF0000A23F060
:10055000004150EA050220D054EA01021DD0C5F343
:100560000A570246C5F31303C1F31300C1F30A5639
:1005700040F4801543F48013A7EB0608101BD64601
:1005800008F2FD3873EB050002D308F1010801E021
:1005900092185B41B8F1000F03DA00200146BDE874
:1005A000F08D00204FF48011064684460EE0171BA4
:1005B00073EB050705D3121B63EB050306434CEAF7
:1005C000010C49084FEA300092185B4150EA0107DC
:1005D000EDD152EA030012D082EA040083EA050159
:1005E000084305D0101BAB4106D20122002306E0D0
:1005F00000224FF0004302E06FF0010253101AEBAB
:1006000006004CEB085110EB0A0041EB0B01BDE872
:10061000F04D00F064B8C1F30A52C1F3130140F287
:10062000FF3341F480119A4202DA002001467047FC
:1006300040F233439A42A2F2334202DC5242FFF7C5
:10064000BFBD00F02BB8000030B5041E71F10004EE
:1006500004DB4FF00044404264EB0101141E73F1CF
:10066000000405DB1C464FF00043524263EB0403D9
:10067000994208BF904230BD064C074D06E0E06845
:1006800040F0010394E8070098471034AC42F6D3D9
:10069000FFF730FD80760008A0760008202A04DBF2
:1006A000203A00FA02F1002070479140C2F1200385
:1006B00020FA03F3194390407047202A06DBCB173A
:1006C000203A41FA02F043EAE07306E041FA02F30D
:1006D000D040C2F12002914008431946704710B53E
:1006E000141E73F1000408DA401C41F10001921855
:1006F0005B411A4301D120F0010010BD2DE9F04DFE
:1007000092469B4611B1B1FA81F202E0B0FA80F252
:1007100020329046FFF7C2FF04460F4640EA0A0027
:1007200041EA0B0153465A46084313D0114653EA97
:10073000010019D0C8F140025046FFF741FD0546BF
:100740000E46504659464246FFF7A8FF084305D0DB
:10075000012004E020463946BDE8F08D0020054325
:1007600046EAE0762C4337430A986305E40AA0EB97
:1007700008000022FD0A44EA47540A3002D500204E
:100780000146E9E7010510196941DDE9084500194D
:100790006941BDE8F04DA2E7FEE700001CB5354811
:1007A00011213A4B017012214170132181702121D6
:1007B000C1702221017123214171312181713221C6
:1007C000C171332101724121417242218172432161
:1007D000C1725121017352214173532181736121EF
:1007E000C173622101746321417423A17A20CDE990
:1007F000000127A22EA1002004F0F8FB1EA17B20FF
:10080000CDE90001214B22A229A1012004F0EEFB39
:1008100019A17C20CDE900011C4B1DA224A10220BE
:1008200004F0E4FB14A17D20CDE90001174B18A2D0
:100830001FA1032004F0DAFB0FA17E20CDE9000107
:10084000124B13A21AA1042004F0D0FB0948822104
:10085000863804F0BFFF0749C8222231A1F11000F9
:1008600002F03EFF02F098FB02F0B4FEBDE81C402F
:1008700000F046B8DA09002048656C6C6F206561AD
:1008800073796C6F6767657221000000A2740008BD
:100890002E2E5C4170706C69636174696F6E735C5D
:1008A000627574746F6E5F6D6F746F722E6300008B
:1008B000427574746F6E5F6D6F74746F72000000B8
:1008C00070B50A49B1FBF0F4C4F34F05084801F0D4
:1008D00010FD0021064801F03BFD0548641E01683B
:1008E000CC62C4600068856370BD000080841E0017
:1008F0008C0400200021014801F078BD8C04002008
:1009000010B54FF4FA60FFF7DBFFBDE81040FFF7CA
:10091000F1BF0000014800F0B7B80000F00500206A
:10092000014800F0B1B80000AC05002030B590F8E7
:1009300040500124AC40C56B6C6004686360436840
:10094000102B036803D099600068C26030BD9A60C4
:100950000068C16030BD704772B6FEE710B5040094
:1009600002D0607910B106E0012010BD0020207196
:10097000204600F005F801206071002010BD000045
:1009800008B500680649884208D10648416941F027
:1009900040014161406900F04000009008BD000046
:1009A000003002400010024010B590F821100022E3
:1009B000022905D00421816380F82020012010BD88
:1009C00001680B6823F00E030B6001680B6823F0CD
:1009D00001030B6090F84030C46B012101FA03F36E
:1009E000636080F8211080F82020104610BD0000C0
:1009F00010B590F821100024022903D0042181634E
:100A000001243DE001680A6822F00E020A600168D4
:100A10000A6822F001020A601A4A0168914201D173
:100A2000012121E0174A1432914201D110211BE02B
:100A3000144A2832914201D1891515E0114A3C32FD
:100A4000914201D189140FE00E4A5032914202D1F5
:100A50004FF4803108E00B4A6432914202D14FF4E6
:100A6000801101E04FF08071064A083A516001217F
:100A700080F82110002180F82010416B01B18847D7
:100A8000204610BD080002402DE9F05FC16B0C68E4
:100A900001680B68D0F840C0042202FA0CF2494DFC
:100AA000DFF824A1494E4A4FDFF828B1DFF828E1EA
:100AB00022422CD05A072AD50A68920603D40A6823
:100AC00022F004020A600168A94201D1042219E05F
:100AD000514501D1402215E0B14202D14FF480626C
:100AE00010E0B94202D14FF480420BE0594502D1E7
:100AF0004FF4802206E0714502D14FF4800201E0FC
:100B00004FF080622F4908394A60C16A3BE04FF0DC
:100B1000020808FA0CF818EA040F4FF000094FF029
:100B2000010235D05FEA837832D50B689B0605D485
:100B30000B6823F00A030B6080F821200168A942AA
:100B400001D1022219E0514501D1202215E0B14224
:100B500002D14FF4007210E0B94202D14FF40052BA
:100B60000BE0594502D14FF4003206E0714502D145
:100B70004FF4001201E04FF00072124908394A6048
:100B800080F82090816A00291AD0BDE8F05F0847FC
:100B9000082505FA0CF5254212D01B0710D50B6865
:100BA00023F00E030B6090F84010C36B02FA01F1C2
:100BB0005960826380F8212080F82090016BE2E781
:100BC000BDE8F09F080002401C00024030000240D7
:100BD00044000240580002406C00024030B528B387
:100BE00008C8134914221944B1FBF2F18900C1630A
:100BF00010498163022141771A6843F6F0718A43F4
:100C0000D0E900142143D0E902452C432143046973
:100C10002143446921438469214311431960002120
:100C20004163012242770177084630BD012030BD83
:100C3000F8FFFDBF0000024070B5044690F82000A8
:100C4000002501280CD0012084F8200094F82160B0
:100C50000020012E06D084F820000225284670BD11
:100C6000022070BD022684F82160A0632068066817
:100C700026F0010606602046FFF758FEE06A0028CD
:100C80002068016802D041F00E0106E021F0040165
:100C900001602068016841F00A0101602068016874
:100CA00041F001010160D9E72DE9F84FDFF8B89173
:100CB0000024A9F1040B23460F2709F1040AABF124
:100CC000040EC9E00125A5402A40AA427DD1674E05
:100CD000D1F804C0ACEB0608B44532D014DCBCF14A
:100CE000030F3AD009DCBCF1000F2AD0BCF1010F90
:100CF0001CD0BCF1020F31D11DE0BCF1110F17D097
:100D0000BCF1120F2AD119E0B8F5881F19D006DC02
:100D1000B8F5803F15D0B8F5801F1FD111E0B8F5A8
:100D2000001F0ED0B8F5041F18D10AE0CB6815E0FB
:100D3000CB681B1D12E0CB6808330FE0CB680C3387
:100D40000CE08B682BB1012B4FF0080303D04561F9
:100D500004E0042302E0056100E00023FF2A01D83B
:100D6000064601E000F104064FEA840501D9A5F129
:100D70002005D6F8008007FA05FC28EA0C0803FADB
:100D800005F548EA0508C6F800804D68ED0062D513
:100D9000374DAE6946F00106AE61AD6924F0030639
:100DA00005F001050095334D06EB050CDCF8085005
:100DB000A607360F07FA06F825EA0805DFF8B88017
:100DC000404503D14FF0000817E044E0DFF8AC8065
:100DD000404502D14FF001080FE0DFF8A480404504
:100DE00002D14FF0020808E0DFF89880404502D1B8
:100DF0004FF0030801E04FF0040808FA06F848EA4B
:100E00000508CCF808804D68D9F80060ED024D4621
:100E100001D5164300E096432E604D68DAF8006075
:100E2000AD02554601D5164300E096432E604D684D
:100E3000DBF80060AD035D4601D5164300E0964344
:100E40002E604D68DEF80060ED03754601D516434F
:100E500000E096432E60641C0D682A46E5407FF44E
:100E600031AFBDE8F88F0000080401400000111008
:100E7000001002400000014000080140000C014049
:100E800000100140001401408068084000D001209B
:100E90007047C26821EA02030A4043EA0241016145
:100EA00070470AB1016170470904FBE70148806897
:100EB000704700002000002070B5040025D094F891
:100EC0003D00002520B984F83C50204600F07EFA11
:100ED000242084F83D002068016821F001010160B0
:100EE0002068016841F4004101602068016821F434
:100EF0000041016000F020FD4D4A6168914201D837
:100F00004C4900E04C49884201D2012070BD4B4958
:100F10002368B0FBF1F15E6826F03F060E435E6089
:100F20006368934206D94FF4967359434FF47A732A
:100F3000B1FBF3F12368491C1E6A26F03F063143DA
:100F400019626168914210D84900401EB0FBF1F26D
:100F5000521CC2F30B02042A01D2042022E0B0FB8F
:100F6000F1F0401CC0F30B001CE0A268F2B301EBEF
:100F7000C10303EB0116431EB3FBF6F35B1C43F402
:100F800080431B0549D092B301EBC10202EB011172
:100F9000401EB0FBF1F0401CC0F30B0040F4804059
:100FA00040F400402168CA694CF6FF739A4310432D
:100FB000C861D4E9071001432068026822F0C0022A
:100FC00011430160D4E9030101432068826848F2BB
:100FD000FF339A4311438160D4E905010843216836
:100FE000CA6822F0FF021043C86001E00EE016E07C
:100FF0002068016841F0010101602564202084F827
:101000003D00256384F83E50002070BD01EB410691
:10101000431EB3FBF6F35B1CB3E70120C2E701EB11
:101020004101401EB0FBF1F0401CC0F30B00B7E7DC
:10103000A086010080841E0000093D0040420F0090
:101040002DE9FF4F83B00025DDE910799A469346DC
:101050000446DDF848800095FFF728FF064694F81F
:101060003D0020287CD11923012288492046009682
:1010700001F042FE0028F5D194F83C0001286FD021
:10108000012084F83C0020680168C90703D1016889
:1010900041F0010101602068016821F400610160F4
:1010A000222084F83D00402084F83E0025646762D9
:1010B000A4F82A90608D20857548E062CDE900860D
:1010C00053465A462046049901F018FD00287CD169
:1010D000208DDFF8C091202768B1012814D00228A4
:1010E000206801681ED041F4806101602068416978
:1010F00080690090BCE020684169816900910168C5
:1011000041F400710160B3E02068016821F480615E
:10111000016072B62068416981690091016841F4FB
:1011200000710AE041F40061016072B62068416913
:1011300081690091016821F48061016062B697E0E5
:10114000032865D801280CD0022843464FF000023E
:101150004946204600960BD001F0CEFDA8BB0CE01E
:1011600091E032464146204601F06CFE68BB72E0D9
:1011700001F0C2FD48BB72B633E02068016821F47B
:101180008061016072B620680069616A0870606AF7
:10119000401C6062208D401E2085608D401E608551
:1011A0003D4846F2A8110068B0FBF1F0C0EBC0006A
:1011B00000EB80000090401E009007D0206840693E
:1011C000C04340070DD50098F5E727E044F8305FAD
:1011D0006773A573206940F02000206162B6257313
:1011E0001CE02068016841F400710160206800691A
:1011F000616A0870606A401C6062218D491E218509
:10120000618D491E618562B621680969017026E019
:1012100032464146204601F015FE18B1012007B0C4
:10122000BDE8F08F20680069616A0870606A401C40
:101230006062208D401E81B22185608D401E6085D8
:1012400020684269D243520712D4032903D10168AE
:1012500021F48061016020680069616A0870606A39
:10126000401C6062208D401E2085608D401E608580
:10127000208D00287FF464AF84F83D7084F83E50E0
:1012800084F83C50CBE70220C9E7000002001000C0
:101290000000FFFF040001002C0000202DE9FF4F9B
:1012A00083B09A46DDE9119793460446DDF8408005
:1012B000FFF7FCFD054694F83D0020287FD1192357
:1012C000012240492046009501F016FD002876D104
:1012D00094F83C00012872D0012084F83C0020687A
:1012E0000168C90703D1016841F00101016020686C
:1012F000016821F400610160212084F83D00402054
:1013000084F83E0000262664C4F82480A4F82A90BD
:10131000608D20852C48E062CDE9007553465A4621
:101320002046049901F068FC70B930E02A4639463D
:10133000204601F0BFFD58B1206C042804D120687C
:10134000016841F400710160012007B0BDE8F08F31
:10135000606A216800780861606A401C6062218DC3
:10136000491E89B22185628D521E628522685369A9
:10137000DB435B070BD469B100781061606A401CE5
:101380006062208D401E2085608D401E6085208D0E
:101390000028CBD12A463946204601F081FC00289E
:1013A000CAD154F83D0B016841F40071016020205E
:1013B00004F81E09E67766770020C6E7FFE70220FB
:1013C000C3E70000020010000000FFFF30B585B049
:1013D00000210091019102910391214D0368214C5C
:1013E000122103222048AB421DD1A36943F0080318
:1013F000A361A369039203F0080304931302CDE9E8
:1014000000316946FFF750FC1848416841F0E0613F
:1014100041F002014160E06940F40010E061E069E0
:1014200000F4001019E0124DAB4217D1A36943F04C
:101430000803A361A369039203F0080304934FF424
:101440004063CDE900316946FFF72EFCE06940F4C6
:101450008000E061E06900F48000049005B030BDD8
:101460000054004000100240000C01400000014008
:10147000005800400248816802781144816070473A
:1014800020000020074810B5016841F010010160FC
:10149000032000F0A1F80F2000F006F800F04AF851
:1014A000002010BD0020024030B505461C4887B022
:1014B000816941F400618161806906A900F40060DE
:1014C000009001A800F018FA00F046FA1549164AF3
:1014D000B0FBF1F11548491E0260416040F2E7326D
:1014E0000021C0E903218160816100F0E3FC040078
:1014F00012D10E4800F03CFD04000DD1192000F07F
:101500003DF8102D07D200222946192000F044F89A
:101510000748056000E0012407B0204630BD000008
:101520000010024040420F00002C01400C09002036
:10153000240000200F4808B5816941F00101816154
:10154000816901F001010091C16941F08051C161DF
:10155000C069002200F0805000900F21901E00F022
:101560001BF80548416821F0E06141F000714160DD
:1015700008BD00000010024000000140002809DB07
:1015800000F01F02012191404009800000F1E0209D
:10159000C0F8001170470000F0B40E4B1B680C46F9
:1015A000C3F30223C3F10705042D00D90425191D37
:1015B000072901D2002300E0DB1E012606FA05F10F
:1015C000491E214099409E40761E16403143F0BC92
:1015D00002F066BD0CED00E0064900F00702086865
:1015E0004FF6FF03184040EA0220034A1043086008
:1015F000704700000CED00E00000FA052DE9F04115
:10160000040004D094F89102002518B107E00120ED
:10161000BDE8F08184F89052204600F04DF8032098
:1016200084F891026571206802F041FC94E80F0093
:1016300002F030FC022698BB0021206802F03EFC3C
:1016400070BB002001270BE000EB800104EBC1011F
:101650004F740874CD740D624D62401CC0B28D622F
:1016600021798142F0D8002012E000BF00EB800118
:1016700004EBC10181F8515181F8500181F85351B7
:10168000C1F86051C1F86451401CC0B2C1F8685142
:1016900021798142EAD894E80F0002F0FFFB10B1F3
:1016A00084F89162B3E7657384F89172206802F060
:1016B000F3FB0020ACE7000008B50068064988424B
:1016C00008D10648C16941F40001C161C06900F454
:1016D0000000009008BD0000005C004000100240C7
:1016E0002DE9F84305460078354CC00754D0E06931
:1016F0000026C00008D4E06940F08050E061E06955
:10170000012600F0805000902E480168C90512D4CF
:101710000168804641F480710160FFF7C7FB07460E
:1017200005E000BFFFF7C2FBC01B642823D8D8F830
:101730000000C005F6D5206A10F4407021D0A988B9
:1017400001F4407181421CD0206A1F49012220F41B
:1017500040700A6000220A602062C00711D0FFF7C3
:10176000A5FB074641F2883808E000BFFFF79EFB63
:10177000C11B414502D90320BDE8F883206A8007D8
:10178000F4D5206A696820F44070084320621EB1D5
:10179000E06920F08050E0612878800705D5606816
:1017A000A96820F44040084360602878C00605D549
:1017B0006068E96820F48000084360600020DBE78F
:1017C0000010024000700040400442422DE9F04702
:1017D0000F46050061D0434E306800F00700B84264
:1017E00009D2306820F0070038433060306800F0DC
:1017F0000700B84251D128683B4C810712D54007F9
:1018000003D5606840F4E06060602878000703D585
:10181000606840F4605060606068A96820F0F00083
:10182000084360602878C00728D06868012810D075
:101830002168022810D0890700292EDA616821F07A
:10184000030101436160FFF731FB804641F28839B3
:101850000DE021688903EFE78901EDE7FFF726FB3B
:10186000A0EB0801494502D90320BDE8F087606874
:10187000696800F00C00B0EB810FEFD1306800F028
:101880000700B8420BD9306820F0070038433060B9
:10189000306800F00700B84201D00120E5E7287861
:1018A000400705D56068E96820F4E060084360609F
:1018B0002878000706D56068296920F4605040EA5E
:1018C000C100606000F058F86168084AC1F3031174
:1018D000515CC8400649086006480068FFF7E4FD0F
:1018E0000020C2E700200240001002408A74000875
:1018F0002C000020240000200F2202600C4A5368B4
:1019000003F003034360536803F0F00383605368FC
:1019100003F4E063C36052684FF4E06303EAD20269
:1019200002610448006800F007000860704700008A
:101930000010024000200240044805490068496840
:10194000044AC1F30221515CC84070472C000020BA
:10195000001002409A74000804480549006849686C
:10196000044AC1F3C221515CC84070472C000020DA
:10197000001002409A7400080E4A51680E4801F0A7
:101980000C03042B11D0082B0FD10C48C1F3834357
:10199000C903C05C0AD55168084AC1F34041921E90
:1019A000515C054A5043B0FBF1F07047044948438D
:1019B000704700000010024000127A007A7400089C
:1019C00000093D002DE9F84F040070D02078C04D8B
:1019D000C00749D06868C0F38100012807D0686853
:1019E000C0F38100022809D16868C00306D52868C1
:1019F000800339D560680028E7D035E06068B0F52D
:101A0000803F0BD010B1B0F5A02F11D0286820F482
:101A100080302860286820F4802002E0286840F4A4
:101A200080302860606890B1FFF740FA06460AE00F
:101A3000286840F480202860F0E700BFFFF736FAFE
:101A4000801B642873D828688003F7D50CE0FFF763
:101A50002DFA064605E000BFFFF728FA801B642830
:101A6000F0D828688003F7D420789A4E80074FF08A
:101A700001094FF0000839D5686810F00C0F07D045
:101A80006868C0F38100022809D16868C00306D4E1
:101A90002868800714D52069012808D110E0206942
:101AA000B0B1C6F80090FFF701FA074605E00AE179
:101AB000FFF7FCF9C01B0228C4D828688007F7D5B7
:101AC0002868616920F0F80040EAC10028600DE054
:101AD000C6F80080FFF7EAF9074604E0FFF7E6F9E9
:101AE000C01B022823D828688007F7D42078000775
:101AF0002CD57948A169D9B1C0F80090FFF7D6F983
:101B0000074604E0FFF7D2F9C01B02280FD8686A25
:101B10008007F7D571484FF4FA510068B0FBF1F037
:101B2000009000BF0098411E0091FAD20EE080E0C4
:101B3000C0F80080FFF7BAF9074604E0FFF7B6F9EE
:101B4000C01B022875D8686A8007F7D42078400740
:101B500060D5E8690027C00008D4E86940F08050EB
:101B6000E861E869012700F0805000905C48016856
:101B7000C90513D40168834641F480710160FFF701
:101B800095F9824606E000BFFFF790F9A0EB0A0046
:101B900064284ED8DBF80000C005F5D5E0680128C0
:101BA0000AD008B1052813D0286A20F00100286265
:101BB000286A20F0040002E0286A40F00100286250
:101BC000E06841F2883B98B1FFF770F982460BE07C
:101BD000286A40F004002862EEE700BFFFF766F9CC
:101BE000A0EB0A0159455AD8286A8007F6D50CE0BF
:101BF000FFF75CF9824605E0FFF758F9A0EB0A0110
:101C000059454CD8286A8007F6D41FB1E86920F0FE
:101C10008050E861E06988B36968C1F381010229F5
:101C200044D00228C6F8608004D0FFF73FF904468C
:101C300038E034E0FFF73AF9074604E0FFF736F9F9
:101C4000C01B02282BD828688001F7D4206AB0F581
:101C5000803F05D16868A16820F4003008436860BF
:101C6000D4E908010843696821F4741108436860E5
:101C7000C6F86090FFF71AF9044606E025E000BFB9
:101C8000FFF714F9001B022809D828688001F7D54E
:101C90001BE000BFFFF70AF9001B022802D903204E
:101CA000BDE8F88F28688001F4D40EE00128F7D051
:101CB0006868226A00F48031914204D1616A00F4BC
:101CC0007010884201D00120EAE70020E8E7000018
:101CD0000010024000004242800442422C000020DA
:101CE0000070004070B5040009D0606A002540B162
:101CF00025616561A56294F8510040B10CE00120B6
:101D000070BD6068B0F5827FF4D0E561F2E784F8D9
:101D10005050204600F040F8022084F8510020681E
:101D2000016821F040010160A088218900F48270DF
:101D300001F404410843A18901F400610843217CB6
:101D400001F002010843217D01F001010843218BCC
:101D500001F400710843217F01F03801084394F831
:101D6000201001F080010843218D01F40051084347
:101D700021680860A069042101EA104021684860D8
:101D80002068C16921F40061C1616565012084F8A2
:101D90005100002070BD000070B586B00021009198
:101DA000019102910391234A0168234802240325EB
:101DB000914218D1816941F480518161816901F4B6
:101DC00080510491816941F00401816180691B4E59
:101DD00000F004000490B020009069463046FEF701
:101DE00063FF40201CE0164A914220D1C16941F4B2
:101DF0008041C161C16901F480410491816941F070
:101E00000801816180690F4E00F0080004904FF4D2
:101E1000A040009069463046FEF746FF4FF4204050
:101E2000CDE90004694603953046FEF73DFF06B054
:101E300070BD000000300140001002400008014069
:101E400000380040000C01407047704770B590F8B2
:101E50003C20012A26D0012480F83C40022280F850
:101E60003D2003685A689D6822F070060A68324374
:101E70005A600D4B02689A4208D0B2F1804F05D0EB
:101E80000A4B9A4202D00A4B9A4204D1496825F083
:101E900080031943916080F83D40002180F83C1098
:101EA000084670BD022070BD002C014000040040B7
:101EB0000008004010B5040003D094F83D0010B1B4
:101EC00007E0012010BD002084F83C00204600F00F
:101ED0001FF8022084F83D00211D206801F06EFCEF
:101EE000012084F8460084F83E0084F83F0084F81E
:101EF000400084F8410084F8420084F8430084F8EC
:101F0000440084F8450084F83D00002010BD000026
:101F100008B501681448B1F1804F14D0134A9142BA
:101F200020D1C16941F00201C161C069002200F005
:101F30000200009005211D20FFF72EFB1D20BDE8AB
:101F40000840FFF71BBBC16941F00101C161C069D5
:101F5000002200F00100009005211C20FFF71CFB6F
:101F60001C20ECE708BD0000001002400004004007
:101F700090F83D10012901D001207047022180F81E
:101F80003D100168CA6842F00102CA6000680B494E
:101F9000884208D0B0F1804F05D00949884202D06C
:101FA0000849884204D1816801F00701062903D05D
:101FB000016841F00101016000207047002C0140E0
:101FC000000400400008004070B5044690F83C0052
:101FD0000025012817D0012684F83C60022084F8EF
:101FE0003D002068826822F0770222F47F428260FE
:101FF0000868502838D00DDC20284FD005DC90B37D
:10200000102811D14AE0022070BD302846D0402867
:102010000AD13BE060282FD070280DD0B0F5805F4A
:1020200003D0B0F5005F12D0012584F83D60002098
:1020300084F83C00284670BDCB68D1E901212068B6
:1020400001F005FC2068816841F0770109E0CB6868
:10205000D1E90121206801F0FAFB2068816841F490
:1020600080418160E1E719E0CA684968206801F0B1
:10207000A3FC5021206806E0CA684968206801F086
:10208000ACFC6021206801F0ECFBCEE7CA6849682F
:10209000206801F091FC40212068F4E722680146A5
:1020A0001046F0E770472DE9F04104460068C66825
:1020B00005694FF00007A90713D5B10711D5F91E1F
:1020C000016101202077206880698007204602D0C6
:1020D000FFF7E8FF04E000F0A5F8204600F037F92C
:1020E0002777680716D5700714D521686FF00400AC
:1020F0000861022020772068806910F4407F204624
:1021000002D0FFF7CFFF04E000F08CF8204600F08B
:102110001EF92777280715D5300713D521686FF0EA
:1021200008000861042020772068C06980072046E5
:1021300002D0FFF7B7FF04E000F074F8204600F08B
:1021400006F92777E80616D5F00614D521686FF052
:1021500010000861082020772068C06910F4407FD3
:10216000204602D0FFF79EFF04E000F05BF8204617
:1021700000F0EDF82777E80708D0F00706D02168CF
:102180006FF001000861204600F068F9280608D5C4
:10219000300606D521686FF0800008612046FFF701
:1021A00053FE680608D5700606D521686FF040001A
:1021B0000861204600F05CF9A8060AD5B00608D5EB
:1021C00021686FF0200008612046BDE8F041FFF76C
:1021D0003CBEBDE8F081000000B585B00021009153
:1021E00001910291039100680B49884211D10B487B
:1021F000816941F0080181618069694600F0080049
:102200000490012000900220019003900448FEF702
:102210004BFD05B000BD000000040040001002406E
:10222000000C0140704770B5044690F83C00002651
:102230000D4601280FD0012084F83C006AB1042A21
:102240001DD0082A2FD00C2A3FD00126002084F868
:102250003C00304670BD022070BD206801F00AFBD2
:102260002068816941F0080181612068816921F05D
:1022700004018161206881692A69114311E02068A5
:1022800001F020FB2068816941F4006181612068D0
:10229000816921F480618161206881692A6941EA4C
:1022A00002218161D2E7206801F038FB2068C16912
:1022B00041F00801C1612068C16921F00401C161D8
:1022C0002068C1692A69114311E0206801F052FBBE
:1022D0002068C16941F40061C1612068C16921F4CD
:1022E0008061C1612068C1692A6941EA0221C16136
:1022F000ACE710B5040003D094F83D0010B107E03E
:10230000012010BD002084F83C00204600F01EF89B
:10231000022084F83D00211D206801F04FFA0120C1
:1023200084F8460084F83E0084F83F0084F84000BA
:1023300084F8410084F8420084F8430084F84400A3
:1023400084F8450084F83D00002010BD70477047B8
:1023500010B50446022249B104290ED0082913D031
:1023600094F84100012816D0012010BD94F83E00D9
:102370000128F9D184F83E200FE094F83F000128AD
:10238000F2D184F83F2008E094F840000128EBD116
:1023900084F8402001E084F841200122206801F007
:1023A00049FA0F492068884203D1426C42F4004246
:1023B00042642068884208D0B0F1804F05D00949B6
:1023C000884202D00849884204D1816801F007019F
:1023D000062903D0016841F001010160002010BD11
:1023E000002C0140000400400008004030B50446C5
:1023F0000D460068002201F01DFA174B41F2111141
:1024000020688A10984209D1036A0B4206D1036AF8
:10241000134203D1436C23F4004343642068036AEE
:102420000B4206D1016A114203D1016821F001017A
:10243000016001203DB1042D08D0082D09D084F899
:102440004100002030BD84F83E00FAE784F83F00E8
:10245000F7E784F84000F4E7002C014000680349E6
:10246000884201D1FFF706B870470000002C0140F8
:10247000704738B5044690F84200202801D0022069
:1024800038BD51B14AB1012020630020606320466D
:1024900001F06AFC216B012901D0012038BD2168BF
:1024A0000A684968009121680C3151E8002F42F018
:1024B000100241E80023002BF5D138BD70B5B2B051
:1024C0000546C8216846FDF7A4FE1B4C1B48214663
:1024D0002279921D01F090FD227969461748921DDC
:1024E00001F0EFF816492868884219D19DF80000DC
:1024F0005A2815D19DF80100A52811D19DF8020098
:102500005A280DD19DF804006E46001DC5B20DEB92
:1025100005004078D02805D0C8213046FDF779FE67
:1025200032B070BD002404E03019407901F0ECFCB9
:10253000641CAC42F8DDF3E724100020EC09002015
:102540000038014010B50068074988420AD10748A1
:102550000749006801F0C6FCBDE81040402104486E
:10256000FDF757BE10BD00000038014034000020C8
:1025700024100020F8B5016804460868CA684B6951
:1025800010F00F0F4FF0000559D003F0010602F4D0
:102590009077374365D0C10705D0D10503D5616C6D
:1025A00041F001016164410705D5D90703D0616C91
:1025B00041F002016164810705D5D90703D0616C40
:1025C00041F004016164010707D502F020013143A5
:1025D00003D0616C41F008016164616C00293AD05C
:1025E000800604D5900602D5204601F0E2FA206864
:1025F0004069616CC0F38010090700D460B32046C5
:1026000001F0A2FA20684069400621D52068143004
:1026100050E8001F21F0400140E80012002AF5D1E7
:10262000E06BA8B16D494163E06BFEF7E1F900286A
:1026300011D0E06B416B01B0BDE8F0400847830664
:102640000FD593060DD52046BDE8F84001F0B1BA8C
:102650002046FFF777FFF8BD2046FFF773FF65645C
:10266000F8BD266B2023012E7CD1C6067AD5D6066E
:1026700078D508684868009048694FF0020640061F
:1026800040D5E16B086840680004000CE8D0A28DDA
:102690008242E5D9E085886920282DD020680C3059
:1026A00050E8001F21F4807140E80012002AF5D1A3
:1026B0002068143050E8001F21F0010140E80012AA
:1026C000002AF5D12068143050E8001F21F04001A5
:1026D00040E80012002AF5D184F8423025632068D2
:1026E0000C3050E8001F21F0100140E80012002AD1
:1026F000F5D1E06BFEF758F96663A08DE18D401AC5
:1027000081B22AE0A08DE18D401A81B2E08D0028CF
:10271000A6D00029A4D022680C3252E8000F20F481
:10272000907042E80007002FF5D12068143050E87F
:10273000002F22F0010240E80027002FF5D184F895
:102740004230256320680C3050E8002F22F0100240
:1027500040E80023002BF5D166632046FFF7AEFE6C
:10276000F8BDFFE705062BD5150629D594F84100DD
:102770002128F5D1A068B0F5805F01D12069B0B102
:10278000206A411C2162216800784860E08C401E6C
:102790000004000CE084E3D12068C16821F08001CE
:1027A000C1602068C16841F04001C160D8E7206A7B
:1027B0000088C0F308004860206A801C2062E5E7BA
:1027C0004006CDD55006CBD5CA68204622F040023F
:1027D000CA6084F8413000F076F9C1E7FF3900089B
:1027E00070B5040004D094F84100002510B106E053
:1027F000012070BD84F84050204600F023F82420CA
:1028000084F841002068C16821F40051C16020466D
:1028100001F04EFA2068016921F4904101612068BD
:10282000416921F02A0141612068C16841F40051E9
:10283000C1606564202084F8410084F8420065632B
:10284000002070BDF0B585B000240094019402947E
:1028500003940646424F0368424802210322424D38
:10286000BB424FD1836943F480438361836903F49E
:1028700080430493836943F0040383618069039276
:1028800000F0040004900802CDE9000169462846E2
:10289000FEF70AFA2815CDE90004012002906946E6
:1028A0002846FEF701FA324D30488027C5E900047A
:1028B000C5E902472C616C61AC612846EC61FEF70A
:1028C0008DF908B1FEF748F8F5636E62284D274888
:1028D0004435143801C5102091C5254845F81049E4
:1028E00044306C61AC61EC61FEF778F908B1FEF739
:1028F00033F8B5630022052125206E62FEF74CFEF9
:10290000252028E01B4EB34227D1C36943F400338E
:10291000C361C36903F400330493836943F0040380
:1029200083618069039200F0040004900420CDE9E3
:10293000000169462846FEF7B7F90820CDE90004F2
:10294000694628460294FEF7AFF9002205212620A9
:10295000FEF722FE2620FEF711FE05B0F0BD0000B6
:1029600000380140001002400008014058000240B9
:10297000AC05002000440040704770472DE9F84343
:10298000044690F84100984616460D46202802D08D
:102990000220BDE8F88385B17EB10020606421206B
:1029A00084F84100FEF782FAA6848146E684A06896
:1029B0002027B0F5805F02D003E00120E9E720691D
:1029C00010B12E4600250EE000260CE080212046A6
:1029D00001F012FAA8B9C6B116F8010B21684860D7
:1029E000E08C401EE084E08C4B464FF00002CDF8B6
:1029F00000800028EAD14FF04001204601F0FCF9A8
:102A000040B184F841700320C3E735F8020BC0F3EE
:102A10000800E3E784F841700020BAE770B5044687
:102A200090F84100202801D0022070BD49B342B384
:102A30002162A284E28400206064212384F8413072
:102A4000A56B114BAB62A56B104BEB62A56B104BEA
:102A50002B63A36B5863256813462A1DA06BFEF7F2
:102A6000EBF821686FF0400008602068143050E8EF
:102A7000001F41F0800140E80012002AF5D100203B
:102A800070BD012070BD0000FD3A00083F3B00080A
:102A90000F3A000890F84130202B01D002207047F7
:102AA00079B172B101628284C28400214164212122
:102AB00080F841100068C16841F08001C1600020C9
:102AC00070470120704770477047FEE701684A6908
:102AD000D24352050FD46FF480624A61002140F85E
:102AE000301F202242738173026942F004020261A6
:102AF0000173012070470020704700002DE9F84F56
:102B00000446006889460B9D01689846174641F4C3
:102B1000806101602068016841F480710160009566
:102B20004FF0011B0022594620460A9B00F0E4F8B2
:102B30004FF4007A40B120680068C00501D5C4F8A0
:102B400040A00320BDE8F88F216809F0FE0008616D
:102B50002B46284920460A9A00F016F9F0BB206857
:102B60004169806900902A4620460A9900F0A2F93E
:102B700040B1206C04283AD12068016841F400710A
:102B8000016034E0FEB2B8F1010F09D02168380AC3
:102B900008612A4620460A9900F08CF90028E8D1FD
:102BA000206806612A4620460A9900F083F9002829
:102BB000DFD12068016841F4807101600095002236
:102BC000594620460A9B00F097F80028B3D12168A7
:102BD00009F0FF0040F00100086100E007E02B462B
:102BE000044920460A9A00F0CFF80028AAD0012014
:102BF000A8E70000020001002DE9F8430446006840
:102C00000D46DDE9089701689846164641F4807143
:102C100001604B4600224FF001112046009700F062
:102C20006BF848B120680068C00502D54FF4007009
:102C300020640320BDE8F883216805F0FE000861E8
:102C40003B464A461549204600F09EF888B9206860
:102C50004169806900903A464946204600F02AF9C9
:102C600048B1206C042804D12068016841F4007147
:102C700001600120DEE7F5B2B8F1010F09D021684B
:102C8000300A08613A464946204600F013F9002808
:102C9000E7D1206805610020CCE7000002000100B8
:102CA00070B516460D4604461EE02046FFF70EFF9F
:102CB00008B1012070BD681C16D0FEF7F7F8801B24
:102CC000A84200D885B920684069C04340070BD5A9
:102CD000002044F8300F20216173A073216941F076
:102CE000200121612073E4E720684069C043400768
:102CF000DBD4002070BD00002DE9F0479846174650
:102D00000D460446C1F30746DDF820902AE000BFD7
:102D1000B8F1FF3F26D0FEF7C9F8A0EB0901414505
:102D200002D8B8F1000F1DD12068012E16D080699D
:102D300025EA00000004000C12D00020B84211D196
:102D4000002044F8300F20216173A073216941F005
:102D50002001216120730120BDE8F0874069E7E789
:102D60000120EBE72068012E0AD0806925EA0000E7
:102D70000004000C06D00020B842C9D00020EBE7C8
:102D80004069F3E70120F7E72DE9F047984616463A
:102D90000D4604464FF000094FF0200AC1F30747E3
:102DA00023E020684069C043400515D420680168CD
:102DB00041F40071016021686FF480604861C4F8DB
:102DC000309084F83DA084F83E90216C41F00401DD
:102DD000216484F83C9021E0701C06D0FEF766F870
:102DE000A0EB0800B04203D816B1012F1FD021E09C
:102DF0002068012F15D0806925EA00000004000C2E
:102E000018D000BF44F8309F84F80DA084F80E90CD
:102E1000216941F02001216184F80C900120BDE876
:102E2000F087406925EA00000004000CEAD1206820
:102E3000406901E02068806925EA00000004000C78
:102E4000AFD1ECE72DE9F041002590460E4604464F
:102E5000202728E04069C043C0060CD454F8301B3A
:102E60006FF01000486144F810596777A577206A21
:102E70002062257714E0FEF719F8A0EB0800B042B5
:102E800000D886B920684069C04340060BD544F895
:102E9000305F6773A573206940F0200020612573BF
:102EA0000120BDE8F08120684169C9434906D1D4B9
:102EB0000020F6E770B516460D4604461EE0204693
:102EC000FFF704FE08B1012070BD681C16D0FDF7A5
:102ED000EDFF801BA84200D885B920684069C04337
:102EE00000060BD5002044F8300F20216173A07339
:102EF000216941F0200121612073E4E720684069E5
:102F0000C0430006DBD4002070BD000003B583B0D1
:102F1000012100910246019104AB7821024800F0A2
:102F200005F805B000BD0000CC0F0020FEB5DDE9BE
:102F300008540CB1012400E01024877B642617B1EB
:102F4000012F07D0FEE78DE8680000682346FEF7F2
:102F5000A5F9FEBD8DE8680000682346FEF770F80D
:102F6000FEBD002804D0D0E90010814201D101202B
:102F700070470020704700280AD001688268491C09
:102F8000B1FBF2F302FB13114068814201D1012031
:102F9000704700207047000010B500225149524888
:102FA00001F0DAFE5048002250492C3001F0D4FEE6
:102FB0004D4800224E49583001F0CEFE4A480022CA
:102FC0004C49843001F0C8FE474800224A49B030DD
:102FD00001F0C2FE444800224849DC3001F0BCFE4A
:102FE000474A0421404801F0D9FD454A05213E48A1
:102FF00001F0D4FD424A03213B4801F0CFFD3A489D
:1030000001F0C4FE38483F4A04212C3001F0C6FDCF
:1030100035483C4A05212C3001F0C0FD3248394A80
:1030200003212C3001F0BAFD2F482C3001F0AEFE08
:103030002D48354A0421583001F0B0FD2A48324A63
:103040000521583001F0AAFD27482F4A03215830A6
:1030500001F0A4FD2448583001F098FE22482B4A84
:103060000421843001F09AFD1F48284A052184304C
:1030700001F094FD1C48254A0321843001F08EFDA7
:103080001948843001F082FE1748214A0421B030EB
:1030900001F084FD14481E4A0521B03001F07EFD88
:1030A00011481B4A0321B03001F078FD0E48B030C2
:1030B00001F06CFE0C48174A0421DC3001F06EFD73
:1030C0000948144A0521DC3001F068FD0648114A20
:1030D0000321DC3001F062FD0348BDE81040DC3024
:1030E00001F054BE09620008C40A002019620008F9
:1030F00025620008316200083D620008496200084C
:10310000994900085D4A00089D4A0008DD4A000808
:103110001D4B00085D4B0008074910B505480860C5
:103120000846FDF71BFC002803D0BDE81040FDF762
:1031300013BC10BD00300240180000200D4808B537
:10314000416941F0010141614069002200F0010044
:10315000009005210E20FEF71FFA0E20FEF70EFA52
:10316000002205210F20FEF717FABDE808400F20C6
:10317000FEF704BA0010024010B5224BA8B023ACF1
:103180000FCB84E80F00002123A802F0E1FC1E4CC5
:103190001C491C22606110316846FDF721F80021AE
:1031A000684602F0E8FC174920601C222C3107A871
:1031B000FDF716F8002107A802F0DDFC1149606058
:1031C0001C2248310EA8FDF70BF800210EA802F0D2
:1031D000D2FC0C49A0601C22643115A8FDF700F850
:1031E000002115A802F0C7FC0649E0601C228031CE
:1031F0001CA8FCF7F5FF00211CA802F0BCFC206114
:1032000028B010BDDC730008000000202DE9F04359
:1032100085B0002534480095019502950395816994
:1032200041F010018161816901F01001049181690F
:1032300041F020018161816901F0200104918169DF
:1032400041F004018161816901F004010491816907
:1032500041F0080181618069244F00F008004FF4BB
:1032600080440490002221463846FDF71AFEDFF81C
:103270008090002202214846FDF713FEDFF874809B
:10328000A611002231464046FDF70BFE00940124B2
:1032900001940294694638460394FDF705FD022027
:1032A000CDE900040294694648460394FDF7FCFC0E
:1032B000CDE900640294694640460394FDF7F4FCAE
:1032C000E003CDE90005694602944046FDF7ECFCB9
:1032D000F820CDE90005694602944846FDF7E4FC74
:1032E00005B0BDE8F083000000100240001001406E
:1032F000000C0140000801400D4810B50B49016069
:103300000C49416000214FF480428160C0E9031202
:1033100041618161C1610162FDF7CEFD002803D0EA
:10332000BDE81040FDF718BB10BD00000054004080
:1033300034030020A08601000D4810B50B49016040
:103340000C49416000214FF480428160C0E90312C2
:1033500041618161C1610162FDF7AEFD002803D0CA
:10336000BDE81040FDF7F8BA10BD0000005800405D
:1033700088030020A08601000E4810B50C490160AA
:1033800000214FF400624160C0E902120161416115
:1033900081610162416281620A21C162FEF7A2FC81
:1033A000002803D0BDE81040FDF7D6BA10BD0000DC
:1033B00000300140DC0300200E4810B50C490160CC
:1033C0004FF48271416000218160C16001614161FF
:1033D0008161C1610162416281620A21C162FEF7BD
:1033E00081FC002803D0BDE81040FDF7B5BA10BD40
:1033F000003800403404002010B586B0002417487F
:10340000009401940294039404944FF08041059435
:103410000160C721C0E9011441F61F41C0E903144E
:1034200080218161FEF746FD08B1FDF795FA4FF462
:103430008050009069460948FEF7C6FD08B1FDF7C7
:103440008BFA049404A905480594FEF7FFFC0028B4
:1034500001D0FDF781FA06B010BD00008C040020F9
:1034600010B58EB000240794089409940A940B9424
:103470001C2168460C94FCF7CCFE1E481C49C0E990
:1034800000144FF6FF71C0E9024104618461FEF748
:1034900011FD08B1FDF760FA4FF48050079007A9BD
:1034A0001448FEF791FD08B1FDF756FA1148FEF7F2
:1034B00020FF08B1FDF750FA0B940BA90D480C94AE
:1034C000FEF7C4FC08B1FDF747FA6020CDE900041F
:1034D00002940822694607480494FEF7A4FE08B146
:1034E000FDF73AFA0348FEF777FE0EB010BD000074
:1034F00000040040D40400200C4810B50A490160C3
:103500004FF416514160002181600C22C160C0E976
:1035100004128161C161FFF763F9002803D0BDE89F
:103520001040FDF719BA10BD003801401C050020FD
:103530000C4810B50A4901604FF416514160002152
:1035400081600C22C160C0E904128161C161FFF792
:1035500047F9002803D0BDE81040FDF7FDB910BDC4
:1035600000440040640500200B4810B50949016083
:10357000082101710221817100218172C1720173E0
:10358000FEF73CF8002803D0BDE81040FDF7E4B991
:1035900010BD0000005C004034060020FEE7FEE79E
:1035A00070B5002404F1B000C0B200F009FD0020A5
:1035B00000F006FD102000F003FD0025002000F0C3
:1035C00003FD6D1CEDB2802DF8D3641CE4B2082C11
:1035D000E8D370BD10B500222D492E4801F0D0F976
:1035E000AE2000F0EDFC202000F0EAFC102000F0FE
:1035F000E7FCB02000F0E4FCC82000F0E1FC002073
:1036000000F0DEFC102000F0DBFC402000F0D8FCD5
:10361000812000F0D5FCFF2000F0D2FCA12000F0BA
:10362000CFFCA62000F0CCFCA82000F0C9FC3F2075
:1036300000F0C6FCA42000F0C3FCD32000F0C0FCC6
:10364000002000F0BDFCD52000F0BAFCF02000F016
:10365000B7FCD92000F0B4FC222000F0B1FCDA2045
:1036600000F0AEFC122000F0ABFCDB2000F0A8FC68
:10367000202000F0A5FC8D2000F0A2FC142000F01A
:103680009FFCAF2000F09CFCBDE81040FFF788BF16
:1036900034030020CC0F002000B50B4602000FD0F1
:1036A000FFF75FFC00280BD15168D068405C1870B0
:1036B000D2E90101401CB0FBF1F301FB13005060A3
:1036C00000BDF0B515460E46070008D0002404E002
:1036D00031193846FFF7E0FF641CAC42F8D3F0BD67
:1036E000002303604360C0E902217047012002F01B
:1036F00023FAFBE710B5502080F31188BFF34F8FFA
:10370000BFF36F8F03F08EFC18B104494FF0805067
:103710000860002080F3118810BD000004ED00E077
:1037200030B593B028216846FCF773FD14210AA830
:10373000FCF76FFD002401200F94109411940104F4
:1037400012948DE8130004904FF4E010CDE90810B6
:10375000022507956846FEF735F908B172B6FEE70F
:103760000F20CDE90A054FF48060CDE90C4002211D
:103770000AA80E94FEF72AF808B172B6FEE71020E8
:103780000F9012940FA8FDF7ABFF002801D072B67E
:10379000FEE713B030BD70470148FEF784BC00005F
:1037A0000C0900200148FEF77EBC00008C040020BC
:1037B0000148FEF778BC0000D4040020F0B5026890
:1037C000194B1A4C1A4D4FF08047984205D0B84219
:1037D00003D0A04201D0A84203D122F070064A686B
:1037E0003243984205D0B84203D0A04201D0A8424B
:1037F00003D122F44074CA6822434C6922F080024B
:10380000224302608A68C2620A688262984201D1D9
:1038100009690163012141610169C90703D0016997
:1038200021F001010161F0BD002C014000040040C5
:103830000008004010B501F01F030121046A9940FF
:103840008C430462016A9A401143016210BD10B5B5
:10385000846842EA032224F47F440A4322438260BC
:1038600010BD826822F070020A4342F007018160B5
:103870007047000030B5036A026A22F0010202625A
:103880004268846924F073050C682C4323F0020518
:103890008B682B430A4DA8420BD123F00805CB6857
:1038A00022F440722B434D6923F0040315438A69C7
:1038B0002A434260846149684163036230BD00006D
:1038C000002C014030B5026A036A23F01003036242
:1038D000436884690D6824F4E64444EA05248D684D
:1038E00022F0200242EA05120B4DA8420ED1CD680B
:1038F00022F0800242EA05124D6923F4406343EA54
:1039000085038D6922F0400243EA850343608461A8
:1039100049688163026230BD002C014030B5036A02
:10392000026A22F4807202624268C46923F400735E
:1039300024F073050C682C438D6843EA05230C4D75
:10394000A8420ED1CD6823F4006343EA05234D69F4
:1039500022F4405242EA05128D6923F4806342EA60
:1039600005124260C4614968C163036230BD000052
:10397000002C014030B5046A026A22F480520262CF
:103980004268C3690D6823F4E64343EA05238D6862
:1039900024F4005444EA0534064DA84204D14D698C
:1039A00022F4804242EA85124260C36149680164A0
:1039B000046230BD002C014010B5036A046A24F093
:1039C00001040462846924F0F00444EA021423F040
:1039D0000A020A438461026210BD10B5036A046AD8
:1039E00024F010040462846923F0A00324F47044DA
:1039F00044EA023243EA01118261016210BD10B54E
:103A0000406A0021C185C184FEF79CFD10BD70B5E0
:103A1000446A2068406994F84110C0F3C010002542
:103A2000212904D118B1E584204600F0B4F82068BB
:103A3000406994F84210C0F38010222904D118B1D3
:103A4000E585204600F080F8606C40F0100060646E
:103A50002046FEF777FD70BD10B50146406A096843
:103A600009684FF0000289062ED4C28501680C3126
:103A700051E8003F23F4807341E80034002CF5D175
:103A80000168143151E8003F23F0010341E800349C
:103A9000002CF5D10168143151E8003F23F04003B8
:103AA00041E80034002CF5D1202180F84210016B50
:103AB000012909D101680C3151E8003F23F01003BE
:103AC00041E80034002CF5D14263016B012902D09A
:103AD000FEF752FF10BD818DFEF7F0FC10BD10B552
:103AE000406A01214163016B012902D0FEF745FFC5
:103AF00010BD818D4908FEF7E1FC10BD10B50146EF
:103B0000406A09680968890616D40021C1840168E1
:103B1000143151E8002F22F0800241E80023002BED
:103B2000F5D101680C3151E8002F42F0400241E824
:103B30000023002BF5D110BDFEF7C5FF10BD10B559
:103B4000406AFEF7C1FF10BD01680C3151E8002F3B
:103B500022F4907241E80023002BF5D10168143162
:103B600051E8002F22F0010241E80023002BF5D19B
:103B7000016B012909D101680C3151E8002F22F0B5
:103B8000100241E80023002BF5D1202180F84210DB
:103B900000210163704701680C3151E8002F22F0C9
:103BA000C00241E80023002BF5D1202180F841100C
:103BB000704708B590F84210222901D0022008BDB4
:103BC00082684FF480539A4201D1016921B1816A20
:103BD0009A421BD04AB10AE00268816A5268C2F375
:103BE00008020A80816A891C08E0026972B10268D1
:103BF000526802F07F020A70816A491C8162C18D9D
:103C0000491E0904090CC18503D01BE002685268F3
:103C1000F1E70168CA6822F02002CA600168CA6838
:103C200022F48072CA6001684A6922F001024A6186
:103C3000202180F8421000214163026B012A03D049
:103C4000FEF79AFE002008BD016301680C3151E8BF
:103C5000002F22F0100241E80023002BF5D101686B
:103C60000A68D20602D50A6849680091818DFEF77C
:103C700025FCE7E718B5026801248BB21268B4EBA3
:103C8000117F03D1D1681943D1600AE00224B4EB5B
:103C9000117F03D111691943116102E05169194380
:103CA00051610068006801684068009018BD00001C
:103CB00070B5044600680169E26821F4405111437F
:103CC00001612169A0680843616908432168CA68E5
:103CD00041F20C639A430243CA6020684169A269B9
:103CE00021F44071114341611E492068884202D18C
:103CF000FDF732FE01E0FDF71FFE00EBC00101EB16
:103D00000012606864218000B2FBF0F3B3FBF1F3B2
:103D10006FF018067343B2FBF0F5B2FBF0F605EB5B
:103D20008305322303EB0515B5FBF1F5B6FBF1F680
:103D300005F0F00505EB0615B2FBF0F6B2FBF0F06E
:103D4000B0FBF1F06FF01802504306EB800003EB7C
:103D50000010B0FBF1F0216800F00F0028448860EB
:103D600070BD00000038014038B58162044682858C
:103D7000002013466064222284F84220E56B1B4A2F
:103D8000AA62E56B1A4AEA62E56B1A4A2A63E26B99
:103D900050630A462168E06B091DFCF74DFF20685F
:103DA000016840680090206948B120680C3050E8F4
:103DB000001F41F4807140E80012002AF5D120680C
:103DC000143050E8001F41F0010140E80012002AC1
:103DD000F5D12068143050E8001F41F0400140E860
:103DE0000012002AF5D1002038BD0000593A000821
:103DF000DF3A00080F3A00082DE9F84398461746C5
:103E00000D460446089E24E0701C22D0FDF74EF8B3
:103E1000A0EB0800B0421AD8CEB12068C1684907AB
:103E200017D5802D15D0402D13D00168C94309073F
:103E30000FD401680025406800902046FFF784FEFB
:103E40000820606484F840500120BDE8F883032016
:103E5000FBE72068006835EA000004D00020B84283
:103E6000D2D00020F1E70120F9E7000010B50448A6
:103E7000FEF780FBBDE810400249014800F032B86F
:103E80001C050020241000200148FEF773BB000031
:103E9000640500200020704700207047012120F8B1
:103EA000401F00210180818001820846704730F860
:103EB000401F21F43F4101800020704700207047DF
:103EC000012B04D0022B06D0032B07D0FEE700689D
:103ED0006423FEF753BD0068FEF7DCBD0068FEF703
:103EE0009DBD000010B540220448FEF7C2FA044808
:103EF0000068016821F00401016010BD1C0500206C
:103F0000AC050020FEE700003EB50021154C8DF801
:103F10000810112818D012281CD0132813D1032000
:103F20008DF8080010A140F20F10CDE90001114BEF
:103F300011A219A1032001F059F800231A4602A981
:103F4000206802F00BFE3EBD01208DF8080016A18E
:103F5000FF20EAE702208DF8080016A140F20710C2
:103F6000E3E7000014000020B5E7C6BDB7B4D7AA48
:103F700033330000D27400082E2E5C4170706C69DF
:103F8000636174696F6E735C627574746F6E5F6D7C
:103F90006F746F722E630000427574746F6E5F6D84
:103FA0006F74746F72000000B5E7C6BDB7B4D7AACE
:103FB00031310000B5E7C6BDB7B4D7AA3232000030
:103FC00001460020FEF7A2BF01464020FEF79EBF3B
:103FD00030B50D4604000ED0FEF7CDFF00280AD103
:103FE0002168E06845542068A168401CB0FBF1F2EC
:103FF00001FB1200206030BDF0B515460E460700EB
:1040000008D0002404E0315D3846FFF7E1FF641C6E
:10401000AC42F8D3F0BD00000FB4054B10B503A9B6
:10402000044A029800F01EF910BC5DF814FB000071
:10403000B5570008DC0000200FB47CB50C0009ADBA
:1040400001D0611E00E00021CDE90001064B6A4667
:104050002946089800F006F9002C02D0009A0021A9
:1040600011707CBC5DF814FB6B4900087CB50C003A
:104070001D461646014601D0601E00E00020CDE935
:104080000010064B6A462946304600F0EBF8002C3B
:1040900002D0009A002111707CBD00006B4900081D
:1040A0000907090E002804DB00F1E02080F8001465
:1040B000704700F00F0000F1E02080F8141D7047F9
:1040C00002E008C8121F08C1002AFAD170477047E1
:1040D000002001E001C1121F002AFBD1704700003F
:1040E0002DE9FF5F82B00021DDE90430020DDDF82B
:1040F00040B0034318D044F61050A2F2FF324243BE
:104100001514119801281FD0A5EB0B00401C5FEA85
:10411000000A4FF000064E4FDFF83891B046504687
:1041200015D5CAF1000413E0119801244AA301280F
:1041300001D16FEA0B010298119AC0E90031C0E980
:10414000024206B0BDE8F09FCBF10000DFE7044675
:104150000021404A491842EB0450CDE9001012E01A
:10416000E00707D032463B4640464946FCF772F925
:104170008046894632463B4610461946FCF76AF9A6
:1041800006460F466410002CEAD1DDE90401DDE9A2
:104190000023BAF1000F06DAFCF75CF942464B4601
:1041A000FCF758F905E0FCF7C7F942464B46FCF727
:1041B000C3F904460E460022284BFCF745FA03D803
:1041C0004FF0FF30014607E00022254B20463146E4
:1041D000FCF799F8FCF71FFA102409E0002C0ADB21
:1041E0000A220023FCF75EF8039B30321A55641E46
:1041F00050EA0102F2D1641C039AC4F11103144481
:10420000119A012A03D0012208430DD10AE0084384
:1042100004D000204FF0110B119072E7A3EB0B05B7
:104220006D1E0DE05B4504DD4FF0000205F1010558
:1042300004E003DA4FF00002A5F10105002AECD0FA
:1042400002981199C0E90231C0E9004579E7000000
:10425000000014400000F03F300000000000F04378
:104260000000E03F2DE9FF4F95B09A46884606468C
:104270000025EEE1252877D100242746F94A0121BF
:10428000039400E0044316F8013F203B01FA03F0D9
:104290001042F7D130782A2811D06FF02F033078F0
:1042A000A0F13002092A16D8039A44F0020402EB66
:1042B000820203EB42021044761C0390EFE758F8A9
:1042C000042B0392002A03DA504244F40054039072
:1042D00044F00204761C30782E2816D116F8010F0F
:1042E00044F004042A280DD06FF02F023078A0F19A
:1042F0003003092B09D807EB870302EB4303C718E8
:10430000761CF3E758F8047B761C30786C280FD0C5
:1043100006DC4C2817D068280DD06A2814D104E098
:10432000742810D07A280FD10DE044F400140AE06C
:1043300044F4801401E044F440147278824202D1C3
:1043400004F58014761C761C307866280BD013DCBC
:10435000582877D009DC002875D04528F6D04628A3
:10436000F4D047281AD193E118E0632835D06428A7
:1043700079D0652812D18BE1702873D008DC6728CA
:10438000F1D069286FD06E280DD06F2806D1ACE02F
:1043900073282CD0752874D0782853D0524617999A
:1043A00090476D1C54E1C4F30250022809D0032841
:1043B0000DD0D8F8001004280DD00D6008F10408C5
:1043C00046E1D8F80010EA17C1E90052F6E7D8F83C
:1043D00000100D80F2E70D70F0E718F8041B8DF85F
:1043E000001000208DF80100EB46012003E058F892
:1043F00004BB4FF0FF3061074FF0000102D40DE025
:1044000009F101018946B9420FDA8145F8DB1BF851
:1044100009100029F4D108E009F10101894681421F
:10442000FADB1BF809100029F6D103985346A0EBDC
:10443000090721463846179A00F080FA284400EB15
:10444000090507E044E008E10DE01BF8010B5246C6
:1044500017999047B9F10109F7D2534621463846DA
:10446000179AF2E039E00A21C4F302524FF0000B30
:104470000091022A06D058F8040BC117032A09D06C
:104480000AE023E008F1070020F00702F2E8020149
:10449000904605E000B2C117042A01D140B2C1170D
:1044A000002906DA0A460021404261EB02012D2272
:1044B00002E0220504D52B228DF80420012203E01E
:1044C000E20701D02022F7E7914657E00A2100E0F9
:1044D00010214FF0000B00910BE010214FF0000B6A
:1044E00044F004040827009103E008204FF0000B7B
:1044F0000090C4F30252022A05D058F8040B0021A0
:10450000032A08D008E008F1070020F00702F2E8CB
:104510000201904603E080B2042A00D1C0B24FF0FD
:10452000000922072AD53278702A07D0DDF800C0AA
:104530008CF0100C5CEA0B0C05D00EE040228DF8DC
:104540000420012208E050EA010306D030238DF850
:1045500004308DF8052002229146009B83F0080369
:1045600053EA0B030AD150EA010201D1620705D5D3
:1045700030228DF804204FF001097F1E3278582A2E
:1045800004D039A20C920CAA02920BE03BA2F9E7EC
:104590005B46009AFBF786FE0C9B9B5C029A521EC0
:1045A0000292137050EA0102F2D1029804A9081A8B
:1045B00000F1200B600702D524F4803400E00127CD
:1045C0005F4502DDA7EB0B0000E0002000EB0B01D4
:1045D000009003984944401A0390E00306D45346E0
:1045E0002146179A039800F0A9F90544002706E030
:1045F00001A85246C05D179990476D1C7F1C4F451E
:10460000F6DBE0030CD553462146179A039800F0D9
:1046100095F9054404E030205246179990476D1CE7
:104620000099481E00900029F5DC08E002980299E4
:1046300052460078491C0291179990476D1CBBF1B6
:104640000001ABF1010BF1DC5BE100F065F9054421
:10465000761C307800287FF40DAE19B02846BDE8EE
:10466000F08F0000092801003031323334353637FD
:1046700038396162636465660000000030313233AE
:10468000343536373839414243444546000000004E
:10469000600700D4062708F1070020F00700F0E8C3
:1046A0000223804603F0004C5FEA0C0001D097A083
:1046B00009E0200501D596A005E0E00701D095A00E
:1046C00001E0AFF24C001390307823F000436528EE
:1046D0000CD006DC452809D046281DD047287FD1BC
:1046E0003BE0662818D067287AD136E00021112FE8
:1046F00001DB112000E0781CCDE9000104A90CA821
:10470000FFF7EEFCDDE90D010C9A4FF0000B07F10D
:104710000109109200914EE04FF000400097CDE962
:10472000011004A90CA8FFF7DBFCDDE90D020C9BCE
:104730000F994FF0000B91461093009211B9791C1C
:1047400000EB0109B7EB090003D4C0F1FF3B07F10F
:104750000109A9EB0700019042E0012F00DA0127CF
:104760000021112F01DD112000E03846CDE90001C4
:1047700004A90CA8FFF7B4FCDDE90D010C9A009127
:104780004FF0000BB946109221070FD4009A4A450A
:1047900003DA914601E0A9F10109B9F1010F05DD44
:1047A000109AA9F10101515C3029F4D0B84202DA23
:1047B00010F1040F03DA0121CDE9011010E0002807
:1047C00003DC8344A9EB000102E0411C494500DD04
:1047D0008946A0EB0B00401C01904FF00040029076
:1047E000200705D40198484502DB4FF0FF300190C7
:1047F00000208DF84B0002980DF14B07B0F1004FEF
:1048000025D002200C902B200D90029800280CDA65
:10481000404202902D200D9007E00A210298FBF7FC
:104820002BFD3031029007F8011D0C99481E0C90A9
:104830000029F2DC02980028EFD1791E0D9808704B
:10484000307800F0200040F0450007F8020D11A874
:10485000C01BC01D02901398007800B1012000EB2E
:104860000901019801EBE071029801440398401A94
:10487000401E0390E00306D453462146179A03983E
:1048800000F05CF805441398007818B15246179967
:1048900090476D1CE00323D553462146179A039891
:1048A00000F04CF805441BE0BBF1000F07DB00985B
:1048B000584504DD1098179910F80B0001E017997E
:1048C00030205246904701980BF1010B401E05F134
:1048D0000105019004D12E205246179990476D1C76
:1048E000B9F10001A9F10109DEDC05E017F8010BBF
:1048F0005246179990476D1C0299481E0290002954
:10490000F4DC53462146179A03989EE62D000000DA
:104910002B000000200000002DE9F0410446002596
:104920001E461746880404D405E039462020B047C7
:104930006D1C641EF9D52846BDE8F0812DE9F041D3
:10494000044600251E469046C80301D5302700E0E6
:104950002027880404D505E041463846B0476D1C41
:10496000641EF9D52846BDE8F0814A68002A06D0C1
:104970000A68531C0B6010704868401E48607047FE
:1049800003681BB102730160002070474FF0FF30D5
:1049900070470271016070471CB500F06BFF03287F
:1049A00016D01A49042827D0052810D1A1F1860075
:1049B0000122891C00F032FF15A14FF4AD70CDE942
:1049C0000001154B15A21DA1032000F00FFB1CBD1B
:1049D0001EA14FF4A570CDE900010F4B0FA217A146
:1049E000032000F003FB02B00849BDE8104001229B
:1049F000A1F1860000F012BF044801228638491C4C
:104A000000F00CFF13A14FF4AA70D8E7DA090020D8
:104A1000B3A4B0B400000000E37400082E2E5C4183
:104A200070706C69636174696F6E735C62757474C5
:104A30006F6E5F6D6F746F722E63000042757474D9
:104A40006F6E5F6D6F74746F72000000B5A5BBF779
:104A500000000000CBABBBF70000000010B500F079
:104A600009FF0D4903280BD004280ED0052811D1C9
:104A70000122A1F18600491DBDE8104000F0CEBE24
:104A8000054801228638C91CF6E70348012286380A
:104A9000091DF1E710BD0000DA09002010B500F093
:104AA000E9FE0D4903280BD004280ED0052811D1AA
:104AB00001220831A1F18E00BDE8104000F0AEBE29
:104AC000054801228638891DF6E703480122863809
:104AD000C91DF1E710BD0000DA09002010B500F093
:104AE000C9FE03280BD004280FD0052813D10A498A
:104AF0000122A1F19100BDE8104000F08FBE0649EF
:104B00000122891EA1F18F00F5E703490122491E08
:104B1000A1F19000EFE710BDE509002010B500F00D
:104B2000A9FE03280BD004280FD0052813D10A4969
:104B30000122A1F19400BDE8104000F06FBE0649CB
:104B40000122891EA1F19200F5E703490122491EC5
:104B5000A1F19300EFE710BDE809002010B500F0C7
:104B600089FE03280BD004280FD0052813D10A4949
:104B70000122A1F19700BDE8104000F04FBE0649A8
:104B80000122891EA1F19500F5E703490122491E82
:104B9000A1F19600EFE710BDEB09002000EB8100CA
:104BA000C260704770B504460079A1688847E17813
:104BB0004A0702D02288521C2280B0EBD11F0CD0B1
:104BC0004FF0005202EBB1114FEAB161C1F3C202E2
:104BD000E170032A04D360F3C71121F03800E070BC
:104BE000E078002500F00701062972D2DFE801F025
:104BF000031D3D7BB199C0F38011B1EBD01FA078AC
:104C000020F0F0000ED1A070E16809B1204688477D
:104C10002580A07820F00F00401CA070E0787CE098
:104C2000E07070BD8030A07070BDC0F38011B1EB3A
:104C3000D01F09D0A07820F0F0001030A0702169BA
:104C4000A9B3204688475FE02088C828ECD9A0781F
:104C500020F0F0005030A070216A09B1204688474A
:104C6000E07820F00700401DDAE7C0F38011B1EBD7
:104C7000D01F1DD1A07820F0F000A070E16809B12C
:104C800020468847A078C143090706D04FF08051DD
:104C900001EB30104FEA3070A070616909B1204615
:104CA00088472580E07820F00700C01CB8E72BE09B
:104CB00020883C28B8D9A07800F00F01012902D043
:104CC000022907D044E020F0F0003030A070A16944
:104CD00005E03EE020F0F0004030A070E16991B3C3
:104CE0002046884734E0C0F38011B1EBD01F11D0CB
:104CF000A07820F0F0001030A070216909B12046A2
:104D0000884720883C2823D22580E07820F00700BF
:104D1000801C85E721883C2986D920F00700401CAB
:104D20007EE7C0F38011B1EBD01FA07820F0F00037
:104D30000AD16030A070616A00293FF475AF204647
:104D4000BDE87040084703E01030A0702169C6E755
:104D5000E07820F0070063E770B50E46154604467C
:104D60002C21FBF756FAA07820F0F0008030A070DC
:104D7000A660E07835B120F0800000BF65F38610B2
:104D8000E07070BD40F08000F8E70000074A11684D
:104D90000B4605E0814202D14FF0FF307047896A2F
:104DA0000029F7D183621060002070473000002096
:104DB00008B502F031F9009000F006F805216846C8
:104DC00001F060FBF8E70000054810B5046803E057
:104DD0002046FFF7E7FEA46A002CF9D110BD0000C1
:104DE0003000002008B5184C00200090206800F02A
:104DF00007FF164D286800F003FF154E0022694694
:104E0000306801F00BFF012819D10098012804D067
:104E1000022809D0032812D10BE0206800F0F0FE30
:104E2000286800F0EDFE0AE0286800F0E9FE20683E
:104E300003E0206800F0E4FE286800F0C7FE1420BC
:104E400001F0FAFADAE700000C0000201000002060
:104E50001400002010B500F095F8FF21002000F0AC
:104E60008BFB1721012000F087FB1721022000F0A7
:104E700083FB1721032000F07FFBAF21042000F00B
:104E80007BFBFF21052000F077FB012000F0D0FB29
:104E9000BDE8104000F0D2BBF0B585B0070007D1E7
:104EA0001E484FF4F072036893B11D491DA0984746
:104EB000214D0024052695F8F000C0B100F060FAFD
:104EC00004EB4410411991F85100012812D017E069
:104ED0001348CDE90302009212A118A3CDE90131D4
:104EE00003461FA225A1002000F080F8FEE705B0D0
:104EF0003046F0BD1E2238463231FBF7AEF930B1F4
:104F0000641CE4B2052CDBD300F060FAEFE704EB9D
:104F10004410284490F83160F6E70000A400002017
:104F20008675000874616720213D202828766F6906
:104F300064202A2930290000D02300202825732945
:104F40002068617320617373657274206661696C97
:104F500065642061742025733A256C642E0000007E
:104F60002E2E5C656173796C6F676765725C737216
:104F7000635C656C6F672E6300000000656C6F6793
:104F8000000000002DE9F041174D002095F8F010C9
:104F9000012927D000F05CFA060023D1012000F09F
:104FA000FFF9002785F8F37085F8F470012085F883
:104FB000F500052000F088FA0024B84604EB441000
:104FC000471907F132001F21FBF723F9641C87F80A
:104FD0003180E4B287F85180052CEFD3012085F8A9
:104FE000F0003046BDE8F081D02300200FB42DE959
:104FF000F04F06468BB08B460846FBF727F9002496
:105000000A940746A14609940594069407940894C7
:10501000052E08D9B24840F23E220368002B7DD00D
:10502000B049B1A09847B74D95F8F100002876D067
:105030002878B04273D35846FFF72EFFB0426ED3A4
:10504000691C5846FBF7F0F8002868D00DF1680A93
:1050500000F096F9A84695F8F500A5F5807570B1B1
:105060002946A9A2204600F02DFB04469C48291998
:105070001C3050F82620204600F024FB0444012177
:10508000304600F0FBFB40B195482919001D50F84F
:105090002620204600F016FB04440221304600F092
:1050A000EDFBC8B129195A46204600F00BFB044419
:1050B0000F2F0BD8C7F10F01202205A8FBF7A2F88C
:1050C000291905AA204600F0FDFA044429198FA2E7
:1050D000204600F0F7FA04441C21304600F0CEFBD5
:1050E00000284BD029198AA2204600F0EBFA04448C
:1050F0000421304600F0C2FBA8B100F08BF9024653
:105100002919204600F0DEFA04441821304600F048
:10511000B5FB40B129197DA2204601E035E0DAE077
:1051200000F0D0FA04440821304600F0A7FB90B10B
:1051300000F05CF902462919204600F0C3FA044445
:105140001021304600F09AFB28B129196FA22046A1
:1051500000F0B8FA04441021304600F08FFB38B15B
:1051600000F048F902462919204600F0ABFA044441
:10517000291968A2204600F0A5FA044420213046EF
:10518000169A00F0DBFBE0B90EE05648CDE90302C9
:10519000009255A160A3CDE90131034667A26EA13B
:1051A0000020FFF723FFFEE740213046179A00F06A
:1051B000C5FB30B980213046189A00F0C8FB0028A2
:1051C00056D0291966A2204600F07CFA044420211A
:1051D0003046169A00F0B2FBD0B129192046169A33
:1051E00000F070FA044440213046179A00F0A6FB04
:1051F00010B129195BA207E080213046189A00F00F
:10520000A6FB28B1291941A2204600F05BFA04440C
:1052100080213046189A00F09AFBB8B152A20521BD
:1052200009A8189BFEF708FF291909AA204600F0D3
:1052300049FA044440213046179A00F07FFB28B118
:10524000291932A2204600F03DFA0444402130469C
:10525000179A00F073FB28B129192046179A00F01D
:1052600031FA0444291941A2204600F02BFA0444E3
:10527000C4F5807128195346199AFEF7F7FE0444C5
:105280004FF48072944204D8002802DBA01D9042A3
:1052900000D9FA2498F82000464640B1194905F88B
:1052A00004902031A1F59070FAF7BEFF88B196F80E
:1052B000F50028B129192EA2204600F003FA044473
:1052C00029192DA2204600F0FDF901192B4800F004
:1052D000DBF800F07BF80BB0BDE8F00F5DF814FBD5
:1052E000A40000209E7500086C6576656C203C3D2E
:1052F00020454C4F475F4C564C5F564552424F53EA
:1053000045000000D02300201B5B000020000000AF
:105310005B0000005D200000282573292068617370
:1053200020617373657274206661696C65642061C5
:10533000742025733A256C642E0000002E2E5C65C7
:105340006173796C6F676765725C7372635C656CBF
:105350006F672E6300000000656C6F67000000003F
:10536000280000003A000000256C640029000000BD
:105370001B5B306D000000000D0A0000D0220020F1
:1053800070B5064C012594F8F20020B100F084F8C5
:1053900084F8F45070BD84F8F35070BDD023002021
:1053A0000949002881F8F2000DD0074891F8F4105F
:1053B00090F8F30019B1002805D100F079B8002861
:1053C00001D000F069B87047D023002070B5064CBA
:1053D000002594F8F20020B100F06AF884F8F45047
:1053E00070BD84F8F35070BDD023002000A070473A
:1053F0000000000010B501F001FE012805D001F009
:10540000F7FDBDE8104000F001BC01A010BD000098
:105410000000000008B501F0F1FD01280FD001F0F7
:10542000FBFD4FF47A72B0FBF2F1B0FBF2F302FB3A
:105430001101009103A210210448FEF7FDFD03486D
:1054400008BD000025642E252E336400C8240020EA
:1054500010B50024012001F02DFA0449086018B9A4
:1054600003A0FEF7D9FD0124204610BDD80000207E
:10547000656C6F672073656D20637265617465206C
:105480006661696C0D0A0000024601A0FEF7C4BD0A
:10549000252E2A732000000004480068002803D04D
:1054A0004FF0FF3101F056BC70470000D8000020DB
:1054B00004480068002804D000231A46194601F069
:1054C0009DBA7047D800002010B586B00446052864
:1054D00007D90D484FF4AD72036833B10B490CA0E6
:1054E00098471248047006B010BD0848CDE9030281
:1054F000009207A10EA3CDE90131034615A21CA11C
:105500000020FFF773FDFEE7A40000205A75000895
:105510006C6576656C203C3D20454C4F475F4C5692
:105520004C5F564552424F5345000000D0230020A7
:105530002825732920686173206173736572742054
:105540006661696C65642061742025733A256C641A
:105550002E0000002E2E5C656173796C6F676765A5
:10556000725C7372635C656C6F672E630000000091
:10557000656C6F670000000030B585B00D460446CD
:10558000052807D90E484FF4A07203684BB10D49A6
:105590000DA09847134800EB8400C0F8D85005B020
:1055A00030BD0848CDE90302009207A10EA3CDE962
:1055B0000131034615A21CA10020FFF717FDFEE7ED
:1055C000A40000203D7500086C6576656C203C3DAC
:1055D00020454C4F475F4C564C5F564552424F5307
:1055E00045000000D023002028257329206861731E
:1055F00020617373657274206661696C65642061F3
:10560000742025733A256C642E0000002E2E5C65F4
:105610006173796C6F676765725C7372635C656CEC
:105620006F672E6300000000656C6F67000000006C
:10563000014981F8F5007047D02300200EB50A48D3
:1056400090F8F01000290DD0012180F8F11007A288
:1056500008A1F6208DE80700104B11A217A1032026
:10566000FFF7C4FC0EBD0000D0230020322E322EE6
:1056700039390000456173794C6F67676572205650
:10568000257320697320696E697469616C697A6534
:1056900020737563636573732E000000F474000853
:1056A0002E2E5C656173796C6F676765725C7372CF
:1056B000635C656C6F672E6300000000656C6F674C
:1056C000000000002DE9F043DFF88C90DFF88C80BB
:1056D00085B00D0006461446174606D1D8F80030AE
:1056E0002BB12C2249461EA098477CB12CE01CA26D
:1056F00002922C20CDE903901AA3CDE90003164BAA
:1057000021A229A10020FFF771FCFEE7D8F80030A4
:1057100023B12D22104926A0984715E024A2029219
:105720002D20CDE903900FA3CDE900030A4B16A26B
:105730001DA10020FFF75AFCFEE73146761CFF2929
:1057400005D805F8010B641C20780028F5D105B0B8
:10575000E01BBDE8F0830000D6750008A40000201F
:105760006473740028257329206861732061737342
:10577000657274206661696C6564206174202573AC
:105780003A256C642E0000002E2E5C656173796CE6
:105790006F676765725C7372635C656C6F675F757A
:1057A00074696C732E630000656C6F670000000005
:1057B0007372630013B500F09DFD4FF6FF73012275
:1057C00069460348FDF7DAF800F0B4FD00981CBD07
:1057D0001C05002070B50D46044603220B490C48F9
:1057E000FFF7D7F85A202070A5216170A070E570EE
:1057F000D02084F88500064806490068FEF772FB51
:10580000BDE8704004490248FEF734BA1C05002088
:1058100034000020241000201000001070B50C4649
:105820000646154640211148FAF7F3FC0F4B307835
:105830000521187070785870B0789870F078D8702A
:105840001D7108466A1D03E0451A655D1D54401C24
:105850008242F9DCD0209854BDE87040921C92B28C
:10586000032302490248FEF72BBB0000E40F00208F
:1058700034000020807800097047000030B585B002
:105880000D460446052807D9104840F2DF22036878
:1058900063B10F490FA09847154800EB8400D0F87A
:1058A000D800284000D0012005B030BD0848CDE91F
:1058B0000302009207A10FA3CDE90131034616A20E
:1058C0001CA10020FFF792FBFEE70000A4000020CF
:1058D000AA7500086C6576656C203C3D20454C4FF0
:1058E000475F4C564C5F564552424F5345000000AF
:1058F000D0230020282573292068617320617373E9
:10590000657274206661696C65642061742025731A
:105910003A256C642E0000002E2E5C656173796C54
:105920006F676765725C7372635C656C6F672E632B
:1059300000000000656C6F670000000010B522B128
:10594000FFF79CFF08B1012010BD002010BD10B56D
:1059500022B1FFF793FF08B1012010BD002010BD58
:10596000EFF30580002800D0012070471CB50A4DD8
:10597000E0264FF4804409A0CDE900600A4B0BA259
:1059800012A10320FFF732FB21462846FBF781FADC
:10599000C82000F051FDEEE7001001406C65643254
:1059A0005F72756E00000000BE7400082E2E5C4110
:1059B00070706C69636174696F6E735C6275747426
:1059C0006F6E5F6D6F746F722E630000427574743A
:1059D0006F6E5F6D6F74746F720000001CB5094CC0
:1059E000EC2502212046FBF754FA07A0CDE9005030
:1059F000084B09A210A10320FFF7F8FAC82000F015
:105A00001BFDEEE7000C01406C6564335F72756E40
:105A100000000000C87400082E2E5C4170706C6994
:105A2000636174696F6E735C627574746F6E5F6DC1
:105A30006F746F722E630000427574746F6E5F6DC9
:105A40006F74746F720000001CB5FBF71BFDFDF74F
:105A500067FEFDF7DBFBFDF771FBFDF74DFCFDF786
:105A60006BFCFDF789FCFDF7A7FCFDF7C5FCFDF716
:105A7000F7FCFDF741FDFDF75BFDFDF775FDFDF75B
:105A80004BFBFFF7E7F91CA19520CDE900011F4B67
:105A90001FA224A10020FFF7A9FA17A19620CDE9A3
:105AA00000011A4B1AA21FA10120FFF79FFA12A1B1
:105AB0009720CDE90001154B15A21AA10220FFF78E
:105AC00095FA0DA19820CDE90001104B10A215A167
:105AD0000320FFF78BFA08A19920CDE900010B4BB9
