:020000040800F2
:10000000A03400209D0100083B430008DB340008B9
:100010003943000873090008CD4E000800000000B5
:1000200000000000000000000000000005010008C2
:10003000A30A00080000000049010008F14600087A
:10004000B7010008B7010008B7010008B7010008B0
:10005000B7010008B7010008B7010008B7010008A0
:10006000B7010008B7010008B7010008B701000890
:10007000B7010008B7010008490A0008550A00083E
:10008000610A00086D0A0008B7010008B7010008FE
:10009000B7010008B7010008B7010008B701000860
:1000A000B70100087D470008B7010008B701000844
:1000B0008947000895470008B7010008B701000804
:1000C000B7010008B7010008B7010008B701000830
:1000D000B7010008514E00086D4E0008B701000836
:1000E000B7010008B7010008B7010008DFF810D019
:1000F00000F084FB00480047F5690008AFF300807A
:10010000A0340020224B19680868B0E8F00F80F393
:100110000988BFF36F8F4FF0000080F311884EF015
:100120000D0E70470000000006480068006880F36C
:10013000088862B661B6BFF34F8FBFF36F8F00DFE1
:1001400000BF00BF08ED00E0EFF30980BFF36F8F41
:100150000F4B1A6820E9F00F106008B54FF05000FF
:1001600080F31188BFF34F8FBFF36F8F08F08EFCC1
:100170004FF0000080F31188BDE808401968086856
:10018000B0E8F00F80F30988BFF36F8F704700BFAE
:100190002C090020EFF305807047000006488047D7
:1001A00006480047FEE7FEE7FEE7FEE7FEE7FEE75C
:1001B000FEE7FEE7FEE7FEE77B470008ED000008EC
:1001C000202A04DB203A21FA02F00021704721FAAC
:1001D00002F3D040C2F12002914008431946704713
:1001E00040EA01039B0703D009E008C9121F08C0B9
:1001F000042AFAD203E011F8013B00F8013B521E39
:10020000F9D27047D2B201E000F8012B491EFBD2AF
:1002100070470022F6E710B513460A460446194611
:10022000FFF7F0FF204610BD30B505462A460B46C5
:1002300012F8010B13F8014B08B1A042F8D01CB121
:10024000002802D06D1CF1E7284630BD421C10F892
:10025000011B0029FBD1801A704710B5002200E075
:10026000521C835C8C5CA34201D1002BF8D1D8B224
:10027000E1B2401A10BD30B505460020034600E04B
:100280005B1C934205D2EC5CC85C201A01D1002CA7
:10029000F6D130BD80EA010210B502F00043400003
:1002A00022D04A001FD0010E01EB1261C0F35600AC
:1002B000C2F3560240F4000042F40002A0FB022008
:1002C00000047F39140400D0401C50EA124001D4CD
:1002D0004000491EC2B20C0604EBD010401C40087E
:1002E000802A02D003E0002010BD20F00100002988
:1002F00000DA0020184310BD30B480EA010202F099
:10030000004530F0004221F0004013D090B1C30D01
:10031000D40DC2F31601C0F31600E41A41F4000133
:1003200040F400027D34914201D3641C00E0490096
:10033000002C02DA30BC002070474FF4000000238C
:10034000914201D3891A034340084FEA4101F7D192
:1003500051B1914202D14FF0004105E002D24FF07D
:10036000010101E06FF0010103EBC450284430BCEF
:1003700000F055B8C10F80EAE0700844CA07962320
:10038000002100F055B896230022114600F050B825
:1003900030B50B46014600202022012409E021FA55
:1003A00002F59D4205D303FA02F5491B04FA02F552
:1003B0002844151EA2F10102F1DC30BD2DE9F05FE9
:1003C0000546002092469B468846064681464024C4
:1003D0001BE02846414647462246FFF7F1FE5346BA
:1003E0005A46C01A914110D311461846224600F0D1
:1003F00017FA2D1A67EB01084F462246012000210B
:1004000000F00EFA17EB00094E41201EA4F1010482
:10041000DFDC484631462A464346BDE8F09F0029C6
:10042000A8BF7047401C490008BF20F0010070477A
:1004300010B4B0FA80FC00FA0CF050EA010404BFDA
:1004400010BC704749B1CCF1200421FA04F411FA30
:100450000CF118BF012121430843A3EB0C01CB1D74
:100460004FEA00614FEA102042BF002010BC7047E5
:1004700000EBC35010440029A4BF10BC7047401CBF
:10048000490008BF20F0010010BC70472DE9FE4F65
:10049000804681EA0300C00F0C46009021F0004125
:1004A00023F00045B8EB0200A94105D240462146A1
:1004B00090461C460B46024623F00040104347D0AE
:1004C000270DC7F30A00C3F30A510290401A0190A6
:1004D00040286BDAC3F3130040F4801B0098924667
:1004E00020B10023D2EB030A63EB0B0B01985946B2
:1004F000C0F14002504600F093F906460D465046C2
:100500005946019A00F09BF910EB08006141002464
:1005100087EA115284EAE7731A4340D0009A62B323
:10052000019A012A4FEA075215DC001B61EB020118
:100530004FF0004202EA0752CDE90042001C41F5AB
:10054000801132462B4600F09BF903B0BDE8F08FD6
:1005500040462146F9E7001B61EB0201001C41F512
:10056000801300185B412018A2F5001747EB030128
:1005700040EAD570B6196D4111E06D084FEA3606B4
:1005800045EAC0754FEA0752001B61EB0201001CEF
:1005900041F5801149084FEA3000001951413246B7
:1005A0002B4603B0BDE8F04F00F05BB90098012284
:1005B00040000023D0EB020263EBE0730098214679
:1005C0004FEAE074B8EB000061EB0401E9E783F067
:1005D00000435BE781F0004158E72DE9FE4F81EAD7
:1005E000030404F0004421F0004100944FF0000B9C
:1005F00023F0004350EA01045ED052EA03045BD0CA
:10060000C3F30A54C1F30A552C44A4F2F334019401
:10061000A0FB0254C1F3130141F48011C3F313038F
:1006200043F4801301FB024400FB034E840A970A43
:1006300044EA815447EA8357A4FB076802958D0A70
:1006400005FB07854FEA932C04FB0C542705029DFC
:100650004FEA065847EA1637B5EB08056EEB070C6C
:10066000870E920E47EA811742EA8312A7FB020126
:10067000B6EB0B0164EB00042B0D43EA0C335E1860
:1006800044EB1C50DA465146E7FB0201C5F3130464
:100690004FEA0B3343EA14534FEA0432019C43EA16
:1006A0000603A4F10C040294009CCDE900B400F010
:1006B000E7F803B0BDE8F08F00200146F9E72DE927
:1006C000F04D81EA030404F0004B21F0004514468C
:1006D0004FF0000A23F0004150EA050220D054EA0E
:1006E00001021DD0C5F30A570246C5F31303C1F337
:1006F0001300C1F30A5640F4801543F48013A7EBAE
:100700000608101BD64608F2FD3873EB050002D32D
:1007100008F1010801E092185B41B8F1000F03DA1B
:1007200000200146BDE8F08D00204FF48011064600
:1007300084460EE0171B73EB050705D3121B63EB12
:10074000050306434CEA010C49084FEA30009218B1
:100750005B4150EA0107EDD152EA030012D082EA70
:10076000040083EA0501084305D0101BAB4106D203
:100770000122002306E000224FF0004302E06FF068
:10078000010253101AEB06004CEB085110EB0A0063
:1007900041EB0B01BDE8F04D00F063B8C1F30A5224
:1007A000C1F3130140F2FF3341F480119A4202DA9F
:1007B00000200146704740F233439A42A2F233428E
:1007C00002DC5242FFF7FCBC00F02AB830B5041E30
:1007D00071F1000404DB4FF00044404264EB01017E
:1007E000141E73F1000405DB1C464FF00043524217
:1007F00063EB0403994208BF904230BD064C074D9D
:1008000006E0E06840F0010394E8070098471034E0
:10081000AC42F6D3FFF76EFC249D0008449D00080F
:10082000202A04DB203A00FA02F1002070479140B0
:10083000C2F1200320FA03F3194390407047202AA5
:1008400006DBCB17203A41FA02F043EAE07306E0F8
:1008500041FA02F3D040C2F1200291400843194608
:10086000704710B5141E73F1000408DA401C41F102
:10087000000192185B411A4301D120F0010010BD24
:100880002DE9F04D92469B4611B1B1FA81F202E09A
:10089000B0FA80F220329046FFF7C2FF04460F46BE
:1008A00040EA0A0041EA0B0153465A46084313D076
:1008B000114653EA010019D0C8F140025046FFF733
:1008C0007FFC05460E46504659464246FFF7A8FFB4
:1008D000084305D0012004E020463946BDE8F08DEC
:1008E0000020054346EAE0762C4337430A98630527
:1008F000E40AA0EB08000022FD0A44EA47540A304B
:1009000002D500200146E9E7010510196941DDE93A
:10091000084500196941BDE8F04DA2E770B58C1893
:1009200010F8015B15F0070301D110F8013B2A1103
:1009300006D110F8012B03E010F8016B01F8016BF0
:100940005B1EF9D12B0705D40023521E0DD401F8EC
:10095000013BFAE710F8013BCB1A921C03E013F8B5
:10096000015B01F8015B521EF9D5A142D8D30020EA
:1009700070BDFEE71E4910B5C822A1F1100003F0BA
:1009800067FE1B4811212438017012214170132188
:1009900081701421C1701521017116214171172137
:1009A00081711821C1711921017220214172212107
:1009B00081722221C17223210173242141732521D7
:1009C00081732621C173272101742821417403F00A
:1009D000A5F903F0CDFC00F02DF805488221B038D0
:1009E00005F0B0FE05F0F2F9BDE8104003F04ABE94
:1009F0000811002070B50A49B1FBF0F4C4F34F05AB
:100A0000084802F0FAF80021064802F025F90548E6
:100A1000641E0168CC62C4600068856370BD00001C
:100A200080841E00E00D00200021014802F062B920
:100A3000E00D002010B54FF4FA60FFF7DBFFBDE8D2
:100A40001040FFF7F1BF0000014800F0C3B80000FC
:100A5000440F0020014800F0BDB80000000F002046
:100A6000014800F0B7B80000880F0020014800F0EE
:100A7000B1B80000CC0F002030B590F840500124F0
:100A8000AC40C56B6C60046863604368102B0368FE
:100A900003D099600068C26030BD9A600068C16090
:100AA00030BD704772B6FEE710B5040002D0607921
:100AB00010B106E0012010BD00202071204600F09A
:100AC00005F801206071002010BD000008B5006825
:100AD0000649884208D10648416941F04001416118
:100AE000406900F04000009008BD00000030024066
:100AF0000010024010B590F821100022022905D004
:100B00000421816380F82020012010BD01680B685A
:100B100023F00E030B6001680B6823F001030B60E8
:100B200090F84030C46B012101FA03F3636080F850
:100B3000211080F82020104610BD000010B590F85C
:100B400021100024022903D00421816301243DE007
:100B500001680A6822F00E020A6001680A6822F041
:100B600001020A601A4A0168914201D1012121E083
:100B7000174A1432914201D110211BE0144A283245
:100B8000914201D1891515E0114A3C32914201D1BF
:100B900089140FE00E4A5032914202D14FF4803155
:100BA00008E00B4A6432914202D14FF4801101E017
:100BB0004FF08071064A083A5160012180F82110F7
:100BC000002180F82010416B01B18847204610BDFC
:100BD000080002402DE9F05FC16B0C6801680B68EA
:100BE000D0F840C0042202FA0CF2494DDFF824A1EB
:100BF000494E4A4FDFF828B1DFF828E122422CD0D5
:100C00005A072AD50A68920603D40A6822F0040219
:100C10000A600168A94201D1042219E0514501D1BD
:100C2000402215E0B14202D14FF4806210E0B94297
:100C300002D14FF480420BE0594502D14FF480229B
:100C400006E0714502D14FF4800201E04FF080626E
:100C50002F4908394A60C16A3BE04FF0020808FAA0
:100C60000CF818EA040F4FF000094FF0010235D0DC
:100C70005FEA837832D50B689B0605D40B6823F0B6
:100C80000A030B6080F821200168A94201D10222E9
:100C900019E0514501D1202215E0B14202D14FF4B3
:100CA000007210E0B94202D14FF400520BE05945F6
:100CB00002D14FF4003206E0714502D14FF4001228
:100CC00001E04FF00072124908394A6080F8209024
:100CD000816A00291AD0BDE8F05F0847082505FAA7
:100CE0000CF5254212D01B0710D50B6823F00E031C
:100CF0000B6090F84010C36B02FA01F159608263F7
:100D000080F8212080F82090016BE2E7BDE8F09F99
:100D1000080002401C000240300002404400024033
:100D2000580002406C00024030B528B308C813498F
:100D300014221944B1FBF2F18900C16310498163A7
:100D4000022141771A6843F6F0718A43D0E9001412
:100D50002143D0E902452C432143046921434469DE
:100D60002143846921431143196000214163012219
:100D700042770177084630BD012030BDF8FFFDBF46
:100D80000000024070B5044690F8200000250128BC
:100D90000CD0012084F8200094F821600020012E5E
:100DA00006D084F820000225284670BD022070BDC0
:100DB000022684F82160A0632068066826F00106F8
:100DC00006602046FFF758FEE06A002820680168A8
:100DD00002D041F00E0106E021F00401016020681C
:100DE000016841F00A0101602068016841F00101D9
:100DF0000160D9E72DE9F84FDFF8B8910024A9F197
:100E0000040B23460F2709F1040AABF1040EC9E0D5
:100E10000125A5402A40AA427DD1674ED1F804C0E1
:100E2000ACEB0608B44532D014DCBCF1030F3AD069
:100E300009DCBCF1000F2AD0BCF1010F1CD0BCF1C1
:100E4000020F31D11DE0BCF1110F17D0BCF1120F10
:100E50002AD119E0B8F5881F19D006DCB8F5803F13
:100E600015D0B8F5801F1FD111E0B8F5001F0ED0C6
:100E7000B8F5041F18D10AE0CB6815E0CB681B1D3C
:100E800012E0CB6808330FE0CB680C330CE08B68C2
:100E90002BB1012B4FF0080303D0456104E004237C
:100EA00002E0056100E00023FF2A01D8064601E0C8
:100EB00000F104064FEA840501D9A5F12005D6F812
:100EC000008007FA05FC28EA0C0803FA05F548EA51
:100ED0000508C6F800804D68ED0062D5374DAE6953
:100EE00046F00106AE61AD6924F0030605F0010588
:100EF0000095334D06EB050CDCF80850A607360FBD
:100F000007FA06F825EA0805DFF8B880404503D15E
:100F10004FF0000817E044E0DFF8AC80404502D114
:100F20004FF001080FE0DFF8A480404502D14FF0F8
:100F3000020808E0DFF89880404502D14FF003082E
:100F400001E04FF0040808FA06F848EA0508CCF872
:100F500008804D68D9F80060ED024D4601D5164372
:100F600000E096432E604D68DAF80060AD02554609
:100F700001D5164300E096432E604D68DBF8006013
:100F8000AD035D4601D5164300E096432E604D68E3
:100F9000DEF80060ED03754601D5164300E0964388
:100FA0002E60641C0D682A46E5407FF431AFBDE831
:100FB000F88F0000080401400000111000100240EA
:100FC0000000014000080140000C014000100140F9
:100FD000001401408068084000D001207047C268BA
:100FE00021EA02030A4043EA0241016170470AB163
:100FF000016170470904FBE7014880687047000001
:10100000380000207047000070B5040025D094F827
:101010003D00002520B984F83C50204600F040FFF8
:10102000242084F83D002068016821F0010101605E
:101030002068016841F4004101602068016821F4E2
:101040000041016001F0FCF84D4A6168914201D80D
:101050004C4900E04C49884201D2012070BD4B4907
:101060002368B0FBF1F15E6826F03F060E435E6038
:101070006368934206D94FF4967359434FF47A73D9
:10108000B1FBF3F12368491C1E6A26F03F06314389
:1010900019626168914210D84900401EB0FBF1F21C
:1010A000521CC2F30B02042A01D2042022E0B0FB3E
:1010B000F1F0401CC0F30B001CE0A268F2B301EB9E
:1010C000C10303EB0116431EB3FBF6F35B1C43F4B1
:1010D00080431B0549D092B301EBC10202EB011121
:1010E000401EB0FBF1F0401CC0F30B0040F4804008
:1010F00040F400402168CA694CF6FF739A431043DC
:10110000C861D4E9071001432068026822F0C002D8
:1011100011430160D4E9030101432068826848F269
:10112000FF339A4311438160D4E9050108432168E4
:10113000CA6822F0FF021043C86001E00EE016E02A
:101140002068016841F0010101602564202084F8D5
:101150003D00256384F83E50002070BD01EB410640
:10116000431EB3FBF6F35B1CB3E70120C2E701EBC0
:101170004101401EB0FBF1F0401CC0F30B00B7E78B
:10118000A086010080841E0000093D0040420F003F
:10119000704700002DE9F84F0025DDF828909846AB
:1011A00017468A4604460095FFF726FF064694F840
:1011B0003D0020287AD11923012286492046009635
:1011C00002F00AFC0028F5D194F83C0001286DD00B
:1011D000012084F83C0020680168C90703D1016838
:1011E00041F0010101602068016821F400610160A3
:1011F000222084F83D00102084F83E0025646762B8
:10120000A4F82A80608D20857348E06233464A4600
:101210005146204602F01EFA00287CD1208DDFF8CE
:10122000BC81202768B1012814D0022820680168F9
:101230001ED041F48061016020684169806900909E
:10124000BBE02068416981690091016841F4007147
:101250000160B2E02068016821F48061016072B62B
:101260002068416981690091016841F400710AE0D8
:1012700041F40061016072B62068416981690091A2
:10128000016821F48061016062B696E0032865D8A8
:1012900001280CD002284B464FF000024146204660
:1012A00000960BD002F098FBA8BB0CE090E0324611
:1012B0004946204602F036FC68BB71E002F08CFB28
:1012C00048BB72B633E02068016821F48061016098
:1012D00072B620680069616A0870606A401C6062CA
:1012E000208D401E2085608D401E60853C4846F262
:1012F000A8110068B0FBF1F0C0EBC00000EB80006B
:101300000090401E009007D020684069C04340070D
:101310000DD50098F5E727E044F8305F6773A573B3
:10132000206940F02000206162B625731CE020682F
:10133000016841F40071016020680069616A087009
:10134000606A401C6062218D491E2185618D491EA5
:10135000618562B621680969017025E03246494617
:10136000204602F0DFFB10B10120BDE8F88F2068B5
:101370000069616A0870606A401C6062208D401ECE
:1013800081B22185608D401E608520684269D2430C
:10139000520712D4032903D1016821F4806101604E
:1013A00020680069616A0870606A401C6062208D74
:1013B000401E2085608D401E6085208D00287FF4B2
:1013C00065AF84F83D7084F83E5084F83C50CCE71B
:1013D0000220CAE7020010000000FFFF0400010025
:1013E000440000202DE9FC4700260A9D0446009693
:1013F0000196894690F83D004FF4E061202830D1F5
:10140000206807685FEA875C4FF0200703D4082D47
:1014100001D0012D26D1DFF8E8C146F2A818DCF88A
:1014200000C0BCFBF8FC0CEBCC0808EB0C1CCDF8A6
:1014300004C000BFBCF1010CCDF804C009D0D0F845
:1014400018C06FEA0C0C5FEA8C7C0BD4DDF804C08A
:10145000F0E744F8306F6773A673206940F020000E
:101460002061CAE094F83CC0BCF1010F7ED04FF07F
:10147000010C84F83CC0D0F800C05FEACC7C05D1F8
:10148000D0F800C04CF0010CC0F800C02068D0F8C3
:1014900000C02CF4006CC0F800C02068D0F804C074
:1014A0002CF4805CC0F804C0222084F83D00102099
:1014B00084F83E00266462626385608D2085E56263
:1014C000C4F84490206B0090208D4FF42A094FF00F
:1014D0002A48002878D0608D022803D1202D0DD015
:1014E000102D0BD02068016841F480610160202D2F
:1014F00015D0454513D0102D11D015E000981228B5
:101500002068016803D041F4806101600CE021F49F
:10151000806101602068016841F400610160206819
:10152000416841F480514160A06B00B3354981624C
:10153000A16B35480863A06BC662A06B4663216847
:10154000238D1031626AA06BFFF71CFCC0B184F8D8
:101550003D7084F83E6054F8400F40F0100000BF2A
:1015600044F8040901202670BDE8FC8745E084F8B2
:101570003D7084F83E6054F8400F40F08000EFE783
:101580000098122803D14D4501D0454507D1206868
:10159000016841F4807101604FF4407001E04FF444
:1015A000807084F83C60042D03D0202D01D0102DD4
:1015B00004D121684A6842F400624A6021684A689E
:1015C00002434A6017E0FFE72068026842F4806245
:1015D00002600098122803D14D4501D0454504D141
:1015E0002068026842F48072026084F83C602068DF
:1015F00042680A4342600020B6E70220B4E70000D8
:101600004400002013350008DD340008FEB5002436
:101610000094089D90F83D704FF4E066202F2FD184
:101620000768D7F800C05FEA8C5C03D4082D01D0AE
:10163000012D26D1DFF810C146F2A81EDCF800C04B
:10164000BCFBFEFC0CEBCC0E0EEB0C1CCDF800C072
:10165000BCF1010CCDF800C009D0D7F818C06FEA72
:101660000C0C5FEA8C7C0CD4DDF800C0F0E740F88D
:10167000304F202141738473016941F020010161E1
:101680005FE090F83CC0BCF1010F5AD04FF0010C64
:1016900080F83CC0D7F800C05FEACC7C05D1D7F811
:1016A00000C04CF0010CC7F800C00768D7F800C0B4
:1016B0002CF4006CC7F800C0222780F83D7010277A
:1016C00080F83E70046442624385428D0285C562A3
:1016D0004164016B0091418D022903D1202D0AD074
:1016E000102D08D001680A6842F480620A600099EF
:1016F000122919D112E00099122901680A6803D051
:1017000042F480620A600FE022F480620A6001689D
:101710000A6842F400620A6026F48066B5F52A0F72
:1017200002D0B5F12A4F04D101680A6842F48072F0
:101730000A6080F83C400068416831434160002005
:10174000FEBD0220FEBD0000440000202DE9F04354
:1017500085B000260446049600960C9D90F83D0046
:10176000202830D1206807685FEA875C4FF02007A7
:1017700003D4082D01D0012D26D1DFF888C146F20F
:10178000A818DCF800C0BCFBF8FC0CEBCC0808EB9C
:101790000C1CCDF800C000BFBCF1010CCDF800C09E
:1017A00009D0D0F818C06FEA0C0C5FEA8C7C0BD41F
:1017B000DDF800C0F0E744F8306F6773A673206966
:1017C00040F0200020619BE094F83CC0BCF1010F88
:1017D00069D04FF0010C84F83CC0D0F800C05FEA3B
:1017E000CC7C05D1D0F800C04CF0010CC0F800C092
:1017F0002068D0F800C02CF4006CC0F800C0212094
:1018000084F83D00102084F83E00266462626385FF
:10181000608D2085E5626164206B0490208D4FF41B
:101820002A084FF02A49E8B3606B00B33649816259
:10183000616B36480863606BC662606B4663226802
:10184000238D1032616A606BFFF79CFAC0B184F897
:101850003D7084F83E6054F8400F40F0100000BF27
:1018600044F804090120267005B0BDE8F08384F82F
:101870003D7084F83E6054F8400F40F08000EFE780
:101880002068016841F4806101600498112803D147
:10189000454501D04D4504D12068016841F480716F
:1018A000016001E012E02BE084F83C60042D03D0DD
:1018B000202D01D0102D04D12068416841F4006131
:1018C00041602068416841F4407116E02068016879
:1018D00041F4806101600498112803D1454501D08D
:1018E0004D4504D12068016841F48071016084F89D
:1018F0003C602068416841F4E06141600020B3E74A
:101900000220B1E74400002013350008DD34000850
:10191000FCB500240094079D90F83D60202E5DD119
:1019200006683768BF0503D4082D01D0012D1DD1ED
:101930002B4F46F2A81C3F68B7FBFCF707EBC70C20
:101940000CEB071700977F1E009705D0B769FF4380
:10195000BF070BD4009FF6E740F8304F20214173BA
:101960008473016941F02001016137E090F83C7017
:10197000012F33D0012780F83C703768FF0703D16F
:10198000376847F0010737600668376827F4006753
:101990003760212680F83D60102680F83E600464A0
:1019A00042624385428D0285C5624164016B0091AC
:1019B000112905D1B5F52A0F02D0B5F12A4F04D16E
:1019C00001680A6842F480720A6080F83C4000684E
:1019D000416841F4E06141600020FCBD0220FCBD93
:1019E000440000202DE9F84F1F4690468A460446E1
:1019F000DDF82890FFF700FB054694F83D0020280D
:101A00007FD11923012240492046009501F0E4FFCF
:101A1000002876D194F83C00012872D0012084F887
:101A20003C0020680168C90703D1016841F0010149
:101A300001602068016821F400610160212084F8C0
:101A40003D00102084F83E0000262664C4F824805F
:101A50006785608D20852D48E0622B464A465146B9
:101A6000204601F06DFE90B92068416980690090C0
:101A700036E02A464946204602F08CF850B1206CE8
:101A8000042804D12068016841F40071016001203C
:101A9000BDE8F88F606A216800780861606A401CC0
:101AA0006062618D491E6185218D491E89B2218543
:101AB00022685369DB435B070BD451B10078106196
:101AC000606A401C6062608D401E6085208D401EF3
:101AD00020852A464946204601F052FF0028CED1F3
:101AE000208D0028C5D154F83D0B016841F40071E8
:101AF0000160202004F81E09E67766770020C7E71A
:101B0000FFE70220C4E70000020010000000FFFF12
:101B1000704700002DE9FF4F83B00025DDE9107903
:101B20009A4693460446DDF848800095FFF764FA2C
:101B3000064694F83D0020287CD1192301228849CB
:101B40002046009601F048FF0028F5D194F83C00AB
:101B500001286FD0012084F83C0020680168C90783
:101B600003D1016841F0010101602068016821F49E
:101B700000610160222084F83D00402084F83E008E
:101B800025646762A4F82A90608D20857548E0621C
:101B9000CDE9008653465A462046049901F01EFEC0
:101BA00000287CD1208DDFF8C091202768B1012862
:101BB00014D00228206801681ED041F480610160C1
:101BC0002068416980690090BCE0206841698169B2
:101BD0000091016841F400710160B3E02068016880
:101BE00021F48061016072B62068416981690091C9
:101BF000016841F400710AE041F40061016072B6CD
:101C00002068416981690091016821F48061016067
:101C100062B697E0032865D801280CD00228434615
:101C20004FF000024946204600960BD001F0D4FE4A
:101C3000A8BB0CE091E032464146204601F072FF1D
:101C400068BB72E001F0C8FE48BB72B633E02068A2
:101C5000016821F48061016072B620680069616AE0
:101C60000870606A401C6062208D401E2085608D77
:101C7000401E60853D4846F2A8110068B0FBF1F0B7
:101C8000C0EBC00000EB80000090401E009007D029
:101C900020684069C04340070DD50098F5E727E06C
:101CA00044F8305F6773A573206940F0200020611D
:101CB00062B625731CE02068016841F40071016080
:101CC00020680069616A0870606A401C6062218D4A
:101CD000491E2185618D491E618562B621680969A9
:101CE000017026E032464146204601F01BFF18B144
:101CF000012007B0BDE8F08F20680069616A0870B4
:101D0000606A401C6062208D401E81B22185608D1A
:101D1000401E608520684269D243520712D40329CD
:101D200003D1016821F48061016020680069616A63
:101D30000870606A401C6062208D401E2085608DA6
:101D4000401E6085208D00287FF464AF84F83D70CC
:101D500084F83E5084F83C50CBE70220C9E70000ED
:101D6000020010000000FFFF0400010044000020FA
:101D70002DE9FF4F83B09A46DDE91197934604465B
:101D8000DDF84080FFF738F9054694F83D0020283B
:101D90007FD11923012240492046009501F01CFE05
:101DA000002876D194F83C00012872D0012084F8F4
:101DB0003C0020680168C90703D1016841F00101B6
:101DC00001602068016821F400610160212084F82D
:101DD0003D00402084F83E0000262664C4F824809C
:101DE000A4F82A90608D20852C48E062CDE900752A
:101DF00053465A462046049901F06EFD70B930E012
:101E00002A463946204601F0C5FE58B1206C042808
:101E100004D12068016841F400710160012007B01D
:101E2000BDE8F08F606A216800780861606A401C34
:101E30006062218D491E89B22185628D521E6285A4
:101E400022685369DB435B070BD469B100781061EA
:101E5000606A401C6062208D401E2085608D401E9F
:101E60006085208D0028CBD12A463946204601F0D6
:101E700087FD0028CAD154F83D0B016841F4007178
:101E80000160202004F81E09E67766770020C6E787
:101E9000FFE70220C3E70000020010000000FFFF80
:101EA00030B585B000210091019102910391214D3F
:101EB0000368214C122103222048AB421DD1A369A3
:101EC00043F00803A361A369039203F0080304939A
:101ED0001302CDE900316946FEF78CFF18484168CE
:101EE00041F0E06141F002014160E06940F400101E
:101EF000E061E06900F4001019E0124DAB4217D127
:101F0000A36943F00803A361A369039203F00803E4
:101F100004934FF44063CDE900316946FEF76AFF50
:101F2000E06940F48000E061E06900F48000049022
:101F300005B030BD0054004000100240000C0140CC
:101F40000000014000580040704770470248816817
:101F5000027811448160704738000020074810B5AE
:101F6000016841F010010160032000F0A1F80F208A
:101F700000F006F800F04AF8002010BD00200240F2
:101F800030B505461C4887B0816941F40061816124
:101F9000806906A900F40060009001A800F030F903
:101FA00000F05EF91549164AB0FBF1F11548491EDB
:101FB0000260416040F2E7320021C0E90321816004
:101FC000816100F0FBFB040012D10E4800F054FCCC
:101FD00004000DD1192000F03DF8102D07D2002289
:101FE0002946192000F044F80748056000E0012464
:101FF00007B0204630BD00000010024040420F00F4
:10200000002C0140101000203C0000200F4808B5B3
:10201000816941F001018161816901F00101009153
:10202000C16941F08051C161C069002200F0805057
:1020300000900F21901E00F01BF80548416821F028
:10204000E06141F00071416008BD000000100240F5
:1020500000000140002809DB00F01F02012191402F
:102060004009800000F1E020C0F800117047000036
:10207000F0B40E4B1B680C46C3F30223C3F10705F3
:10208000042D00D90425191D072901D2002300E0E1
:10209000DB1E012606FA05F1491E214099409E40AB
:1020A000761E16403143F0BC02F0A0BF0CED00E0FC
:1020B000064900F0070208684FF6FF03184040EA9F
:1020C0000220034A10430860704700000CED00E056
:1020D0000000FA052DE9F0470F46050061D0434E98
:1020E000306800F00700B84209D2306820F00700DD
:1020F00038433060306800F00700B84251D128689A
:102100003B4C810712D5400703D5606840F4E0607E
:1021100060602878000703D5606840F46050606014
:102120006068A96820F0F000084360602878C00764
:1021300028D06868012810D02168022810D08907AB
:1021400000292EDA616821F0030101436160FEF786
:1021500053FF804641F288390DE021688903EFE79B
:102160008901EDE7FEF748FFA0EB0801494502D9D8
:102170000320BDE8F0876068696800F00C00B0EBF0
:10218000810FEFD1306800F00700B8420BD93068FA
:1021900020F0070038433060306800F00700B84294
:1021A00001D00120E5E72878400705D56068E96897
:1021B00020F4E060084360602878000706D5606876
:1021C000296920F4605040EAC100606000F058F8CE
:1021D0006168084AC1F30311515CC84006490860B0
:1021E00006480068FFF7CCFE0020C2E7002002404E
:1021F00000100240B6970008440000203C00002078
:102200000F2202600C4A536803F0030343605368D3
:1022100003F0F0038360536803F4E063C360526823
:102220004FF4E06303EAD20202610448006800F060
:1022300007000860704700000010024000200240C4
:102240000448054900684968044AC1F30221515C09
:10225000C84070474400002000100240C6970008A4
:102260000448054900684968044AC1F3C221515C29
:10227000C84070474400002000100240C697000884
:102280000E4A51680E4801F00C03042B11D0082BA4
:102290000FD10C48C1F38343C903C05C0AD5516810
:1022A000084AC1F34041921E515C054A5043B0FBBD
:1022B000F1F07047044948437047000000100240A5
:1022C00000127A00A697000800093D002DE9F84F9A
:1022D000040070D02078C04DC00749D06868C0F3B2
:1022E0008100012807D06868C0F38100022809D165
:1022F0006868C00306D52868800339D5606800285F
:10230000E7D035E06068B0F5803F0BD010B1B0F594
:10231000A02F11D0286820F480302860286820F48D
:10232000802002E0286840F480302860606890B126
:10233000FEF762FE06460AE0286840F48020286026
:10234000F0E700BFFEF758FE801B642873D82868AA
:102350008003F7D50CE0FEF74FFE064605E000BF10
:10236000FEF74AFE801B6428F0D828688003F7D463
:1023700020789A4E80074FF001094FF0000839D5B8
:10238000686810F00C0F07D06868C0F3810002285D
:1023900009D16868C00306D42868800714D520696D
:1023A000012808D110E02069B0B1C6F80090FEF70E
:1023B00023FE074605E00AE1FEF71EFEC01B0228C9
:1023C000C4D828688007F7D52868616920F0F8002C
:1023D00040EAC10028600DE0C6F80080FEF70CFE60
:1023E000074604E0FEF708FEC01B022823D8286831
:1023F0008007F7D4207800072CD57948A169D9B196
:10240000C0F80090FEF7F8FD074604E0FEF7F4FD83
:10241000C01B02280FD8686A8007F7D571484FF4AF
:10242000FA510068B0FBF1F0009000BF0098411E27
:102430000091FAD20EE080E0C0F80080FEF7DCFDEB
:10244000074604E0FEF7D8FDC01B022875D8686A6D
:102450008007F7D42078400760D5E8690027C000DE
:1024600008D4E86940F08050E861E869012700F08D
:10247000805000905C480168C90513D40168834608
:1024800041F480710160FEF7B7FD824606E000BFAF
:10249000FEF7B2FDA0EB0A0064284ED8DBF800007E
:1024A000C005F5D5E06801280AD008B1052813D089
:1024B000286A20F001002862286A20F0040002E067
:1024C000286A40F001002862E06841F2883B98B138
:1024D000FEF792FD82460BE0286A40F00400286275
:1024E000EEE700BFFEF788FDA0EB0A0159455AD878
:1024F000286A8007F6D50CE0FEF77EFD824605E0EF
:10250000FEF77AFDA0EB0A0159454CD8286A8007EE
:10251000F6D41FB1E86920F08050E861E06988B323
:102520006968C1F38101022944D00228C6F860809D
:1025300004D0FEF761FD044638E034E0FEF75CFDB0
:10254000074604E0FEF758FDC01B02282BD8286878
:102550008001F7D4206AB0F5803F05D16868A16892
:1025600020F4003008436860D4E908010843696832
:1025700021F4741108436860C6F86090FEF73CFDD2
:10258000044606E025E000BFFEF736FD001B0228EA
:1025900009D828688001F7D51BE000BFFEF72CFDA5
:1025A000001B022802D90320BDE8F88F28688001AB
:1025B000F4D40EE00128F7D06868226A00F4803174
:1025C000914204D1616A00F47010884201D0012068
:1025D000EAE70020E8E70000001002400000424265
:1025E00080044242440000200070004070B50400A6
:1025F00009D0606A002540B125616561A56294F843
:10260000510040B10CE0012070BD6068B0F5827FE0
:10261000F4D0E561F2E784F85050204600F040F82D
:10262000022084F851002068016821F04001016017
:10263000A088218900F4827001F404410843A18933
:1026400001F400610843217C01F002010843217D6F
:1026500001F001010843218B01F400710843217F3F
:1026600001F03801084394F8201001F0800108437C
:10267000218D01F40051084321680860A0690421FC
:1026800001EA1040216848602068C16921F40061B6
:10269000C1616565012084F85100002070BD000013
:1026A00070B586B000210091019102910391234AF7
:1026B0000168234802240325914218D1816941F41D
:1026C00080518161816901F480510491816941F0F7
:1026D0000401816180691B4E00F004000490B02069
:1026E000009069463046FEF785FB40201CE0164A04
:1026F000914220D1C16941F48041C161C16901F4B5
:1027000080410491816941F00801816180690F4E27
:1027100000F0080004904FF4A04000906946304655
:10272000FEF768FB4FF42040CDE9000469460395AD
:102730003046FEF75FFB06B070BD00000030014080
:10274000001002400008014000380040000C014029
:102750007047704770B590F83C20012A26D00124BC
:1027600080F83C40022280F83D2003685A689D684A
:1027700022F070060A6832435A600D4B02689A4292
:1027800008D0B2F1804F05D00A4B9A4202D00A4BD2
:102790009A4204D1496825F080031943916080F87A
:1027A0003D40002180F83C10084670BD022070BDFD
:1027B000002C0140000400400008004010B5040057
:1027C00003D094F83D0010B107E0012010BD0020B7
:1027D00084F83C00204600F01FF8022084F83D00F9
:1027E000211D206801F0DCFF012084F8460084F8F8
:1027F0003E0084F83F0084F8400084F8410084F8EB
:10280000420084F8430084F8440084F8450084F8CA
:102810003D00002010BD000008B501681448B1F16A
:10282000804F14D0134A914220D1C16941F0020176
:10283000C161C069002200F00200009005211D2046
:10284000FFF716FC1D20BDE80840FFF703BCC16977
:1028500041F00101C161C069002200F00100009057
:1028600005211C20FFF704FC1C20ECE708BD00003C
:10287000001002400004004090F83D10012901D0F2
:1028800001207047022180F83D100168CA6842F0BB
:102890000102CA6000680B49884208D0B0F1804F3D
:1028A00005D00949884202D00849884204D181688C
:1028B00001F00701062903D0016841F00101016020
:1028C00000207047002C0140000400400008004038
:1028D00070B5044690F83C000025012817D0012669
:1028E00084F83C60022084F83D002068826822F071
:1028F000770222F47F4282600868502838D00DDCCD
:1029000020284FD005DC90B3102811D14AE00220D6
:1029100070BD302846D040280AD13BE060282FD037
:1029200070280DD0B0F5805F03D0B0F5005F12D0F5
:10293000012584F83D60002084F83C00284670BDE5
:10294000CB68D1E90121206801F073FF206881681C
:1029500041F0770109E0CB68D1E90121206801F05D
:1029600068FF2068816841F480418160E1E719E0F7
:10297000CA684968206802F011F85021206806E012
:10298000CA684968206802F01AF86021206801F0DE
:102990005AFFCEE7CA684968206801F0FFFF40216E
:1029A0002068F4E7226801461046F0E770472DE9F9
:1029B000F04104460068C66805694FF00007A907A2
:1029C00013D5B10711D5F91E0161012020772068C8
:1029D00080698007204602D0FFF7E8FF04E000F09E
:1029E000A5F8204600F037F92777680716D5700755
:1029F00014D521686FF00400086102202077206858
:102A0000806910F4407F204602D0FFF7CFFF04E03A
:102A100000F08CF8204600F01EF92777280715D51E
:102A2000300713D521686FF0080008610420207773
:102A30002068C0698007204602D0FFF7B7FF04E096
:102A400000F074F8204600F006F92777E80616D55E
:102A5000F00614D521686FF0100008610820207777
:102A60002068C06910F4407F204602D0FFF79EFF27
:102A700004E000F05BF8204600F0EDF82777E80767
:102A800008D0F00706D021686FF0010008612046E9
:102A900000F068F9280608D5300606D521686FF0E1
:102AA000800008612046FFF753FE680608D57006CF
:102AB00006D521686FF040000861204600F05CF9FF
:102AC000A8060AD5B00608D521686FF02000086175
:102AD0002046BDE8F041FFF73CBEBDE8F0810000B4
:102AE00000B585B000210091019102910391006829
:102AF0000B49884211D10B48816941F0080181617D
:102B00008069694600F008000490012000900220CE
:102B1000019003900448FEF76DF905B000BD000078
:102B20000004004000100240000C0140704770B5E6
:102B3000044690F83C0000260D4601280FD00120E5
:102B400084F83C006AB1042A1DD0082A2FD00C2A30
:102B50003FD00126002084F83C00304670BD0220A2
:102B600070BD206801F078FE2068816941F008019D
:102B700081612068816921F0040181612068816997
:102B80002A69114311E0206801F08EFE20688169F6
:102B900041F4006181612068816921F48061816173
:102BA000206881692A6941EA02218161D2E72068AF
:102BB00001F0A6FE2068C16941F00801C1612068EA
:102BC000C16921F00401C1612068C1692A6911430A
:102BD00011E0206801F0C0FE2068C16941F4006185
:102BE000C1612068C16921F48061C1612068C16947
:102BF0002A6941EA0221C161ACE710B5040003D0A3
:102C000094F83D0010B107E0012010BD002084F8C9
:102C10003C00204600F01EF8022084F83D00211DF3
:102C2000206801F0BDFD012084F8460084F83E00D4
:102C300084F83F0084F8400084F8410084F84200A2
:102C400084F8430084F8440084F8450084F83D008B
:102C5000002010BD7047704710B50446022249B1EC
:102C600004290ED0082913D094F84100012816D069
:102C7000012010BD94F83E000128F9D184F83E20CF
:102C80000FE094F83F000128F2D184F83F2008E0DB
:102C900094F840000128EBD184F8402001E084F84A
:102CA00041200122206801F0B7FD0F4920688842C9
:102CB00003D1426C42F4004242642068884208D04A
:102CC000B0F1804F05D00949884202D008498842B6
:102CD00004D1816801F00701062903D0016841F0A1
:102CE00001010160002010BD002C014000040040E3
:102CF0000008004030B504460D460068002201F08F
:102D00008BFD174B41F2111120688A10984209D1AE
:102D1000036A0B4206D1036A134203D1436C23F4C6
:102D2000004343642068036A0B4206D1016A1142E2
:102D300003D1016821F00101016001203DB1042DA2
:102D400008D0082D09D084F84100002030BD84F857
:102D50003E00FAE784F83F00F7E784F84000F4E724
:102D6000002C014000680349884201D1FFF7EEB80A
:102D700070470000002C0140704738B5044690F8B9
:102D80004200202801D0022038BD51B14AB10120B3
:102D9000206300206063204601F0D8FF216B0129E9
:102DA00001D0012038BD21680A6849680091216876
:102DB0000C3151E8002F42F0100241E80023002BB3
:102DC000F5D138BD70B51E4C0546B2B0227921460A
:102DD0001C48921D02F0B6F8C8216846FDF719FAA2
:102DE000227969461748921D01F023FC164928688C
:102DF000884219D19DF800005A2815D19DF801008C
:102E0000A52811D19DF802005A280DD19DF8040083
:102E10006E46001DC5B20DEB05004078D02805D0E8
:102E2000C8213046FDF7F5F932B070BD002404E04A
:102E30003019407902F04CF8641CAC42F8DDF3E73D
:102E400018130020F81000200038014010B5006869
:102E5000074988420AD107480749006802F026F866
:102E6000BDE8104040210448FDF7D3B910BD000073
:102E7000003801404C00002018130020F8B501680C
:102E800004460868CA684B6910F00F0F4FF0000540
:102E900059D003F0010602F49077374365D0C1079B
:102EA00005D0D10503D5616C41F001016164410792
:102EB00005D5D90703D0616C41F002016164810737
:102EC00005D5D90703D0616C41F0040161640107A5
:102ED00007D502F02001314303D0616C41F00801B5
:102EE0006164616C00293AD0800604D5900602D551
:102EF000204601F050FE20684069616CC0F38010EC
:102F0000090700D460B3204601F010FE2068406934
:102F1000400621D52068143050E8001F21F0400100
:102F200040E80012002AF5D1E06BA8B16D49416379
:102F3000E06BFDF703FE002811D0E06B416B01B0A0
:102F4000BDE8F040084783060FD593060DD520460F
:102F5000BDE8F84001F01FBE2046FFF777FFF8BD3F
:102F60002046FFF773FF6564F8BD266B2023012E12
:102F70007CD1C6067AD5D60678D508684868009010
:102F800048694FF00206400640D5E16B086840688A
:102F90000004000CE8D0A28D8242E5D9E085886962
:102FA00020282DD020680C3050E8001F21F48071BB
:102FB00040E80012002AF5D12068143050E8001FC4
:102FC00021F0010140E80012002AF5D120681430F8
:102FD00050E8001F21F0400140E80012002AF5D11E
:102FE00084F84230256320680C3050E8001F21F03F
:102FF000100140E80012002AF5D1E06BFDF77AFDE0
:103000006663A08DE18D401A81B22AE0A08DE18D2A
:10301000401A81B2E08D0028A6D00029A4D02268F1
:103020000C3252E8000F20F4907042E80007002FA5
:10303000F5D12068143050E8002F22F0010240E85A
:103040000027002FF5D184F84230256320680C302A
:1030500050E8002F22F0100240E80023002BF5D1A9
:1030600066632046FFF7AEFEF8BDFFE705062BD5E9
:10307000150629D594F841002128F5D1A068B0F5AE
:10308000805F01D12069B0B1206A411C21622168B2
:1030900000784860E08C401E0004000CE084E3D11E
:1030A0002068C16821F08001C1602068C16841F0DA
:1030B0004001C160D8E7206A0088C0F3080048607A
:1030C000206A801C2062E5E74006CDD55006CBD5AE
:1030D000CA68204622F04002CA6084F8413000F0FD
:1030E000FAF9C1E7E349000870B5040004D094F888
:1030F0004100002510B106E0012070BD84F8405069
:10310000204600F023F8242084F841002068C1689C
:1031100021F40051C160204601F0BCFD2068016926
:1031200021F4904101612068416921F02A01416147
:103130002068C16841F40051C1606564202084F8B2
:10314000410084F842006563002070BD2DE9F04124
:1031500086B0002500950195029503950446DFF899
:1031600060C10368574802210322574F80264FF061
:10317000100863454DD1836943F4804383618369BB
:1031800003F480430493836943F0040383618069FB
:10319000039200F0040004900802CDE900016946A2
:1031A0003846FDF727FEF000CDE90005012002902A
:1031B00069463846FDF71EFE454F4448C7E90005FD
:1031C000C7E902563D617D61BD613846FD61FDF78D
:1031D000ABFD08B1FDF766FCE7637C623C4F3B4802
:1031E00044371438C7E902563D617D61BD61FD6118
:1031F000C7E900083846FDF797FD08B1FDF752FC16
:10320000A7630022052125207C62FEF731FF2520DF
:1032100051E0DFF8C0C063454FD1C36943F40033C8
:10322000C361C36903F400330493836943F0040367
:1032300083618069039200F0040004900420CDE9CA
:10324000000169463846FDF7D5FD0820CDE90005A7
:10325000694638460295FDF7CDFD1D4F1B4888375E
:103260001430C7E90005C7E902563D617D61BD61C3
:103270003846FD61FDF758FD08B1FDF713FCE76323
:103280007C62134F1148CC372830C7E902563D61A4
:103290007D61BD61FD61C7E900083846FDF744FD69
:1032A00008B1FDF7FFFBA7630022052126207C6201
:1032B000FEF7DEFE2620FEF7CDFE06B0BDE8F0816B
:1032C0000038014000100240000801405800024050
:1032D000000F0020004400402DE9F84F044690F80C
:1032E00042009A4616460D46202802D00220BDE82C
:1032F000F88FB5B1AEB100206064222184F842108D
:103300002063FDF779FEA6858146E685A0684FF427
:1033100080582027404501D1206920B12E46002544
:1033200029E00120E3E7002625E04B46002220218A
:103330002046CDF800A001F051FD18B184F842708C
:103340000320D4E726B1A06840451AD038B108E080
:1033500020684068C0F3080025F8020B08E02069E7
:1033600078B12068406800F07F0000BF06F8010BCC
:10337000E08D401EE085E08D0028D6D184F84270B3
:10338000B5E720684068F1E7704770472DE9F843DA
:10339000044690F84100984616460D46202802D073
:1033A0000220BDE8F88385B17EB100206064212051
:1033B00084F84100FDF720FEA6848146E684A068DB
:1033C0002027B0F5805F02D003E00120E9E7206903
:1033D00010B12E4600250EE000260CE0802120468C
:1033E00001F0FCFCA8B9C6B116F8010B21684860D1
:1033F000E08C401EE084E08C4B464FF00002CDF89C
:1034000000800028EAD14FF04001204601F0E6FCA0
:1034100040B184F841700320C3E735F8020BC0F3D4
:103420000800E3E784F841700020BAE770B504466D
:1034300090F84100202801D0022070BD49B342B36A
:103440002162A284E28400206064212384F8413058
:10345000A56B114BAB62A56B104BEB62A56B104BD0
:103460002B63A36B5863256813462A1DA06BFDF7D9
:1034700089FC21686FF0400008602068143050E833
:10348000001F41F0800140E80012002AF5D1002021
:1034900070BD012070BD0000E14A0008234B000808
:1034A000F349000890F84130202B01D002207047EA
:1034B00079B172B101628284C28400214164212108
:1034C00080F841100068C16841F08001C1600020AF
:1034D00070470120704770477047FEE710B5406A9B
:1034E0000021426B02B19162826B02B1916202686B
:1034F000136823F4806313604185202280F83D2007
:1035000080F83E10016C41F010010164FDF77AFD76
:1035100010BD2DE9F041446A94F83D2094F83E50E6
:10352000E16A2068436823F440734360636B0020C2
:1035300003B19862A36B03B19862212333EA0207B7
:103540004FF022060CD036EA020701D1202D07D019
:1035500094F83E20002A21D0628D012A20D024E058
:1035600021684D6825F400654D6060852820292A72
:1035700002D02A2A07D00CE0236384F83D002046BD
:10358000FEF7E3FC05E0266384F83D002046FEF7E5
:10359000DBFC2068416841F440714160BDE8F08186
:1035A0002268136823F4806313602268536823F44D
:1035B0004073536011F5803F06D0082904D0B1F163
:1035C0002A4F01D0202904D12268136843F40073E4
:1035D00013602268536823F4805353602268536851
:1035E00023F4006353606085226C1AB12046FDF716
:1035F00009FDD3E7202284F83D2094F83E2084F88A
:103600003E00402A09D0082902D0202900D01220EB
:1036100020632046FDF7BCFDC0E720632046FEF78F
:1036200077FABBE701684A69D24352050FD46FF4B9
:1036300080624A61002140F8301F2022427381736A
:10364000026942F004020261017301207047002008
:10365000704700002DE9F84F0446C06A1E469346A5
:103660000D4621680A6842F480620A60082807D083
:10367000012805D010F5803F02D0206B112804D11D
:103680002068016841F4807101604FF001195B46C8
:10369000002249462046009600F09EF94FF400783B
:1036A00040B120680068C00501D5C4F840800320FF
:1036B000BDE8F88F2069DFF884A0B0F5804F0FD007
:1036C0000620216800EAD51747F0F000086133466C
:1036D0005A460AF10601204600F0C6F958BB03E03D
:1036E000E8B240F001001CE02168E8B2086133460E
:1036F0005A465146204600F0B7F9E0B920684169C2
:1037000081690091016841F4807101605B4600228B
:1037100049462046009600F05FF90028C1D147F0E5
:10372000F1002168086133465A465146204600F0B0
:103730009BF90028BCD00120BAE70000020001007C
:10374000F8B50446C06A1E460D461746082807D03D
:10375000012805D010F5803F02D0206B122804D13B
:103760002068016841F480710160134600224FF027
:1037700001112046009600F02FF940B12068006842
:10378000C00502D54FF4007020640320F8BD206905
:10379000B0F5804F0ED00620216800EAD51040F029
:1037A000F000086133463A460B49204600F05CF9C8
:1037B00078B902E005F0FE0000E0E8B22168086197
:1037C000054933463A46891F204600F04DF9002846
:1037D000DCD00120F8BD0000080001002DE9F84F01
:1037E0000446006889460B9D01689846174641F4D7
:1037F000806101602068016841F48071016000957A
:103800004FF0011B0022594620460A9B00F0E4F8C5
:103810004FF4007A40B120680068C00501D5C4F8B3
:1038200040A00320BDE8F88F216809F0FE00086180
:103830002B46284920460A9A00F016F9F0BB20686A
:103840004169806900902A4620460A9900F0A2F951
:1038500040B1206C04283AD12068016841F400711D
:10386000016034E0FEB2B8F1010F09D02168380AD6
:1038700008612A4620460A9900F08CF90028E8D110
:10388000206806612A4620460A9900F083F900283C
:10389000DFD12068016841F4807101600095002249
:1038A000594620460A9B00F097F80028B3D12168BA
:1038B00009F0FF0040F00100086100E007E02B463E
:1038C000044920460A9A00F0CFF80028AAD0012027
:1038D000A8E70000020001002DE9F8430446006853
:1038E0000D46DDE9089701689846164641F4807157
:1038F00001604B4600224FF001112046009700F076
:103900006BF848B120680068C00502D54FF400701C
:1039100020640320BDE8F883216805F0FE000861FB
:103920003B464A461549204600F09EF888B9206873
:103930004169806900903A464946204600F02AF9DC
:1039400048B1206C042804D12068016841F400715A
:1039500001600120DEE7F5B2B8F1010F09D021685E
:10396000300A08613A464946204600F013F900281B
:10397000E7D1206805610020CCE7000002000100CB
:1039800070B516460D4604461EE02046FFF74AFE77
:1039900008B1012070BD681C16D0FDF72DFB801BFF
:1039A000A84200D885B920684069C04340070BD5BC
:1039B000002044F8300F20216173A073216941F089
:1039C000200121612073E4E720684069C04340077B
:1039D000DBD4002070BD00002DE9F0479846174663
:1039E0000D460446C1F30746DDF820902AE000BFEB
:1039F000B8F1FF3F26D0FDF7FFFAA0EB09014145E2
:103A000002D8B8F1000F1DD12068012E16D08069B0
:103A100025EA00000004000C12D00020B84211D1A9
:103A2000002044F8300F20216173A073216941F018
:103A30002001216120730120BDE8F0874069E7E79C
:103A40000120EBE72068012E0AD0806925EA0000FA
:103A50000004000C06D00020B842C9D00020EBE7DB
:103A60004069F3E70120F7E72DE9F047984616464D
:103A70000D4604464FF000094FF0200AC1F30747F6
:103A800023E020684069C043400515D420680168E0
:103A900041F40071016021686FF480604861C4F8EE
:103AA000309084F83DA084F83E90216C41F00401F0
:103AB000216484F83C9021E0701C06D0FDF79CFA4C
:103AC000A0EB0800B04203D816B1012F1FD021E0AF
:103AD0002068012F15D0806925EA00000004000C41
:103AE00018D000BF44F8309F84F80DA084F80E90E1
:103AF000216941F02001216184F80C900120BDE88A
:103B0000F087406925EA00000004000CEAD1206833
:103B1000406901E02068806925EA00000004000C8B
:103B2000AFD1ECE72DE9F041002590460E46044662
:103B3000202728E04069C043C0060CD454F8301B4D
:103B40006FF01000486144F810596777A577206A34
:103B50002062257714E0FDF74FFAA0EB0800B04291
:103B600000D886B920684069C04340060BD544F8A8
:103B7000305F6773A573206940F0200020612573D2
:103B80000120BDE8F08120684169C9434906D1D4CC
:103B90000020F6E770B516460D4604461EE02046A6
:103BA000FFF740FD08B1012070BD681C16D0FDF77D
:103BB00023FA801BA84200D885B920684069C04319
:103BC00000060BD5002044F8300F20216173A0734C
:103BD000216941F0200121612073E4E720684069F8
:103BE000C0430006DBD4002070BD000013B584B0D4
:103BF000024600240823012105A88DE81B00044982
:103C00000123CC6808687821A04706B010BD0000E9
:103C100058170020FEB50DF1240C089D9CE8D0003B
:103C200017B1012F07D0FEE7CDE9005402960068D6
:103C3000FEF79EF8FEBDCDE9005402960068FDF740
:103C400069FFFEBDF8B5DDE906473FB14FF02A46F2
:103C5000350A012F0BD0022F13D0FEE764250CB1DB
:103C6000012C03D100950068FDF794FAF8BD34B13A
:103C7000012CFBD100950068FDF7C8FCF8BD00964B
:103C8000F9E734B1012CF9D100950068FDF7AAFBE2
:103C9000F8BD0096F9E7F8B5DDE906473FB14FF00A
:103CA0002A452E0A012F0AD0022F12D0FEE7002C3F
:103CB00004D1642400940068FDF794FEF8BD34B18B
:103CC000012CFBD100960068FDF722FEF8BD00959F
:103CD000F9E734B1012CF9D100960068FDF736FD03
:103CE000F8BD0095F9E7002804D0D0E90010814222
:103CF00001D1012070470020704700280AD00168D8
:103D00008268491CB1FBF2F302FB13114068814247
:103D100001D10120704700207047000010B500223B
:103D20005149524801F090FF5048002250492C3030
:103D300001F08AFF4D4800224E49583001F084FFBF
:103D40004A4800224C49843001F07EFF4748002257
:103D50004A49B03001F078FF444800224849DC303D
:103D600001F072FF474A0421404801F08FFE454AA6
:103D700005213E4801F08AFE424A03213B4801F0FA
:103D800085FE3A4801F07AFF38483F4A04212C303A
:103D900001F07CFE35483C4A05212C3001F076FECE
:103DA0003248394A03212C3001F070FE2F482C3064
:103DB00001F064FF2D48354A0421583001F066FEB9
:103DC0002A48324A0521583001F060FE27482F4A20
:103DD0000321583001F05AFE2448583001F04EFFBC
:103DE00022482B4A0421843001F050FE1F48284A03
:103DF0000521843001F04AFE1C48254A0321843005
:103E000001F044FE1948843001F038FF1748214A78
:103E10000421B03001F03AFE14481E4A0521B030AA
:103E200001F034FE11481B4A0321B03001F02EFE90
:103E30000E48B03001F022FF0C48174A0421DC3054
:103E400001F024FE0948144A0521DC3001F01EFE71
:103E50000648114A0321DC3001F018FE0348BDE892
:103E60001040DC3001F00ABF39710008D011002089
:103E70004971000855710008617100086D710008F2
:103E8000797100080D5900084D5900088D59000836
:103E9000CD5900080D5A00084D5A0008074910B5C1
:103EA000054808600846FCF7FFFD002803D0BDE880
:103EB0001040FCF7F7BD10BD00300240300000207C
:103EC000154808B5416941F001014161406900228E
:103ED00000F00100009005210E20FEF7C9F80E2029
:103EE000FEF7B8F8002205210F20FEF7C1F80F20D9
:103EF000FEF7B0F8002205211020FEF7B9F81020D7
:103F0000FEF7A8F8002205211120FEF7B1F8BDE860
:103F100008401120FEF79EB80010024010B52D4B4E
:103F2000B6B031AC0FCB84E80F00002131A802F00D
:103F300094FD294C27491C22E06110316846FCF7AA
:103F40004FF90021684602F09BFD224920601C22A7
:103F50002C3107A8FCF744F9002107A802F090FDD6
:103F60001C4960601C2248310EA8FCF739F9002179
:103F70000EA802F085FD1749A0601C22643115A827
:103F8000FCF72EF9002115A802F07AFD1149E06036
:103F90001C2280311CA8FCF723F900211CA802F088
:103FA0006FFD0C4920611C229C3123A8FCF718F9F5
:103FB000002123A802F064FD064960611C22B8318B
:103FC0002AA8FCF70DF900212AA802F059FDA061EA
:103FD00036B010BDD0960008100000202DE9F04347
:103FE00085B00025344800950195029503958169B7
:103FF00041F010018161816901F010010491816932
:1040000041F020018161816901F020010491816901
:1040100041F004018161816901F004010491816929
:1040200041F0080181618069244F00F008004FF4DD
:1040300080440490002221463846FCF7D8FFDFF880
:104040008090002202214846FCF7D1FFDFF87480FF
:10405000A611002231464046FCF7C9FF0094012416
:1040600001940294694638460394FCF7C3FE02208B
:10407000CDE900040294694648460394FCF7BAFE71
:10408000CDE900640294694640460394FCF7B2FE11
:10409000E003CDE90005694602944046FCF7AAFE1C
:1040A000F820CDE90005694602944846FCF7A2FED7
:1040B00005B0BDE8F0830000001002400010014090
:1040C000000C0140000801400D4810B50B4901608B
:1040D0000C49416000214FF480428160C0E9031225
:1040E00041618161C1610162FCF78EFF002803D04C
:1040F000BDE81040FCF7D6BC10BD000000540040E5
:10410000880C0020A08601000D4810B50B49016005
:104110000C49416000214FF480428160C0E90312E4
:1041200041618161C1610162FCF76EFF002803D02B
:10413000BDE81040FCF7B6BC10BD000000580040C0
:10414000DC0C0020A08601000E4810B50C4901606F
:1041500000214FF400624160C0E902120161416137
:1041600081610162416281620A21C162FEF73EFA09
:10417000002803D0BDE81040FCF794BC10BD00003F
:1041800000300140300D00200E4810B50C49016090
:104190004FF48271416000218160C1600161416121
:1041A0008161C1610162416281620A21C162FEF7DF
:1041B0001DFA002803D0BDE81040FCF773BC10BD09
:1041C00000380040880D002010B586B00024174844
:1041D000009401940294039404944FF08041059458
:1041E0000160C721C0E9011441F61F41C0E9031471
:1041F00080218161FEF7E2FA08B1FCF753FC4FF42D
:104200008050009069460948FEF762FB08B1FCF750
:1042100049FC049404A905480594FEF79BFA00287C
:1042200001D0FCF73FFC06B010BD0000E00D0020FF
:1042300010B58EB000240794089409940A940B9446
:104240001C2168460C94FBF7E4FF1E481C49C0E99A
:1042500000144FF6FF71C0E9024104618461FEF76A
:10426000ADFA08B1FCF71EFC4FF48050079007A987
:104270001448FEF72DFB08B1FCF714FC1148FEF7BB
:10428000BCFC08B1FCF70EFC0B940BA90D480C9478
:10429000FEF760FA08B1FCF705FC6020CDE90004E8
:1042A00002940822694607480494FEF740FC08B1CE
:1042B000FCF7F8FB0348FEF713FC0EB010BD00003E
:1042C00000040040280E00200C4810B50A49016087
:1042D0004FF416514160002181600C22C160C0E999
:1042E00004128161C161FEF7FFFE002803D0BDE822
:1042F0001040FCF7D7BB10BD00380140700E002005
:104300000C4810B50A4901604FF416514160002174
:1043100081600C22C160C0E904128161C161FEF7B5
:10432000E3FE002803D0BDE81040FCF7BBBB10BD86
:1043300000440040B80E0020FEE7FEE770B5002400
:1043400004F1B000C0B200F0E1FD002000F0DEFD9D
:10435000102000F0DBFD0025002000F0DBFD6D1CCF
:10436000EDB2802DF8D3641CE4B2082CE8D370BD04
:1043700008B530480090304B304A3149314801F09F
:10438000A5FAAE2000F0C2FD202000F0BFFD1020F5
:1043900000F0BCFDB02000F0B9FDC82000F0B6FD73
:1043A000002000F0B3FD102000F0B0FD402000F030
:1043B000ADFD812000F0AAFDFF2000F0A7FDA120A7
:1043C00000F0A4FDA62000F0A1FDA82000F09EFDB5
:1043D0003F2000F09BFDA42000F098FDD32000F0CA
:1043E00095FD002000F092FDD52000F08FFDF0201B
:1043F00000F08CFDD92000F089FD222000F086FD20
:10440000DA2000F083FD122000F080FDDB2000F0B8
:104410007DFD202000F07AFD8D2000F077FD142036
:1044200000F074FDAF2000F071FDBDE80840FFF71B
:1044300085BF0000153C0008453C0008973C00087B
:1044400018090020581700202DE9F0410E4F0024D4
:1044500004F1B000C0B200F059FD002000F056FD9C
:10446000102000F053FD002507EBC416705D00F02E
:1044700051FD6D1CADB2802DF8D3641CA4B2082C84
:10448000E6D3BDE8F08100005813002030B5802845
:1044900017D2002915DB402913DACB1701EB537330
:1044A00023F007040C1B0121064DA140DB1005EB96
:1044B000C3131844002A027801D00A4300E08A435B
:1044C000027030BD581300202DE9FF4F81B00C461B
:1044D0008046802845D2002C43DB402C41DA4FF047
:1044E000000B012B38D0022B3BD17AE020387DD451
:1044F000B8F17D0F03DAC8F17F01062907DA083425
:1045000024B2C4F13F014FF0000808296EDB3A499C
:1045100000EB4000002501EB400908EB05000026F8
:104520000FFA80F719F80500F04000F00102A01919
:1045300001B23846FFF7AAFF761CF6B2082EF1D377
:104540006D1CEDB2062DE8D308F106000FFA80F8D5
:104550000BF1010000F0FF0B039810F80B0000288E
:10456000C4D143E0203841D4B8F17F0F03DAC8F159
:104570007F01082907DA103424B2C4F13F014FF05B
:104580000008102932DB1D49002701EB00100090C4
:10459000002608EB0600002506EBC70A0FFA80F993
:1045A000009810F80A00E84000F00102601900EBE2
:1045B000C70001B24846FFF769FF6D1CEDB2082D38
:1045C000EED3761CF6B2082EE3D37F1CFFB2022F87
:1045D000DED308F108000FFA80F80BF1010000F0BB
:1045E000FF0B039810F80B000028BBD105B0BDE805
:1045F000F04FFFF729BF0000540000207C0200208C
:10460000C82004F087F8FBE700B50B4602000FD086
:10461000FFF769FB00280BD15168D068405C187027
:10462000D2E90101401CB0FBF1F301FB1300506023
:1046300000BDF0B515460E46070008D0002404E082
:1046400031193846FFF7E0FF641CAC42F8D3F0BDE7
:10465000002303604360C0E90221704730B40C4678
:1046600013462246014630BC01A000F07BBC00008E
:10467000703D25642C20693D25642C20643D256413
:104680000D0A00001CB5012004F082FA0D494FF418
:10469000007208600D480C4981660D4941660D495C
:1046A000C1660D49016700F1740103F057F900205C
:1046B00000900190054B4FF4807208A1094804F066
:1046C000ADFD1CBD240A002015850008282E002001
:1046D000DD840008C5840008FD8400087368656CEB
:1046E0006C000000A5820008012002F0AAF9FBE797
:1046F00010B5502080F31188BFF34F8FBFF36F8F39
:1047000004F0FEFD18B104494FF08050086000200D
:1047100080F3118810BD000004ED00E030B58FB0CB
:1047200028216846FBF775FD14210AA8FBF771FDE7
:1047300001210804CDE9001000240294022504910F
:10474000CDE907504FF4E01009906846FDF7BEFD33
:1047500008B172B6FEE70F20CDE90A054FF480607C
:10476000CDE90C4002210AA80E94FDF7B3FC002805
:1047700001D072B6FEE70FB030BD70470148FEF7BA
:1047800016B90000101000200148FEF710B9000013
:10479000E00D00200148FEF70AB90000280E0020B5
:1047A000F0B50268194B1A4C1A4D4FF080479842E9
:1047B00005D0B84203D0A04201D0A84203D122F0D4
:1047C00070064A683243984205D0B84203D0A042EE
:1047D00001D0A84203D122F44074CA6822434C6934
:1047E00022F08002224302608A68C2620A68826202
:1047F000984201D109690163012141610169C90739
:1048000003D0016921F001010161F0BD002C0140DC
:10481000000400400008004010B501F01F03012112
:10482000046A99408C430462016A9A401143016210
:1048300010BD10B5846842EA032224F47F440A4381
:104840002243826010BD826822F070020A4342F067
:10485000070181607047000030B5036A026A22F0E8
:10486000010202624268846924F073050C682C43DB
:1048700023F002058B682B430A4DA8420BD123F08D
:104880000805CB6822F440722B434D6923F00403E2
:1048900015438A692A43426084614968416303621F
:1048A00030BD0000002C014030B5026A036A23F0DD
:1048B00010030362436884690D6824F4E64444EA03
:1048C00005248D6822F0200242EA05120B4DA84211
:1048D0000ED1CD6822F0800242EA05124D6923F420
:1048E000406343EA85038D6922F0400243EA850371
:1048F0004360846149688163026230BD002C0140DD
:1049000030B5036A026A22F4807202624268C469A6
:1049100023F4007324F073050C682C438D6843EA7C
:1049200005230C4DA8420ED1CD6823F4006343EA61
:1049300005234D6922F4405242EA05128D6923F4A1
:10494000806342EA05124260C4614968C163036240
:1049500030BD0000002C014030B5046A026A22F428
:10496000805202624268C3690D6823F4E64343EA59
:1049700005238D6824F4005444EA0534064DA8420A
:1049800004D14D6922F4804242EA85124260C3613B
:1049900049680164046230BD002C014010B5036A0F
:1049A000046A24F001040462846924F0F00444EAF7
:1049B000021423F00A020A438461026210BD10B59A
:1049C000036A046A24F010040462846923F0A003DB
:1049D00024F4704444EA023243EA01118261016224
:1049E00010BD10B5406A0021C185C184FEF72EFAC2
:1049F00010BD70B5446A2068406994F84110C0F356
:104A0000C0100025212904D118B1E584204600F00A
:104A1000B4F82068406994F84210C0F3801022294D
:104A200004D118B1E585204600F080F8606C40F0B4
:104A3000100060642046FEF709FA70BD10B501460B
:104A4000406A096809684FF0000289062ED4C285C1
:104A500001680C3151E8003F23F4807341E80034D1
:104A6000002CF5D10168143151E8003F23F0010317
:104A700041E80034002CF5D10168143151E8003FC1
:104A800023F0400341E80034002CF5D1202180F8C8
:104A90004210016B012909D101680C3151E8003F36
:104AA00023F0100341E80034002CF5D14263016B80
:104AB000012902D0FEF768FC10BD818DFEF782F956
:104AC00010BD10B5406A01214163016B012902D07C
:104AD000FEF75BFC10BD818D4908FEF773F910BD30
:104AE00010B50146406A09680968890616D4002194
:104AF000C1840168143151E8002F22F0800241E89E
:104B00000023002BF5D101680C3151E8002F42F051
:104B1000400241E80023002BF5D110BDFEF7DBFC7D
:104B200010BD10B5406AFEF7D7FC10BD01680C310E
:104B300051E8002F22F4907241E80023002BF5D1B8
:104B40000168143151E8002F22F0010241E80023EE
:104B5000002BF5D1016B012909D101680C3151E815
:104B6000002F22F0100241E80023002BF5D1202174
:104B700080F8421000210163704701680C3151E850
:104B8000002F22F0C00241E80023002BF5D12021A4
:104B900080F84110704708B590F84210222901D0E2
:104BA000022008BD82684FF480539A4201D1016906
:104BB00021B1816A9A421BD04AB10AE00268816A37
:104BC0005268C2F308020A80816A891C08E00269FF
:104BD00072B10268526802F07F020A70816A491C51
:104BE0008162C18D491E0904090CC18503D01BE0F7
:104BF00002685268F1E70168CA6822F02002CA60C0
:104C00000168CA6822F48072CA6001684A6922F0A9
:104C100001024A61202180F8421000214163026BA9
:104C2000012A03D0FEF7B0FB002008BD0163016834
:104C30000C3151E8002F22F0100241E80023002B34
:104C4000F5D101680A68D20602D50A684968009160
:104C5000818DFEF7B7F8E7E718B5026801248BB23B
:104C60001268B4EB117F03D1D1681943D1600AE017
:104C70000224B4EB117F03D111691943116102E0E1
:104C800051691943516100680068016840680090EB
:104C900018BD000070B5044600680169E26821F49F
:104CA0004051114301612169A068084361690843CB
:104CB0002168CA6841F20C639A430243CA602068C3
:104CC0004169A26921F44071114341611E49206884
:104CD000884202D1FDF7C4FA01E0FDF7B1FA00EB1A
:104CE000C00101EB0012606864218000B2FBF0F3A8
:104CF000B3FBF1F36FF018067343B2FBF0F5B2FBB0
:104D0000F0F605EB8305322303EB0515B5FBF1F552
:104D1000B6FBF1F605F0F00505EB0615B2FBF0F673
:104D2000B2FBF0F0B0FBF1F06FF01802504306EB6D
:104D3000800003EB0010B0FBF1F0216800F00F00E1
:104D40002844886070BD00000038014038B5816299
:104D500004468285002013466064222284F84220A3
:104D6000E56B1B4AAA62E56B1A4AEA62E56B1A4ACE
:104D70002A63E26B50630A462168E06B091DFCF769
:104D800001F82068016840680090206948B12068F7
:104D90000C3050E8001F41F4807140E80012002AF6
:104DA000F5D12068143050E8001F41F0010140E8BF
:104DB0000012002AF5D12068143050E8001F41F09D
:104DC000400140E80012002AF5D1002038BD000063
:104DD0003D4A0008C34A0008F34900082DE9F8439A
:104DE000984617460D460446089E24E0701C22D0C3
:104DF000FCF702F9A0EB0800B0421AD8CEB1206847
:104E0000C168490717D5802D15D0402D13D00168F2
:104E1000C94309070FD40168002540680090204667
:104E2000FFF784FE0820606484F840500120BDE84C
:104E3000F8830320FBE72068006835EA000004D00F
:104E40000020B842D2D00020F1E70120F9E70000AD
:104E500010B50448FEF712F8BDE8104002490148B9
:104E600000F024B8700E00201813002010B504487C
:104E7000FEF704F8BDE810400249014800F016B8FA
:104E8000B80E002018130020012B04D0022B06D0EE
:104E9000032B07D0FEE700686423FEF777BA0068AB
:104EA000FEF700BB0068FEF7C1BA000010B5402253
:104EB0000448FDF762FF04480068016821F004011E
:104EC000016010BDB80E0020880F0020FEE7000032
:104ED00038B500218DF800100B4911280C680ED050
:104EE00012280ED0132809D15FF003008DF80000BE
:104EF00000231A466946204603F09EFF38BD012074
:104F0000F4E70220F2E700002C0000200146002018
:104F1000FEF76CBE01464020FEF768BE30B50D4678
:104F200004000ED0FEF7E9FE00280AD12168E068EF
:104F300045542068A168401CB0FBF1F201FB12004F
:104F4000206030BDF0B515460E46070008D000249D
:104F500004E0315D3846FFF7E1FF641CAC42F8D352
:104F6000F0BD00000FB4054B10B503A9044A029828
:104F700000F01EF910BC5DF814FB00002D6700085E
:104F8000280A00200FB47CB50C0009AD01D0611EC9
:104F900000E00021CDE90001064B6A462946089849
:104FA00000F006F9002C02D0009A002111707CBCA0
:104FB0005DF814FBB75800087CB50C001D4616467A
:104FC000014601D0601E00E00020CDE90010064B34
:104FD0006A462946304600F0EBF8002C02D0009AD1
:104FE000002111707CBD0000B75800080907090EA8
:104FF000002804DB00F1E02080F80014704700F086
:105000000F0000F1E02080F8141D704702E008C88E
:10501000121F08C1002AFAD170477047002001E032
:1050200001C1121F002AFBD1704700002DE9FF5F6C
:1050300082B00021DDE90430020DDDF840B0034309
:1050400018D044F61050A2F2FF32424315141198C2
:1050500001281FD0A5EB0B00401C5FEA000A4FF0AF
:1050600000064E4FDFF83891B046504615D5CAF1CC
:10507000000413E0119801244AA3012801D16FEA2A
:105080000B010298119AC0E90031C0E9024206B052
:10509000BDE8F09FCBF10000DFE704460021404A65
:1050A000491842EB0450CDE9001012E0E00707D0A8
:1050B00032463B4640464946FBF78FFA80468946D2
:1050C00032463B4610461946FBF787FA06460F461E
:1050D0006410002CEAD1DDE90401DDE90023BAF116
:1050E000000F06DAFBF779FA42464B46FBF775FAF2
:1050F00005E0FBF7E4FA42464B46FBF7E0FA0446CC
:105100000E460022284BFBF761FB03D84FF0FF301F
:10511000014607E00022254B20463146FBF7B6F951
:10512000FBF73CFB102409E0002C0ADB0A220023D9
:10513000FBF744F9039B30321A55641E50EA010212
:10514000F2D1641C039AC4F111031444119A012A88
:1051500003D0012208430DD10AE0084304D0002007
:105160004FF0110B119072E7A3EB0B056D1E0DE0D4
:105170005B4504DD4FF0000205F1010504E003DAB0
:105180004FF00002A5F10105002AECD00298119918
:10519000C0E90231C0E9004579E700000000144091
:1051A0000000F03F300000000000F0430000E03F4E
:1051B0002DE9FF4F95B09A46884606460025EEE158
:1051C000252877D100242746F94A0121039400E0DD
:1051D000044316F8013F203B01FA03F01042F7D1D7
:1051E00030782A2811D06FF02F033078A0F13002E8
:1051F000092A16D8039A44F0020402EB820203EB58
:1052000042021044761C0390EFE758F8042B0392F7
:10521000002A03DA504244F40054039044F002049C
:10522000761C30782E2816D116F8010F44F00404AD
:105230002A280DD06FF02F023078A0F13003092B0F
:1052400009D807EB870302EB4303C718761CF3E783
:1052500058F8047B761C30786C280FD006DC4C287C
:1052600017D068280DD06A2814D104E0742810D013
:105270007A280FD10DE044F400140AE044F48014BD
:1052800001E044F440147278824202D104F58014A3
:10529000761C761C307866280BD013DC582877D023
:1052A00009DC002875D04528F6D04628F4D04728D8
:1052B0001AD193E118E0632835D0642879D06528A5
:1052C00012D18BE1702873D008DC6728F1D06928EF
:1052D0006FD06E280DD06F2806D1ACE073282CD08B
:1052E000752874D0782853D05246179990476D1C72
:1052F00054E1C4F30250022809D003280DD0D8F895
:10530000001004280DD00D6008F1040846E1D8F81B
:105310000010EA17C1E90052F6E7D8F800100D8036
:10532000F2E70D70F0E718F8041B8DF8001000206C
:105330008DF80100EB46012003E058F804BB4FF064
:10534000FF3061074FF0000102D40DE009F10101C7
:105350008946B9420FDA8145F8DB1BF809100029AC
:10536000F4D108E009F1010189468142FADB1BF81A
:1053700009100029F6D103985346A0EB09072146EE
:105380003846179A00F080FA284400EB090507E038
:1053900044E008E10DE01BF8010B524617999047D5
:1053A000B9F10109F7D2534621463846179AF2E07F
:1053B00039E00A21C4F302524FF0000B0091022A97
:1053C00006D058F8040BC117032A09D00AE023E0DD
:1053D00008F1070020F00702F2E80201904605E01C
:1053E00000B2C117042A01D140B2C117002906DA60
:1053F0000A460021404261EB02012D2202E0220513
:1054000004D52B228DF80420012203E0E20701D00D
:105410002022F7E7914657E00A2100E010214FF0E3
:10542000000B00910BE010214FF0000B44F004043E
:105430000827009103E008204FF0000B0090C4F310
:105440000252022A05D058F8040B0021032A08D082
:1054500008E008F1070020F00702F2E80201904698
:1054600003E080B2042A00D1C0B24FF00009220745
:105470002AD53278702A07D0DDF800C08CF0100CE5
:105480005CEA0B0C05D00EE040228DF804200122CE
:1054900008E050EA010306D030238DF804308DF87F
:1054A000052002229146009B83F0080353EA0B0378
:1054B0000AD150EA010201D1620705D530228DF8E8
:1054C00004204FF001097F1E3278582A04D039A2F7
:1054D0000C920CAA02920BE03BA2F9E75B46009A01
:1054E000FAF76CFF0C9B9B5C029A521E029213709F
:1054F00050EA0102F2D1029804A9081A00F1200B27
:10550000600702D524F4803400E001275F4502DD06
:10551000A7EB0B0000E0002000EB0B0100900398CC
:105520004944401A0390E00306D453462146179A93
:10553000039800F0A9F90544002706E001A85246A7
:10554000C05D179990476D1C7F1C4F45F6DBE0034B
:105550000CD553462146179A039800F095F9054457
:1055600004E030205246179990476D1C0099481E60
:1055700000900029F5DC08E0029802995246007874
:10558000491C0291179990476D1CBBF10001ABF1CA
:10559000010BF1DC5BE100F065F90544761C307825
:1055A00000287FF40DAE19B02846BDE8F08F00004A
:1055B00009280100303132333435363738396162E9
:1055C00063646566000000003031323334353637AD
:1055D000383941424344454600000000600700D48A
:1055E000062708F1070020F00700F0E802238046B4
:1055F00003F0004C5FEA0C0001D097A009E0200501
:1056000001D596A005E0E00701D095A001E0AFF23A
:105610004C001390307823F0004365280CD006DC52
:10562000452809D046281DD047287FD13BE0662871
:1056300018D067287AD136E00021112F01DB112024
:1056400000E0781CCDE9000104A90CA8FFF7EEFCEE
:10565000DDE90D010C9A4FF0000B07F101091092E2
:1056600000914EE04FF000400097CDE9011004A9F1
:105670000CA8FFF7DBFCDDE90D020C9B0F994FF046
:10568000000B91461093009211B9791C00EB0109AF
:10569000B7EB090003D4C0F1FF3B07F10109A9EB07
:1056A0000700019042E0012F00DA01270021112FAD
:1056B00001DD112000E03846CDE9000104A90CA865
:1056C000FFF7B4FCDDE90D010C9A00914FF0000BDF
:1056D000B946109221070FD4009A4A4503DA914641
:1056E00001E0A9F10109B9F1010F05DD109AA9F155
:1056F0000101515C3029F4D0B84202DA10F1040FF4
:1057000003DA0121CDE9011010E0002803DC834415
:10571000A9EB000102E0411C494500DD8946A0EBF0
:105720000B00401C01904FF000400290200705D470
:105730000198484502DB4FF0FF30019000208DF8C2
:105740004B0002980DF14B07B0F1004F25D002201D
:105750000C902B200D90029800280CDA4042029009
:105760002D200D9007E00A210298FAF711FE303142
:10577000029007F8011D0C99481E0C900029F2DCDC
:1057800002980028EFD1791E0D980870307800F04B
:10579000200040F0450007F8020D11A8C01BC01DF5
:1057A00002901398007800B1012000EB09010198E4
:1057B00001EBE071029801440398401A401E0390E7
:1057C000E00306D453462146179A039800F05CF88C
:1057D00005441398007818B15246179990476D1CEC
:1057E000E00323D553462146179A039800F04CF85E
:1057F00005441BE0BBF1000F07DB0098584504DDB2
:105800001098179910F80B0001E0179930205246B4
:10581000904701980BF1010B401E05F10105019025
:1058200004D12E205246179990476D1CB9F1000102
:10583000A9F10109DEDC05E017F8010B52461799C2
:1058400090476D1C0299481E02900029F4DC5346D3
:105850002146179A03989EE62D0000002B000000B9
:10586000200000002DE9F041044600251E461746A1
:10587000880404D405E039462020B0476D1C641E1E
:10588000F9D52846BDE8F0812DE9F0410446002510
:105890001E469046C80301D5302700E02027880423
:1058A00004D505E041463846B0476D1C641EF9D565
:1058B0002846BDE8F0814A68002A06D00A68531CD1
:1058C0000B6010704868401E4860704770B5049CBB
:1058D00028B1002529B1002635430AD103E001256E
:1058E000F8E70126F8E732B1002533B10026354349
:1058F00005D0002070BD0125F7E70126F7E780E815
:105900001E00012070BD02710160704710B500F0EB
:1059100069FF03280CD00C4904280ED0052811D1AA
:105920000122A1F18C00891CBDE8104000F02EBFBF
:1059300005490122A1F18C00F6E7034801228C38C9
:10594000491CF1E710BD0000E410002010B500F084
:1059500049FF0D4903280BD004280ED0052811D18A
:105960000122A1F18C00491DBDE8104000F00EBFDE
:10597000054801228C38C91CF6E7034801228C38FF
:10598000091DF1E710BD0000E410002010B500F083
:1059900029FF0D4903280BD004280ED0052811D16A
:1059A00001220831A1F19400BDE8104000F0EEBEE4
:1059B000054801228C38891DF6E7034801228C38FE
:1059C000C91DF1E710BD0000E410002010B500F083
:1059D00009FF03280BD004280FD0052813D10A494A
:1059E0000122A1F19700BDE8104000F0CFBE0649AA
:1059F0000122891EA1F19500F5E703490122491E04
:105A0000A1F19600EFE710BDEF10002010B500F0F7
:105A1000E9FE03280BD004280FD0052813D10A492A
:105A20000122A1F19A00BDE8104000F0AFBE064986
:105A30000122891EA1F19800F5E703490122491EC0
:105A4000A1F19900EFE710BDF210002010B500F0B1
:105A5000C9FE03280BD004280FD0052813D10A490A
:105A60000122A1F19D00BDE8104000F08FBE064963
:105A70000122891EA1F19B00F5E703490122491E7D
:105A8000A1F19C00EFE710BDF510002000EB8100B4
:105A9000C260704770B504460079A1688847E17814
:105AA0004A0702D02288521C2280B0EBD11F0CD0B2
:105AB0004FF0005202EBB1114FEAB161C1F3C202E3
:105AC000E170032A04D360F3C71121F03800E070BD
:105AD000E078002500F00701062972D2DFE801F026
