:020000040800F2
:10000000A80B002005010008432300084B1E000830
:100010004123000871010008012B000800000000C6
:100020000000000000000000000000009B2300080A
:10003000D701000800000000452300089D230008A8
:100040001F0100081F0100081F0100081F01000810
:100050001F0100081F0100081F0100081F01000800
:100060001F0100081F0100081F0100081F010008F0
:100070001F0100081F01000895010008A1010008E8
:100080001F0100081F0100081F0100081F010008D0
:100090001F0100081F0100081F0100081F010008C0
:1000A0001F010008192400081F0100081F01000893
:1000B00025240008392400081F0100081F0100083A
:1000C0001F0100081F0100081F0100081F01000890
:1000D0001F0100088D2A0008A92A00081F01000836
:1000E0001F0100081F0100081F010008DFF810D0E1
:1000F00000F02CF800480047892C0008AFF300807E
:10010000A80B00200648804706480047FEE7FEE7A8
:10011000FEE7FEE7FEE7FEE7FEE7FEE7FEE7FEE7B7
:1001200015240008ED000008D2B201E000F8012B10
:10013000491EFBD270470022F6E710B513460A4667
:1001400004461946FFF7F0FF204610BD064C074D48
:1001500006E0E06840F0010394E807009847103497
:10016000AC42F6D3FFF7C6FF682D0008882D0008C3
:10017000FEE70000054910B5C82201F1C80002F0F1
:1001800006F9BDE81040024802F074BD44060020A4
:100190001C070020014800F0B7B80000E002002072
:1001A000014800F0B1B800009C02002030B590F882
:1001B00040500124AC40C56B6C60046863604368C8
:1001C000102B036803D099600068C26030BD9A604C
:1001D0000068C16030BD704772B6FEE710B504001C
:1001E00002D0607910B106E0012010BD002020711E
:1001F000204600F005F801206071002010BD0000CD
:1002000008B500680649884208D10648416941F0AE
:1002100040014161406900F04000009008BD0000CD
:10022000003002400010024010B590F8211000226A
:10023000022905D00421816380F82020012010BD0F
:1002400001680B6823F00E030B6001680B6823F054
:1002500001030B6090F84030C46B012101FA03F3F5
:10026000636080F8211080F82020104610BD000047
:1002700010B590F821100024022903D004218163D5
:1002800001243DE001680A6822F00E020A6001685C
:100290000A6822F001020A601A4A0168914201D1FB
:1002A000012121E0174A1432914201D110211BE0B3
:1002B000144A2832914201D1891515E0114A3C3285
:1002C000914201D189140FE00E4A5032914202D17D
:1002D0004FF4803108E00B4A6432914202D14FF46E
:1002E000801101E04FF08071064A083A5160012107
:1002F00080F82110002180F82010416B01B188475F
:10030000204610BD080002402DE9F05FC16B0C686B
:1003100001680B68D0F840C0042202FA0CF2494D83
:10032000DFF824A1494E4A4FDFF828B1DFF828E171
:1003300022422CD05A072AD50A68920603D40A68AA
:1003400022F004020A600168A94201D1042219E0E6
:10035000514501D1402215E0B14202D14FF48062F3
:1003600010E0B94202D14FF480420BE0594502D16E
:100370004FF4802206E0714502D14FF4800201E083
:100380004FF080622F4908394A60C16A3BE04FF064
:10039000020808FA0CF818EA040F4FF000094FF0B1
:1003A000010235D05FEA837832D50B689B0605D40D
:1003B0000B6823F00A030B6080F821200168A94232
:1003C00001D1022219E0514501D1202215E0B142AC
:1003D00002D14FF4007210E0B94202D14FF4005242
:1003E0000BE0594502D14FF4003206E0714502D1CD
:1003F0004FF4001201E04FF00072124908394A60D0
:1004000080F82090816A00291AD0BDE8F05F084783
:10041000082505FA0CF5254212D01B0710D50B68EC
:1004200023F00E030B6090F84010C36B02FA01F149
:100430005960826380F8212080F82090016BE2E708
:10044000BDE8F09F080002401C000240300002405E
:1004500044000240580002406C00024030B528B30E
:1004600008C8134914221944B1FBF2F18900C16391
:1004700010498163022141771A6843F6F0718A437B
:10048000D0E900142143D0E902452C4321430469FB
:1004900021434469214384692143114319600021A8
:1004A0004163012242770177084630BD012030BD0B
:1004B000F8FFFDBF0000024070B5044690F8200030
:1004C000002501280CD0012084F8200094F8216038
:1004D0000020012E06D084F820000225284670BD99
:1004E000022070BD022684F82160A063206806689F
:1004F00026F0010606602046FFF758FEE06A002855
:100500002068016802D041F00E0106E021F00401EC
:1005100001602068016841F00A01016020680168FB
:1005200041F001010160D9E72DE9F84FDFF8B891FA
:100530000024A9F1040B23460F2709F1040AABF1AB
:10054000040EC9E00125A5402A40AA427DD1674E8C
:10055000D1F804C0ACEB0608B44532D014DCBCF1D1
:10056000030F3AD009DCBCF1000F2AD0BCF1010F17
:100570001CD0BCF1020F31D11DE0BCF1110F17D01E
:10058000BCF1120F2AD119E0B8F5881F19D006DC8A
:10059000B8F5803F15D0B8F5801F1FD111E0B8F530
:1005A000001F0ED0B8F5041F18D10AE0CB6815E083
:1005B000CB681B1D12E0CB6808330FE0CB680C330F
:1005C0000CE08B682BB1012B4FF0080303D0456181
:1005D00004E0042302E0056100E00023FF2A01D8C3
:1005E000064601E000F104064FEA840501D9A5F1B1
:1005F0002005D6F8008007FA05FC28EA0C0803FA63
:1006000005F548EA0508C6F800804D68ED0062D59A
:10061000374DAE6946F00106AE61AD6924F00306C0
:1006200005F001050095334D06EB050CDCF808508C
:10063000A607360F07FA06F825EA0805DFF8B8809E
:10064000404503D14FF0000817E044E0DFF8AC80EC
:10065000404502D14FF001080FE0DFF8A48040458B
:1006600002D14FF0020808E0DFF89880404502D13F
:100670004FF0030801E04FF0040808FA06F848EAD2
:100680000508CCF808804D68D9F80060ED024D46A9
:1006900001D5164300E096432E604D68DAF80060FD
:1006A000AD02554601D5164300E096432E604D68D5
:1006B000DBF80060AD035D4601D5164300E09643CC
:1006C0002E604D68DEF80060ED03754601D51643D7
:1006D00000E096432E60641C0D682A46E5407FF4D6
:1006E00031AFBDE8F88F0000080401400000111090
:1006F000001002400000014000080140000C0140D1
:1007000000100140001401408068084000D0012022
:100710007047C26821EA02030A4043EA02410161CC
:1007200070470AB1016170470904FBE7014880681E
:10073000704700000800002070B5040025D094F830
:100740003D00002520B984F83C50204600F0B8F860
:10075000242084F83D002068016821F00101016037
:100760002068016841F4004101602068016821F4BB
:100770000041016000F054FB4D4A6168914201D88C
:100780004C4900E04C49884201D2012070BD4B49E0
:100790002368B0FBF1F15E6826F03F060E435E6011
:1007A0006368934206D94FF4967359434FF47A73B2
:1007B000B1FBF3F12368491C1E6A26F03F06314362
:1007C00019626168914210D84900401EB0FBF1F2F5
:1007D000521CC2F30B02042A01D2042022E0B0FB17
:1007E000F1F0401CC0F30B001CE0A268F2B301EB77
:1007F000C10303EB0116431EB3FBF6F35B1C43F48A
:1008000080431B0549D092B301EBC10202EB0111F9
:10081000401EB0FBF1F0401CC0F30B0040F48040E0
:1008200040F400402168CA694CF6FF739A431043B4
:10083000C861D4E9071001432068026822F0C002B1
:1008400011430160D4E9030101432068826848F242
:10085000FF339A4311438160D4E9050108432168BD
:10086000CA6822F0FF021043C86001E00EE016E003
:100870002068016841F0010101602564202084F8AE
:100880003D00256384F83E50002070BD01EB410619
:10089000431EB3FBF6F35B1CB3E70120C2E701EB99
:1008A0004101401EB0FBF1F0401CC0F30B00B7E764
:1008B000A086010080841E0000093D0040420F0018
:1008C00030B585B000210091019102910391214D35
:1008D0000368214C122103222048AB421DD1A36999
:1008E00043F00803A361A369039203F00803049390
:1008F0001302CDE900316946FFF716FE184841683A
:1009000041F0E06141F002014160E06940F4001013
:10091000E061E06900F4001019E0124DAB4217D11C
:10092000A36943F00803A361A369039203F00803DA
:1009300004934FF44063CDE900316946FFF7F4FDBD
:10094000E06940F48000E061E06900F48000049018
:1009500005B030BD0054004000100240000C0140C2
:1009600000000140005800400248816802781144AC
:100970008160704708000020074810B5016841F009
:1009800010010160032000F09BF80F2000F006F832
:1009900000F04AF8002010BD0020024030B50546A6
:1009A0001C4887B0816941F400618161806906A9B2
:1009B00000F40060009001A800F012FA00F040FA84
:1009C0001549164AB0FBF1F11548491E0260416015
:1009D00040F2E7320021C0E903218160816100F02B
:1009E000DDFC040012D10E4800F05EFD04000DD1C4
:1009F000192000F037F8102D07D2002229461920BF
:100A000000F03EF80748056000E0012407B02046EA
:100A100030BD00000010024040420F00002C014099
:100A2000FC0500200C0000200C4808B5816941F04D
:100A300001018161816901F001010091C16941F009
:100A40008051C161C06900F0805000900448416845
:100A500021F0E06141F00071416008BD00100240EA
:100A600000000140002809DB00F01F020121914035
:100A70004009800000F1E020C0F80011704700003C
:100A8000F0B40E4B1B680C46C3F30223C3F10705F9
:100A9000042D00D90425191D072901D2002300E0E7
:100AA000DB1E012606FA05F1491E214099409E40B1
:100AB000761E16403143F0BC02F078B80CED00E031
:100AC000064900F0070208684FF6FF03184040EAA5
:100AD0000220034A10430860704700000CED00E05C
:100AE0000000FA052DE9F041040004D094F89102C9
:100AF000002518B107E00120BDE8F08184F890528C
:100B0000204600F04DF8032084F8910265712068BA
:100B100001F0DDFF94E80F0001F0CCFF022698BB46
:100B20000021206801F0DAFF70BB002001270BE0F4
:100B300000EB800104EBC1014F740874CD740D62A9
:100B40004D62401CC0B28D6221798142F0D80020F4
:100B500012E000BF00EB800104EBC10181F85151AC
:100B600081F8500181F85351C1F86051C1F86451C6
:100B7000401CC0B2C1F8685121798142EAD894E89A
:100B80000F0001F09BFF10B184F89162B3E7657329
:100B900084F89172206801F08FFF0020ACE700001C
:100BA00008B500680649884208D10648C16941F481
:100BB0000001C161C06900F40000009008BD0000A0
:100BC000005C0040001002402DE9F8430546007823
:100BD000354CC00754D0E0690026C00008D4E06955
:100BE00040F08050E061E069012600F08050009004
:100BF0002E480168C90512D40168804641F480710D
:100C00000160FFF793FD074605E000BFFFF78EFD8B
:100C1000C01B642823D8D8F80000C005F6D5206A88
:100C200010F4407021D0A98801F4407181421CD099
:100C3000206A1F49012220F440700A6000220A60E5
:100C40002062C00711D0FFF771FD074641F28838D6
:100C500008E000BFFFF76AFDC11B414502D9032030
:100C6000BDE8F883206A8007F4D5206A696820F41B
:100C70004070084320621EB1E06920F08050E061BE
:100C80002878800705D56068A96820F440400843AB
:100C900060602878C00605D56068E96820F48000A7
:100CA000084360600020DBE7001002400070004055
:100CB000400442422DE9F0470F46050061D0434E03
:100CC000306800F00700B84209D2306820F0070011
:100CD00038433060306800F00700B84251D12868CE
:100CE0003B4C810712D5400703D5606840F4E060B3
:100CF00060602878000703D5606840F46050606049
:100D00006068A96820F0F000084360602878C00798
:100D100028D06868012810D02168022810D08907DF
:100D200000292EDA616821F0030101436160FFF7B9
:100D3000FDFC804641F288390DE021688903EFE728
:100D40008901EDE7FFF7F2FCA0EB0801494502D964
:100D50000320BDE8F0876068696800F00C00B0EB24
:100D6000810FEFD1306800F00700B8420BD930682E
:100D700020F0070038433060306800F00700B842C8
:100D800001D00120E5E72878400705D56068E968CB
:100D900020F4E060084360602878000706D56068AA
:100DA000296920F4605040EAC100606000F058F802
:100DB0006168084AC1F30311515CC84006490860E4
:100DC00006480068FFF7EAFD0020C2E70020024065
:100DD000001002404E2D0008140000200C000020DE
:100DE0000F2202600C4A536803F003034360536808
:100DF00003F0F0038360536803F4E063C360526858
:100E00004FF4E06303EAD20202610448006800F094
:100E100007000860704700000010024000200240F8
:100E20000448054900684968044AC1F30221515C3D
:100E3000C840704714000020001002405E2D0008DA
:100E40000448054900684968044AC1F3C221515C5D
:100E5000C840704714000020001002405E2D0008BA
:100E60000E4A51680E4801F00C03042B11D0082BD8
:100E70000FD10C48C1F38343C903C05C0AD5516844
:100E8000084AC1F34041921E515C054A5043B0FBF1
:100E9000F1F07047044948437047000000100240D9
:100EA00000127A003E2D000800093D002DE9F84FA0
:100EB000040070D02078C04DC00749D06868C0F3E6
:100EC0008100012807D06868C0F38100022809D199
:100ED0006868C00306D52868800339D56068002893
:100EE000E7D035E06068B0F5803F0BD010B1B0F5C9
:100EF000A02F11D0286820F480302860286820F4C2
:100F0000802002E0286840F480302860606890B15A
:100F1000FFF70CFC06460AE0286840F480202860B1
:100F2000F0E700BFFFF702FC801B642873D8286835
:100F30008003F7D50CE0FFF7F9FB064605E000BF9C
:100F4000FFF7F4FB801B6428F0D828688003F7D4EF
:100F500020789A4E80074FF001094FF0000839D5EC
:100F6000686810F00C0F07D06868C0F38100022891
:100F700009D16868C00306D42868800714D52069A1
:100F8000012808D110E02069B0B1C6F80090FFF741
:100F9000CDFB074605E00AE1FFF7C8FBC01B0228AE
:100FA000C4D828688007F7D52868616920F0F80060
:100FB00040EAC10028600DE0C6F80080FFF7B6FBEC
:100FC000074604E0FFF7B2FBC01B022823D82868BD
:100FD0008007F7D4207800072CD57948A169D9B1CA
:100FE000C0F80090FFF7A2FB074604E0FFF79EFB66
:100FF000C01B02280FD8686A8007F7D571484FF4E4
:10100000FA510068B0FBF1F0009000BF0098411E5B
:101010000091FAD20EE080E0C0F80080FFF786FB76
:10102000074604E0FFF782FBC01B022875D8686AF8
:101030008007F7D42078400760D5E8690027C00012
:1010400008D4E86940F08050E861E869012700F0C1
:10105000805000905C480168C90513D4016883463C
:1010600041F480710160FFF761FB824606E000BF3A
:10107000FFF75CFBA0EB0A0064284ED8DBF8000009
:10108000C005F5D5E06801280AD008B1052813D0BD
:10109000286A20F001002862286A20F0040002E09B
:1010A000286A40F001002862E06841F2883B98B16C
:1010B000FFF73CFB82460BE0286A40F00400286200
:1010C000EEE700BFFFF732FBA0EB0A0159455AD803
:1010D000286A8007F6D50CE0FFF728FB824605E07A
:1010E000FFF724FBA0EB0A0159454CD8286A80077A
:1010F000F6D41FB1E86920F08050E861E06988B358
:101100006968C1F38101022944D00228C6F86080D1
:1011100004D0FFF70BFB044638E034E0FFF706FB92
:10112000074604E0FFF702FBC01B02282BD8286803
:101130008001F7D4206AB0F5803F05D16868A168C6
:1011400020F4003008436860D4E908010843696866
:1011500021F4741108436860C6F86090FFF7E6FA5E
:10116000044606E025E000BFFFF7E0FA001B022876
:1011700009D828688001F7D51BE000BFFFF7D6FA31
:10118000001B022802D90320BDE8F88F28688001DF
:10119000F4D40EE00128F7D06868226A00F48031A8
:1011A000914204D1616A00F47010884201D001209C
:1011B000EAE70020E8E70000001002400000424299
:1011C00080044242140000200070004070B504000A
:1011D00009D0606A002540B125616561A56294F877
:1011E000510040B10CE0012070BD6068B0F5827F15
:1011F000F4D0E561F2E784F85050204600F040F862
:10120000022084F851002068016821F0400101604B
:10121000A088218900F4827001F404410843A18967
:1012200001F400610843217C01F002010843217DA3
:1012300001F001010843218B01F400710843217F73
:1012400001F03801084394F8201001F080010843B0
:10125000218D01F40051084321680860A069042130
:1012600001EA1040216848602068C16921F40061EA
:10127000C1616565012084F85100002070BD000047
:1012800070B586B000210091019102910391234A2B
:101290000168234802240325914218D1816941F451
:1012A00080518161816901F480510491816941F02B
:1012B0000401816180691B4E00F004000490B0209D
:1012C000009069463046FFF72FF940201CE0164A8F
:1012D000914220D1C16941F48041C161C16901F4E9
:1012E00080410491816941F00801816180690F4E5C
:1012F00000F0080004904FF4A0400090694630468A
:10130000FFF712F94FF42040CDE900046946039538
:101310003046FFF709F906B070BD0000003001400B
:10132000001002400008014000380040000C01405D
:101330007047704770B590F83C20012A26D00124F0
:1013400080F83C40022280F83D2003685A689D687E
:1013500022F070060A6832435A600D4B02689A42C6
:1013600008D0B2F1804F05D00A4B9A4202D00A4B06
:101370009A4204D1496825F080031943916080F8AE
:101380003D40002180F83C10084670BD022070BD31
:10139000002C0140000400400008004010B504008B
:1013A00003D094F83D0010B107E0012010BD0020EB
:1013B00084F83C00204600F01FF8022084F83D002D
:1013C000211D206801F03EF8012084F8460084F8D1
:1013D0003E0084F83F0084F8400084F8410084F81F
:1013E000420084F8430084F8440084F8450084F8FF
:1013F0003D00002010BD000008B501681448B1F19F
:10140000804F14D0134A914220D1C16941F00201AA
:10141000C161C069002200F00200009011461D2049
:10142000FFF72EFB1D20BDE80840FFF71BBBC1697D
:1014300041F00101C161C069002200F0010000908B
:1014400005211C20FFF71CFB1C20ECE708BD000059
:10145000001002400004004090F83D10012901D026
:1014600001207047022180F83D1000680B49884236
:1014700008D0B0F1804F05D00949884202D009490F
:10148000884204D1816801F00701062903D0016870
:1014900041F001010160002070470000002C014074
:1014A000000400400008004090F83D10012901D0E0
:1014B00001207047022180F83D100168CA6842F09F
:1014C0000102CA6000680B49884208D0B0F1804F21
:1014D00005D00949884202D00849884204D1816870
:1014E00001F00701062903D0016841F00101016004
:1014F00000207047002C014000040040000800401C
:1015000070B5044690F83C000025012817D001264C
:1015100084F83C60022084F83D002068826822F054
:10152000770222F47F4282600868502838D00DDCB0
:1015300020284FD005DC90B3102811D14AE00220BA
:1015400070BD302846D040280AD13BE060282FD01B
:1015500070280DD0B0F5805F03D0B0F5005F12D0D9
:10156000012584F83D60002084F83C00284670BDC9
:10157000CB68D1E90121206800F0A0FF20688168D4
:1015800041F0770109E0CB68D1E90121206800F042
:1015900095FF2068816841F480418160E1E719E0AE
:1015A000CA684968206801F03DF85021206806E0CB
:1015B000CA684968206801F046F86021206800F098
:1015C00087FFCEE7CA684968206801F02BF8402100
:1015D0002068F4E7226801461046F0E770472DE9DD
:1015E000F04104460068C66805694FF00007A90786
:1015F00013D5B10711D5F91E0161012020772068AC
:1016000080698007204602D0FFF7E8FF04E000F081
:10161000A5F8204600F037F92777680716D5700738
:1016200014D521686FF0040008610220207720683B
:10163000806910F4407F204602D0FFF7CFFF04E01E
:1016400000F08CF8204600F01EF92777280715D502
:10165000300713D521686FF0080008610420207757
:101660002068C0698007204602D0FFF7B7FF04E07A
:1016700000F074F8204600F006F92777E80616D542
:10168000F00614D521686FF010000861082020775B
:101690002068C06910F4407F204602D0FFF79EFF0B
:1016A00004E000F05BF8204600F0EDF82777E8074B
:1016B00008D0F00706D021686FF0010008612046CD
:1016C00000F0E2F8280608D5300606D521686FF04C
:1016D000800008612046FFF72BFE680608D57006DB
:1016E00006D521686FF040000861204600F0D6F86A
:1016F000A8060AD5B00608D521686FF02000086159
:101700002046BDE8F041FFF714BEBDE8F0810000BF
:1017100000B585B00021009101910291039100680C
:101720000B49884211D10B48816941F00801816160
:101730008069694600F008000490012000900220B2
:10174000019003900448FEF7EFFE05B000BD0000D5
:101750000004004000100240000C0140704770B5CA
:10176000044690F83C0000260D4601280FD00120C9
:1017700084F83C006AB1042A1DD0082A2FD00C2A14
:101780003FD00126002084F83C00304670BD022086
:1017900070BD206800F0A4FE2068816941F0080156
:1017A00081612068816921F004018161206881697B
:1017B0002A69114311E0206800F0BAFE20688169AF
:1017C00041F4006181612068816921F48061816157
:1017D000206881692A6941EA02218161D2E7206893
:1017E00000F0D2FE2068C16941F00801C1612068A3
:1017F000C16921F00401C1612068C1692A691143EE
:1018000011E0206800F0ECFE2068C16941F400613D
:10181000C1612068C16921F48061C1612068C1692A
:101820002A6941EA0221C161ACE710B5040003D086
:1018300094F83D0010B107E0012010BD002084F8AD
:101840003C00204600F01EF8022084F83D00211DD7
:10185000206800F0F7FD012084F8460084F83E007F
:1018600084F83F0084F8400084F8410084F8420086
:1018700084F8430084F8440084F8450084F83D006F
:10188000002010BD7047704700680349884201D1AD
:10189000FFF76AB870470000002C0140704738B568
:1018A000044690F84200202801D0022038BD51B1F2
:1018B0004AB10120206300206063204601F064F8F3
:1018C000216B012901D0012038BD21680A684968CF
:1018D000009121680C3151E8002F42F0100241E8DC
:1018E0000023002BF5D138BD70B5B2B00546C82134
:1018F0006846FEF720FC1B4C1B4821462279921DAE
:1019000001F03CF9227969461748921D00F030FD3C
:1019100016492868884219D19DF800005A2815D127
:101920009DF80100A52811D19DF802005A280DD17B
:101930009DF804006E46001DC5B20DEB0500407811
:10194000D02805D0C8213046FEF7F5FB32B070BD77
:10195000002404E03019407901F0D4F8641CAC4252
:10196000F8DDF3E7680700200C070020003801408D
:1019700010B50068074988420AD10748074900683E
:1019800001F0AEF8BDE8104040210448FEF7D3BB9B
:1019900010BD00000038014018000020680700203A
:1019A000F8B5016804460868CA684B6910F00F0F63
:1019B0004FF0000559D003F0010602F49077374349
:1019C00065D0C10705D0D10503D5616C41F0010197
:1019D0006164410705D5D90703D0616C41F002016C
:1019E0006164810705D5D90703D0616C41F004011A
:1019F0006164010707D502F02001314303D0616C17
:101A000041F008016164616C00293AD0800604D578
:101A1000900602D5204600F0DCFE20684069616C2B
:101A2000C0F38010090700D460B3204600F09CFE8C
:101A300020684069400621D52068143050E8001F16
:101A400021F0400140E80012002AF5D1E06BA8B176
:101A50006D494163E06BFEF70BFC002811D0E06B91
:101A6000416B01B0BDE8F040084783060FD59306EF
:101A70000DD52046BDE8F84000F0ABBE2046FFF78C
:101A800077FFF8BD2046FFF773FF6564F8BD266B4E
:101A90002023012E7CD1C6067AD5D60678D50868D3
:101AA0004868009048694FF00206400640D5E16B57
:101AB000086840680004000CE8D0A28D8242E5D995
:101AC000E085886920282DD020680C3050E8001F60
:101AD00021F4807140E80012002AF5D1206814300A
:101AE00050E8001F21F0010140E80012002AF5D162
:101AF0002068143050E8001F21F0400140E8001237
:101B0000002AF5D184F84230256320680C3050E873
:101B1000001F21F0100140E80012002AF5D1E06B0F
:101B2000FEF782FB6663A08DE18D401A81B22AE048
:101B3000A08DE18D401A81B2E08D0028A6D0002949
:101B4000A4D022680C3252E8000F20F4907042E8D2
:101B50000007002FF5D12068143050E8002F22F044
:101B6000010240E80027002FF5D184F842302563B8
:101B700020680C3050E8002F22F0100240E80023CB
:101B8000002BF5D166632046FFF7AEFEF8BDFFE7F8
:101B900005062BD5150629D594F841002128F5D145
:101BA000A068B0F5805F01D12069B0B1206A411C06
:101BB0002162216800784860E08C401E0004000C1F
:101BC000E084E3D12068C16821F08001C160206811
:101BD000C16841F04001C160D8E7206A0088C0F3C5
:101BE00008004860206A801C2062E5E74006CDD5E9
:101BF0005006CBD5CA68204622F04002CA6084F85D
:101C0000413000F021F9C1E76B26000870B50400EF
:101C100004D094F84100002510B106E0012070BD09
:101C200084F84050204600F023F8242084F8410036
:101C30002068C16821F40051C160204600F048FED0
:101C40002068016921F4904101612068416921F017
:101C50002A0141612068C16841F40051C160656496
:101C6000202084F8410084F842006563002070BDA4
:101C7000F0B585B0002400940194029403940646C4
:101C8000424F0368424802210322424DBB424FD1DA
:101C9000836943F480438361836903F4804304933D
:101CA000836943F0040383618069039200F00400B8
:101CB00004900802CDE9000169462846FEF734FC8D
:101CC0002815CDE900040120029069462846FEF758
:101CD0002BFC324D30488027C5E90004C5E9024796
:101CE0002C616C61AC612846EC61FEF7B7FB08B172
:101CF000FEF772FAF5636E62284D274844351438B2
:101D000001C5102091C5254845F8104944306C6143
:101D1000AC61EC61FEF7A2FB08B1FEF75DFAB563BA
:101D20000022052125206E62FEF7AAFE252028E06C
:101D30001B4EB34227D1C36943F40033C361C36967
:101D400003F400330493836943F0040383618069DF
:101D5000039200F0040004900420CDE900016946DC
:101D60002846FEF7E1FB0820CDE900046946284635
:101D70000294FEF7D9FB002211462620FEF780FED2
:101D80002620FEF76FFE05B0F0BD000000380140D0
:101D90000010024000080140580002409C02002050
:101DA00000440040704770472DE9F843044690F81E
:101DB0004100984616460D46202802D00220BDE874
:101DC000F88385B17EB100206064212084F8410051
:101DD000FEF7ACFCA6848146E684A0682027B0F517
:101DE000805F02D003E00120E9E7206910B12E46B0
:101DF00000250EE000260CE08021204600F00CFEBD
:101E0000A8B9C6B116F8010B21684860E08C401EE5
:101E1000E084E08C4B464FF00002CDF800800028B3
:101E2000EAD14FF04001204600F0F6FD40B184F8C1
:101E300041700320C3E735F8020BC0F30800E3E765
:101E400084F841700020BAE77047FEE7002804D00C
:101E5000D0E90010814201D1012070470020704775
:101E600000280AD001688268491CB1FBF2F302FB2A
:101E700013114068814201D1012070470020704752
:101E80004FF400410148FEF73FBC0000000801404C
:101E90002DE9F0412D4CA06880470122002160B15E
:101EA000A170E7780526042303200225062F0BD214
:101EB000DFE807F0050C131E283AA270F1E7A078BE
:101EC000012806D1E2702171BDE8F081A0780128D7
:101ED00001D0E170F7E7E570F5E7A278012A01D0BB
:101EE00021801BE02288322A09D2521C2280F2E78C
:101EF000A278012A03D0E17023712180E4E7E07029
:101F00002171FAE7A0780128208809D0192803D385
:101F10002180E1702271D7E7401C2080E370D2E776
:101F20001928D1D221800EE0A378012B03D0218083
:101F3000E1702571C8E72388322B02D3E07022714B
:101F4000DBE75B1C2380E670BDE700001C07002078
:101F5000074910B5054808600846FEF73FF9002814
:101F600003D0BDE81040FEF737B910BD0030024085
:101F7000000000200D4808B5416941F001014161B0
:101F80004069002200F00100009005210E20FEF7BC
:101F900077FD0E20FEF766FD002211460F20FEF7AA
:101FA0006FFDBDE808400F20FEF75CBD0010024049
:101FB0002DE9F04385B00025344800950195029540
:101FC0000395816941F010018161816901F010017F
:101FD0000491816941F020018161816901F0200152
:101FE0000491816941F004018161816901F004017A
:101FF0000491816941F0080181618069244F00F0FA
:1020000008004FF480440490002221463846FEF731
:1020100088FBDFF88090002202214846FEF781FB12
:10202000DFF87480A611002231464046FEF779FBA6
:102030000094012401940294694638460394FEF703
:1020400073FA0220CDE900040294694648460394DD
:10205000FEF76AFACDE900640294694640460394AB
:10206000FEF762FAE003CDE90005694602944046B6
:10207000FEF75AFAF820CDE9000569460294484671
:10208000FEF752FA05B0BDE8F083000000100240F0
:1020900000100140000C0140000801400D4810B53F
:1020A0000B4901600C49416000214FF4804281607E
:1020B000C0E9031241618161C1610162FEF73CFB2D
:1020C000002803D0BDE81040FEF786B810BD000020
:1020D0000054004024000020A08601000D4810B5E7
:1020E0000B4901600C49416000214FF4804281603E
:1020F000C0E9031241618161C1610162FEF71CFB0D
:10210000002803D0BDE81040FEF766B810BD0000FF
:102110000058004078000020A08601000E4810B54D
:102120000C49016000214FF400624160C0E90212D5
:102130000161416181610162416281620A21C16282
:10214000FFF744F8002803D0BDE81040FEF744B87C
:1021500010BD000000300140CC0000200E4810B53A
:102160000C4901604FF48271416000218160C160BF
:10217000016141618161C1610162416281620A2143
:10218000C162FFF723F8002803D0BDE81040FEF736
:1021900023B810BD003800402401002010B586B0DF
:1021A00000241748009401940294039404944FF07F
:1021B000804105940160C721C0E9011441F61F4127
:1021C000C0E9031480218161FFF7E8F808B1FEF748
:1021D00003F84FF48050009069460948FFF790F9E2
:1021E00008B1FDF7F9FF049404A905480594FFF729
:1021F000A1F8002801D0FDF7EFFF06B010BD0000E8
:102200007C01002010B58EB0002407940894099436
:102210000A940B941C2168460C94FDF78CFF1E4811
:102220001C49C0E900144FF6FF71C0E90241046186
:102230008461FFF7B3F808B1FDF7CEFF4FF480508B
:10224000079007A91448FFF75BF908B1FDF7C4FF31
:102250001148FFF7EAFA08B1FDF7BEFF0B940BA98E
:102260000D480C94FFF766F808B1FDF7B5FF602044
:10227000CDE9000402940822694607480494FFF758
:102280006EFA08B1FDF7A8FF0348FFF741FA0EB058
:1022900010BD000000040040C40100200C4810B52F
:1022A0000A4901604FF416514160002181600C22FF
:1022B000C160C0E904128161C161FFF7A7FC002879
:1022C00003D0BDE81040FDF787BF10BD00380140C6
:1022D0000C0200200C4810B50A4901604FF4165159
:1022E0004160002181600C22C160C0E9041281615B
:1022F000C161FFF78BFC002803D0BDE81040FDF75B
:102300006BBF10BD00440040540200200B4810B5C4
:102310000949016008210171022181710021817246
:10232000C1720173FEF7DEFB002803D0BDE8104048
:10233000FDF752BF10BD0000005C004024030020E8
:10234000FEE7FEE7704700B50B4602000FD0FFF72F
:102350007DFD00280BD15168D068405C1870D2E92F
:102360000101401CB0FBF1F301FB1300506000BD04
:10237000F0B515460E46070008D0002404E03119D8
:102380003846FFF7E0FF641CAC42F8D3F0BD0023F1
:1023900003604360C0E9022170477047704730B561
:1023A00093B028216846FDF7C6FE14210AA8FDF760
:1023B000C2FE002401200F94109411940104129481
:1023C0008DE8130004904FF4E010CDE908100225C9
:1023D00007956846FEF76AFD08B172B6FEE70F2062
:1023E000CDE90A054FF48060CDE90C4002210AA82E
:1023F0000E94FEF75FFC08B172B6FEE710200F9056
:1024000012940FA8FEF7E0FB002801D072B6FEE799
:1024100013B030BD704700000148FFF7E0B800007E
:10242000FC05002010B50348FFF7D9F8BDE81040BF
:1024300000F060BC7C0100200148FFF7D0B800002C
:10244000C4010020F0B50268194B1A4C1A4D4FF028
:102450008047984205D0B84203D0A04201D0A8429C
:1024600003D122F070064A683243984205D0B84240
:1024700003D0A04201D0A84203D122F44074CA681C
:1024800022434C6922F08002224302608A68C262C1
:102490000A688262984201D10969016301214161A0
:1024A0000169C90703D0016921F001010161F0BD93
:1024B000002C0140000400400008004010B5846872
:1024C00042EA032224F47F440A432243826010BD7F
:1024D000826822F070020A4342F00701816070476F
:1024E00030B5036A026A22F001020262426884691E
:1024F00024F073050C682C4323F002058B682B43F2
:102500000A4DA8420BD123F00805CB6822F4407293
:102510002B434D6923F0040315438A692A43426023
:10252000846149684163036230BD0000002C0140B2
:1025300030B5026A036A23F01003036243688469BA
:102540000D6824F4E64444EA05248D6822F0200254
:1025500042EA05120B4DA8420ED1CD6822F080024E
:1025600042EA05124D6923F4406343EA85038D690D
:1025700022F0400243EA8503436084614968816335
:10258000026230BD002C014030B5036A026A22F4B9
:10259000807202624268C46923F4007324F07305F8
:1025A0000C682C438D6843EA05230C4DA8420ED1DC
:1025B000CD6823F4006343EA05234D6922F44052B9
:1025C00042EA05128D6923F4806342EA05124260F3
:1025D000C4614968C163036230BD0000002C014042
:1025E00030B5046A026A22F4805202624268C3690A
:1025F0000D6823F4E64343EA05238D6824F4005470
:1026000044EA0534064DA84204D14D6922F48042C3
:1026100042EA85124260C36149680164046230BDC8
:10262000002C014010B5036A046A24F0010404621E
:10263000846924F0F00444EA021423F00A020A43F5
:102640008461026210BD10B5036A046A24F01004AC
:102650000462846923F0A00324F4704444EA023243
:1026600043EA01118261016210BD10B5406A002188
:10267000C185C184FFF77CF910BD70B5446A20683C
:10268000406994F84110C0F3C0100025212904D1FD
:1026900018B1E584204600F08EF82068406994F86F
:1026A0004210C0F38010222904D118B1E5852046DC
:1026B00000F05AF8606C40F0100060642046FFF7AC
:1026C00057F970BD10B50146406A096809684FF0B6
:1026D000000289062ED4C28501680C3151E8003F02
:1026E00023F4807341E80034002CF5D101681431E3
:1026F00051E8003F23F0010341E80034002CF5D1FC
:102700000168143151E8003F23F0400341E80034F0
:10271000002CF5D1202180F84210016B012909D14C
:1027200001680C3151E8003F23F0100341E8003408
:10273000002CF5D14263016B012902D0FFF732FB77
:1027400010BD818DFFF7D0F810BD10B5406A012192
:102750004163016B012902D0FFF725FB10BD818D7C
:102760004908FFF7C1F810BD01680C3151E8002F8E
:1027700022F4907241E80023002BF5D10168143156
:1027800051E8002F22F0010241E80023002BF5D18F
:10279000016B012909D101680C3151E8002F22F0A9
:1027A000100241E80023002BF5D1202180F84210CF
:1027B00000210163704701680C3151E8002F22F0BD
:1027C000C00241E80023002BF5D1202180F8411000
:1027D000704708B590F84210222901D0022008BDA8
:1027E00082684FF480539A4201D1016921B1816A14
:1027F0009A421BD04AB10AE00268816A5268C2F369
:1028000008020A80816A891C08E0026972B10268C4
:10281000526802F07F020A70816A491C8162C18D90
:10282000491E0904090CC18503D01BE002685268E7
:10283000F1E70168CA6822F02002CA600168CA682C
:1028400022F48072CA6001684A6922F001024A617A
:10285000202180F8421000214163026B012A03D03D
:10286000FFF7A0FA002008BD016301680C3151E8B0
:10287000002F22F0100241E80023002BF5D101685F
:102880000A68D20602D50A6849680091818DFFF76F
:102890002BF8E7E718B5026801248BB21268B4EB95
:1028A000117F03D1D1681943D1600AE00224B4EB4F
:1028B000117F03D111691943116102E05169194374
:1028C00051610068006801684068009018BD000010
:1028D00070B5044600680169E26821F44051114373
:1028E00001612169A0680843616908432168CA68D9
:1028F00041F20C639A430243CA6020684169A269AD
:1029000021F44071114341611E492068884202D17F
:10291000FEF796FA01E0FEF783FA00EBC00101EB47
:102920000012606864218000B2FBF0F3B3FBF1F3A6
:102930006FF018067343B2FBF0F5B2FBF0F605EB4F
:102940008305322303EB0515B5FBF1F5B6FBF1F674
:1029500005F0F00505EB0615B2FBF0F6B2FBF0F062
:10296000B0FBF1F06FF01802504306EB800003EB70
:102970000010B0FBF1F0216800F00F0028448860DF
:1029800070BD00000038014038B581620446828580
:10299000002013466064222284F84220E56B1B4A23
:1029A000AA62E56B1A4AEA62E56B1A4A2A63E26B8D
:1029B00050630A462168E06B091DFDF77DFD206824
:1029C000016840680090206948B120680C3050E8E8
:1029D000001F41F4807140E80012002AF5D1206800
:1029E000143050E8001F41F0010140E80012002AB5
:1029F000F5D12068143050E8001F41F0400140E854
:102A00000012002AF5D1002038BD0000C5260008BC
:102A10004B2700087B2600082DE9F8439846174607
:102A20000D460446089E24E0701C22D0FDF77EFE71
:102A3000A0EB0800B0421AD8CEB12068C16849079F
:102A400017D5802D15D0402D13D00168C943090733
:102A50000FD401680025406800902046FFF784FEEF
:102A60000820606484F840500120BDE8F88303200A
:102A7000FBE72068006835EA000004D00020B84277
:102A8000D2D00020F1E70120F9E7000010B504489A
:102A9000FEF786FFBDE810400249014800F020B86B
:102AA0000C020020680700200148FEF779BF0000F3
:102AB000540200200020704700207047012120F8B8
:102AC000401F00210180818001820846704730F854
:102AD000401F21F43F4101800020704700207047D3
:102AE00010B540220448FEF7DAFE04480068016889
:102AF00021F00401016010BD0C0200209C020020A6
:102B0000FEE7000010B5112809D0222811D0332883
:102B100013D10A480221BDE81040FDF7FABD4FF479
:102B200080710748FDF7F5FDBDE8104005A000F0F5
:102B300035B84FF480410648EDE710BD000C014068
:102B400000080140B5E7C6BDB7B4D7AA0D0A00001A
:102B50000010014030B50D4604000ED0FFF780F99B
:102B600000280AD12168E06845542068A168401C0B
:102B7000B0FBF1F201FB1200206030BDF0B515464C
:102B80000E46070008D0002404E0315D3846FFF708
:102B9000E1FF641CAC42F8D3F0BD0000014A0249D9
:102BA00000F023B8152C0008200000200907090EAA
:102BB000002804DB00F1E02080F80014704700F0EA
:102BC0000F0000F1E02080F8141D704702E008C8F3
:102BD000121F08C1002AFAD170477047002001E097
:102BE00001C1121F002AFBD170472DE9F0411646A2
:102BF0000F460446002503E03946B047641C6D1CAF
:102C000020780028F8D12846BDE8F08102710160E3
:102C10007047000013B54FF6FF7301226946024862
:102C2000FFF7C2F800981CBD0C02002070B50D46DD
:102C3000044603220B490C48FFF7E8FF5A20207096
:102C4000A5216170A070E570D02084F88500064849
:102C500006490068FFF744FFBDE870400449024898
:102C6000FFF718BE0C0200201800002068070020A3
:102C700010000010002101808170C17001710149B4
:102C800081607047811E0008A2B0FDF775FEFFF756
:102C900086FBFFF78DF9FFF76DF9FFF7FFF9FFF7F7
:102CA0001DFAFFF73BFAFFF759FAFFF777FAFFF73C
:102CB000A9FAFFF7F3FAFFF70DFBFFF727FBFFF782
:102CC00047F9FDF757FA82216846FFF7AFFF05483D
:102CD000FEF7EAFB0348FEF7BFFB03A0FFF75EFF2A
:102CE000FEE700007C010020B3F5CABCB9FE0D0A66
:102CF0000000000010B5FFF7CBF809480079012863
:102D000008D0022808D0042808D106A0BDE8104049
:102D1000FFF744BF05A0F9E706A0F7E710BD0000E4
:102D20001C0700203333330D0A0000003131310D10
:102D30000A0000003232320D0A00000001020203D4
:102D40000405060708090A0B0C0D0E0F10100000F1
:102D5000000000000000010203040607080900004B
:102D60000000010203040000882D0008000000207C
:102D700024000000CC2B0008AC2D0008240000200B
:102D8000840B0000DC2B00080000000000000000A5
:102D900001000000100000000000000000127A0096
:0C2DA00000000000000000000000000027
:04000005080000ED02
:00000001FF
