:020000040800F2
:10000000A02600209D010008533000085325000859
:10001000513000082D020008B93900080000000026
:1000200000000000000000000000000005010008C2
:100030006B0300080000000049010008A931000816
:10004000B7010008B7010008B7010008B7010008B0
:10005000B7010008B7010008B7010008B7010008A0
:10006000B7010008B7010008B7010008B701000890
:10007000B7010008B701000829030008350300088C
:10008000B7010008B7010008B7010008B701000870
:10009000B7010008B7010008B7010008B701000860
:1000A000B70100084D320008B7010008B701000889
:1000B0005932000865320008B7010008B70100088E
:1000C000B7010008B7010008B7010008B701000830
:1000D000B7010008213900083D390008B7010008C0
:1000E000B7010008B7010008B7010008DFF810D019
:1000F00000F08AF80048004795400008AFF3008000
:10010000A0260020224B19680868B0E8F00F80F3A1
:100110000988BFF36F8F4FF0000080F311884EF015
:100120000D0E70470000000006480068006880F36C
:10013000088862B661B6BFF34F8FBFF36F8F00DFE1
:1001400000BF00BF08ED00E0EFF30980BFF36F8F41
:100150000F4B1A6820E9F00F106008B54FF05000FF
:1001600080F31188BFF34F8FBFF36F8F04F086FDCC
:100170004FF0000080F31188BDE808401968086856
:10018000B0E8F00F80F30988BFF36F8F704700BFAE
:1001900044000020EFF305807047000006488047C8
:1001A00006480047FEE7FEE7FEE7FEE7FEE7FEE75C
:1001B000FEE7FEE7FEE7FEE74B320008ED00000831
:1001C00040EA01039B0703D009E008C9121F08C0D9
:1001D000042AFAD203E011F8013B00F8013B521E59
:1001E000F9D27047D2B201E000F8012B491EFBD2D0
:1001F00070470022F6E710B513460A460446194632
:10020000FFF7F0FF204610BD064C074D06E0E06802
:1002100040F0010394E8070098471034AC42F6D34D
:10022000FFF768FF6C5600088C560008FEE70000D8
:10023000214910B5C822A1F1100002F0ABFF1E4801
:100240001121223801701221417013218170212166
:10025000C17022210171232141713121817132212B
:10026000C1713321017241214172422181724321C6
:10027000C172512101735221417353218173612154
:10028000C173622101746321417402F0C9FB02F061
:10029000FBFE00F03BF8094801F0AEFB074801F017
:1002A00083FB07A003F0E4FB03488221BDE8104074
:1002B000A83803F055BE0000CC0900205C040020E3
:1002C000B3F5CABCB9FE0D0A0000000070B50A49BA
:1002D000B1FBF0F4C4F34F05084801F04EFD0021D6
:1002E000064801F079FD0548641E0168CC62C460CF
:1002F0000068856370BD000080841E005C040020DF
:100300000021014801F0B6BD5C04002010B54FF497
:10031000FA60FFF7DBFF4FF47A7000F0CFF9BDE829
:100320001040FFF7EDBF0000014800F0B7B8000033
:10033000C0050020014800F0B1B800007C05002095
:1003400030B590F840500124AC40C56B6C60046837
:1003500063604368102B036803D099600068C26033
:1003600030BD9A600068C16030BD704772B6FEE76C
:1003700010B5040002D0607910B106E0012010BD74
:1003800000202071204600F005F801206071002057
:1003900010BD000008B500680649884208D106482B
:1003A000416941F040014161406900F04000009026
:1003B00008BD0000003002400010024010B590F867
:1003C00021100022022905D00421816380F8202019
:1003D000012010BD01680B6823F00E030B6001685B
:1003E0000B6823F001030B6090F84030C46B0121CF
:1003F00001FA03F3636080F8211080F82020104692
:1004000010BD000010B590F821100024022903D07F
:100410000421816301243DE001680A6822F00E0294
:100420000A6001680A6822F001020A601A4A01683B
:10043000914201D1012121E0174A1432914201D1A8
:1004400010211BE0144A2832914201D1891515E090
:10045000114A3C32914201D189140FE00E4A5032C8
:10046000914202D14FF4803108E00B4A643291424C
:1004700002D14FF4801101E04FF08071064A083A32
:100480005160012180F82110002180F82010416B7B
:1004900001B18847204610BD080002402DE9F05FF9
:1004A000C16B0C6801680B68D0F840C0042202FAE6
:1004B0000CF2494DDFF824A1494E4A4FDFF828B12C
:1004C000DFF828E122422CD05A072AD50A68920682
:1004D00003D40A6822F004020A600168A94201D12B
:1004E000042219E0514501D1402215E0B14202D168
:1004F0004FF4806210E0B94202D14FF480420BE029
:10050000594502D14FF4802206E0714502D14FF4E3
:10051000800201E04FF080622F4908394A60C16AC9
:100520003BE04FF0020808FA0CF818EA040F4FF00D
:1005300000094FF0010235D05FEA837832D50B68AD
:100540009B0605D40B6823F00A030B6080F821207A
:100550000168A94201D1022219E0514501D12022AE
:1005600015E0B14202D14FF4007210E0B94202D15D
:100570004FF400520BE0594502D14FF4003206E02F
:10058000714502D14FF4001201E04FF000721249A0
:1005900008394A6080F82090816A00291AD0BDE8A5
:1005A000F05F0847082505FA0CF5254212D01B0715
:1005B00010D50B6823F00E030B6090F84010C36B4E
:1005C00002FA01F15960826380F8212080F82090BE
:1005D000016BE2E7BDE8F09F080002401C0002400A
:1005E0003000024044000240580002406C000240CB
:1005F00030B528B308C8134914221944B1FBF2F1ED
:100600008900C16310498163022141771A6843F66A
:10061000F0718A43D0E900142143D0E902452C430C
:1006200021430469214344692143846921431143DF
:10063000196000214163012242770177084630BDED
:10064000012030BDF8FFFDBF0000024070B5044638
:1006500090F82000002501280CD0012084F820000B
:1006600094F821600020012E06D084F82000022595
:10067000284670BD022070BD022684F82160A06368
:100680002068066826F0010606602046FFF758FE3F
:10069000E06A00282068016802D041F00E0106E0FF
:1006A00021F0040101602068016841F00A01016045
:1006B0002068016841F001010160D9E770B5044686
:1006C00000F010F90546601C02D00448007804448C
:1006D00000F008F9401BA042FAD370BD28000020AA
:1006E0002DE9F84FDFF8B8910024A9F1040B234657
:1006F0000F2709F1040AABF1040EC9E00125A5405A
:100700002A40AA427DD1674ED1F804C0ACEB06085E
:10071000B44532D014DCBCF1030F3AD009DCBCF193
:10072000000F2AD0BCF1010F1CD0BCF1020F31D157
:100730001DE0BCF1110F17D0BCF1120F2AD119E046
:10074000B8F5881F19D006DCB8F5803F15D0B8F58C
:10075000801F1FD111E0B8F5001F0ED0B8F5041F9F
:1007600018D10AE0CB6815E0CB681B1D12E0CB68FE
:1007700008330FE0CB680C330CE08B682BB1012BF6
:100780004FF0080303D0456104E0042302E0056153
:1007900000E00023FF2A01D8064601E000F104062C
:1007A0004FEA840501D9A5F12005D6F8008007FAA3
:1007B00005FC28EA0C0803FA05F548EA0508C6F81E
:1007C00000804D68ED0062D5374DAE6946F00106F8
:1007D000AE61AD6924F0030605F001050095334DC7
:1007E00006EB050CDCF80850A607360F07FA06F8EA
:1007F00025EA0805DFF8B880404503D14FF000082E
:1008000017E044E0DFF8AC80404502D14FF001082A
:100810000FE0DFF8A480404502D14FF0020808E065
:10082000DFF89880404502D14FF0030801E04FF017
:10083000040808FA06F848EA0508CCF808804D686C
:10084000D9F80060ED024D4601D5164300E096430D
:100850002E604D68DAF80060AD02554601D51643AA
:1008600000E096432E604D68DBF80060AD035D4606
:1008700001D5164300E096432E604D68DEF8006017
:10088000ED03754601D5164300E096432E60641CC7
:100890000D682A46E5407FF431AFBDE8F88F0000CF
:1008A0000804014000001110001002400000014047
:1008B00000080140000C01400010014000140140FC
:1008C0008068084000D001207047C26821EA020316
:1008D0000A4043EA0241016170470AB10161704771
:1008E0000904FBE7014880687047000028000020E9
:1008F00070B5040025D094F83D00002520B984F897
:100900003C50204600F07EFA242084F83D00206808
:10091000016821F0010101602068016841F4004193
:1009200001602068016821F40041016000F020FDB1
:100930004D4A6168914201D84C4900E04C498842D7
:1009400001D2012070BD4B492368B0FBF1F15E6814
:1009500026F03F060E435E606368934206D94FF46B
:10096000967359434FF47A73B1FBF3F12368491C32
:100970001E6A26F03F06314319626168914210D821
:100980004900401EB0FBF1F2521CC2F30B02042AD4
:1009900001D2042022E0B0FBF1F0401CC0F30B00B8
:1009A0001CE0A268F2B301EBC10303EB0116431E86
:1009B000B3FBF6F35B1C43F480431B0549D092B3B1
:1009C00001EBC10202EB0111401EB0FBF1F0401C33
:1009D000C0F30B0040F4804040F400402168CA6935
:1009E0004CF6FF739A431043C861D4E907100143E2
:1009F0002068026822F0C00211430160D4E90301BB
:100A000001432068826848F2FF339A4311438160B2
:100A1000D4E9050108432168CA6822F0FF021043A7
:100A2000C86001E00EE016E02068016841F00101B5
:100A300001602564202084F83D00256384F83E5041
:100A4000002070BD01EB4106431EB3FBF6F35B1CB7
:100A5000B3E70120C2E701EB4101401EB0FBF1F01A
:100A6000401CC0F30B00B7E7A086010080841E0085
:100A700000093D0040420F002DE9FF4F83B00025E3
:100A8000DDE910799A4693460446DDF848800095E2
:100A9000FFF728FF064694F83D0020287CD1192353
:100AA000012288492046009601F06AFE0028F5D10F
:100AB00094F83C0001286FD0012084F83C002068A5
:100AC0000168C90703D1016841F001010160206894
:100AD000016821F400610160222084F83D0040207B
:100AE00084F83E0025646762A4F82A90608D208512
:100AF0007548E062CDE9008653465A46204604997F
:100B000001F040FD00287CD1208DDFF8C091202726
:100B100068B1012814D00228206801681ED041F471
:100B2000806101602068416980690090BCE02068B4
:100B3000416981690091016841F400710160B3E08D
:100B40002068016821F48061016072B62068416903
:100B500081690091016841F400710AE041F400618B
:100B6000016072B62068416981690091016821F4D1
:100B70008061016062B697E0032865D801280CD037
:100B8000022843464FF000024946204600960BD00B
:100B900001F0F6FDA8BB0CE091E03246414620464C
:100BA00001F094FE68BB72E001F0EAFD48BB72B64A
:100BB00033E02068016821F48061016072B620682A
:100BC0000069616A0870606A401C6062208D401E86
:100BD0002085608D401E60853D4846F2A811006862
:100BE000B0FBF1F0C0EBC00000EB80000090401EB5
:100BF000009007D020684069C04340070DD5009899
:100C0000F5E727E044F8305F6773A573206940F08B
:100C10002000206162B625731CE02068016841F461
:100C20000071016020680069616A0870606A401C98
:100C30006062218D491E2185618D491E618562B6E4
:100C400021680969017026E032464146204601F0DC
:100C50003DFE18B1012007B0BDE8F08F20680069A3
:100C6000616A0870606A401C6062208D401E81B21B
:100C70002185608D401E608520684269D2435207FD
:100C800012D4032903D1016821F480610160206836
:100C90000069616A0870606A401C6062208D401EB5
:100CA0002085608D401E6085208D00287FF464AF14
:100CB00084F83D7084F83E5084F83C50CBE7022025
:100CC000C9E70000020010000000FFFF040001005F
:100CD000340000202DE9FF4F83B09A46DDE91197DB
:100CE00093460446DDF84080FFF7FCFD054694F886
:100CF0003D0020287FD1192301224049204600953C
:100D000001F03EFD002876D194F83C00012872D015
:100D1000012084F83C0020680168C90703D10168FC
:100D200041F0010101602068016821F40061016067
:100D3000212084F83D00402084F83E0000262664EF
:100D4000C4F82480A4F82A90608D20852C48E062A5
:100D5000CDE9007553465A462046049901F090FCAF
:100D600070B930E02A463946204601F0E7FD58B117
:100D7000206C042804D12068016841F400710160EE
:100D8000012007B0BDE8F08F606A21680078086133
:100D9000606A401C6062218D491E89B22185628D86
:100DA000521E628522685369DB435B070BD469B12D
:100DB00000781061606A401C6062208D401E2085B2
:100DC000608D401E6085208D0028CBD12A46394693
:100DD000204601F0A9FC0028CAD154F83D0B016857
:100DE00041F400710160202004F81E09E67766775F
:100DF0000020C6E7FFE70220C3E700000200100062
:100E00000000FFFF30B585B00021009101910291F3
:100E10000391214D0368214C122103222048AB424B
:100E20001DD1A36943F00803A361A369039203F0F2
:100E3000080304931302CDE900316946FFF750FC23
:100E40001848416841F0E06141F002014160E06909
:100E500040F40010E061E06900F4001019E0124D68
:100E6000AB4217D1A36943F00803A361A3690392BE
:100E700003F0080304934FF44063CDE90031694661
:100E8000FFF72EFCE06940F48000E061E06900F4C7
:100E90008000049005B030BD0054004000100240B6
:100EA000000C0140000001400058004002488168E9
:100EB000027811448160704728000020074810B56F
:100EC000016841F010010160032000F0A1F80F203B
:100ED00000F006F800F04AF8002010BD00200240A3
:100EE00030B505461C4887B0816941F400618161D5
:100EF000806906A900F40060009001A800F018FACB
:100F000000F046FA1549164AB0FBF1F11548491EA2
:100F10000260416040F2E7320021C0E903218160B4
:100F2000816100F0E3FC040012D10E4800F064FD82
:100F300004000DD1192000F03DF8102D07D2002239
:100F40002946192000F044F80748056000E0012414
:100F500007B0204630BD00000010024040420F00A4
:100F6000002C0140DC0800202C0000200F4808B5B0
:100F7000816941F001018161816901F00101009104
:100F8000C16941F08051C161C069002200F0805008
:100F900000900F21901E00F01BF80548416821F0D9
:100FA000E06141F00071416008BD000000100240A6
:100FB00000000140002809DB00F01F0201219140E0
:100FC0004009800000F1E020C0F8001170470000E7
:100FD000F0B40E4B1B680C46C3F30223C3F10705A4
:100FE000042D00D90425191D072901D2002300E092
:100FF000DB1E012606FA05F1491E214099409E405C
:10100000761E16403143F0BC02F03ABD0CED00E014
:10101000064900F0070208684FF6FF03184040EA4F
:101020000220034A10430860704700000CED00E006
:101030000000FA052DE9F041040004D094F8910273
:10104000002518B107E00120BDE8F08184F8905236
:10105000204600F04DF8032084F891026571206865
:1010600002F07FFC94E80F0002F06EFC022698BBB1
:101070000021206802F07CFC70BB002001270BE0FF
:1010800000EB800104EBC1014F740874CD740D6254
:101090004D62401CC0B28D6221798142F0D800209F
:1010A00012E000BF00EB800104EBC10181F8515157
:1010B00081F8500181F85351C1F86051C1F8645171
:1010C000401CC0B2C1F8685121798142EAD894E845
:1010D0000F0002F03DFC10B184F89162B3E7657334
:1010E00084F89172206802F031FC0020ACE7000027
:1010F00008B500680649884208D10648C16941F42C
:101100000001C161C06900F40000009008BD00004A
:10111000005C0040001002402DE9F84305460078CD
:10112000354CC00754D0E0690026C00008D4E069FF
:1011300040F08050E061E069012600F080500090AE
:101140002E480168C90512D40168804641F48071B7
:101150000160FFF7C7FB074605E000BFFFF7C2FBD2
:10116000C01B642823D8D8F80000C005F6D5206A33
:1011700010F4407021D0A98801F4407181421CD044
:10118000206A1F49012220F440700A6000220A6090
:101190002062C00711D0FFF7A5FB074641F288384F
:1011A00008E000BFFFF79EFBC11B414502D90320A9
:1011B000BDE8F883206A8007F4D5206A696820F4C6
:1011C0004070084320621EB1E06920F08050E06169
:1011D0002878800705D56068A96820F44040084356
:1011E00060602878C00605D56068E96820F4800052
:1011F000084360600020DBE7001002400070004000
:10120000400442422DE9F0470F46050061D0434EAD
:10121000306800F00700B84209D2306820F00700BB
:1012200038433060306800F00700B84251D1286878
:101230003B4C810712D5400703D5606840F4E0605D
:1012400060602878000703D5606840F460506060F3
:101250006068A96820F0F000084360602878C00743
:1012600028D06868012810D02168022810D089078A
:1012700000292EDA616821F0030101436160FFF764
:1012800031FB804641F288390DE021688903EFE7A0
:101290008901EDE7FFF726FBA0EB0801494502D9DC
:1012A0000320BDE8F0876068696800F00C00B0EBCF
:1012B000810FEFD1306800F00700B8420BD93068D9
:1012C00020F0070038433060306800F00700B84273
:1012D00001D00120E5E72878400705D56068E96876
:1012E00020F4E060084360602878000706D5606855
:1012F000296920F4605040EAC100606000F058F8AD
:101300006168084AC1F30311515CC840064908608E
:1013100006480068FFF7E4FD0020C2E70020024015
:1013200000100240FE550008340000202C00002070
:101330000F2202600C4A536803F0030343605368B2
:1013400003F0F0038360536803F4E063C360526802
:101350004FF4E06303EAD20202610448006800F03F
:1013600007000860704700000010024000200240A3
:101370000448054900684968044AC1F30221515CE8
:10138000C840704734000020001002400E5600088C
:101390000448054900684968044AC1F3C221515C08
:1013A000C840704734000020001002400E5600086C
:1013B0000E4A51680E4801F00C03042B11D0082B83
:1013C0000FD10C48C1F38343C903C05C0AD55168EF
:1013D000084AC1F34041921E515C054A5043B0FB9C
:1013E000F1F0704704494843704700000010024084
:1013F00000127A00EE55000800093D002DE9F84F73
:10140000040070D02078C04DC00749D06868C0F390
:101410008100012807D06868C0F38100022809D143
:101420006868C00306D52868800339D5606800283D
:10143000E7D035E06068B0F5803F0BD010B1B0F573
:10144000A02F11D0286820F480302860286820F46C
:10145000802002E0286840F480302860606890B105
:10146000FFF740FA06460AE0286840F4802028602A
:10147000F0E700BFFFF736FA801B642873D82868AE
:101480008003F7D50CE0FFF72DFA064605E000BF14
:10149000FFF728FA801B6428F0D828688003F7D467
:1014A00020789A4E80074FF001094FF0000839D597
:1014B000686810F00C0F07D06868C0F3810002283C
:1014C00009D16868C00306D42868800714D520694C
:1014D000012808D110E02069B0B1C6F80090FFF7EC
:1014E00001FA074605E00AE1FFF7FCF9C01B0228F4
:1014F000C4D828688007F7D52868616920F0F8000B
:1015000040EAC10028600DE0C6F80080FFF7EAF964
:10151000074604E0FFF7E6F9C01B022823D8286835
:101520008007F7D4207800072CD57948A169D9B174
:10153000C0F80090FFF7D6F9074604E0FFF7D2F9AC
:10154000C01B02280FD8686A8007F7D571484FF48E
:10155000FA510068B0FBF1F0009000BF0098411E06
:101560000091FAD20EE080E0C0F80080FFF7BAF9EF
:10157000074604E0FFF7B6F9C01B022875D8686A71
:101580008007F7D42078400760D5E8690027C000BD
:1015900008D4E86940F08050E861E869012700F06C
:1015A000805000905C480168C90513D401688346E7
:1015B00041F480710160FFF795F9824606E000BFB3
:1015C000FFF790F9A0EB0A0064284ED8DBF8000082
:1015D000C005F5D5E06801280AD008B1052813D068
:1015E000286A20F001002862286A20F0040002E046
:1015F000286A40F001002862E06841F2883B98B117
:10160000FFF770F982460BE0286A40F00400286278
:10161000EEE700BFFFF766F9A0EB0A0159455AD87B
:10162000286A8007F6D50CE0FFF75CF9824605E0F2
:10163000FFF758F9A0EB0A0159454CD8286A8007F2
:10164000F6D41FB1E86920F08050E861E06988B302
:101650006968C1F38101022944D00228C6F860807C
:1016600004D0FFF73FF9044638E034E0FFF73AF9D9
:10167000074604E0FFF736F9C01B02282BD828687C
:101680008001F7D4206AB0F5803F05D16868A16871
:1016900020F4003008436860D4E908010843696811
:1016A00021F4741108436860C6F86090FFF71AF9D6
:1016B000044606E025E000BFFFF714F9001B0228EE
:1016C00009D828688001F7D51BE000BFFFF70AF9A9
:1016D000001B022802D90320BDE8F88F286880018A
:1016E000F4D40EE00128F7D06868226A00F4803153
:1016F000914204D1616A00F47010884201D0012047
:10170000EAE70020E8E70000001002400000424243
:1017100080044242340000200070004070B5040094
:1017200009D0606A002540B125616561A56294F821
:10173000510040B10CE0012070BD6068B0F5827FBF
:10174000F4D0E561F2E784F85050204600F040F80C
:10175000022084F851002068016821F040010160F6
:10176000A088218900F4827001F404410843A18912
:1017700001F400610843217C01F002010843217D4E
:1017800001F001010843218B01F400710843217F1E
:1017900001F03801084394F8201001F0800108435B
:1017A000218D01F40051084321680860A0690421DB
:1017B00001EA1040216848602068C16921F4006195
:1017C000C1616565012084F85100002070BD0000F2
:1017D00070B586B000210091019102910391234AD6
:1017E0000168234802240325914218D1816941F4FC
:1017F00080518161816901F480510491816941F0D6
:101800000401816180691B4E00F004000490B02047
:10181000009069463046FEF763FF40201CE0164A00
:10182000914220D1C16941F48041C161C16901F493
:1018300080410491816941F00801816180690F4E06
:1018400000F0080004904FF4A04000906946304634
:10185000FEF746FF4FF42040CDE9000469460395AA
:101860003046FEF73DFF06B070BD0000003001407D
:10187000001002400008014000380040000C014008
:101880007047704770B590F83C20012A26D001249B
:1018900080F83C40022280F83D2003685A689D6829
:1018A00022F070060A6832435A600D4B02689A4271
:1018B00008D0B2F1804F05D00A4B9A4202D00A4BB1
:1018C0009A4204D1496825F080031943916080F859
:1018D0003D40002180F83C10084670BD022070BDDC
:1018E000002C0140000400400008004010B5040036
:1018F00003D094F83D0010B107E0012010BD002096
:1019000084F83C00204600F01FF8022084F83D00D7
:10191000211D206801F0ACFC012084F8460084F809
:101920003E0084F83F0084F8400084F8410084F8C9
:10193000420084F8430084F8440084F8450084F8A9
:101940003D00002010BD000008B501681448B1F149
:10195000804F14D0134A914220D1C16941F0020155
:10196000C161C069002200F00200009005211D2025
:10197000FFF72EFB1D20BDE80840FFF71BBBC16928
:1019800041F00101C161C069002200F00100009036
:1019900005211C20FFF71CFB1C20ECE708BD000004
:1019A000001002400004004090F83D10012901D0D1
:1019B00001207047022180F83D1000680B498842E1
:1019C00008D0B0F1804F05D00949884202D00949BA
:1019D000884204D1816801F00701062903D001681B
:1019E00041F001010160002070470000002C01401F
:1019F000000400400008004090F83D10012901D08B
:101A000001207047022180F83D100168CA6842F049
:101A10000102CA6000680B49884208D0B0F1804FCB
:101A200005D00949884202D00849884204D181681A
:101A300001F00701062903D0016841F001010160AE
:101A400000207047002C01400004004000080040C6
:101A500070B5044690F83C000025012817D00126F7
:101A600084F83C60022084F83D002068826822F0FF
:101A7000770222F47F4282600868502838D00DDC5B
:101A800020284FD005DC90B3102811D14AE0022065
:101A900070BD302846D040280AD13BE060282FD0C6
:101AA00070280DD0B0F5805F03D0B0F5005F12D084
:101AB000012584F83D60002084F83C00284670BD74
:101AC000CB68D1E90121206801F01BFC2068816806
:101AD00041F0770109E0CB68D1E90121206801F0EC
:101AE00010FC2068816841F480418160E1E719E0E1
:101AF000CA684968206801F0B9FC5021206806E0F6
:101B0000CA684968206801F0C2FC6021206801F0C1
:101B100002FCCEE7CA684968206801F0A7FC4021B2
:101B20002068F4E7226801461046F0E770472DE987
:101B3000F04104460068C66805694FF00007A90730
:101B400013D5B10711D5F91E016101202077206856
:101B500080698007204602D0FFF7E8FF04E000F02C
:101B6000A5F8204600F037F92777680716D57007E3
:101B700014D521686FF004000861022020772068E6
:101B8000806910F4407F204602D0FFF7CFFF04E0C9
:101B900000F08CF8204600F01EF92777280715D5AD
:101BA000300713D521686FF0080008610420207702
:101BB0002068C0698007204602D0FFF7B7FF04E025
:101BC00000F074F8204600F006F92777E80616D5ED
:101BD000F00614D521686FF0100008610820207706
:101BE0002068C06910F4407F204602D0FFF79EFFB6
:101BF00004E000F05BF8204600F0EDF82777E807F6
:101C000008D0F00706D021686FF001000861204677
:101C100000F068F9280608D5300606D521686FF06F
:101C2000800008612046FFF72BFE680608D5700685
:101C300006D521686FF040000861204600F05CF98D
:101C4000A8060AD5B00608D521686FF02000086103
:101C50002046BDE8F041FFF714BEBDE8F08100006A
:101C600000B585B0002100910191029103910068B7
:101C70000B49884211D10B48816941F0080181610B
:101C80008069694600F0080004900120009002205D
:101C9000019003900448FEF723FD05B000BD00004D
:101CA0000004004000100240000C0140704770B575
:101CB000044690F83C0000260D4601280FD0012074
:101CC00084F83C006AB1042A1DD0082A2FD00C2ABF
:101CD0003FD00126002084F83C00304670BD022031
:101CE00070BD206801F020FB2068816941F0080187
:101CF00081612068816921F0040181612068816926
:101D00002A69114311E0206801F036FB20688169DF
:101D100041F4006181612068816921F48061816101
:101D2000206881692A6941EA02218161D2E720683D
:101D300001F04EFB2068C16941F00801C1612068D3
:101D4000C16921F00401C1612068C1692A69114398
:101D500011E0206801F068FB2068C16941F400616E
:101D6000C1612068C16921F48061C1612068C169D5
:101D70002A6941EA0221C161ACE710B5040003D031
:101D800094F83D0010B107E0012010BD002084F858
:101D90003C00204600F01EF8022084F83D00211D82
:101DA000206801F065FA012084F8460084F83E00BE
:101DB00084F83F0084F8400084F8410084F8420031
:101DC00084F8430084F8440084F8450084F83D001A
:101DD000002010BD7047704710B50446022249B17B
:101DE00004290ED0082913D094F84100012816D0F8
:101DF000012010BD94F83E000128F9D184F83E205E
:101E00000FE094F83F000128F2D184F83F2008E069
:101E100094F840000128EBD184F8402001E084F8D8
:101E200041200122206801F05FFA0F4920688842B2
:101E300003D1426C42F4004242642068884208D0D8
:101E4000B0F1804F05D00949884202D00849884244
:101E500004D1816801F00701062903D0016841F02F
:101E600001010160002010BD002C01400004004071
:101E70000008004030B504460D460068002201F01D
:101E800033FA174B41F2111120688A10984209D198
:101E9000036A0B4206D1036A134203D1436C23F455
:101EA000004343642068036A0B4206D1016A114271
:101EB00003D1016821F00101016001203DB1042D31
:101EC00008D0082D09D084F84100002030BD84F8E6
:101ED0003E00FAE784F83F00F7E784F84000F4E7B3
:101EE000002C014000680349884201D1FEF7DEBFA3
:101EF00070470000002C0140704738B5044690F848
:101F00004200202801D0022038BD51B14AB1012041
:101F1000206300206063204601F080FC216B0129D2
:101F200001D0012038BD21680A6849680091216804
:101F30000C3151E8002F42F0100241E80023002B41
:101F4000F5D138BD70B5B2B00546C8216846FEF778
:101F500050F91B4C1B4821462279921D01F078FD57
:101F6000227969461748921D01F005F9164928683B
:101F7000884219D19DF800005A2815D19DF801001A
:101F8000A52811D19DF802005A280DD19DF8040012
:101F90006E46001DC5B20DEB05004078D02805D077
:101FA000C8213046FEF725F932B070BD002404E0A8
:101FB0003019407901F002FD641CAC42F8DDF3E712
:101FC000F40F0020BC0900200038014010B5006863
:101FD000074988420AD107480749006801F0DCFC3C
:101FE000BDE8104040210448FEF703B910BD0000D1
:101FF000003801403C000020F40F0020F8B50168D3
:1020000004460868CA684B6910F00F0F4FF00005CE
:1020100059D003F0010602F49077374365D0C10729
:1020200005D0D10503D5616C41F001016164410720
:1020300005D5D90703D0616C41F0020161648107C5
:1020400005D5D90703D0616C41F004016164010733
:1020500007D502F02001314303D0616C41F0080143
:102060006164616C00293AD0800604D5900602D5DF
:10207000204601F0F8FA20684069616CC0F38010D6
:10208000090700D460B3204601F0B8FA206840691F
:10209000400621D52068143050E8001F21F040018F
:1020A00040E80012002AF5D1E06BA8B16D49416308
:1020B000E06BFEF7A7F9002811D0E06B416B01B08F
:1020C000BDE8F040084783060FD593060DD520469E
:1020D000BDE8F84001F0C7BA2046FFF777FFF8BD2A
:1020E0002046FFF773FF6564F8BD266B2023012EA1
:1020F0007CD1C6067AD5D60678D50868486800909F
:1021000048694FF00206400640D5E16B0868406818
:102110000004000CE8D0A28D8242E5D9E0858869F0
:1021200020282DD020680C3050E8001F21F4807149
:1021300040E80012002AF5D12068143050E8001F52
:1021400021F0010140E80012002AF5D12068143086
:1021500050E8001F21F0400140E80012002AF5D1AC
:1021600084F84230256320680C3050E8001F21F0CD
:10217000100140E80012002AF5D1E06BFEF71EF9CD
:102180006663A08DE18D401A81B22AE0A08DE18DB9
:10219000401A81B2E08D0028A6D00029A4D0226880
:1021A0000C3252E8000F20F4907042E80007002F34
:1021B000F5D12068143050E8002F22F0010240E8E9
:1021C0000027002FF5D184F84230256320680C30B9
:1021D00050E8002F22F0100240E80023002BF5D138
:1021E00066632046FFF7AEFEF8BDFFE705062BD578
:1021F000150629D594F841002128F5D1A068B0F53D
:10220000805F01D12069B0B1206A411C2162216840
:1022100000784860E08C401E0004000CE084E3D1AC
:102220002068C16821F08001C1602068C16841F068
:102230004001C160D8E7206A0088C0F30800486008
:10224000206A801C2062E5E74006CDD55006CBD53C
:10225000CA68204622F04002CA6084F8413000F08B
:1022600076F9C1E7B334000870B5040004D094F8DF
:102270004100002510B106E0012070BD84F84050F7
:10228000204600F023F8242084F841002068C1682B
:1022900021F40051C160204601F064FA2068016910
:1022A00021F4904101612068416921F02A014161D6
:1022B0002068C16841F40051C1606564202084F841
:1022C000410084F842006563002070BDF0B585B020
:1022D000002400940194029403940646424F03683C
:1022E000424802210322424DBB424FD1836943F44D
:1022F00080438361836903F480430493836943F0DB
:10230000040383618069039200F0040004900802D2
:10231000CDE9000169462846FEF7E2F92815CDE926
:1023200000040120029069462846FEF7D9F9324D93
:1023300030488027C5E90004C5E902472C616C617B
:10234000AC612846EC61FEF753F908B1FEF70EF8D0
:10235000F5636E62284D27484435143801C51020B6
:1023600091C5254845F8104944306C61AC61EC6179
:10237000FEF73EF908B1FDF7F9FFB563002205212C
:1023800025206E62FEF724FE252028E01B4EB34276
:1023900027D1C36943F40033C361C36903F4003335
:1023A0000493836943F0040383618069039200F01E
:1023B000040004900420CDE9000169462846FEF798
:1023C0008FF90820CDE90004694628460294FEF7FB
:1023D00087F9002205212620FEF7FAFD2620FEF7C8
:1023E000E9FD05B0F0BD00000038014000100240DA
:1023F00000080140580002407C05002000440040D5
:10240000704770472DE9F843044690F8410098461C
:1024100016460D46202802D00220BDE8F88385B17B
:102420007EB100206064212084F84100FEF75AFA52
:10243000A6848146E684A0682027B0F5805F02D09C
:1024400003E00120E9E7206910B12E4600250EE0E7
:1024500000260CE08021204601F028FAA8B9C6B178
:1024600016F8010B21684860E08C401EE084E08C87
:102470004B464FF00002CDF800800028EAD14FF023
:102480004001204601F012FA40B184F84170032067
:10249000C3E735F8020BC0F30800E3E784F84170A6
:1024A0000020BAE770B5044690F84100202801D01A
:1024B000022070BD49B342B32162A284E2840020AD
:1024C0006064212384F84130A56B114BAB62A56B8E
:1024D000104BEB62A56B104B2B63A36B5863256805
:1024E00013462A1DA06BFEF7B1F821686FF040007B
:1024F00008602068143050E8001F41F0800140E877
:102500000012002AF5D1002070BD012070BD00002E
:10251000B1350008F3350008C334000890F84130A5
:10252000202B01D00220704779B172B10162828400
:10253000C28400214164212180F841100068C168F3
:1025400041F08001C1600020704701207047704752
:102550007047FEE701684A69D24352050FD46FF411
:1025600080624A61002140F8301F2022427381734B
:10257000026942F0040202610173012070470020E9
:10258000704700002DE9F84F0446006889460B9D0E
:1025900001689846174641F480610160206801682F
:1025A00041F48071016000954FF0011B00225946F3
:1025B00020460A9B00F0E4F84FF4007A40B120680E
:1025C0000068C00501D5C4F840A00320BDE8F88F1D
:1025D000216809F0FE0008612B46284920460A9A26
:1025E00000F016F9F0BB20684169806900902A4626
:1025F00020460A9900F0A2F940B1206C04283AD193
:102600002068016841F40071016034E0FEB2B8F165
:10261000010F09D02168380A08612A4620460A9924
:1026200000F08CF90028E8D1206806612A4620468F
:102630000A9900F083F90028DFD12068016841F48D
:102640008071016000950022594620460A9B00F0E7
:1026500097F80028B3D1216809F0FF0040F001008D
:10266000086100E007E02B46044920460A9A00F082
:10267000CFF80028AAD00120A8E70000020001003E
:102680002DE9F843044600680D46DDE90897016826
:102690009846164641F4807101604B4600224FF087
:1026A00001112046009700F06BF848B120680068DF
:1026B000C00502D54FF4007020640320BDE8F88304
:1026C000216805F0FE0008613B464A461549204650
:1026D00000F09EF888B920684169806900903A4608
:1026E0004946204600F02AF948B1206C042804D15C
:1026F0002068016841F4007101600120DEE7F5B255
:10270000B8F1010F09D02168300A08613A464946FC
:10271000204600F013F90028E7D120680561002069
:10272000CCE700000200010070B516460D460446D5
:102730001EE02046FFF70EFF08B1012070BD681CA7
:1027400016D0FEF7CFF8801BA84200D885B92068C4
:102750004069C04340070BD5002044F8300F2021CA
:102760006173A073216941F0200121612073E4E7C6
:1027700020684069C0434007DBD4002070BD0000E2
:102780002DE9F047984617460D460446C1F3074623
:10279000DDF820902AE000BFB8F1FF3F26D0FEF719
:1027A000A1F8A0EB0901414502D8B8F1000F1DD1F5
:1027B0002068012E16D0806925EA00000004000C74
:1027C00012D00020B84211D1002044F8300F20214F
:1027D0006173A073216941F0200121612073012000
:1027E000BDE8F0874069E7E70120EBE72068012EAC
:1027F0000AD0806925EA00000004000C06D0002001
:10280000B842C9D00020EBE74069F3E70120F7E7C1
:102810002DE9F047984616460D4604464FF000094C
:102820004FF0200AC1F3074723E020684069C04306
:10283000400515D42068016841F4007101602168E9
:102840006FF480604861C4F8309084F83DA084F84B
:102850003E90216C41F00401216484F83C9021E019
:10286000701C06D0FEF73EF8A0EB0800B04203D87B
:1028700016B1012F1FD021E02068012F15D08069EB
:1028800025EA00000004000C18D000BF44F8309F77
:1028900084F80DA084F80E90216941F02001216197
:1028A00084F80C900120BDE8F087406925EA00001B
:1028B0000004000CEAD12068406901E020688069CA
:1028C00025EA00000004000CAFD1ECE72DE9F0414F
:1028D000002590460E460446202728E04069C04364
:1028E000C0060CD454F8301B6FF01000486144F857
:1028F00010596777A577206A2062257714E0FDF7E5
:10290000F1FFA0EB0800B04200D886B9206840690A
:10291000C04340060BD544F8305F6773A573206948
:1029200040F02000206125730120BDE8F08120687F
:102930004169C9434906D1D40020F6E770B516466F
:102940000D4604461EE02046FFF704FE08B10120B4
:1029500070BD681C16D0FDF7C5FF801BA84200D8CB
:1029600085B920684069C04300060BD5002044F8B3
:10297000300F20216173A073216941F02001216192
:102980002073E4E720684069C0430006DBD40020E0
:1029900070BD000003B583B0012100910246019192
:1029A00004AB7821024800F005F805B000BD000036
:1029B0009C0F0020FEB5DDE908540CB1012400E0B5
:1029C0001024877B642617B1012F07D0FEE78DE81E
:1029D000680000682346FEF77DF9FEBD8DE86800BB
:1029E00000682346FEF748F8FEBD002804D0D0E971
:1029F0000010814201D1012070470020704700285B
:102A00000AD001688268491CB1FBF2F302FB131182
:102A10004068814201D101207047002070470000CA
:102A200010B500225149524801F004FA50480022E2
:102A300050492C3001F0FEF94D4800224E495830E3
:102A400001F0F8F94A4800224C49843001F0F2F9CB
:102A5000474800224A49B03001F0ECF944480022CE
:102A60004849DC3001F0E6F9474A0421404801F0CA
:102A700003F9454A05213E4801F0FEF8424A032188
:102A80003B4801F0F9F83A4801F0EEF938483F4A7E
:102A900004212C3001F0F0F835483C4A05212C3057
:102AA00001F0EAF83248394A03212C3001F0E4F809
:102AB0002F482C3001F0D8F92D48354A04215830E0
:102AC00001F0DAF82A48324A0521583001F0D4F8EA
:102AD00027482F4A0321583001F0CEF824485830B7
:102AE00001F0C2F922482B4A0421843001F0C4F8D5
:102AF0001F48284A0521843001F0BEF81C48254AA9
:102B00000321843001F0B8F81948843001F0ACF9A1
:102B10001748214A0421B03001F0AEF814481E4A8B
:102B20000521B03001F0A8F811481B4A0321B0304C
:102B300001F0A2F80E48B03001F096F90C48174A9F
:102B40000421DC3001F098F80948144A0521DC30F2
:102B500001F092F80648114A0321DC3001F08CF8AC
:102B60000348BDE81040DC3001F07EB9754700082D
:102B7000940A002085470008914700089D470008F7
:102B8000A9470008B5470008F93A0008393B000892
:102B9000793B0008B93B0008F93B0008393C0008C4
:102BA000074910B5054808600846FDF7E1FB002815
:102BB00003D0BDE81040FDF7D9BB10BD0030024086
:102BC000200000200D4808B5416941F00101416134
:102BD0004069002200F00100009005210E20FEF760
:102BE000F7F90E20FEF7E6F9002205210F20FEF787
:102BF000EFF9BDE808400F20FEF7DCB900100240F5
:102C000010B52D4BB6B031AC0FCB84E80F000021CE
:102C100031A801F07AFA294C27491C22E0611031D1
:102C20006846FDF7CDFA0021684601F081FA224995
:102C300020601C222C3107A8FDF7C2FA002107A84A
:102C400001F076FA1C4960601C2248310EA8FDF79D
:102C5000B7FA00210EA801F06BFA1749A0601C22F8
:102C6000643115A8FDF7ACFA002115A801F060FA4F
:102C70001149E0601C2280311CA8FDF7A1FA002157
:102C80001CA801F055FA0C4920611C229C3123A894
:102C9000FDF796FA002123A801F04AFA064960617F
:102CA0001C22B8312AA8FDF78BFA00212AA801F0CE
:102CB0003FFAA06136B010BD185500080000002092
:102CC0002DE9F04385B00025344800950195029523
:102CD0000395816941F010018161816901F0100162
:102CE0000491816941F020018161816901F0200135
:102CF0000491816941F004018161816901F004015D
:102D00000491816941F0080181618069244F00F0DC
:102D100008004FF480440490002221463846FDF715
:102D2000DCFDDFF88090002202214846FDF7D5FD4A
:102D3000DFF87480A611002231464046FDF7CDFD34
:102D40000094012401940294694638460394FDF7E7
:102D5000C7FC0220CDE9000402946946484603946A
:102D6000FDF7BEFCCDE90064029469464046039439
:102D7000FDF7B6FCE003CDE9000569460294404644
:102D8000FDF7AEFCF820CDE90005694602944846FF
:102D9000FDF7A6FC05B0BDE8F0830000001002407E
:102DA00000100140000C0140000801400D4810B522
:102DB0000B4901600C49416000214FF48042816061
:102DC000C0E9031241618161C1610162FDF790FDBB
:102DD000002803D0BDE81040FDF7C8BA10BD0000C0
:102DE0000054004004030020A08601000D4810B5E7
:102DF0000B4901600C49416000214FF48042816021
:102E0000C0E9031241618161C1610162FDF770FD9A
:102E1000002803D0BDE81040FDF7A8BA10BD00009F
:102E20000058004058030020A08601000E4810B54D
:102E30000C49016000214FF400624160C0E90212B8
:102E40000161416181610162416281620A21C16265
:102E5000FEF764FC002803D0BDE81040FDF786BAF9
:102E600010BD000000300140AC0300200E4810B53A
:102E70000C4901604FF48271416000218160C160A2
:102E8000016141618161C1610162416281620A2126
:102E9000C162FEF743FC002803D0BDE81040FDF7F7
:102EA00065BA10BD003800400404002010B586B09B
:102EB00000241748009401940294039404944FF062
:102EC000804105940160C721C0E9011441F61F410A
:102ED000C0E9031480218161FEF708FD08B1FDF708
:102EE00045FA4FF48050009069460948FEF7B0FD5E
:102EF00008B1FDF73BFA049404A905480594FEF7D0
:102F0000C1FC002801D0FDF731FA06B010BD000069
:102F10005C04002010B58EB0002407940894099436
:102F20000A940B941C2168460C94FDF762F91E4824
:102F30001C49C0E900144FF6FF71C0E90241046169
:102F40008461FEF7D3FC08B1FDF710FA4FF480500E
:102F5000079007A91448FEF77BFD08B1FDF706FAB4
:102F60001148FEF70AFF08B1FDF700FA0B940BA910
:102F70000D480C94FEF786FC08B1FDF7F7F96020C8
:102F8000CDE9000402940822694607480494FEF73C
:102F90008EFE08B1FDF7EAF90348FEF761FE0EB0B8
:102FA00010BD000000040040A40400200C4810B52F
:102FB0000A4901604FF416514160002181600C22E2
:102FC000C160C0E904128161C161FFF74DF90028B9
:102FD00003D0BDE81040FDF7C9B910BD003801406D
:102FE000EC0400200C4810B50A4901604FF416515A
:102FF0004160002181600C22C160C0E9041281613E
:10300000C161FFF731F9002803D0BDE81040FDF79A
:10301000ADB910BD00440040340500200B4810B588
:103020000949016008210171022181710021817229
:10303000C1720173FDF7FEFF002803D0BDE8104008
:10304000FDF794B910BD0000005C004004060020AC
:10305000FEE7FEE770B5002404F1B000C0B200F056
:10306000DBFC002000F0D8FC102000F0D5FC00258F
:10307000002000F0D5FC6D1CEDB2802DF8D3641C4F
:10308000E4B2082CE8D370BD10B500222D492E48BB
:1030900000F026FDAE2000F0BFFC202000F0BCFCBC
:1030A000102000F0B9FCB02000F0B6FCC82000F001
:1030B000B3FC002000F0B0FC102000F0ADFC40207C
:1030C00000F0AAFC812000F0A7FCFF2000F0A4FC87
:1030D000A12000F0A1FCA62000F09EFCA82000F09A
:1030E0009BFC3F2000F098FCA42000F095FCD3202E
:1030F00000F092FC002000F08FFCD52000F08CFC4A
:10310000F02000F089FCD92000F086FC222000F09D
:1031100083FCDA2000F080FC122000F07DFCDB2034
:1031200000F07AFC202000F077FC8D2000F074FC89
:10313000142000F071FCAF2000F06EFCBDE81040E0
:10314000FFF788BF040300209C0F002000B50B464A
:1031500002000FD0FFF749FC00280BD15168D0685E
:10316000405C1870D2E90101401CB0FBF1F301FB97
:103170001300506000BDF0B515460E46070008D09C
:10318000002404E031193846FFF7E0FF641CAC422C
:10319000F8D3F0BD002303604360C0E9022170470B
:1031A000012000F0A6FFFBE710B5502080F3118846
:1031B000BFF34F8FBFF36F8F02F01CF818B10449B3
:1031C0004FF080500860002080F3118810BD00008F
:1031D00004ED00E030B593B028216846FDF709F80A
:1031E00014210AA8FDF705F8002401200F9410947B
:1031F0001194010412948DE8130004904FF4E01030
:10320000CDE90810022507956846FEF7F7F808B1E2
:1032100072B6FEE70F20CDE90A054FF48060CDE9D4
:103220000C4002210AA80E94FDF7ECFF08B172B61B
:10323000FEE710200F9012940FA8FDF76DFF0028F5
:1032400001D072B6FEE713B030BD70470148FEF7FB
:103250006EBC0000DC0800200148FEF768BC0000DE
:103260005C0400200148FEF762BC0000A4040020BA
:10327000F0B50268194B1A4C1A4D4FF0804798422E
:1032800005D0B84203D0A04201D0A84203D122F019
:1032900070064A683243984205D0B84203D0A04233
:1032A00001D0A84203D122F44074CA6822434C6979
:1032B00022F08002224302608A68C2620A68826247
:1032C000984201D109690163012141610169C9077E
:1032D00003D0016921F001010161F0BD002C014022
:1032E000000400400008004010B501F01F03012158
:1032F000046A99408C430462016A9A401143016256
:1033000010BD10B5846842EA032224F47F440A43C6
:103310002243826010BD826822F070020A4342F0AC
:10332000070181607047000030B5036A026A22F02D
:10333000010202624268846924F073050C682C4320
:1033400023F002058B682B430A4DA8420BD123F0D2
:103350000805CB6822F440722B434D6923F0040327
:1033600015438A692A434260846149684163036264
:1033700030BD0000002C014030B5026A036A23F022
:1033800010030362436884690D6824F4E64444EA48
:1033900005248D6822F0200242EA05120B4DA84256
:1033A0000ED1CD6822F0800242EA05124D6923F465
:1033B000406343EA85038D6922F0400243EA8503B6
:1033C0004360846149688163026230BD002C014022
:1033D00030B5036A026A22F4807202624268C469EC
:1033E00023F4007324F073050C682C438D6843EAC2
:1033F00005230C4DA8420ED1CD6823F4006343EAA7
:1034000005234D6922F4405242EA05128D6923F4E6
:10341000806342EA05124260C4614968C163036285
:1034200030BD0000002C014030B5046A026A22F46D
:10343000805202624268C3690D6823F4E64343EA9E
:1034400005238D6824F4005444EA0534064DA8424F
:1034500004D14D6922F4804242EA85124260C36180
:1034600049680164046230BD002C014010B5036A54
:10347000046A24F001040462846924F0F00444EA3C
:10348000021423F00A020A438461026210BD10B5DF
:10349000036A046A24F010040462846923F0A00320
:1034A00024F4704444EA023243EA01118261016269
:1034B00010BD10B5406A0021C185C184FEF786FDAC
:1034C00010BD70B5446A2068406994F84110C0F39B
:1034D000C0100025212904D118B1E584204600F050
:1034E000B4F82068406994F84210C0F38010222993
:1034F00004D118B1E585204600F080F8606C40F0FA
:10350000100060642046FEF761FD70BD10B50146F5
:10351000406A096809684FF0000289062ED4C28506
:1035200001680C3151E8003F23F4807341E8003416
:10353000002CF5D10168143151E8003F23F001035C
:1035400041E80034002CF5D10168143151E8003F06
:1035500023F0400341E80034002CF5D1202180F80D
:103560004210016B012909D101680C3151E8003F7B
:1035700023F0100341E80034002CF5D14263016BC5
:10358000012902D0FEF73CFF10BD818DFEF7DAFC69
:1035900010BD10B5406A01214163016B012902D0C1
:1035A000FEF72FFF10BD818D4908FEF7CBFC10BD43
:1035B00010B50146406A09680968890616D40021D9
:1035C000C1840168143151E8002F22F0800241E8E3
:1035D0000023002BF5D101680C3151E8002F42F097
:1035E000400241E80023002BF5D110BDFEF7AFFFEC
:1035F00010BD10B5406AFEF7ABFF10BD01680C317D
:1036000051E8002F22F4907241E80023002BF5D1FD
:103610000168143151E8002F22F0010241E8002333
:10362000002BF5D1016B012909D101680C3151E85A
:10363000002F22F0100241E80023002BF5D12021B9
:1036400080F8421000210163704701680C3151E895
:10365000002F22F0C00241E80023002BF5D12021E9
:1036600080F84110704708B590F84210222901D027
:10367000022008BD82684FF480539A4201D101694B
:1036800021B1816A9A421BD04AB10AE00268816A7C
:103690005268C2F308020A80816A891C08E0026944
:1036A00072B10268526802F07F020A70816A491C96
:1036B0008162C18D491E0904090CC18503D01BE03C
:1036C00002685268F1E70168CA6822F02002CA6005
:1036D0000168CA6822F48072CA6001684A6922F0EF
:1036E00001024A61202180F8421000214163026BEF
:1036F000012A03D0FEF784FE002008BD01630168A3
:103700000C3151E8002F22F0100241E80023002B79
:10371000F5D101680A68D20602D50A6849680091A5
:10372000818DFEF70FFCE7E718B5026801248BB224
:103730001268B4EB117F03D1D1681943D1600AE05C
:103740000224B4EB117F03D111691943116102E026
:103750005169194351610068006801684068009030
:1037600018BD000070B5044600680169E26821F4E4
:103770004051114301612169A06808436169084310
:103780002168CA6841F20C639A430243CA60206808
:103790004169A26921F44071114341611E492068C9
:1037A000884202D1FDF7F4FD01E0FDF7E1FD00EBF9
:1037B000C00101EB0012606864218000B2FBF0F3ED
:1037C000B3FBF1F36FF018067343B2FBF0F5B2FBF5
:1037D000F0F605EB8305322303EB0515B5FBF1F598
:1037E000B6FBF1F605F0F00505EB0615B2FBF0F6B9
:1037F000B2FBF0F0B0FBF1F06FF01802504306EBB3
:10380000800003EB0010B0FBF1F0216800F00F0026
:103810002844886070BD00000038014038B58162DE
:1038200004468285002013466064222284F84220E8
:10383000E56B1B4AAA62E56B1A4AEA62E56B1A4A13
:103840002A63E26B50630A462168E06B091DFCF7AE
:10385000FDFE2068016840680090206948B120683A
:103860000C3050E8001F41F4807140E80012002A3B
:10387000F5D12068143050E8001F41F0010140E804
:103880000012002AF5D12068143050E8001F41F0E2
:10389000400140E80012002AF5D1002038BD0000A8
:1038A0000D35000893350008C33400082DE9F843AE
:1038B000984617460D460446089E24E0701C22D008
:1038C000FDF710F8A0EB0800B0421AD8CEB120687E
:1038D000C168490717D5802D15D0402D13D0016838
:1038E000C94309070FD401680025406800902046AD
:1038F000FFF784FE0820606484F840500120BDE892
:10390000F8830320FBE72068006835EA000004D054
:103910000020B842D2D00020F1E70120F9E70000F2
:1039200010B50448FEF76AFBBDE8104002490148A3
:1039300000F032B8EC040020F40F00200148FEF73C
:103940005DBB000034050020002070470020704758
:10395000012120F8401F002101808180018208465A
:10396000704730F8401F21F43F410180002070472C
:1039700000207047012B04D0022B06D0032B07D068
:10398000FEE700686423FEF73DBD0068FEF7C6BD94
:103990000068FEF787BD000010B540220448FEF71E
:1039A000ACFA04480068016821F00401016010BD10
:1039B000EC0400207C050020FEE7000038B5114C27
:1039C00000218DF800102568112810D0122810D081
:1039D00013280BD103208DF800000BA000F048F84D
:1039E00000231A466946206801F062FA38BD0120BA
:1039F00000E002208DF8000000231A4669462846A0
:103A0000F2E700001C000020B5E7C6BDB7B4D7AA96
:103A100033330D0A0000000001460020FEF7BABF54
:103A200001464020FEF7B6BF30B50D4604000ED06B
:103A3000FEF7E5FF00280AD12168E06845542068B8
:103A4000A168401CB0FBF1F201FB1200206030BD08
:103A5000F0B515460E46070008D0002404E0315D9D
:103A60003846FFF7E1FF641CAC42F8D3F0BD00001C
:103A7000014A024900F023B8493F0008AC00002089
:103A80000907090E002804DB00F1E02080F800148B
:103A9000704700F00F0000F1E02080F8141D70471F
:103AA00002E008C8121F08C1002AFAD17047704707
:103AB000002001E001C1121F002AFBD170472DE94F
:103AC000F04116460F460446002503E03946B0474C
:103AD000641C6D1C20780028F8D12846BDE8F081D0
:103AE00003681BB102730160002070474FF0FF3084
:103AF000704702710160704710B500F081FA032829
:103B00000CD00C4904280ED0052811D10122A1F1B6
:103B10008600891CBDE8104000F046BA0549012224
:103B2000A1F18600F6E7034801228638491CF1E737
:103B300010BD0000AA09002010B500F061FA0D497F
:103B400003280BD004280ED0052811D10122A1F1A1
:103B50008600491DBDE8104000F026BA0548012244
:103B60008638C91CF6E7034801228638091DF1E7AB
:103B700010BD0000AA09002010B500F041FA0D495F
:103B800003280BD004280ED0052811D101220831BA
:103B9000A1F18E00BDE8104000F006BA05480122F0
:103BA0008638891DF6E7034801228638C91DF1E7EA
:103BB00010BD0000AA09002010B500F021FA03286A
:103BC0000BD004280FD0052813D10A490122A1F1F6
:103BD0009100BDE8104000F0E7B906490122891EB6
:103BE000A1F18F00F5E703490122491EA1F19000E0
:103BF000EFE710BDB509002010B500F001FA032869
:103C00000BD004280FD0052813D10A490122A1F1B5
:103C10009400BDE8104000F0C7B906490122891E92
:103C2000A1F19200F5E703490122491EA1F1930099
:103C3000EFE710BDB809002010B500F0E1F9032846
:103C40000BD004280FD0052813D10A490122A1F175
:103C50009700BDE8104000F0A7B906490122891E6F
:103C6000A1F19500F5E703490122491EA1F1960053
:103C7000EFE710BDBB09002000EB8100C260704778
:103C800070B504460079A1688847E1784A0702D0F8
:103C90002288521C2280B0EBD11F0CD04FF0005272
:103CA00002EBB1114FEAB161C1F3C202E170032A24
:103CB00004D360F3C71121F03800E070E0780025EC
:103CC00000F00701062972D2DFE801F0031D3D7BF9
:103CD000B199C0F38011B1EBD01FA07820F0F000B3
:103CE0000ED1A070E16809B1204688472580A078F0
:103CF00020F00F00401CA070E0787CE0E07070BD08
:103D00008030A07070BDC0F38011B1EBD01F09D01E
:103D1000A07820F0F0001030A0702169A9B32046EF
:103D200088475FE02088C828ECD9A07820F0F00010
:103D30005030A070216A09B120468847E07820F011
:103D40000700401DDAE7C0F38011B1EBD01F1DD191
:103D5000A07820F0F000A070E16809B12046884703
:103D6000A078C143090706D04FF0805101EB301015
:103D70004FEA3070A070616909B1204688472580FC
:103D8000E07820F00700C01CB8E72BE020883C2832
:103D9000B8D9A07800F00F01012902D0022907D07C
:103DA00044E020F0F0003030A070A16905E03EE072
:103DB00020F0F0004030A070E16991B320468847C0
:103DC00034E0C0F38011B1EBD01F11D0A07820F007
:103DD000F0001030A070216909B120468847208882
:103DE0003C2823D22580E07820F00700801C85E75E
:103DF00021883C2986D920F00700401C7EE7C0F3CB
:103E00008011B1EBD01FA07820F0F0000AD1603013
:103E1000A070616A00293FF475AF2046BDE870408C
:103E2000084703E01030A0702169C6E7E07820F071
:103E3000070063E770B50E46154604462C21FCF7D3
:103E4000D8F9A07820F0F0008030A070A660E0786B
:103E500035B120F0800000BF65F38610E07070BDC2
:103E600040F08000F8E70000074A11680B4605E0C3
:103E7000814202D14FF0FF307047896A0029F7D1A3
:103E800083621060002070473800002008B501F000
:103E9000ABF9009000F006F80521684600F0A8FD97
:103EA000F8E70000054810B5046803E02046FFF776
:103EB000E7FEA46A002CF9D110BD000038000020F4
:103EC00008B51D4C00200090206800F075F91B4DCE
:103ED000286800F071F91A4E306800F06DF9194F3A
:103EE00000226946386801F043F8012820D1009883
:103EF000012804D002280AD0032819D10FE028682D
:103F000000F05AF9306800F057F920680EE0206898
:103F100000F052F9306800F04FF9286806E0286890
:103F200000F04AF9206800F047F9306800F02AF9FB
:103F3000142000F037FDD3E710000020140000200B
:103F4000180000201C00002013B54FF6FF7301225B
:103F500069460248FEF756FA00981CBDEC040020A2
:103F600070B50D46044603220B490C48FFF7C1FD0E
:103F70005A202070A5216170A070E570D02084F8CF
:103F80008500064806490068FFF706FDBDE8704059
:103F900004490248FFF7C8BBEC0400203C000020A5
:103FA000F40F00201000001070B50C4606461546B0
:103FB00040211148FCF71DF90F4B3078052118708E
:103FC00070785870B0789870F078D8701D71084685
:103FD0006A1D03E0451A655D1D54401C8242F9DCF0
:103FE000D0209854BDE87040921C92B2032302493D
:103FF0000248FFF7BFBC0000B40F00203C000020C7
:10400000807800097047EFF30580002800D0012078
:1040100070470000064D4FF4807421462846FCF797
:1040200054FC04A0FFF724FDC82000F0BBFCF4E71B
:1040300000080140B5E7C6BDB7B4D7AA310D0A00E4
:10404000064D4FF4804421462846FCF73EFC04A070
:10405000FFF70EFDC82000F0A5FCF4E700100140BA
:10406000B5E7C6BDB7B4D7AA320D0A00054C022188
:104070002046FCF72AFC04A0FFF7FAFCC82000F059
:1040800091FCF4E7000C0140B5E7C6BDB7B4D7AA70
:10409000330D0A00FCF712FFFFF79CF8FEF710FE45
:1040A000FEF790FDFEF782FEFEF7A0FEFEF7BEFED5
:1040B000FEF7DCFEFEF7FAFEFEF72CFFFEF776FFBA
:1040C000FEF790FFFEF7AAFFFEF76AFDFCF7B0F8D7
:1040D000FEF796FD00F014F8FEE701460020842963
:1040E00000D0C81C70474FF4FA64204600F05AFC18
:1040F000FBE710B500B9012000F054FC002010BD12
:1041000010B500F01FFD002010BD38B5D0E9011238
:1041100004683AB1C3682BB100200090204600F03B
:1041200050FE38BD2046BDE83840002200F028BED1
:104130007FB50D4604464169B0F9080081B1A16917
:1041400071B1FFF7CAFFD4E905128DE80700D4E981
:1041500000102B46226901F00EF8039004B070BDE8
:10416000FFF7BBFF03A9CDE90001208A2B4682B2ED
:10417000D4E9001000F0D2FF012801D00020EDE7C3
:104180000398EBE710B50446FFF73DFF00282046F3
:104190000BD001F07DF9012809D10649000708601C
:1041A000BFF34F8FBFF36F8F01E000F08DFC002055
:1041B00010BD000004ED00E010B500F0F9FC002097
:1041C00010BD00002DE9F041184C0F460546E66889
:1041D0002068001D00F0F4FA38B9206890F82C101F
:1041E00001208840216981432161681C07D137B1D2
:1041F0002168BDE8F0410E48091D00F025BB20688C
:104200003544B5424560216805D2A06BBDE8F04158
:10421000091D00F001BB606B091D00F0FDFAA06AEA
:10422000854200D2A562BDE8F08100004400002074
:10423000101100202DE9F041054600F011FB2E4C35
:10424000A068401CA06020682C4F10B1606940B38A
:104250002DE02560A068012829D1002606EB860004
:1042600007EB800000F0CAFA761C072EF6D323482D
:104270008C3000F0C3FA2148A03000F0BFFA1F488C
:10428000B43000F0BBFA1D48C83000F0B7FA1B4844
:10429000DC3000F0B3FA19488C3060631430A0634E
:1042A00005E02068E96AC06A884200D82560606A33
:1042B000401C6062E96A0120226988401043206145
:1042C00001EB810007EB8000291D00F0BDFA00F032
:1042D000E7FA606900280CD02068E96AC06A884261
:1042E00007D207494FF080500860BFF34F8FBFF3EC
:1042F0006F8FBDE8F08100004400002034100020E2
:1043000004ED00E030B4026C0B46002A0BD0C1680B
:104310001144C1608468A14201D30168C16030BC0E
:104320001846FBF74DBF30BC70472DE9F041856B57
:10433000174604460026026C82B1C7B1E068FBF75D
:104340003FFFE168206C091AE1602268914202D2C5
:10435000A168081AE060022F16D017E02068A8B9FB
:10436000A06800F0ADFF06460020A0600EE0606887
:10437000FBF726FF216C606808446060A1688842F2
:1043800004D32068606001E005B16D1E6D1CA5635B
:104390003046BDE8F08110B5044690F8510058B1A0
:1043A00001280CD002280FD0502080F31188BFF3D1
:1043B0004F8FBFF36F8FFEE7206B00F085FA20462A
:1043C000BDE8104000F080BA10BD00000F4841F277
:1043D0007C11420705D0C01D0C4A20F00700821A4C
:1043E000891A0B4A00230144C2E900030839183A2C
:1043F00021F0070111604B600B600B1AC0E900133C
:1044000093604FF0004053605061704724110020CA
:1044100098000020144E154CA6F1C8074FF08058A4
:10442000DFF84C9012E000BF00F01AFAF068C5689F
:10443000281D00F0C5F9A068401EA0606068401EFD
:10444000606000F02DFA2846FFF7A5FF606800289D
:10445000EAD138680128F9D9C9F80080BFF34F8F35
:10446000BFF36F8FF2E70000FC1000204400002033
:1044700004ED00E00346009829B10260C0E90F3165
:10448000012100F0D1BC0060F8E72DE9F0479A4621
:10449000DDE9098481466FF00303206B03EB8202A0
:1044A0001044089E20F00707780707D0502080F3BB
:1044B0001188BFF34F8FBFF36F8FFEE7002561B107
:1044C000002023180A5C83F834200A5C12B1401CD7
:1044D0001028F6D384F8435001E084F83450072EB6
:1044E00000D30626E662C4E91165201D00F091F9AB
:1044F00004F1180000F08DF92461C6F10700646230
:10450000A061E56484F8505052464946384600F0B0
:104510001FF92060B8F1000F01D0C8F80040BDE8D5
:10452000F087000030B5114900E011460A68824268
:10453000FBD34B685C18844203D140681844486040
:10454000084643681C18944209D1084C183C24685A
:10455000A24209D052681A4442600A681268026096
:10456000814200D0086030BD0460F9E79800002067
:1045700010B5044600F074F9A06B28B15FF0000498
:1045800000F08EF9204610BD0124F9E70648416B82
:10459000096829B1416BC968C96849688162704777
:1045A0004FF0FF31FAE7000044000020084840685F
:1045B000401C4FF0500080F3118804D0BFF34F8FA0
:1045C000BFF36F8FFEE7BFF34F8FBFF36F8FFEE731
:1045D000A0000020002150B10A4B42699A420FD13D
:1045E000806AA3F1280290420AD040B108E050202E
:1045F00080F31188BFF34F8FBFF36F8FFEE7012168
:1046000008467047101100202DE9F041044600F0E3
:1046100027F994F9455004F1240609E0606A48B18D
:10462000304600F099FE08B100F030FA6D1E6DB210
:10463000002DF3DC4FF0FF3684F8456000F030F9D0
:1046400000F00EF994F9445004F1100709E02069D4
:1046500048B1384600F080FE08B100F017FA6D1E30
:104660006DB2002DF3DC84F84460BDE8F04100F049
:1046700017B900002DE9F0410546002700F0F6FAD1
:10468000324E306808B9FFF7A1FE706905424ED17D
:10469000C5B3083568070ED005F00700C0F1080063
:1046A0000544680707D0502080F31188BFF34F8F6F
:1046B000BFF36F8FFEE72DB37068854237D823486C
:1046C000183001460C6801E020460C466168A9429A
:1046D00002D221680029F7D131688C4227D00768BF
:1046E0002168016060680837411B10290FD96019E3
:1046F000420708D0502080F31188BFF34F8FBFF3DB
:104700006F8FFEE713E041606560FFF70BFF6168A4
:104710007068401A7060B268904200D2B0607069F0
:1047200001430020C4E90001F068401CF06000F083
:104730004DFE780707D0502080F31188BFF34F8FCC
:10474000BFF36F8FFEE73846BDE8F08180000020A0
:1047500010B5031F4FF080741C601B1F21F0010176
:104760001960191F024B0B60143940380A6010BDE4
:10477000AD4500084FF400410148FCF7A1B8000026
:104780000008014008210148FCF79AB8000C0140DC
:1047900010210148FCF794B8000C01402021014889
:1047A000FCF78EB8000C014040210148FCF788B8A6
:1047B000000C014080210148FCF782B8000C014048
:1047C000D0E9013201699A60D0E901235A604A6850
:1047D000824201D182684A60002202610868401E5C
:1047E0000860086870470000034B036003F1540041
:1047F0000860802010607047B000002000F10801C0
:104800004FF0FF32C0E90112C16001610021016077
:10481000704700210161704730B50B685A1C02D007
:1048200000F1080202E0026904E0224654682568AB
:104830009D42FAD953684B6099608A605160086163
:104840000168491C016030BD42684A6093688B6012
:1048500093685960916008610168491C0160704764
:10486000502080F31188BFF34F8FBFF36F8F0A4939
:104870004868401C486001280CD10848006810F0C6
:10488000FF0F07D0502080F31188BFF34F8FBFF385
:104890006F8FFEE770470000A000002004ED00E0ED
:1048A0000849486828B1401E486001D180F311884A
:1048B0007047502080F31188BFF34F8FBFF36F8F85
:1048C000FEE70000A000002070B500282AD0164D99
:1048D000A0F1080460686969084207D1502080F39C
:1048E0001188BFF34F8FBFF36F8FFEE722683AB195
:1048F000502080F31188BFF34F8FBFF36F8FFEE717
:104900008843606000F0B2F96068696808446860D4
:104910002046FFF707FE2869401C2861BDE870406B
:1049200000F054BD70BD0000800000204FF0E0207A
:1049300000210161816105494FF47A720968B1FB78
:10494000F2F1491E416107210161704734000020E6
:1049500010B5FBF71FFC114910280ED300F1E02021
:1049600090F8F0030A78904207D2502080F3118823
:10497000BFF34F8FBFF36F8FFEE709480068896868
:1049800000F4E060884207D9502080F31188BFF31B
:104990004F8FBFF36F8FFEE710BD0000A000002017
:1049A0000CED00E010B5020014D00F48006B38B1D8
:1049B000502080F31188BFF34F8FBFF36F8FFEE756
:1049C00000F054F900211046FFF7FCFB00F0FEFC5C
:1049D000002807D105494FF080500860BFF34F8F82
:1049E000BFF36F8F10BD00004400002004ED00E015
:1049F00070B50D4604000BD095B11E4A106BB8B1CE
:104A0000502080F31188BFF34F8FBFF36F8FFEE705
:104A1000502080F31188BFF34F8FBFF36F8FFEE7F5
:104A2000502080F31188BFF34F8FBFF36F8FFEE7E5
:104A300000F01CF9D26823685919934204D98B42BB
:104A40000AD9914202D807E08B42FAD9881A21602C
:104A50000021FFF7B7FB00E0216000F0B7FC002861
:104A600007D105494FF080500860BFF34F8FBFF367
:104A70006F8F70BD4400002004ED00E002490A6A17
:104A80000260C9684160704744000020014901206C
:104A9000C86170474400002010B50C4650B1094968
:104AA00009681831FFF7B8FE2046BDE81040012123
:104AB000FFF788BB502080F31188BFF34F8FBFF3FF
:104AC0006F8FFEE74400002070B504002BD01A4D14
:104AD000286884422FD0FFF7C3FE2046FFF77AFDF7
:104AE000E8B1201DFFF76CFEE06A01212A698140D0
:104AF00011432961114900EB800001EB8000211D69
:104B0000FFF7A2FEE06A2968C96A884207D30C4908
:104B10004FF080500860BFF34F8FBFF36F8FBDE839
:104B20007040FFF7BDBE502080F31188BFF34F8F58
:104B3000BFF36F8FFEE770BD4400002034100020EB
:104B400004ED00E010B586B00024039405AA04A982
:104B500003A80494FFF748FEDDE903010094CDE9C2
:104B6000011000230EA11048059A00F004FB0F4924
:104B70000028C86211D0502080F31188BFF34F8FF6
:104B8000BFF36F8F4FF0FF30886201204861CC6027
:104B900006B0BDE8104000F09FB806B010BD0000A0
:104BA00049444C4500000000154400084400002022
:104BB00070B50446FFF754FE294D04B92C68201D3A
:104BC000FFF7FEFD58B9E06A264A00EB800152F873
:104BD000211021B901218140286988432861A06AF8
:104BE00018B104F11800FFF7EBFD1E48211DDC3061
:104BF000FFF72AFE94F850000026012801D184F81E
:104C00005060FFF74DFE686928B1FFF729FEFFF7F6
:104C1000BDFCFFF745FE2868844213D1686990B156
:104C2000286B38B1502080F31188BFF34F8FBFF34A
:104C30006F8FFEE70C494FF080500860BFF34F8F35
:104C4000BFF36F8F70BD0748DC300068A9688842E9
:104C500001D12E6070BDBDE8704000F00FB80000BB
:104C6000440000203410002004ED00E00248016BF5
:104C7000491C016370470000440000201448016B88
:104C800011B10121C16170470021C1610169B1FA0F
:104C900081F1C1F11F0101EB81020E4951F822306F
:104CA0006BB101EB820101F108034A6852684A6066
:104CB0009A4201D152684A60D16801607047502021
:104CC00080F31188BFF34F8FBFF36F8FFEE70000B3
:104CD00044000020341000201CB5264908780190BB
:104CE000FF20087008788DF800009DF800009DF8FE
:104CF000002000F0F000904207D0502080F311888F
:104D0000BFF34F8FBFF36F8FFEE79DF800001A4C83
:104D100000F0500020700720A06005E09DF8002002
:104D200052008DF80020401E9DF800201206F5D498
:104D3000A060032807D0502080F31188BFF34F8F65
:104D4000BFF36F8FFEE74FF44070A06001980870CA
:104D50000A48016841F470010160016841F0704146
:104D60000160FFF7E3FD00206060FBF7DDF9002044
:104D70001CBD000000E400E0A000002020ED00E0E9
:104D8000F8B517460E46050013D005FB06F048306F
:104D9000FFF770FC04000AD0002084F8460004F1FC
:104DA00048023B46314628460094FFF763FB204605
:104DB000F8BD502080F31188BFF34F8FBFF36F8F82
:104DC000FEE738B5049D18B153B1CAB181B120E0F6
:104DD000502080F31188BFF34F8FBFF36F8FFEE732
:104DE000502080F31188BFF34F8FBFF36F8FFEE722
:104DF000502080F31188BFF34F8FBFF36F8FFEE712
:104E000039B1502080F31188BFF34F8FBFF36F8FFC
:104E1000FEE748241C46012384F846302B460094C4
:104E2000FFF728FB204638BD70B50D46040025D09D
:104E3000FFF716FDD4E90F20216802FB0011A160E5
:104E40000021A163216861600A46D4E90F01401E78
:104E500000FB0121E16021464FF0FF3001F8440FD3
:104E6000487004F110008DB1FFF7C8FC04F1240074
:104E7000FFF7C4FCFFF714FD012070BD502080F344
:104E80001188BFF34F8FBFF36F8FFEE721690029B1
:104E9000F0D000F061FA0028ECD004494FF08050C7
:104EA0000860BFF34F8FBFF36F8FE3E704ED00E0BF
:104EB0002DE9F0471F4690468946040003D0B9F11A
:104EC000000F08D011E0502080F31188BFF34F8FFE
:104ED000BFF36F8FFEE7206C38B1502080F311884C
:104EE000BFF34F8FBFF36F8FFEE7022F0AD1E06B46
:104EF000012807D0502080F31188BFF34F8FBFF3F4
:104F00006F8FFEE7FFF724FD5020EFF3118680F34B
:104F10001188BFF34F8FBFF36F8FA06BE16B884297
:104F200006D3022F04D0002086F31188BDE8F08755
:104F300094F94550A06B3A4649462046FFF7F5F9EB
:104F4000681C04D06D1C84F845500120ECE7606AB1
:104F50000028FAD004F1240000F0FEF90028F4D073
:104F6000B8F1000FF1D00121C8F80010EDE7000002
:104F70002DE9F747002683B08A46040003D0BAF132
:104F8000000F08D011E0502080F31188BFF34F8F3D
:104F9000BFF36F8FFEE7206C38B1502080F311888B
:104FA000BFF34F8FBFF36F8FFEE700F00FF9DFF80D
:104FB000F4804FF000094FF0805748B9059838B198
:104FC000502080F31188BFF34F8FBFF36F8FFEE740
:104FD000FFF746FCA56BC5B151462046FFF792F995
:104FE0006D1EA563206950B104F1100000F0B4F902
:104FF00028B1C8F80070BFF34F8FBFF36F8FFFF772
:105000004FFC012006B0BDE8F087059808B11EB13D
:1050100006E0FFF745FC27E06846FFF72FFD012675
:10502000FFF73EFCFFF722FEFFF71AFC94F944005D
:10503000401C01D184F8449094F94500401C01D1F2
:1050400084F84590FFF72CFC05A9684600F02CF881
:10505000002820460AD0FFF7D7FA00F0B7F920461B
:10506000FFF786FA0028B3D00020CBE7FFF780FADD
:1050700090B104F124000599FFF70EFD2046FFF7DB
:10508000C3FA00F0A3F90028A2D1C8F80070BFF35A
:105090004F8FBFF36F8F9BE72046FFF7B5FA00F005
:1050A00095F995E704ED00E02DE9F0410C46050087
:1050B00011D0C4B1FFF7D4FB174BDA686E682068D3
:1050C000911B471C17D02F681B6A9F4219D096422C
:1050D00017D8012410E0502080F31188BFF34F8FC0
:1050E000BFF36F8FFEE7502080F31188BFF34F8F1F
:1050F000BFF36F8FFEE70024FFF7D2FB2046BDE829
:10510000F081884205D9401A20602846FFF7B6FC96
:10511000F1E700202060DCE7440000202DE9FF5F7C
:105120008346DDE90E87994616468A469000FFF7CA
:10513000A1FA05001CD05420FFF79CFA040014D0FB
:105140000020256384F85100CDE90240CDE90087B5
:105150004B46324651465846FFF797F92046FFF72F
:1051600069F8012004B0BDE8F09F2846FFF7ACFBCA
:105170004FF0FF30F6E7F0B585B0DDE90B640A9D2E
:10518000A6B1DCB1542700972663022684F851604B
:10519000002604AFCDE90246CDE90057FFF775F9C7
:1051A0002046FFF747F8049805B0F0BD502080F383
:1051B0001188BFF34F8FBFF36F8FFEE7502080F34E
:1051C0001188BFF34F8FBFF36F8FFEE7054841692A
:1051D00019B1006B18B10020704701207047022000
:1051E00070470000440000200148C068704700007C
:1051F000440000202DE9F0412F4C0026206B28B1FF
:10520000A069401CA0613046BDE8F081E5686D1CD6
:10521000E56013D1606B006838B1502080F31188CD
:10522000BFF34F8FBFF36F8FFEE7606BA16B6163BE
:10523000A063206A401C2062FFF7A8F9A06ADFF88B
:105240007C80854209D3606B0068A0B1606BC06848
:10525000C7687868854211D2A0622068C06A00EBF6
:10526000800158F82100012800D90126E0690028B2
:10527000C9D00126C7E74FF0FF30EDE7381DFFF733
:105280009FFAB86A18B107F11800FFF799FAF96A9E
:105290000120226988401043206101EB810108EB65
:1052A0008100391DFFF7D0FAF86A2168C96A88427F
:1052B000C9D30126C7E700004400002034100020B5
:1052C00070B504004FF0000140D0214D28688442A1
:1052D00007D0502080F31188BFF34F8FBFF36F8F3B
:1052E000FEE7A06C38B1401EA064636CE26A9A428B
:1052F0002CD040B12AE0502080F31188BFF34F8FAB
:10530000BFF36F8FFEE7201DFFF75AFA114A012104
:1053100050B9E06A00EB800352F8233023B92B69BF
:1053200001FA00F083432B61606CE062C0F107007A
:10533000A061E06A2B6981401943296100EB80007C
:1053400002EB8000211DFFF77FFA0121084670BDA6
:1053500044000020341000202DE9F041C068C468EA
:10536000ACB104F118000746FFF72AFA154D286B77
:105370000126A0B139461448FFF766FAE06A2968A9
:10538000C96A88421CD90120EE61BDE8F081502035
:1053900080F31188BFF34F8FBFF36F8FFEE7201D9F
:1053A000FFF70EFAE16A2A6906FA01F01043286154
:1053B00001EB81000449B43901EB8000211DDBE7DA
:1053C0000020E2E744000020E81000202DE9F0472B
:1053D0002C4D00242746286B38B1FFF741FA286B83
:1053E000401E2863286B40B146E0502080F31188AE
:1053F000BFF34F8FBFF36F8FFEE7A968224E0120E6
:10540000D1B3A6F1B40980463068E8B1F068C46849
:1054100004F11800FFF7D4F9201DFFF7D1F9E06A75
:105420002A6908FA00F11143296100EB800109EBB8
:105430008100211DFFF708FAE06A2968C96A8842DD
:10544000E2D3C5F81C80DFE70CB1FFF79FF8AC6929
:1054500044B14646FFF7CEFE00B1EE61641EF9D1BD
:105460000020A861E86938B10849012738070860B9
:10547000BFF34F8FBFF36F8FFFF712FA3846BDE8C7
:10548000F087000044000020E810002004ED00E058
:105490002DE9F0410027040015D0FFF759FA5020FC
:1054A000EFF3118580F31188BFF34F8FBFF36F8F38
:1054B0002046FFF78FF830B3154E306B58B104F12A
:1054C000180114481DE0502080F31188BFF34F8F5E
:1054D000BFF36F8FFEE7E06A3168C96A884200D384
:1054E0000127201DFFF76CF9E16A0120326988402D
:1054F0001043306101EB81000649B43901EB8000B3
:10550000211DFFF7A1F985F311883846BDE8F08128
:1055100044000020E81000201000000001000000FE
:10552000000000000000000018560008A13100082B
:1055300000000000000000008000000000000000EB
:105540000000000060560008C13E0008FEFF000099
:1055500000000000800000000000000000000000CB
:1055600048560008E7400008FEFF00000000000069
:1055700080000000000000000000000054560008F9
:105580008D3E0008FFFF00000000000080000000CA
:10559000000000000000000024560008154000082C
:1055A000FEFF00000000000080000000000000007E
:1055B000000000003056000841400008FEFF0000D7
:1055C000000000008000000000000000000000005B
:1055D0003C5600086D400008FEFF0000000000007F
:1055E0008000000000000000000000000102020333
:1055F0000405060708090A0B0C0D0E0F1010000019
:105600000000000000000102030406070809000072
:10561000000001020304000064656661756C745447
:1056200061736B004C4544315F7461736B00000023
:105630004C4544325F7461736B0000004C45443349
:105640005F7461736B0000004F4C45445F7461737D
:105650006B000000427574746F6E5F7461736B0051
:1056600042757A7A65725F7461736B008C560008BC
:1056700000000020B0000000A03A00083C570008DD
:10568000B0000020F0250000B03A00080000000043
:10569000000000000000000000000000000000000A
:1056A00000000000000000000000000000000000FA
:1056B00000000000010000001000000000000000D9
:1056C00000127A000000000000000000000000004E
:1056D00000000000000000000000000000000000CA
:1056E00000000000000000000000000000000000BA
:1056F00000000000000000000000000000000000AA
:105700000000000000000000000000000000000099
:105710000000000000000000000000000000000089
:105720000000000000000000000000000000000079
:0C573000AAAAAAAA0000000000000000C5
:04000005080000ED02
:00000001FF
