:020000040800F2
:10000000B00A0020050100080F1E0008991A000818
:100010000D1E00089D0100080D24000800000000CE
:10002000000000000000000000000000131E000897
:10003000E301000800000000111E0008151E000862
:100040001F0100081F0100081F0100081F01000810
:100050001F0100081F0100081F0100081F01000800
:100060001F0100081F0100081F0100081F010008F0
:100070001F0100081F010008A1010008AD010008D0
:100080001F0100081F0100081F0100081F010008D0
:100090001F0100081F0100081F0100081F010008C0
:1000A0001F0100081F0100081F0100081F010008B0
:1000B0001F0100081F0100081F0100081F010008A0
:1000C0001F0100081F0100081F0100081F01000890
:1000D0001F010008A52300081F0100081F010008D8
:1000E0001F0100081F0100081F010008DFF810D0E1
:1000F00000F042F80048004771260008AFF3008086
:10010000B00A00200648804706480047FEE7FEE7A1
:10011000FEE7FEE7FEE7FEE7FEE7FEE7FEE7FEE7B7
:100120008F1E0008ED000008D2B201E000F8012B9C
:10013000491EFBD270470022F6E710B513460A4667
:1001400004461946FFF7F0FF204610BD30B50B46B8
:10015000014600202022012409E021FA02F59D42F7
:1001600005D303FA02F5491B04FA02F52844151ECB
:10017000A2F10102F1DC30BD064C074D06E0E0685B
:1001800040F0010394E8070098471034AC42F6D3DE
:10019000FFF7B0FF1027000830270008FEE7000037
:1001A000014800F091B80000D0020020014800F0A2
:1001B0008BB800008C02002030B590F8405001242C
:1001C000AC40C56B6C60046863604368102B0368C7
:1001D00003D099600068C26030BD9A600068C16059
:1001E00030BD704772B6FEE710B590F821100022BE
:1001F000022905D00421816380F82020012010BD50
:1002000001680B6823F00E030B6001680B6823F094
:1002100001030B6090F84030C46B012101FA03F335
:10022000636080F8211080F82020104610BD000087
:1002300010B590F821100024022903D00421816315
:1002400001243DE001680A6822F00E020A6001689C
:100250000A6822F001020A601A4A0168914201D13B
:10026000012121E0174A1432914201D110211BE0F3
:10027000144A2832914201D1891515E0114A3C32C5
:10028000914201D189140FE00E4A5032914202D1BD
:100290004FF4803108E00B4A6432914202D14FF4AE
:1002A000801101E04FF08071064A083A5160012147
:1002B00080F82110002180F82010416B01B188479F
:1002C000204610BD080002402DE9F05FC16B0C68AC
:1002D00001680B68D0F840C0042202FA0CF2494DC4
:1002E000DFF824A1494E4A4FDFF828B1DFF828E1B2
:1002F00022422CD05A072AD50A68920603D40A68EB
:1003000022F004020A600168A94201D1042219E026
:10031000514501D1402215E0B14202D14FF4806233
:1003200010E0B94202D14FF480420BE0594502D1AE
:100330004FF4802206E0714502D14FF4800201E0C3
:100340004FF080622F4908394A60C16A3BE04FF0A4
:10035000020808FA0CF818EA040F4FF000094FF0F1
:10036000010235D05FEA837832D50B689B0605D44D
:100370000B6823F00A030B6080F821200168A94272
:1003800001D1022219E0514501D1202215E0B142EC
:1003900002D14FF4007210E0B94202D14FF4005282
:1003A0000BE0594502D14FF4003206E0714502D10D
:1003B0004FF4001201E04FF00072124908394A6010
:1003C00080F82090816A00291AD0BDE8F05F0847C4
:1003D000082505FA0CF5254212D01B0710D50B682D
:1003E00023F00E030B6090F84010C36B02FA01F18A
:1003F0005960826380F8212080F82090016BE2E749
:10040000BDE8F09F080002401C000240300002409E
:1004100044000240580002406C00024030B528B34E
:1004200008C8134914221944B1FBF2F18900C163D1
:1004300010498163022141771A6843F6F0718A43BB
:10044000D0E900142143D0E902452C43214304693B
:1004500021434469214384692143114319600021E8
:100460004163012242770177084630BD012030BD4B
:10047000F8FFFDBF0000024070B5044690F8200070
:10048000002501280CD0012084F8200094F8216078
:100490000020012E06D084F820000225284670BDD9
:1004A000022070BD022684F82160A06320680668DF
:1004B00026F0010606602046FFF77EFEE06A00286F
:1004C0002068016802D041F00E0106E021F004012D
:1004D00001602068016841F00A010160206801683C
:1004E00041F001010160D9E770B5044600F010F950
:1004F0000546601C02D004480078044400F008F966
:10050000401BA042FAD370BD000000202DE9F84F37
:10051000DFF8B8910024A9F1040B23460F2709F155
:10052000040AABF1040EC9E00125A5402A40AA4205
:100530007DD1674ED1F804C0ACEB0608B44532D08B
:1005400014DCBCF1030F3AD009DCBCF1000F2AD057
:10055000BCF1010F1CD0BCF1020F31D11DE0BCF188
:10056000110F17D0BCF1120F2AD119E0B8F5881F6E
:1005700019D006DCB8F5803F15D0B8F5801F1FD123
:1005800011E0B8F5001F0ED0B8F5041F18D10AE02D
:10059000CB6815E0CB681B1D12E0CB6808330FE079
:1005A000CB680C330CE08B682BB1012B4FF00803A8
:1005B00003D0456104E0042302E0056100E000236C
:1005C000FF2A01D8064601E000F104064FEA84053F
:1005D00001D9A5F12005D6F8008007FA05FC28EA24
:1005E0000C0803FA05F548EA0508C6F800804D68CE
:1005F000ED0062D5374DAE6946F00106AE61AD69DA
:1006000024F0030605F001050095334D06EB050CBB
:10061000DCF80850A607360F07FA06F825EA0805A1
:10062000DFF8B880404503D14FF0000817E044E000
:10063000DFF8AC80404502D14FF001080FE0DFF851
:10064000A480404502D14FF0020808E0DFF898800E
:10065000404502D14FF0030801E04FF0040808FACA
:1006600006F848EA0508CCF808804D68D9F800601B
:10067000ED024D4601D5164300E096432E604D68CD
:10068000DAF80060AD02554601D5164300E0964306
:100690002E604D68DBF80060AD035D4601D5164362
:1006A00000E096432E604D68DEF80060ED0375466D
:1006B00001D5164300E096432E60641C0D682A465F
:1006C000E5407FF431AFBDE8F88F00000804014039
:1006D000000011100010024000000140000801401D
:1006E000000C0140001001400014014080680840E7
:1006F00000D001207047C26821EA02030A4043EAA1
:100700000241016170470AB1016170470904FBE7CA
:1007100001488068704700000000002070B50400A8
:1007200025D094F83D00002520B984F83C5020469F
:1007300000F0B8F8242084F83D002068016821F01A
:10074000010101602068016841F4004101602068F6
:10075000016821F40041016000F00EFB4D4A616820
:10076000914201D84C4900E04C49884201D2012015
:1007700070BD4B492368B0FBF1F15E6826F03F067F
:100780000E435E606368934206D94FF496735943F3
:100790004FF47A73B1FBF3F12368491C1E6A26F00B
:1007A0003F06314319626168914210D84900401EEA
:1007B000B0FBF1F2521CC2F30B02042A01D2042056
:1007C00022E0B0FBF1F0401CC0F30B001CE0A2687B
:1007D000F2B301EBC10303EB0116431EB3FBF6F3C7
:1007E0005B1C43F480431B0549D092B301EBC1026B
:1007F00002EB0111401EB0FBF1F0401CC0F30B00F6
:1008000040F4804040F400402168CA694CF6FF7310
:100810009A431043C861D4E9071001432068026875
:1008200022F0C00211430160D4E9030101432068B2
:10083000826848F2FF339A4311438160D4E905018D
:1008400008432168CA6822F0FF021043C86001E033
:100850000EE016E02068016841F0010101602564A6
:10086000202084F83D00256384F83E50002070BDB0
:1008700001EB4106431EB3FBF6F35B1CB3E701201B
:10088000C2E701EB4101401EB0FBF1F0401CC0F398
:100890000B00B7E7A086010080841E0000093D0020
:1008A00040420F0030B585B00021009101910291C6
:1008B0000391214D0368214C122103222048AB42B1
:1008C0001DD1A36943F00803A361A369039203F058
:1008D000080304931302CDE900316946FFF716FEC1
:1008E0001848416841F0E06141F002014160E0696F
:1008F00040F40010E061E06900F4001019E0124DCE
:10090000AB4217D1A36943F00803A361A369039223
:1009100003F0080304934FF44063CDE900316946C6
:10092000FFF7F4FDE06940F48000E061E06900F465
:100930008000049005B030BD00540040001002401B
:10094000000C01400000014000580040024881684E
:10095000027811448160704700000020074810B5FC
:10096000016841F010010160032000F075F80F20CC
:1009700000F006F800F024F8002010BD002002402E
:1009800070B50D4D04464FF47A712878B1FBF0F044
:100990000A490968B1FBF0F000F076FC48B9102C68
:1009A00007D200222146501E00F036F800206C606D
:1009B00070BD012070BD0000000000200C00002070
:1009C0000C4808B5816941F001018161816901F03C
:1009D00001010091C16941F08051C161C06900F01D
:1009E000805000900448416821F0E06141F00071BE
:1009F000416008BD0010024000000140002809DBF2
:100A000000F01F02012191404009800000F1E02028
:100A1000C0F8001170470000F0B40E4B1B680C4684
:100A2000C3F30223C3F10705042D00D90425191DC2
:100A3000072901D2002300E0DB1E012606FA05F19A
:100A4000491E214099409E40761E16403143F0BC1D
:100A500001F0F4BC0CED00E0064900F00702086864
:100A60004FF6FF03184040EA0220034A1043086093
:100A7000704700000CED00E00000FA052DE9F041A0
:100A8000040004D094F89102002518B107E0012079
:100A9000BDE8F08184F89052204600F04DF8032024
:100AA00084F891026571206801F097FC94E80F00CA
:100AB00001F086FC022698BB0021206801F094FC1E
:100AC00070BB002001270BE000EB800104EBC101AB
:100AD0004F740874CD740D624D62401CC0B28D62BB
:100AE00021798142F0D8002012E000BF00EB8001A4
:100AF00004EBC10181F8515181F8500181F8535143
:100B0000C1F86051C1F86451401CC0B2C1F86851CD
:100B100021798142EAD894E80F0001F055FC10B128
:100B200084F89162B3E7657384F89172206801F0EC
:100B300049FC0020ACE7000008B50068064988427F
:100B400008D10648C16941F40001C161C06900F4DF
:100B50000000009008BD0000005C00400010024052
:100B60002DE9F84305460078354CC00754D0E069BC
:100B70000026C00008D4E06940F08050E061E069E0
:100B8000012600F0805000902E480168C90512D45B
:100B90000168804641F480710160FFF7B9FD0746A6
:100BA00005E000BFFFF7B4FDC01B642823D8D8F8C8
:100BB0000000C005F6D5206A10F4407021D0A98845
:100BC00001F4407181421CD0206A1F49012220F4A7
:100BD00040700A6000220A602062C00711D0FFF74F
:100BE00097FD074641F2883808E000BFFFF790FD07
:100BF000C11B414502D90320BDE8F883206A800764
:100C0000F4D5206A696820F44070084320621EB160
:100C1000E06920F08050E0612878800705D56068A1
:100C2000A96820F44040084360602878C00605D5D4
:100C30006068E96820F48000084360600020DBE71A
:100C40000010024000700040400442422DE9F0478D
:100C50000F46050061D0434E306800F00700B842EF
:100C600009D2306820F0070038433060306800F067
:100C70000700B84251D128683B4C810712D5400784
:100C800003D5606840F4E06060602878000703D511
:100C9000606840F4605060606068A96820F0F0000F
:100CA000084360602878C00728D06868012810D001
:100CB0002168022810D0890700292EDA616821F006
:100CC000030101436160FFF723FD804641F288394B
:100CD0000DE021688903EFE78901EDE7FFF718FDD3
:100CE000A0EB0801494502D90320BDE8F087606800
:100CF000696800F00C00B0EB810FEFD1306800F0B4
:100D00000700B8420BD9306820F007003843306044
:100D1000306800F00700B84201D00120E5E72878EC
:100D2000400705D56068E96820F4E060084360602A
:100D30002878000706D56068296920F4605040EAE9
:100D4000C100606000F038F86168084AC1F303111F
:100D5000515CC8400649086006480068FFF710FE6D
:100D60000020C2E70020024000100240F6260008E2
:100D70000C00002004000020044805490068496870
:100D8000044AC1F30221515CC84070470C000020A6
:100D90000010024006270008044805490068496819
:100DA000044AC1F3C221515CC84070470C000020C6
:100DB00000100240062700080E4A51680E4801F054
:100DC0000C03042B11D0082B0FD10C48C1F3834323
:100DD000C903C05C0AD55168084AC1F34041921E5C
:100DE000515C054A5043B0FBF1F070470449484359
:100DF000704700000010024000127A00E62600084A
:100E000000093D002DE9F84F040070D02078C04D56
:100E1000C00749D06868C0F38100012807D068681E
:100E2000C0F38100022809D16868C00306D528688C
:100E3000800339D560680028E7D035E06068B0F5F8
:100E4000803F0BD010B1B0F5A02F11D0286820F44E
:100E500080302860286820F4802002E0286840F470
:100E600080302860606890B1FFF752FC06460AE0C7
:100E7000286840F480202860F0E700BFFFF748FCB6
:100E8000801B642873D828688003F7D50CE0FFF72F
:100E90003FFC064605E000BFFFF73AFC801B6428D4
:100EA000F0D828688003F7D420789A4E80074FF056
:100EB00001094FF0000839D5686810F00C0F07D011
:100EC0006868C0F38100022809D16868C00306D4AD
:100ED0002868800714D52069012808D110E020690E
:100EE000B0B1C6F80090FFF713FC074605E00AE131
:100EF000FFF70EFCC01B0228C4D828688007F7D56E
:100F00002868616920F0F80040EAC10028600DE01F
:100F1000C6F80080FFF7FCFB074604E0FFF7F8FB8C
:100F2000C01B022823D828688007F7D42078000740
:100F30002CD57948A169D9B1C0F80090FFF7E8FB3A
:100F4000074604E0FFF7E4FBC01B02280FD8686ADD
:100F50008007F7D571484FF4FA510068B0FBF1F003
:100F6000009000BF0098411E0091FAD20EE080E090
:100F7000C0F80080FFF7CCFB074604E0FFF7C8FB92
:100F8000C01B022875D8686A8007F7D4207840070C
:100F900060D5E8690027C00008D4E86940F08050B7
:100FA000E861E869012700F0805000905C48016822
:100FB000C90513D40168834641F480710160FFF7CD
:100FC000A7FB824606E000BFFFF7A2FBA0EB0A00EA
:100FD00064284ED8DBF80000C005F5D5E06801288C
:100FE0000AD008B1052813D0286A20F00100286231
:100FF000286A20F0040002E0286A40F0010028621C
:10100000E06841F2883B98B1FFF782FB82460BE033
:10101000286A40F004002862EEE700BFFFF778FB83
:10102000A0EB0A0159455AD8286A8007F6D50CE08A
:10103000FFF76EFB824605E0FFF76AFBA0EB0A01B3
:1010400059454CD8286A8007F6D41FB1E86920F0CA
:101050008050E861E06988B36968C1F381010229C1
:1010600044D00228C6F8608004D0FFF751FB044644
:1010700038E034E0FFF74CFB074604E0FFF748FB9D
:10108000C01B02282BD828688001F7D4206AB0F54D
:10109000803F05D16868A16820F40030084368608B
:1010A000D4E908010843696821F4741108436860B1
:1010B000C6F86090FFF72CFB044606E025E000BF71
:1010C000FFF726FB001B022809D828688001F7D506
:1010D0001BE000BFFFF71CFB001B022802D9032006
:1010E000BDE8F88F28688001F4D40EE00128F7D01D
:1010F0006868226A00F48031914204D1616A00F488
:101100007010884201D00120EAE70020E8E70000E3
:101110000010024000004242800442420C000020C5
:101120000070004070B5040009D0606A002540B12D
:1011300025616561A56294F8510040B10CE0012081
:1011400070BD6068B0F5827FF4D0E561F2E784F8A5
:101150005050204600F040F8022084F851002068EA
:10116000016821F040010160A088218900F48270AB
:1011700001F404410843A18901F400610843217C82
:1011800001F002010843217D01F001010843218B98
:1011900001F400710843217F01F03801084394F8FD
:1011A000201001F080010843218D01F40051084313
:1011B00021680860A069042101EA104021684860A4
:1011C0002068C16921F40061C1616565012084F86E
:1011D0005100002070BD000070B586B00021009164
:1011E000019102910391234A0168234802240325B7
:1011F000914218D1816941F480518161816901F482
:1012000080510491816941F00401816180691B4E24
:1012100000F004000490B020009069463046FFF7CB
:1012200075F940201CE0164A914220D1C16941F471
:101230008041C161C16901F480410491816941F03B
:101240000801816180690F4E00F0080004904FF49E
:10125000A040009069463046FFF758F94FF420400F
:10126000CDE90004694603953046FFF74FF906B013
:1012700070BD000000300140001002400008014035
:1012800000380040000C014010B5401EB0F1807FD6
:1012900001D3012010BD4FF0E02460610F216017E1
:1012A00001F0CCF80020A06107202061002010BDD3
:1012B00070B590F83C20012A26D0012480F83C40EB
:1012C000022280F83D2003685A689D6822F070066B
:1012D0000A6832435A600D4B02689A4208D0B2F154
:1012E000804F05D00A4B9A4202D00A4B9A4204D151
:1012F000496825F080031943916080F83D40002142
:1013000080F83C10084670BD022070BD002C0140E2
:10131000000400400008004010B5040003D094F819
:101320003D0010B107E0012010BD002084F83C0012
:10133000204600F01FF8022084F83D00211D20689F
:1013400000F0A6FD012084F8460084F83E0084F8F1
:101350003F0084F8400084F8410084F8420084F89B
:10136000430084F8440084F8450084F83D000020E0
:1013700010BD000008B501680B48B1F1804F0BD0DB
:101380000A4A914207D1C16941F00201C161C069B5
:1013900000F00200009008BDC16941F00101C16187
:1013A000C06900F00100F5E70010024000040040B1
:1013B00070B5044690F83C000025012817D001269E
:1013C00084F83C60022084F83D002068826822F0A6
:1013D000770222F47F4282600868502838D00DDC02
:1013E00020284FD005DC90B3102811D14AE002200C
:1013F00070BD302846D040280AD13BE060282FD06D
:1014000070280DD0B0F5805F03D0B0F5005F12D02A
:10141000012584F83D60002084F83C00284670BD1A
:10142000CB68D1E90121206800F06EFD2068816859
:1014300041F0770109E0CB68D1E90121206800F093
:1014400063FD2068816841F480418160E1E719E033
:10145000CA684968206800F069FD5021206806E0EC
:10146000CA684968206800F072FD6021206800F0B9
:1014700055FDCEE7CA684968206800F057FD402155
:101480002068F4E7226801461046F0E738B50446C4
:1014900090F84200202801D0022038BD51B14AB155
:1014A0000120206300206063204600F0F9FE216BDC
:1014B000012901D0012038BD21680A6849680091DE
:1014C00021680C3151E8002F42F0100241E800235E
:1014D000002BF5D138BD000070B5044618A000F00F
:1014E0009DFF40211948FEF726FE194920688842D1
:1014F00025D11648403801785A2920D14178A529AC
:101500001DD181785A291AD1027905210F4C531D1A
:1015100004E0455C6618491C06F8055C9942F8DB56
:1015200010444079D02805D0BDE8704040210748DC
:10153000FEF701BEBDE87040044800F068BF70BD12
:1015400053697A653D25750D0A2000006C06002060
:101550000038014010B500680649884209D10649A3
:10156000064800F043FFBDE8104040210248FEF766
:10157000E2BD10BD003801402C060020FC01002017
:10158000F8B5016804460868CA684B6910F00F0F87
:101590004FF0000559D003F0010602F4907737436D
:1015A00065D0C10705D0D10503D5616C41F00101BB
:1015B0006164410705D5D90703D0616C41F0020190
:1015C0006164810705D5D90703D0616C41F004013E
:1015D0006164010707D502F02001314303D0616C3B
:1015E00041F008016164616C00293AD0800604D59D
:1015F000900602D5204600F096FD20684069616C97
:10160000C0F38010090700D460B3204600F056FDF7
:1016100020684069400621D52068143050E8001F3A
:1016200021F0400140E80012002AF5D1E06BA8B19A
:101630006D494163E06BFEF7FBFD002811D0E06BC4
:10164000416B01B0BDE8F040084783060FD5930613
:101650000DD52046BDE8F84000F065BD2046FFF7F7
:1016600079FFF8BD2046FFF775FF6564F8BD266B6E
:101670002023012E7CD1C6067AD5D60678D50868F7
:101680004868009048694FF00206400640D5E16B7B
:10169000086840680004000CE8D0A28D8242E5D9B9
:1016A000E085886920282DD020680C3050E8001F84
:1016B00021F4807140E80012002AF5D1206814302E
:1016C00050E8001F21F0010140E80012002AF5D186
:1016D0002068143050E8001F21F0400140E800125B
:1016E000002AF5D184F84230256320680C3050E898
:1016F000001F21F0100140E80012002AF5D1E06B34
:10170000FEF772FD6663A08DE18D401A81B22AE07A
:10171000A08DE18D401A81B2E08D0028A6D000296D
:10172000A4D022680C3252E8000F20F4907042E8F6
:101730000007002FF5D12068143050E8002F22F068
:10174000010240E80027002FF5D184F842302563DC
:1017500020680C3050E8002F22F0100240E80023EF
:10176000002BF5D166632046FFF7B6FEF8BDFFE714
:1017700005062BD5150629D594F841002128F5D169
:10178000A068B0F5805F01D12069B0B1206A411C2A
:101790002162216800784860E08C401E0004000C43
:1017A000E084E3D12068C16821F08001C160206835
:1017B000C16841F04001C160D8E7206A0088C0F3E9
:1017C00008004860206A801C2062E5E74006CDD50D
:1017D0005006CBD5CA68204622F04002CA6084F881
:1017E000413000F057F9C1E7731F000870B50400DD
:1017F00004D094F84100002510B106E0012070BD2E
:1018000084F84050204600F023F8242084F841005A
:101810002068C16821F40051C160204600F0E4FC5A
:101820002068016921F4904101612068416921F03B
:101830002A0141612068C16841F40051C1606564BA
:10184000202084F8410084F842006563002070BDC8
:10185000F0B585B0002400940194029403940646E8
:101860003F4F03683F48022103223F4DBB4252D104
:10187000836943F480438361836903F48043049361
:10188000836943F0040383618069039200F00400DC
:1018900004900802CDE9000169462846FEF736FEAD
:1018A0002815CDE900040120029069462846FEF77C
:1018B0002DFE2F4D2D488027C5E90004C5E90247BC
:1018C0002C616C61AC612846EC61FEF7A7FD08B1A4
:1018D000FEF788FCF5636E62254D244844351438C4
:1018E00001C5102091C5224845F8104944306C616B
:1018F000AC61EC61FEF792FD08B1FEF773FCB563D5
:101900000022114625206E62FFF786F82520FFF79A
:1019100075F805B0F0BD174EB342FAD1C36943F470
:101920000033C361C36903F400330493836943F054
:10193000040383618069039200F004000490042092
:10194000CDE9000169462846FEF7E0FD0820CDE913
:101950000004694628460294FEF7D8FDD9E7000046
:1019600000380140001002400008014058000240C9
:101970008C02002000440040704770472DE9F84376
:10198000044690F84100984616460D46202802D09D
:101990000220BDE8F88385B17EB10020606421207B
:1019A00084F84100FEF7B4FEA6848146E684A06870
:1019B0002027B0F5805F02D003E00120E9E720692D
:1019C00010B12E4600250EE000260CE080212046B6
:1019D00000F0AEFCA8B9C6B116F8010B216848604A
:1019E000E08C401EE084E08C4B464FF00002CDF8C6
:1019F00000800028EAD14FF04001204600F098FC1A
:101A000040B184F841700320C3E735F8020BC0F3FE
:101A10000800E3E784F841700020BAE770B5044697
:101A200090F84100202801D0022070BD49B342B394
:101A30002162A284E28400206064212384F8413082
:101A4000A56B114BAB62A56B104BEB62A56B104BFA
:101A50002B63A36B5863256813462A1DA06BFEF702
:101A60000BFD21686FF0400008602068143050E8DA
:101A7000001F41F0800140E80012002AF5D100204B
:101A800070BD012070BD000071200008B320000867
:101A9000831F000870477047FEE7000010B54FF441
:101AA00000410648FEF722FE012801D0012010BDAA
:101AB0000A20FEF719FD002010BD000000080140BB
:101AC0004FF480710148FEF716BE00000008014087
:101AD0000D4808B5416941F00101416140690022AA
:101AE00000F00100009011460E20FEF795FF0E2039
:101AF000FEF784FF002211460F20FEF78DFFBDE8A0
:101B000008400F20FEF77ABF0010024070B586B083
:101B1000002420480094019402940394816941F0C8
:101B200020018161816901F020010491816941F006
:101B300004018161816901F004010491816941F02E
:101B4000080181618069144E00F008004FF480752F
:101B50000490002229463046FEF7D5FD0121CDE94B
:101B600000510291039169463046FEF7CFFCE8012F
:101B7000CDE90004694630460294FEF7C7FCF82020
:101B8000CDE90004694605480294FEF7BFFC06B0A3
:101B900070BD00000010024000080140000C014030
:101BA0000D4810B50B4901600C49416000214FF40C
:101BB00080428160C0E9031241618161C1610162BB
:101BC000FEF7ACFD002803D0BDE81040FEF70ABBCD
:101BD00010BD00000054004014000020A086010049
:101BE0000D4810B50B4901600C49416000214FF4CC
:101BF00080428160C0E9031241618161C16101627B
:101C0000FEF78CFD002803D0BDE81040FEF7EABACD
:101C100010BD00000058004068000020A0860100B0
:101C20000E4810B50C49016000214FF4006241607C
:101C3000C0E9021201614161816101624162816218
:101C40000A21C162FFF76EFA002803D0BDE81040F8
:101C5000FEF7C8BA10BD000000300140BC000020F3
:101C60000E4810B50C4901604FF4827141600021AB
:101C70008160C160016141618161C1610162416254
:101C800081620A21C162FFF74DFA002803D0BDE846
:101C90001040FEF7A7BA10BD003800401401002024
:101CA00010B586B000241648009401940294039461
:101CB00004944FF080410594C0E900144FF6FF7181
:101CC000C0E9024104618461FFF726FB08B1FEF719
:101CD00089FA4FF48050009069460948FFF768FB85
:101CE00008B1FEF77FFA049404A905480594FFF7AC
:101CF000DFFA002801D0FEF775FA06B010BD00002B
:101D00006C01002010B586B00024164800940194A0
:101D100002940394049412490594C0E900144FF608
:101D2000FF71C0E9024104618461FFF7F5FA08B16F
:101D3000FEF758FA4FF48050009069460948FFF7C3
:101D400037FB08B1FEF74EFA049404A90548059440
:101D5000FFF7AEFA002801D0FEF744FA06B010BD36
:101D600000040040B40100200C4810B50A4901608D
:101D70004FF416514160002181600C22C160C0E91E
:101D800004128161C161FFF731FD002803D0BDE875
:101D90001040FEF727BA10BD00380140FC010020BA
:101DA0000C4810B50A4901604FF4165141600021FA
:101DB00081600C22C160C0E904128161C161FFF73A
:101DC00015FD002803D0BDE81040FEF70BBA10BD8A
:101DD00000440040440200200B4810B5094901604E
:101DE000082101710221817100218172C172017388
:101DF000FEF744FE002803D0BDE81040FEF7F2B91C
:101E000010BD0000005C004014030020FEE7FEE768
:101E100070477047FEF79ABD30B593B028216846E9
:101E2000FEF789F914210AA8FEF785F9002401209C
:101E30000F9410941194010412948DE813000490EF
:101E40004FF4E010CDE90810022507956846FEF72B
:101E5000D9FF08B172B6FEE70F20CDE90A054FF4AD
:101E60008060CDE90C4002210AA80E94FEF7EEFE38
:101E700008B172B6FEE710200F9012940FA8FEF77B
:101E80006FFE002801D072B6FEE713B030BD704778
:101E9000F0B50268194B1A4C1A4D4FF08047984222
:101EA00005D0B84203D0A04201D0A84203D122F00D
:101EB00070064A683243984205D0B84203D0A04227
:101EC00001D0A84203D122F44074CA6822434C696D
:101ED00022F08002224302608A68C2620A6882623B
:101EE000984201D109690163012141610169C90772
:101EF00003D0016921F001010161F0BD002C014016
:101F0000000400400008004010B5846842EA032243
:101F100024F47F440A432243826010BD826822F089
:101F200070020A4342F007018160704710B5036AEE
:101F3000046A24F001040462846924F0F00444EA91
:101F4000021423F00A020A438461026210BD10B534
:101F5000036A046A24F010040462846923F0A00375
:101F600024F4704444EA023243EA011182610162BE
:101F700010BD10B5406A0021C185C184FFF7EAFA9F
:101F800010BD70B5446A2068406994F84110C0F3F0
:101F9000C0100025212904D118B1E584204600F0A5
:101FA000B4F82068406994F84210C0F380102229E8
:101FB00004D118B1E585204600F080F8606C40F04F
:101FC000100060642046FFF7C5FA70BD10B50146E9
:101FD000406A096809684FF0000289062ED4C2855C
:101FE00001680C3151E8003F23F4807341E800346C
:101FF000002CF5D10168143151E8003F23F00103B2
:1020000041E80034002CF5D10168143151E8003F5B
:1020100023F0400341E80034002CF5D1202180F862
:102020004210016B012909D101680C3151E8003FD0
:1020300023F0100341E80034002CF5D14263016B1A
:10204000012902D0FFF798FC10BD818DFFF744FAFB
:1020500010BD10B5406A01214163016B012902D016
:10206000FFF78BFC10BD818D4908FFF735FA10BDD5
:1020700010B50146406A09680968890616D400212E
:10208000C1840168143151E8002F22F0800241E838
:102090000023002BF5D101680C3151E8002F42F0EC
:1020A000400241E80023002BF5D110BDFFF7F2FC00
:1020B00010BD10B5406AFFF7EEFC10BD01680C3191
:1020C00051E8002F22F4907241E80023002BF5D153
:1020D0000168143151E8002F22F0010241E8002389
:1020E000002BF5D1016B012909D101680C3151E8B0
:1020F000002F22F0100241E80023002BF5D120210F
:1021000080F8421000210163704701680C3151E8EA
:10211000002F22F0C00241E80023002BF5D120213E
:1021200080F84110704708B590F84210222901D07C
:10213000022008BD82684FF480539A4201D10169A0
:1021400021B1816A9A421BD04AB10AE00268816AD1
:102150005268C2F308020A80816A891C08E0026999
:1021600072B10268526802F07F020A70816A491CEB
:102170008162C18D491E0904090CC18503D01BE091
:1021800002685268F1E70168CA6822F02002CA605A
:102190000168CA6822F48072CA6001684A6922F044
:1021A00001024A61202180F8421000214163026B44
:1021B000012A03D0FFF7E0FB002008BD016301689E
:1021C0000C3151E8002F22F0100241E80023002BCF
:1021D000F5D101680A68D20602D50A6849680091FB
:1021E000818DFFF779F9E7E770B50446006801696A
:1021F000E26821F44051114301612169A06808435C
:10220000616908432168CA6841F20C639A4302433A
:10221000CA6020684169A26921F44071114341619B
:102220001E492068884202D1FEF7B6FD01E0FEF7A4
:10223000A3FD00EBC00101EB001260686421800087
:10224000B2FBF0F3B3FBF1F36FF018067343B2FB8C
:10225000F0F5B2FBF0F605EB8305322303EB051531
:10226000B5FBF1F5B6FBF1F605F0F00505EB06154B
:10227000B2FBF0F6B2FBF0F0B0FBF1F06FF0180239
:10228000504306EB800003EB0010B0FBF1F0216837
:1022900000F00F002844886070BD00000038014045
:1022A00038B581620446828500201346606422228C
:1022B00084F84220E56B1B4AAA62E56B1A4AEA627F
:1022C000E56B1A4A2A63E26B50630A462168E06BA9
:1022D000091DFEF7D1F82068016840680090206968
:1022E00048B120680C3050E8001F41F4807140E88C
:1022F0000012002AF5D12068143050E8001F41F088
:10230000010140E80012002AF5D12068143050E89D
:10231000001F41F0400140E80012002AF5D10020E2
:1023200038BD0000CD1F000853200008831F00089F
:102330002DE9F843984617460D460446089E24E0CA
:10234000701C22D0FEF7E4F9A0EB0800B0421AD8C6
:10235000CEB12068C168490717D5802D15D0402D12
:1023600013D00168C94309070FD4016800254068EC
:1023700000902046FFF7A2FE0820606484F84050D9
:102380000120BDE8F8830320FBE72068006835EAF8
:10239000000004D00020B842D2D00020F1E7012094
:1023A000F9E7000010B50448FFF7EAF8BDE810406F
:1023B0000249014800F01AB8FC0100202C06002058
:1023C0000020704700207047012120F8401F0021A5
:1023D0000180818001820846704730F8401F21F457
:1023E0003F410180002070470020704710B5402217
:1023F0000448FFF74BF804480068016821F0040125
:10240000016010BDFC0100208C020020FEE7007876
:10241000112801D1FFF754BB704700000FB4054BE2
:1024200010B503A9044A029800F028F810BC5DF822
:1024300014FB0000D1250008100000200907090E38
:10244000002804DB00F1E02080F80014704700F061
:102450000F0000F1E02080F8141D704702E008C86A
:10246000121F08C1002AFAD170477047002001E00E
:1024700001C1121F002AFBD1704700002DE9FF4F58
:1024800089B09B460446002506E025280BD05A4615
:102490000B999047641C6D1C20780028F5D10DB075
:1024A0002846BDE8F08F0027B8460122474900E0E2
:1024B000074314F8013F203B02FA03F00842F7D12A
:1024C00020782E2819D114F8010F47F004072A2884
:1024D0000ED06FF02F022078A0F1300109290CD81E
:1024E00008EB880102EB410100EB0108641CF2E7F4
:1024F0000A98641C50F8048B0A9020780028CED0EB
:10250000642808D0692806D075281ED05A460B9931
:1025100090476D1C58E00A994FF00A0901C90A91C9
:10252000002802DA40422D2102E0390504D52B2192
:102530008DF82010012103E0F90704D02021F7E7EE
:102540008A4608AE0DE00021FAE70A994FF00A0921
:1025500001C90A91F7E74946FDF7F8FD303106F861
:10256000011D0028F7D1ADEB060000F12009780726
:1025700001D44FF00108C84502DDA8EB090000E0D6
:1025800000208046002706E008A85A46C05D0B9947
:1025900090476D1C7F1C5745F6DB04E030205A46FF
:1025A0000B9990476D1CB8F10001A8F10108F5DC0A
:1025B00005E016F8010B5A460B9990476D1CB9F1CE
:1025C0000001A9F10109F4DC641C65E70928010098
:1025D00013B54FF6FF73012269460248FFF7CEF9A3
:1025E00000981CBDFC01002010B55A220270A523E2
:1025F00043708270C170D02180F88510054906486B
:10260000FFF7F4FE04480068C16841F01001C160A2
:1026100010BD00002C060020FC01002070B50C4607
:102620000646154640211048FDF785FD0E4B3078D3
:102630000521187070785870B0789870F078D8705C
:102640001D7108466A1D03E0451A655D1D54401C56
:102650008242F9DCD0209854BDE87040921C92B2BE
:1026600001490248FFF7DAB9EC050020FC0100201F
:10267000A4B0FEF773F9FFF7CFFBFFF747FAFFF7B8
:1026800027FAFFF78DFAFFF7ABFAFFF7C9FAFFF762
:10269000E7FAFFF705FBFFF735FBFFF765FBFFF7F1
:1026A0007FFBFFF799FB11208DF888008221684697
:1026B000FFF79AFF09490A48FFF798FE4FF4E174C3
:1026C000FFF7ECF90028FBD1012222A96846FFF7A9
:1026D000A5FF2046FDF708FFF2E700002C060020CA
:1026E000FC010020010202030405060708090A0B89
:1026F0000C0D0E0F10100000000000000000010281
:10270000030406070809000000000102030400009A
:102710003027000800000020140000005C2400089E
:1027200044270008140000209C0A00006C240008C4
:1027300001000000100000000000000000127A00FC
:042740000000000095
:04000005080000ED02
:00000001FF
