:020000040800F2
:100000005819002099010008CF170008B9140008FA
:10001000CD17000829020008511A0008000000004E
:1000200000000000000000000000000001010008C6
:100030002B0200080000000045010008D917000845
:10004000B3010008B3010008B3010008B3010008C0
:10005000B3010008B3010008B3010008B3010008B0
:10006000B3010008B3010008B3010008B3010008A0
:10007000B3010008B3010008B3010008B301000890
:10008000B3010008B3010008B3010008B301000880
:10009000B3010008B3010008B3010008B301000870
:1000A000B30100087D180008B3010008B30100087F
:1000B000B3010008B3010008B3010008B301000850
:1000C000B3010008B3010008B3010008B301000840
:1000D000B3010008B3010008B3010008B301000830
:1000E000B3010008B3010008B3010008DFF80CD029
:1000F00000F088F800480047911A000858190020BD
:10010000224B19680868B0E8F00F80F30988BFF344
:100110006F8F4FF0000080F311884EF00D0E704786
:100120000000000006480068006880F3088862B696
:1001300061B6BFF34F8FBFF36F8F00DF00BF00BF0B
:1001400008ED00E0EFF30980BFF36F8F0F4B1A68E3
:1001500020E9F00F106008B54FF0500080F31188CF
:10016000BFF34F8FBFF36F8F02F03EF84FF00000E8
:1001700080F31188BDE8084019680868B0E8F00FFE
:1001800080F30988BFF36F8F704700BF1400002011
:10019000EFF3058070470000064880470648004797
:1001A000FEE7FEE7FEE7FEE7FEE7FEE7FEE7FEE727
:1001B000FEE7FEE77B180008ED00000840EA0103B7
:1001C0009B0703D009E008C9121F08C0042AFAD20D
:1001D00003E011F8013B00F8013B521EF9D27047D1
:1001E000D2B201E000F8012B491EFBD27047002279
:1001F000F6E710B513460A4604461946FFF7F0FF26
:10020000204610BD064C074D06E0E06840F00103B3
:1002100094E8070098471034AC42F6D3FFF76AFF22
:1002200080250008A0250008FEE7704772B6FEE7AB
:100230002DE9F84FDFF8B8910024A9F1040B23460B
:100240000F2709F1040AABF1040EC9E00125A5400E
:100250002A40AA427DD1674ED1F804C0ACEB060813
:10026000B44532D014DCBCF1030F3AD009DCBCF148
:10027000000F2AD0BCF1010F1CD0BCF1020F31D10C
:100280001DE0BCF1110F17D0BCF1120F2AD119E0FB
:10029000B8F5881F19D006DCB8F5803F15D0B8F541
:1002A000801F1FD111E0B8F5001F0ED0B8F5041F54
:1002B00018D10AE0CB6815E0CB681B1D12E0CB68B3
:1002C00008330FE0CB680C330CE08B682BB1012BAB
:1002D0004FF0080303D0456104E0042302E0056108
:1002E00000E00023FF2A01D8064601E000F10406E1
:1002F0004FEA840501D9A5F12005D6F8008007FA58
:1003000005FC28EA0C0803FA05F548EA0508C6F8D2
:1003100000804D68ED0062D5374DAE6946F00106AC
:10032000AE61AD6924F0030605F001050095334D7B
:1003300006EB050CDCF80850A607360F07FA06F89E
:1003400025EA0805DFF8B880404503D14FF00008E2
:1003500017E044E0DFF8AC80404502D14FF00108DF
:100360000FE0DFF8A480404502D14FF0020808E01A
:10037000DFF89880404502D14FF0030801E04FF0CC
:10038000040808FA06F848EA0508CCF808804D6821
:10039000D9F80060ED024D4601D5164300E09643C2
:1003A0002E604D68DAF80060AD02554601D516435F
:1003B00000E096432E604D68DBF80060AD035D46BB
:1003C00001D5164300E096432E604D68DEF80060CC
:1003D000ED03754601D5164300E096432E60641C7C
:1003E0000D682A46E5407FF431AFBDE8F88F000084
:1003F00008040140000011100010024000000140FC
:1004000000080140000C01400010014000140140B0
:1004100001488068704700000400002070B50400A7
:1004200025D094F83D00002520B984F83C502046A2
:1004300000F0B8F8242084F83D002068016821F01D
:10044000010101602068016841F4004101602068F9
:10045000016821F40041016000F05AFB4D4A6168D7
:10046000914201D84C4900E04C49884201D2012018
:1004700070BD4B492368B0FBF1F15E6826F03F0682
:100480000E435E606368934206D94FF496735943F6
:100490004FF47A73B1FBF3F12368491C1E6A26F00E
:1004A0003F06314319626168914210D84900401EED
:1004B000B0FBF1F2521CC2F30B02042A01D2042059
:1004C00022E0B0FBF1F0401CC0F30B001CE0A2687E
:1004D000F2B301EBC10303EB0116431EB3FBF6F3CA
:1004E0005B1C43F480431B0549D092B301EBC1026E
:1004F00002EB0111401EB0FBF1F0401CC0F30B00F9
:1005000040F4804040F400402168CA694CF6FF7313
:100510009A431043C861D4E9071001432068026878
:1005200022F0C00211430160D4E9030101432068B5
:10053000826848F2FF339A4311438160D4E9050190
:1005400008432168CA6822F0FF021043C86001E036
:100550000EE016E02068016841F0010101602564A9
:10056000202084F83D00256384F83E50002070BDB3
:1005700001EB4106431EB3FBF6F35B1CB3E701201E
:10058000C2E701EB4101401EB0FBF1F0401CC0F39B
:100590000B00B7E7A086010080841E0000093D0023
:1005A00040420F0030B585B00021009101910291C9
:1005B0000391214D0368214C122103222048AB42B4
:1005C0001DD1A36943F00803A361A369039203F05B
:1005D000080304931302CDE900316946FFF728FEB2
:1005E0001848416841F0E06141F002014160E06972
:1005F00040F40010E061E06900F4001019E0124DD1
:10060000AB4217D1A36943F00803A361A369039226
:1006100003F0080304934FF44063CDE900316946C9
:10062000FFF706FEE06940F48000E061E06900F455
:100630008000049005B030BD00540040001002401E
:10064000000C014000000140005800400248816851
:10065000027811448160704704000020074810B5FB
:10066000016841F010010160032000F0A1F80F20A3
:1006700000F006F800F04AF8002010BD002002400B
:1006800030B505461C4887B0816941F4006181613D
:10069000806906A900F40060009001A800F018FA33
:1006A00000F046FA1549164AB0FBF1F11548491E0B
:1006B0000260416040F2E7320021C0E9032181601D
:1006C000816100F0E3FC040012D10E4800F02AFD25
:1006D00004000DD1192000F03DF8102D07D20022A2
:1006E0002946192000F044F80748056000E001247D
:1006F00007B0204630BD00000010024040420F000D
:10070000002C014020080020080000200F4808B5F8
:10071000816941F001018161816901F0010100916C
:10072000C16941F08051C161C069002200F0805070
:1007300000900F21901E00F01BF80548416821F041
:10074000E06141F00071416008BD0000001002400E
:1007500000000140002809DB00F01F020121914048
:100760004009800000F1E020C0F80011704700004F
:10077000F0B40E4B1B680C46C3F30223C3F107050C
:10078000042D00D90425191D072901D2002300E0FA
:10079000DB1E012606FA05F1491E214099409E40C4
:1007A000761E16403143F0BC01F053B90CED00E069
:1007B000064900F0070208684FF6FF03184040EAB8
:1007C0000220034A10430860704700000CED00E06F
:1007D0000000FA052DE9F041040004D094F89102DC
:1007E000002518B107E00120BDE8F08184F890529F
:1007F000204600F04DF8032084F8910265712068CE
:1008000001F01DF994E80F0001F00CF9022698BBE5
:100810000021206801F01AF970BB002001270BE0CD
:1008200000EB800104EBC1014F740874CD740D62BC
:100830004D62401CC0B28D6221798142F0D8002007
:1008400012E000BF00EB800104EBC10181F85151BF
:1008500081F8500181F85351C1F86051C1F86451D9
:10086000401CC0B2C1F8685121798142EAD894E8AD
:100870000F0001F0DBF810B184F89162B3E7657303
:1008800084F89172206801F0CFF80020ACE70000F6
:1008900008B500680649884208D10648C16941F494
:1008A0000001C161C06900F40000009008BD0000B3
:1008B000005C0040001002402DE9F8430546007836
:1008C000354CC00754D0E0690026C00008D4E06968
:1008D00040F08050E061E069012600F08050009017
:1008E0002E480168C90512D40168804641F4807120
:1008F0000160FFF78DFD074605E000BFFFF788FDAB
:10090000C01B642823D8D8F80000C005F6D5206A9B
:1009100010F4407021D0A98801F4407181421CD0AC
:10092000206A1F49012220F440700A6000220A60F8
:100930002062C00711D0FFF76BFD074641F28838EF
:1009400008E000BFFFF764FDC11B414502D9032049
:10095000BDE8F883206A8007F4D5206A696820F42E
:100960004070084320621EB1E06920F08050E061D1
:100970002878800705D56068A96820F440400843BE
:1009800060602878C00605D56068E96820F48000BA
:10099000084360600020DBE7001002400070004068
:1009A000400442422DE9F0470F46050061D0434E16
:1009B000306800F00700B84209D2306820F0070024
:1009C00038433060306800F00700B84251D12868E1
:1009D0003B4C810712D5400703D5606840F4E060C6
:1009E00060602878000703D5606840F4605060605C
:1009F0006068A96820F0F000084360602878C007AC
:100A000028D06868012810D02168022810D08907F2
:100A100000292EDA616821F0030101436160FFF7CC
:100A2000F7FC804641F288390DE021688903EFE741
:100A30008901EDE7FFF7ECFCA0EB0801494502D97D
:100A40000320BDE8F0876068696800F00C00B0EB37
:100A5000810FEFD1306800F00700B8420BD9306841
:100A600020F0070038433060306800F00700B842DB
:100A700001D00120E5E72878400705D56068E968DE
:100A800020F4E060084360602878000706D56068BD
:100A9000296920F4605040EAC100606000F058F815
:100AA0006168084AC1F30311515CC84006490860F7
:100AB00006480068FFF7E4FD0020C2E7002002407E
:100AC000001002405A2500081000002008000020F5
:100AD0000F2202600C4A536803F00303436053681B
:100AE00003F0F0038360536803F4E063C36052686B
:100AF0004FF4E06303EAD20202610448006800F0A8
:100B0000070008607047000000100240002002400B
:100B10000448054900684968044AC1F30221515C50
:100B2000C840704710000020001002406A250008ED
:100B30000448054900684968044AC1F3C221515C70
:100B4000C840704710000020001002406A250008CD
:100B50000E4A51680E4801F00C03042B11D0082BEB
:100B60000FD10C48C1F38343C903C05C0AD5516857
:100B7000084AC1F34041921E515C054A5043B0FB04
:100B8000F1F07047044948437047000000100240EC
:100B900000127A004A25000800093D002DE9F84FAF
:100BA000040070D02078C04DC00749D06868C0F3F9
:100BB0008100012807D06868C0F38100022809D1AC
:100BC0006868C00306D52868800339D560680028A6
:100BD000E7D035E06068B0F5803F0BD010B1B0F5DC
:100BE000A02F11D0286820F480302860286820F4D5
:100BF000802002E0286840F480302860606890B16E
:100C0000FFF706FC06460AE0286840F480202860CA
:100C1000F0E700BFFFF7FCFB801B642873D828684F
:100C20008003F7D50CE0FFF7F3FB064605E000BFB5
:100C3000FFF7EEFB801B6428F0D828688003F7D408
:100C400020789A4E80074FF001094FF0000839D5FF
:100C5000686810F00C0F07D06868C0F381000228A4
:100C600009D16868C00306D42868800714D52069B4
:100C7000012808D110E02069B0B1C6F80090FFF754
:100C8000C7FB074605E00AE1FFF7C2FBC01B0228CD
:100C9000C4D828688007F7D52868616920F0F80073
:100CA00040EAC10028600DE0C6F80080FFF7B0FB05
:100CB000074604E0FFF7ACFBC01B022823D82868D6
:100CC0008007F7D4207800072CD57948A169D9B1DD
:100CD000C0F80090FFF79CFB074604E0FFF798FB85
:100CE000C01B02280FD8686A8007F7D571484FF4F7
:100CF000FA510068B0FBF1F0009000BF0098411E6F
:100D00000091FAD20EE080E0C0F80080FFF780FB8F
:100D1000074604E0FFF77CFBC01B022875D8686A11
:100D20008007F7D42078400760D5E8690027C00025
:100D300008D4E86940F08050E861E869012700F0D4
:100D4000805000905C480168C90513D4016883464F
:100D500041F480710160FFF75BFB824606E000BF53
:100D6000FFF756FBA0EB0A0064284ED8DBF8000022
:100D7000C005F5D5E06801280AD008B1052813D0D0
:100D8000286A20F001002862286A20F0040002E0AE
:100D9000286A40F001002862E06841F2883B98B17F
:100DA000FFF736FB82460BE0286A40F00400286219
:100DB000EEE700BFFFF72CFBA0EB0A0159455AD81C
:100DC000286A8007F6D50CE0FFF722FB824605E093
:100DD000FFF71EFBA0EB0A0159454CD8286A800793
:100DE000F6D41FB1E86920F08050E861E06988B36B
:100DF0006968C1F38101022944D00228C6F86080E5
:100E000004D0FFF705FB044638E034E0FFF700FBB1
:100E1000074604E0FFF7FCFAC01B02282BD828681D
:100E20008001F7D4206AB0F5803F05D16868A168D9
:100E300020F4003008436860D4E908010843696879
:100E400021F4741108436860C6F86090FFF7E0FA77
:100E5000044606E025E000BFFFF7DAFA001B02288F
:100E600009D828688001F7D51BE000BFFFF7D0FA4A
:100E7000001B022802D90320BDE8F88F28688001F2
:100E8000F4D40EE00128F7D06868226A00F48031BB
:100E9000914204D1616A00F47010884201D00120AF
:100EA000EAE70020E8E700000010024000004242AC
:100EB00080044242100000200070004070B5040021
:100EC00009D0606A002540B125616561A56294F88A
:100ED000510040B10CE0012070BD6068B0F5827F28
:100EE000F4D0E561F2E784F85050204600F040F875
:100EF000022084F851002068016821F0400101605F
:100F0000A088218900F4827001F404410843A1897A
:100F100001F400610843217C01F002010843217DB6
:100F200001F001010843218B01F400710843217F86
:100F300001F03801084394F8201001F080010843C3
:100F4000218D01F40051084321680860A069042143
:100F500001EA1040216848602068C16921F40061FD
:100F6000C1616565012084F85100002070BD00005A
:100F700070B586B000210091019102910391234A3E
:100F80000168234802240325914218D1816941F464
:100F900080518161816901F480510491816941F03E
:100FA0000401816180691B4E00F004000490B020B0
:100FB000009069463046FFF73BF940201CE0164A96
:100FC000914220D1C16941F48041C161C16901F4FC
:100FD00080410491816941F00801816180690F4E6F
:100FE00000F0080004904FF4A0400090694630469D
:100FF000FFF71EF94FF42040CDE900046946039540
:101000003046FFF715F906B070BD00000030014012
:10101000001002400008014000380040000C014070
:101020007047704770B590F83C20012A26D0012403
:1010300080F83C40022280F83D2003685A689D6891
:1010400022F070060A6832435A600D4B02689A42D9
:1010500008D0B2F1804F05D00A4B9A4202D00A4B19
:101060009A4204D1496825F080031943916080F8C1
:101070003D40002180F83C10084670BD022070BD44
:10108000002C0140000400400008004010B504009E
:1010900003D094F83D0010B107E0012010BD0020FE
:1010A00084F83C00204600F01FF8022084F83D0040
:1010B000211D206800F0E8FB012084F8460084F838
:1010C0003E0084F83F0084F8400084F8410084F832
:1010D000420084F8430084F8440084F8450084F812
:1010E0003D00002010BD000008B501680B48B1F1BB
:1010F000804F0BD00A4A914207D1C16941F00201E9
:10110000C161C06900F00200009008BDC16941F0F2
:101110000101C161C06900F00100F5E70010024063
:101120000004004090F83D10012901D001207047D3
:10113000022180F83D100168CA6842F00102CA60CD
:1011400000680B49884208D0B0F1804F05D00949AA
:10115000884202D00849884204D1816801F0070121
:10116000062903D0016841F00101016000207047A9
:10117000002C0140000400400008004070B5044607
:1011800090F83C000025012817D0012684F83C6027
:10119000022084F83D002068826822F0770222F461
:1011A0007F4282600868502838D00DDC20284FD05C
:1011B00005DC90B3102811D14AE0022070BD302820
:1011C00046D040280AD13BE060282FD070280DD0AF
:1011D000B0F5805F03D0B0F5005F12D0012584F830
:1011E0003D60002084F83C00284670BDCB68D1E902
:1011F0000121206800F084FB2068816841F07701BC
:1012000009E0CB68D1E90121206800F079FB206872
:10121000816841F480418160E1E719E0CA6849686A
:10122000206800F07FFB5021206806E0CA6849680A
:10123000206800F088FB6021206800F06BFBCEE79F
:10124000CA684968206800F06DFB40212068F4E717
:10125000226801461046F0E770472DE9F041044648
:101260000068C66805694FF00007A90713D5B107E4
:1012700011D5F91E0161012020772068806980075F
:10128000204602D0FFF7E8FF04E000F07EF8204699
:1012900000F07CF82777680716D5700714D5216809
:1012A0006FF004000861022020772068806910F444
:1012B000407F204602D0FFF7CFFF04E000F065F842
:1012C000204600F063F82777280715D5300713D597
:1012D00021686FF008000861042020772068C06949
:1012E0008007204602D0FFF7B7FF04E000F04DF87A
:1012F000204600F04BF82777E80616D5F00614D5FF
:1013000021686FF010000861082020772068C0690C
:1013100010F4407F204602D0FFF79EFF04E000F06B
:1013200034F8204600F032F82777E80708D0F007B5
:1013300006D021686FF001000861204600F028F80F
:10134000280608D5300606D521686FF080000861B0
:101350002046FFF765FE680608D5700606D52168A9
:101360006FF040000861204600F01CF8A8060AD57E
:10137000B00608D521686FF0200008612046BDE85E
:10138000F041FFF74EBEBDE8F081704770470000A6
:1013900000680349884201D1FFF758B9704700003F
:1013A000002C0140704770B5040004D094F841004F
:1013B000002510B106E0012070BD84F840502046A1
:1013C00000F024F8242084F841002068C16821F44A
:1013D0000051C160204600F0C9FA2068016921F47B
:1013E000904101612068416921F02A014161206832
:1013F000C16841F40051C1606564202084F8410057
:1014000084F842006563002070BD000070B586B0AE
:1014100000240094019402940394234E036823490A
:1014200002200322224DB34219D18B6943F4804339
:101430008B618B6903F4804304938B6943F004034D
:101440008B618969039201F0040104910102CDE9E5
:10145000001069462846FEF7EBFE28151BE0154EE6
:10146000B3421FD1CB6943F40033CB61CB6903F4A2
:10147000003304938B6943F004038B618969039201
:1014800001F0040104910421CDE9001069462846C9
:10149000FEF7CEFE0820CDE90004694628460294F6
:1014A000FEF7C6FE06B070BD0038014000100240D5
:1014B0000008014000440040FEE7000000B587B08E
:1014C0001C2206496846FEF779FE0021684600F0B6
:1014D0000EFB0349086007B000BD00002C25000882
:1014E0000000002010B586B000241A480194029430
:1014F0000394816941F010018161816901F010015B
:101500000491816941F020018161816901F020012C
:101510000491816941F004018161816901F0040154
:101520000491816941F0080181618069694600F098
:10153000080004904FF4004000900748FEF778FE42
:10154000F820CDE90004694604480294FEF770FED5
:1015500006B010BD0010024000080140000C014020
:101560000D4810B50B4901600C49416000214FF452
:1015700080428160C0E9031241618161C161016201
:10158000FEF74CFF002803D0BDE81040FEF74EBE2A
:1015900010BD000000540040D0020020A0860100D1
:1015A0000D4810B50B4901600C49416000214FF412
:1015B00080428160C0E9031241618161C1610162C1
:1015C000FEF72CFF002803D0BDE81040FEF72EBE2A
:1015D00010BD00000058004024030020A086010038
:1015E0000E4810B50C49016000214FF400624160C3
:1015F000C0E902120161416181610162416281625F
:101600000A21C162FFF75AFC002803D0BDE8104050
:10161000FEF70CBE10BD0000003001407803002032
:101620000E4810B50C4901604FF4827141600021F1
:101630008160C160016141618161C161016241629A
:1016400081620A21C162FFF739FC002803D0BDE89E
:101650001040FEF7EBBD10BD00380040D003002065
:1016600010B586B0002416480094019402940394A7
:1016700004944FF080410594C0E900144FF6FF71C7
:10168000C0E9024104618461FFF700FD08B1FEF783
:10169000CDFD4FF48050009069460948FFF76EFD7C
:1016A00008B1FEF7C3FD049404A905480594FFF7AB
:1016B000B9FC002801D0FEF7B9FD06B010BD00004E
:1016C0002804002010B586B0002416480094019428
:1016D00002940394049412490594C0E900144FF64F
:1016E000FF71C0E9024104618461FFF7CFFC08B1DA
:1016F000FEF79CFD4FF48050009069460948FFF7C3
:101700003DFD08B1FEF792FD049404A90548059437
:10171000FFF788FC002801D0FEF788FD06B010BD59
:1017200000040040700400200C4810B50A49016014
:101730004FF4E1314160002181600C22C160C0E9B9
:1017400004128161C161FFF72EFE002803D0BDE8BD
:101750001040FEF76BBD10BD00380140B8040020FA
:101760000C4810B50A4901604FF4E1314160002195
:1017700081600C22C160C0E904128161C161FFF780
:1017800012FE002803D0BDE81040FEF74FBD10BD8B
:1017900000440040000500200B4810B509490160D5
:1017A000082101710221817100218172C1720173CE
:1017B000FFF710F8002803D0BDE81040FEF736BD53
:1017C00010BD0000005C004048050020FEE7FEE779
:1017D000012000F080F9FBE710B5502080F311885C
:1017E000BFF34F8FBFF36F8F00F0D8FD18B10449DE
:1017F0004FF080500860002080F3118810BD000079
:1018000004ED00E030B593B028216846FEF7EFFC08
:1018100014210AA8FEF7EBFC002401200F94109479
:101820001194010412948DE8130004904FF4E01019
:10183000CDE90810022507956846FFF7AFF908B112
:1018400072B6FEE70F20CDE90A054FF48060CDE9BE
:101850000C4002210AA80E94FFF7A4F808B172B652
:10186000FEE710200F9012940FA8FFF725F800282C
:1018700001D072B6FEE713B030BD70470148FFF7E4
:10188000ECBC000020080020F0B50268194B1A4C8F
:101890001A4D4FF08047984205D0B84203D0A0427D
:1018A00001D0A84203D122F070064A683243984220
:1018B00005D0B84203D0A04201D0A84203D122F4FF
:1018C0004074CA6822434C6922F0800222430260BD
:1018D0008A68C2620A688262984201D1096901631A
:1018E000012141610169C90703D0016921F00101AA
:1018F0000161F0BD002C01400004004000080040E0
:1019000010B5846842EA032224F47F440A43224348
:10191000826010BD826822F070020A4342F0070123
:101920008160704710B5036A046A24F00104046200
:10193000846924F0F00444EA021423F00A020A4302
:101940008461026210BD10B5036A046A24F01004B9
:101950000462846923F0A00324F4704444EA023250
:1019600043EA01118261016210BD000070B50446B6
:1019700000680169E26821F4405111430161216965
:10198000A0680843616908432168CA6841F20C6392
:101990009A430243CA6020684169A26921F44071F8
:1019A000114341611E492068884202D1FFF7C0F807
:1019B00001E0FFF7ADF800EBC00101EB0012606839
:1019C00064218000B2FBF0F3B3FBF1F36FF0180673
:1019D0007343B2FBF0F5B2FBF0F605EB830532235F
:1019E00003EB0515B5FBF1F5B6FBF1F605F0F005D7
:1019F00005EB0615B2FBF0F6B2FBF0F0B0FBF1F030
:101A00006FF01802504306EB800003EB0010B0FBB0
:101A1000F1F0216800F00F002844886070BD0000DC
:101A2000003801400020704700207047012120F855
:101A3000401F00210180818001820846704730F8F4
:101A4000401F21F43F410180002070470020704773
:101A5000FEE70907090E002804DB00F1E02080F80A
:101A60000014704700F00F0000F1E02080F8141D12
:101A7000704702E008C8121F08C1002AFAD1704757
:101A80007047002001E001C1121F002AFBD17047FE
:101A9000FEF7E4FDFFF7B6FEFFF724FDFFF760FD5C
:101AA000FFF77EFDFFF79CFDFFF7BAFDFFF7D8FDBE
:101AB000FFF708FEFFF738FEFFF752FEFFF76CFE58
:101AC000FFF7FCFC00F00EF8FEE701460020842939
:101AD00000D0C81C704710B500B9012000F020FBF1
:101AE000002010BD10B500F041FB002010BD7FB5F7
:101AF0000D4604464169B0F9080081B1A16971B190
:101B0000FFF7E3FFD4E905128DE80700D4E90010E0
:101B10002B46226900F017FC039004B070BDFFF75C
:101B2000D4FF03A9CDE90001208A2B4682B2D4E973
:101B3000001000F0DBFB012801D00020EDE7039846
:101B4000EBE700002DE9F041184C0F460546E6682A
:101B50002068001D00F01CFA38B9206890F82C109D
:101B600001208840216981432161681C07D137B178
:101B70002168BDE8F0410E48091D00F04DBA20680B
:101B80003544B5424560216805D2A06BBDE8F041FF
:101B9000091D00F029BA606B091D00F025FAA06A42
:101BA000854200D2A562BDE8F0810000140000204B
:101BB000440900202DE9F041054600F039FA2E4C89
:101BC000A068401CA06020682C4F10B1606940B331
:101BD0002DE02560A068012829D1002606EB8600AB
:101BE00007EB800000F0F2F9761C072EF6D32348AD
:101BF0008C3000F0EBF92148A03000F0E7F91F48E5
:101C0000B43000F0E3F91D48C83000F0DFF91B489C
:101C1000DC3000F0DBF919488C3060631430A063CD
:101C200005E02068E96AC06A884200D82560606AD9
:101C3000401C6062E96A01202269884010432061EB
:101C400001EB810007EB8000291D00F0E5F900F0B1
:101C50000FFA606900280CD02068E96AC06A8842DF
:101C600007D207494FF080500860BFF34F8FBFF392
:101C70006F8FBDE8F081000014000020680800208C
:101C800004ED00E010B5044690F8510058B1012869
:101C90000CD002280FD0502080F31188BFF34F8F53
:101CA000BFF36F8FFEE7206B00F0F6F92046BDE82A
:101CB000104000F0F1B910BD10484FF440614207E8
:101CC00006D0C01D0D4920F00700411AC1F5406142
:101CD0000B4A00230144C2E900030839183A21F0F5
:101CE000070111604B600B600B1AC0E90013936091
:101CF0004FF00040536050617047000058090020C9
:101D000068000020144E154CA6F1C8074FF080580B
:101D1000DFF84C9012E000BF00F08AF9F068C56867
:101D2000281D00F035F9A068401EA0606068401EC4
:101D3000606000F09DF92846FFF7A4FF6068002866
:101D4000EAD138680128F9D9C9F80080BFF34F8F6C
:101D5000BFF36F8FF2E7000030090020140000206D
:101D600004ED00E02DE9F0479A46DDE9098481465B
:101D70006FF00303206B03EB82021044089E20F0F7
:101D80000707780707D0502080F31188BFF34F8FE3
:101D9000BFF36F8FFEE7002561B1002023180A5CB6
:101DA00083F834200A5C12B1401C1028F6D384F862
:101DB000435001E084F83450072E00D30626E66233
:101DC000C4E91165201D00F00CF904F1180000F0C1
:101DD00008F92461C6F107006462A061E56484F833
:101DE000505052464946384600F0C0F82060B8F1DD
:101DF000000F01D0C8F80040BDE8F08730B51149A8
:101E000000E011460A688242FBD34B685C188442AA
:101E100003D1406818444860084643681C1894423F
:101E200009D1084C183C2468A24209D052681A44CF
:101E300042600A6812680260814200D0086030BDCA
:101E40000460F9E7680000200648416B096829B181
:101E5000416BC968C9684968816270474FF0FF31BA
:101E6000FAE700001400002008484068401C4FF0CA
:101E7000500080F3118804D0BFF34F8FBFF36F8FF2
:101E8000FEE7BFF34F8FBFF36F8FFEE770000020B8
:101E90002DE9F0410546002700F09EF9324E3068EA
:101EA00008B9FFF709FF706905424ED1C5B308357F
:101EB00068070ED005F00700C0F108000544680768
:101EC00007D0502080F31188BFF34F8FBFF36F8F7F
:101ED000FEE72DB37068854237D823481830014695
:101EE0000C6801E020460C466168A94202D22168D4
:101EF0000029F7D131688C4227D00768216801603A
:101F000060680837411B10290FD96019420708D0B3
:101F1000502080F31188BFF34F8FBFF36F8FFEE720
:101F200013E041606560FFF769FF61687068401AFF
:101F30007060B268904200D2B060706901430020C6
:101F4000C4E90001F068401CF06000F08DFA7807E9
:101F500007D0502080F31188BFF34F8FBFF36F8FEE
:101F6000FEE73846BDE8F0815000002010B5031FA1
:101F70004FF080741C601B1F21F001011960191FB4
:101F8000024B0B60143940380A6010BD691E00080E
:101F9000D0E9013201699A60D0E901235A604A68A8
:101FA000824201D182684A60002202610868401EB4
:101FB0000860086870470000034B036003F1540099
:101FC00008608020106070477C00002000F108014C
:101FD0004FF0FF32C0E90112C160016100210160D0
:101FE000704700210161704730B50B685A1C02D060
:101FF00000F1080202E0026904E022465468256804
:102000009D42FAD953684B6099608A6051600861BB
:102010000168491C016030BD42684A6093688B606A
:1020200093685960916008610168491C01607047BC
:10203000502080F31188BFF34F8FBFF36F8F0A4991
:102040004868401C486001280CD10848006810F01E
:10205000FF0F07D0502080F31188BFF34F8FBFF3DD
:102060006F8FFEE7704700007000002004ED00E075
:102070000849486828B1401E486001D180F31188A2
:102080007047502080F31188BFF34F8FBFF36F8FDD
:10209000FEE700007000002070B500282AD0164D21
:1020A000A0F1080460686969084207D1502080F3F4
:1020B0001188BFF34F8FBFF36F8FFEE722683AB1ED
:1020C000502080F31188BFF34F8FBFF36F8FFEE76F
:1020D0008843606000F080F8606869680844686060
:1020E0002046FFF78BFE2869401C2861BDE8704040
:1020F00000F0BAB970BD0000500000204FF0E020A1
:1021000000210161816105494FF47A720968B1FBD0
:10211000F2F1491E41610721016170471000002062
:1021200010B5020014D00F48006B38B1502080F376
:102130001188BFF34F8FBFF36F8FFEE700F04CF8AD
:1021400000211046FFF7FEFC00F08EF9002807D1B1
:1021500005494FF080500860BFF34F8FBFF36F8F7A
:1021600010BD00001400002004ED00E010B586B0A2
:102170000024039405AA04A903A80494FFF71CFFF4
:10218000DDE903010094CDE9011000230EA1104800
:10219000059A00F0D8F80F490028C86211D05020E5
:1021A00080F31188BFF34F8FBFF36F8F4FF0FF3075
:1021B000886201204861CC6006B0BDE8104000F0A4
:1021C00041B806B010BD000049444C450000000075
:1021D000051D0008140000200248016B491C016322
:1021E00070470000140000201448016B11B1012158
:1021F000C16170470021C1610169B1FA81F1C1F18A
:102200001F0101EB81020E4951F822306BB101EB45
:10221000820101F108034A6852684A609A4201D17A
:1022200052684A60D16801607047502080F311887D
:10223000BFF34F8FBFF36F8FFEE700001400002045
:10224000680800201CB5264908780190FF20087016
:1022500008788DF800009DF800009DF8002000F03F
:10226000F000904207D0502080F31188BFF34F8FC9
:10227000BFF36F8FFEE79DF800001A4C00F050008E
:1022800020700720A06005E09DF8002052008DF826
:102290000020401E9DF800201206F5D4A0600328FF
:1022A00007D0502080F31188BFF34F8FBFF36F8F9B
:1022B000FEE74FF44070A060019808700A4801687A
:1022C00041F470010160016841F070410160FFF765
:1022D00015FF00206060FDF725FF00201CBD0000F9
:1022E00000E400E07000002020ED00E02DE9FF5F39
:1022F0008346DDE90E87994616468A469000FFF729
:10230000C7FD05001CD05420FFF7C2FD040014D007
:102310000020256384F85100CDE90240CDE9008713
:102320004B46324651465846FFF71CFD2046FFF704
:1023300041FC012004B0BDE8F09F2846FFF7ACFE49
:102340004FF0FF30F6E7F0B585B0DDE90B640A9D8C
:10235000A6B1DCB1542700972663022684F85160A9
:10236000002604AFCDE90246CDE90057FFF7FAFC9D
:102370002046FFF71FFC049805B0F0BD502080F305
:102380001188BFF34F8FBFF36F8FFEE7502080F3AC
:102390001188BFF34F8FBFF36F8FFEE72DE9F04138
:1023A0002F4C0026206B28B1A069401CA06130464C
:1023B000BDE8F081E5686D1CE56013D1606B0068D5
:1023C00038B1502080F31188BFF34F8FBFF36F8F68
:1023D000FEE7606BA16B6163A063206A401C206212
:1023E000FFF732FDA06ADFF87C80854209D3606B7D
:1023F0000068A0B1606BC068C7687868854211D278
:10240000A0622068C06A00EB800158F82100012812
:1024100000D90126E0690028C9D00126C7E74FF09E
:10242000FF30EDE7381DFFF7B3FDB86A18B107F1CB
:102430001800FFF7ADFDF96A0120226988401043BA
:10244000206101EB810108EB8100391DFFF7E4FDFC
:10245000F86A2168C96A8842C9D30126C7E7000023
:1024600014000020680800202DE9F0472C4D0024BE
:102470002746286B38B1FFF7DBFD286B401E286329
:10248000286B40B146E0502080F31188BFF34F8F96
:10249000BFF36F8FFEE7A968224E0120D1B3A6F1EA
:1024A000B40980463068E8B1F068C46804F11800E7
:1024B000FFF76EFD201DFFF76BFDE06A2A6908FA41
:1024C00000F11143296100EB800109EB8100211D1E
:1024D000FFF7A2FDE06A2968C96A8842E2D3C5F81D
:1024E0001C80DFE70CB1FFF7AFFCAC6944B1464696
:1024F000FFF754FF00B1EE61641EF9D10020A8611E
:10250000E86938B10849012738070860BFF34F8FE1
:10251000BFF36F8FFFF7ACFD3846BDE8F0870000D2
:10252000140000201C09002004ED00E074250008C0
:10253000D11700080000000000000000800000002B
:10254000000000000000000001020203040506076D
:1025500008090A0B0C0D0E0F1010000000000000FF
:102560000000010203040607080900000000010240
:102570000304000064656661756C745461736B00DC
:10258000A0250008000000207C000000721A00084E
:102590001C2600087C000020DC180000821A0008BD
:1025A000000000000100000010000000000000001A
:1025B00000127A000000000000000000000000008F
:1025C000000000000000000000000000000000000B
:1025D00000000000000000000000000000000000FB
:1025E00000000000000000000000000000000000EB
:1025F00000000000000000000000000000000000DB
:1026000000000000000000000000000000000000CA
:0C26100000000000AAAAAAAA0000000016
:04000005080000ED02
:00000001FF
