:020000040800F2
:10000000802900209D010008EF360008032C00081D
:10001000ED360008730900082140000800000000C8
:1000200000000000000000000000000005010008C2
:10003000070B0008000000004901000845380008CF
:10004000B7010008B7010008B7010008B7010008B0
:10005000B7010008B7010008B7010008B7010008A0
:10006000B7010008B7010008B7010008B701000890
:10007000B7010008B7010008AD0A0008B90A000876
:10008000C50A0008D10A0008B7010008B701000836
:10009000B7010008B7010008B7010008B701000860
:1000A000B7010008D1380008B7010008B7010008FF
:1000B000DD380008E9380008B7010008B70100087A
:1000C000B7010008B7010008B7010008B701000830
:1000D000B7010008A53F0008C13F0008B7010008AC
:1000E000B7010008B7010008B7010008DFF810D019
:1000F00000F084FB00480047215B0008AFF300805C
:1001000080290020224B19680868B0E8F00F80F3BE
:100110000988BFF36F8F4FF0000080F311884EF015
:100120000D0E70470000000006480068006880F36C
:10013000088862B661B6BFF34F8FBFF36F8F00DFE1
:1001400000BF00BF08ED00E0EFF30980BFF36F8F41
:100150000F4B1A6820E9F00F106008B54FF05000FF
:1001600080F31188BFF34F8FBFF36F8F07F06EFDE1
:100170004FF0000080F31188BDE808401968086856
:10018000B0E8F00F80F30988BFF36F8F704700BFAE
:1001900044000020EFF305807047000006488047C8
:1001A00006480047FEE7FEE7FEE7FEE7FEE7FEE75C
:1001B000FEE7FEE7FEE7FEE7CF380008ED000008A7
:1001C000202A04DB203A21FA02F00021704721FAAC
:1001D00002F3D040C2F12002914008431946704713
:1001E00040EA01039B0703D009E008C9121F08C0B9
:1001F000042AFAD203E011F8013B00F8013B521E39
:10020000F9D27047D2B201E000F8012B491EFBD2AF
:1002100070470022F6E710B513460A460446194611
:10022000FFF7F0FF204610BD30B505462A460B46C5
:1002300012F8010B13F8014B08B1A042F8D01CB121
:10024000002802D06D1CF1E7284630BD421C10F892
:10025000011B0029FBD1801A704710B5002200E075
:10026000521C835C8C5CA34201D1002BF8D1D8B224
:10027000E1B2401A10BD30B505460020034600E04B
:100280005B1C934205D2EC5CC85C201A01D1002CA7
:10029000F6D130BD80EA010210B502F00043400003
:1002A00022D04A001FD0010E01EB1261C0F35600AC
:1002B000C2F3560240F4000042F40002A0FB022008
:1002C00000047F39140400D0401C50EA124001D4CD
:1002D0004000491EC2B20C0604EBD010401C40087E
:1002E000802A02D003E0002010BD20F00100002988
:1002F00000DA0020184310BD30B480EA010202F099
:10030000004530F0004221F0004013D090B1C30D01
:10031000D40DC2F31601C0F31600E41A41F4000133
:1003200040F400027D34914201D3641C00E0490096
:10033000002C02DA30BC002070474FF4000000238C
:10034000914201D3891A034340084FEA4101F7D192
:1003500051B1914202D14FF0004105E002D24FF07D
:10036000010101E06FF0010103EBC450284430BCEF
:1003700000F055B8C10F80EAE0700844CA07962320
:10038000002100F055B896230022114600F050B825
:1003900030B50B46014600202022012409E021FA55
:1003A00002F59D4205D303FA02F5491B04FA02F552
:1003B0002844151EA2F10102F1DC30BD2DE9F05FE9
:1003C0000546002092469B468846064681464024C4
:1003D0001BE02846414647462246FFF7F1FE5346BA
:1003E0005A46C01A914110D311461846224600F0D1
:1003F00017FA2D1A67EB01084F462246012000210B
:1004000000F00EFA17EB00094E41201EA4F1010482
:10041000DFDC484631462A464346BDE8F09F0029C6
:10042000A8BF7047401C490008BF20F0010070477A
:1004300010B4B0FA80FC00FA0CF050EA010404BFDA
:1004400010BC704749B1CCF1200421FA04F411FA30
:100450000CF118BF012121430843A3EB0C01CB1D74
:100460004FEA00614FEA102042BF002010BC7047E5
:1004700000EBC35010440029A4BF10BC7047401CBF
:10048000490008BF20F0010010BC70472DE9FE4F65
:10049000804681EA0300C00F0C46009021F0004125
:1004A00023F00045B8EB0200A94105D240462146A1
:1004B00090461C460B46024623F00040104347D0AE
:1004C000270DC7F30A00C3F30A510290401A0190A6
:1004D00040286BDAC3F3130040F4801B0098924667
:1004E00020B10023D2EB030A63EB0B0B01985946B2
:1004F000C0F14002504600F093F906460D465046C2
:100500005946019A00F09BF910EB08006141002464
:1005100087EA115284EAE7731A4340D0009A62B323
:10052000019A012A4FEA075215DC001B61EB020118
:100530004FF0004202EA0752CDE90042001C41F5AB
:10054000801132462B4600F09BF903B0BDE8F08FD6
:1005500040462146F9E7001B61EB0201001C41F512
:10056000801300185B412018A2F5001747EB030128
:1005700040EAD570B6196D4111E06D084FEA3606B4
:1005800045EAC0754FEA0752001B61EB0201001CEF
:1005900041F5801149084FEA3000001951413246B7
:1005A0002B4603B0BDE8F04F00F05BB90098012284
:1005B00040000023D0EB020263EBE0730098214679
:1005C0004FEAE074B8EB000061EB0401E9E783F067
:1005D00000435BE781F0004158E72DE9FE4F81EAD7
:1005E000030404F0004421F0004100944FF0000B9C
:1005F00023F0004350EA01045ED052EA03045BD0CA
:10060000C3F30A54C1F30A552C44A4F2F334019401
:10061000A0FB0254C1F3130141F48011C3F313038F
:1006200043F4801301FB024400FB034E840A970A43
:1006300044EA815447EA8357A4FB076802958D0A70
:1006400005FB07854FEA932C04FB0C542705029DFC
:100650004FEA065847EA1637B5EB08056EEB070C6C
:10066000870E920E47EA811742EA8312A7FB020126
:10067000B6EB0B0164EB00042B0D43EA0C335E1860
:1006800044EB1C50DA465146E7FB0201C5F3130464
:100690004FEA0B3343EA14534FEA0432019C43EA16
:1006A0000603A4F10C040294009CCDE900B400F010
:1006B000E7F803B0BDE8F08F00200146F9E72DE927
:1006C000F04D81EA030404F0004B21F0004514468C
:1006D0004FF0000A23F0004150EA050220D054EA0E
:1006E00001021DD0C5F30A570246C5F31303C1F337
:1006F0001300C1F30A5640F4801543F48013A7EBAE
:100700000608101BD64608F2FD3873EB050002D32D
:1007100008F1010801E092185B41B8F1000F03DA1B
:1007200000200146BDE8F08D00204FF48011064600
:1007300084460EE0171B73EB050705D3121B63EB12
:10074000050306434CEA010C49084FEA30009218B1
:100750005B4150EA0107EDD152EA030012D082EA70
:10076000040083EA0501084305D0101BAB4106D203
:100770000122002306E000224FF0004302E06FF068
:10078000010253101AEB06004CEB085110EB0A0063
:1007900041EB0B01BDE8F04D00F063B8C1F30A5224
:1007A000C1F3130140F2FF3341F480119A4202DA9F
:1007B00000200146704740F233439A42A2F233428E
:1007C00002DC5242FFF7FCBC00F02AB830B5041E30
:1007D00071F1000404DB4FF00044404264EB01017E
:1007E000141E73F1000405DB1C464FF00043524217
:1007F00063EB0403994208BF904230BD064C074D9D
:1008000006E0E06840F0010394E8070098471034E0
:10081000AC42F6D3FFF76EFCE48E0008048F0008AC
:10082000202A04DB203A00FA02F1002070479140B0
:10083000C2F1200320FA03F3194390407047202AA5
:1008400006DBCB17203A41FA02F043EAE07306E0F8
:1008500041FA02F3D040C2F1200291400843194608
:10086000704710B5141E73F1000408DA401C41F102
:10087000000192185B411A4301D120F0010010BD24
:100880002DE9F04D92469B4611B1B1FA81F202E09A
:10089000B0FA80F220329046FFF7C2FF04460F46BE
:1008A00040EA0A0041EA0B0153465A46084313D076
:1008B000114653EA010019D0C8F140025046FFF733
:1008C0007FFC05460E46504659464246FFF7A8FFB4
:1008D000084305D0012004E020463946BDE8F08DEC
:1008E0000020054346EAE0762C4337430A98630527
:1008F000E40AA0EB08000022FD0A44EA47540A304B
:1009000002D500200146E9E7010510196941DDE93A
:10091000084500196941BDE8F04DA2E770B58C1893
:1009200010F8015B15F0070301D110F8013B2A1103
:1009300006D110F8012B03E010F8016B01F8016BF0
:100940005B1EF9D12B0705D40023521E0DD401F8EC
:10095000013BFAE710F8013BCB1A921C03E013F8B5
:10096000015B01F8015B521EF9D5A142D8D30020EA
:1009700070BDFEE71CB52649C822A1F1100002F0A7
:1009800057FF234811212238017012214170132191
:1009900081702121C17022210171232141713121F6
:1009A00081713221C1713321017241214172422191
:1009B00081724321C172512101735221417353212C
:1009C00081736121C173622101746321417402F05A
:1009D0007FFB02F0A7FE00F05FF80E4801F0E0FA9E
:1009E0000C4801F0B5FA0A488221A83804F00CFF3F
:1009F00004F04AFA08A18220CDE90001094B0AA2BD
:100A000011A1032004F00CFBBDE81C4006F016BE4B
:100A100010080020F00400206D6F746F725F696E23
:100A2000697400006E8900082E2E5C4170706C693C
:100A3000636174696F6E735C627574746F6E5F6D01
:100A40006F746F722E630000427574746F6E5F6D09
:100A50006F74746F7200000070B50A49B1FBF0F456
:100A6000C4F34F05084801F05CFC0021064801F082
:100A700087FC0548641E0168CC62C4600068856319
:100A800070BD000080841E00F00400200021014899
:100A900001F0C4BCF004002010B54FF4FA60FFF779
:100AA000DBFFBDE81040FFF7F1BF0000014800F098
:100AB000C3B8000054060020014800F0BDB8000093
:100AC00010060020014800F0B7B80000980600208A
:100AD000014800F0B1B80000DC06002030B590F805
:100AE00040500124AC40C56B6C600468636043688F
:100AF000102B036803D099600068C26030BD9A6013
:100B00000068C16030BD704772B6FEE710B50400E2
:100B100002D0607910B106E0012010BD00202071E4
:100B2000204600F005F801206071002010BD000093
:100B300008B500680649884208D10648416941F075
:100B400040014161406900F04000009008BD000094
:100B5000003002400010024010B590F82110002231
:100B6000022905D00421816380F82020012010BDD6
:100B700001680B6823F00E030B6001680B6823F01B
:100B800001030B6090F84030C46B012101FA03F3BC
:100B9000636080F8211080F82020104610BD00000E
:100BA00010B590F821100024022903D0042181639C
:100BB00001243DE001680A6822F00E020A60016823
:100BC0000A6822F001020A601A4A0168914201D1C2
:100BD000012121E0174A1432914201D110211BE07A
:100BE000144A2832914201D1891515E0114A3C324C
:100BF000914201D189140FE00E4A5032914202D144
:100C00004FF4803108E00B4A6432914202D14FF434
:100C1000801101E04FF08071064A083A51600121CD
:100C200080F82110002180F82010416B01B1884725
:100C3000204610BD080002402DE9F05FC16B0C6832
:100C400001680B68D0F840C0042202FA0CF2494D4A
:100C5000DFF824A1494E4A4FDFF828B1DFF828E138
:100C600022422CD05A072AD50A68920603D40A6871
:100C700022F004020A600168A94201D1042219E0AD
:100C8000514501D1402215E0B14202D14FF48062BA
:100C900010E0B94202D14FF480420BE0594502D135
:100CA0004FF4802206E0714502D14FF4800201E04A
:100CB0004FF080622F4908394A60C16A3BE04FF02B
:100CC000020808FA0CF818EA040F4FF000094FF078
:100CD000010235D05FEA837832D50B689B0605D4D4
:100CE0000B6823F00A030B6080F821200168A942F9
:100CF00001D1022219E0514501D1202215E0B14273
:100D000002D14FF4007210E0B94202D14FF4005208
:100D10000BE0594502D14FF4003206E0714502D193
:100D20004FF4001201E04FF00072124908394A6096
:100D300080F82090816A00291AD0BDE8F05F08474A
:100D4000082505FA0CF5254212D01B0710D50B68B3
:100D500023F00E030B6090F84010C36B02FA01F110
:100D60005960826380F8212080F82090016BE2E7CF
:100D7000BDE8F09F080002401C0002403000024025
:100D800044000240580002406C00024030B528B3D5
:100D900008C8134914221944B1FBF2F18900C16358
:100DA00010498163022141771A6843F6F0718A4342
:100DB000D0E900142143D0E902452C4321430469C2
:100DC000214344692143846921431143196000216F
:100DD0004163012242770177084630BD012030BDD2
:100DE000F8FFFDBF0000024070B5044690F82000F7
:100DF000002501280CD0012084F8200094F82160FF
:100E00000020012E06D084F820000225284670BD5F
:100E1000022070BD022684F82160A0632068066865
:100E200026F0010606602046FFF758FEE06A00281B
:100E30002068016802D041F00E0106E021F00401B3
:100E400001602068016841F00A01016020680168C2
:100E500041F001010160D9E72DE9F84FDFF8B891C1
:100E60000024A9F1040B23460F2709F1040AABF172
:100E7000040EC9E00125A5402A40AA427DD1674E53
:100E8000D1F804C0ACEB0608B44532D014DCBCF198
:100E9000030F3AD009DCBCF1000F2AD0BCF1010FDE
:100EA0001CD0BCF1020F31D11DE0BCF1110F17D0E5
:100EB000BCF1120F2AD119E0B8F5881F19D006DC51
:100EC000B8F5803F15D0B8F5801F1FD111E0B8F5F7
:100ED000001F0ED0B8F5041F18D10AE0CB6815E04A
:100EE000CB681B1D12E0CB6808330FE0CB680C33D6
:100EF0000CE08B682BB1012B4FF0080303D0456148
:100F000004E0042302E0056100E00023FF2A01D889
:100F1000064601E000F104064FEA840501D9A5F177
:100F20002005D6F8008007FA05FC28EA0C0803FA29
:100F300005F548EA0508C6F800804D68ED0062D561
:100F4000374DAE6946F00106AE61AD6924F0030687
:100F500005F001050095334D06EB050CDCF8085053
:100F6000A607360F07FA06F825EA0805DFF8B88065
:100F7000404503D14FF0000817E044E0DFF8AC80B3
:100F8000404502D14FF001080FE0DFF8A480404552
:100F900002D14FF0020808E0DFF89880404502D106
:100FA0004FF0030801E04FF0040808FA06F848EA99
:100FB0000508CCF808804D68D9F80060ED024D4670
:100FC00001D5164300E096432E604D68DAF80060C4
:100FD000AD02554601D5164300E096432E604D689C
:100FE000DBF80060AD035D4601D5164300E0964393
:100FF0002E604D68DEF80060ED03754601D516439E
:1010000000E096432E60641C0D682A46E5407FF49C
:1010100031AFBDE8F88F0000080401400000111056
:10102000001002400000014000080140000C014097
:1010300000100140001401408068084000D00120E9
:101040007047C26821EA02030A4043EA0241016193
:1010500070470AB1016170470904FBE701488068E5
:10106000704700002800002070B5040025D094F8D7
:101070003D00002520B984F83C50204600F07EFA5F
:10108000242084F83D002068016821F001010160FE
:101090002068016841F4004101602068016821F482
:1010A0000041016000F038FC4D4A6168914201D86E
:1010B0004C4900E04C49884201D2012070BD4B49A7
:1010C0002368B0FBF1F15E6826F03F060E435E60D8
:1010D0006368934206D94FF4967359434FF47A7379
:1010E000B1FBF3F12368491C1E6A26F03F06314329
:1010F00019626168914210D84900401EB0FBF1F2BC
:10110000521CC2F30B02042A01D2042022E0B0FBDD
:10111000F1F0401CC0F30B001CE0A268F2B301EB3D
:10112000C10303EB0116431EB3FBF6F35B1C43F450
:1011300080431B0549D092B301EBC10202EB0111C0
:10114000401EB0FBF1F0401CC0F30B0040F48040A7
:1011500040F400402168CA694CF6FF739A4310437B
:10116000C861D4E9071001432068026822F0C00278
:1011700011430160D4E9030101432068826848F209
:10118000FF339A4311438160D4E905010843216884
:10119000CA6822F0FF021043C86001E00EE016E0CA
:1011A0002068016841F0010101602564202084F875
:1011B0003D00256384F83E50002070BD01EB4106E0
:1011C000431EB3FBF6F35B1CB3E70120C2E701EB60
:1011D0004101401EB0FBF1F0401CC0F30B00B7E72B
:1011E000A086010080841E0000093D0040420F00DF
:1011F0002DE9FF4F83B00025DDE910799A4693462B
:101200000446DDF848800095FFF728FF064694F86D
:101210003D0020287CD119230122884920460096D0
:1012200001F006FE0028F5D194F83C0001286FD0AB
:10123000012084F83C0020680168C90703D10168D7
:1012400041F0010101602068016821F40061016042
:10125000222084F83D00402084F83E002564676227
:10126000A4F82A90608D20857548E062CDE900865B
:1012700053465A462046049901F0DCFC00287CD1F4
:10128000208DDFF8C091202768B1012814D00228F2
:10129000206801681ED041F48061016020684169C6
:1012A00080690090BCE02068416981690091016813
:1012B00041F400710160B3E02068016821F48061AD
:1012C000016072B62068416981690091016841F44A
:1012D00000710AE041F40061016072B62068416962
:1012E00081690091016821F48061016062B697E034
:1012F000032865D801280CD0022843464FF000028D
:101300004946204600960BD001F092FDA8BB0CE0A8
:1013100091E032464146204601F030FE68BB72E063
:1013200001F086FD48BB72B633E02068016821F405
:101330008061016072B620680069616A0870606A45
:10134000401C6062208D401E2085608D401E60859F
:101350003D4846F2A8110068B0FBF1F0C0EBC000B8
:1013600000EB80000090401E009007D0206840698C
:10137000C04340070DD50098F5E727E044F8305FFB
:101380006773A573206940F02000206162B6257361
:101390001CE02068016841F4007101602068006968
:1013A000616A0870606A401C6062218D491E218557
:1013B000618D491E618562B621680969017026E068
:1013C00032464146204601F0D9FD18B1012007B050
:1013D000BDE8F08F20680069616A0870606A401C8F
:1013E0006062208D401E81B22185608D401E608527
:1013F00020684269D243520712D4032903D10168FD
:1014000021F48061016020680069616A0870606A87
:10141000401C6062208D401E2085608D401E6085CE
:10142000208D00287FF464AF84F83D7084F83E502E
:1014300084F83C50CBE70220C9E70000020010000E
:101440000000FFFF04000100340000202DE9FF4FE1
:1014500083B09A46DDE9119793460446DDF8408053
:10146000FFF7FCFD054694F83D0020287FD11923A5
:10147000012240492046009501F0DAFC002876D18F
:1014800094F83C00012872D0012084F83C002068C8
:101490000168C90703D1016841F0010101602068BA
:1014A000016821F400610160212084F83D004020A2
:1014B00084F83E0000262664C4F82480A4F82A900C
:1014C000608D20852C48E062CDE9007553465A4670
:1014D0002046049901F02CFC70B930E02A463946C8
:1014E000204601F083FD58B1206C042804D1206807
:1014F000016841F400710160012007B0BDE8F08F80
:10150000606A216800780861606A401C6062218D11
:10151000491E89B22185628D521E628522685369F7
:10152000DB435B070BD469B100781061606A401C33
:101530006062208D401E2085608D401E6085208D5C
:101540000028CBD12A463946204601F045FC002828
:10155000CAD154F83D0B016841F4007101602020AC
:1015600004F81E09E67766770020C6E7FFE7022049
:10157000C3E70000020010000000FFFF30B585B097
:1015800000210091019102910391214D0368214CAA
:10159000122103222048AB421DD1A36943F0080366
:1015A000A361A369039203F0080304931302CDE936
:1015B00000316946FFF750FC1848416841F0E0618E
:1015C00041F002014160E06940F40010E061E0692F
:1015D00000F4001019E0124DAB4217D1A36943F09B
:1015E0000803A361A369039203F0080304934FF473
:1015F0004063CDE900316946FFF72EFCE06940F415
:101600008000E061E06900F48000049005B030BD26
:101610000054004000100240000C01400000014056
:101620000058004002488168027811448160704788
:1016300028000020074810B5016841F01001016042
:10164000032000F0A1F80F2000F006F800F04AF89F
:10165000002010BD0020024030B505461C4887B070
:10166000816941F400618161806906A900F400602C
:10167000009001A800F030F900F05EF91549164A13
:10168000B0FBF1F11548491E0260416040F2E732BB
:101690000021C0E903218160816100F0FBFB0400AF
:1016A00012D10E4800F07CFC04000DD1192000F08E
:1016B0003DF8102D07D200222946192000F044F8E9
:1016C0000748056000E0012407B0204630BD000057
:1016D0000010024040420F00002C01402007002073
:1016E0002C0000200F4808B5816941F0010181619B
:1016F000816901F001010091C16941F08051C1612E
:10170000C069002200F0805000900F21901E00F070
:101710001BF80548416821F0E06141F0007141602B
:1017200008BD00000010024000000140002809DB55
:1017300000F01F02012191404009800000F1E020EB
:10174000C0F8001170470000F0B40E4B1B680C4647
:10175000C3F30223C3F10705042D00D90425191D85
:10176000072901D2002300E0DB1E012606FA05F15D
:10177000491E214099409E40761E16403143F0BCE0
:1017800002F0DEBC0CED00E0064900F0070208683C
:101790004FF6FF03184040EA0220034A1043086056
:1017A000704700000CED00E00000FA052DE9F0475D
:1017B0000F46050061D0434E306800F00700B84284
:1017C00009D2306820F0070038433060306800F0FC
:1017D0000700B84251D128683B4C810712D5400719
:1017E00003D5606840F4E06060602878000703D5A6
:1017F000606840F4605060606068A96820F0F000A4
:10180000084360602878C00728D06868012810D095
:101810002168022810D0890700292EDA616821F09A
:10182000030101436160FFF719FC804641F28839EA
:101830000DE021688903EFE78901EDE7FFF70EFC72
:10184000A0EB0801494502D90320BDE8F087606894
:10185000696800F00C00B0EB810FEFD1306800F048
:101860000700B8420BD9306820F0070038433060D9
:10187000306800F00700B84201D00120E5E7287881
:10188000400705D56068E96820F4E06008436060BF
:101890002878000706D56068296920F4605040EA7E
:1018A000C100606000F058F86168084AC1F3031194
:1018B000515CC8400649086006480068FFF7CCFE46
:1018C0000020C2E7002002400010024056890008B4
:1018D000340000202C0000200F2202600C4A5368C4
:1018E00003F003034360536803F0F003836053681D
:1018F00003F4E063C36052684FF4E06303EAD2028A
:1019000002610448006800F00700086070470000AA
:101910000010024000200240044805490068496860
:10192000044AC1F30221515CC840704734000020D2
:1019300000100240668900080448054900684968AB
:10194000044AC1F3C221515CC840704734000020F2
:1019500000100240668900080E4A51680E4801F0E6
:101960000C03042B11D0082B0FD10C48C1F3834377
:10197000C903C05C0AD55168084AC1F34041921EB0
:10198000515C054A5043B0FBF1F0704704494843AD
:10199000704700000010024000127A0046890008DB
:1019A00000093D002DE9F84F040070D02078C04DAB
:1019B000C00749D06868C0F38100012807D0686873
:1019C000C0F38100022809D16868C00306D52868E1
:1019D000800339D560680028E7D035E06068B0F54D
:1019E000803F0BD010B1B0F5A02F11D0286820F4A3
:1019F00080302860286820F4802002E0286840F4C5
:101A000080302860606890B1FFF728FB06460AE046
:101A1000286840F480202860F0E700BFFFF71EFB35
:101A2000801B642873D828688003F7D50CE0FFF783
:101A300015FB064605E000BFFFF710FB801B64287E
:101A4000F0D828688003F7D420789A4E80074FF0AA
:101A500001094FF0000839D5686810F00C0F07D065
:101A60006868C0F38100022809D16868C00306D401
:101A70002868800714D52069012808D110E0206962
:101A8000B0B1C6F80090FFF7E9FA074605E00AE1B1
:101A9000FFF7E4FAC01B0228C4D828688007F7D5EE
:101AA0002868616920F0F80040EAC10028600DE074
:101AB000C6F80080FFF7D2FA074604E0FFF7CEFA37
:101AC000C01B022823D828688007F7D42078000795
:101AD0002CD57948A169D9B1C0F80090FFF7BEFABA
:101AE000074604E0FFF7BAFAC01B02280FD8686A5D
:101AF0008007F7D571484FF4FA510068B0FBF1F058
:101B0000009000BF0098411E0091FAD20EE080E0E4
:101B1000C0F80080FFF7A2FA074604E0FFF79EFA3C
:101B2000C01B022875D8686A8007F7D42078400760
:101B300060D5E8690027C00008D4E86940F080500B
:101B4000E861E869012700F0805000905C48016876
:101B5000C90513D40168834641F480710160FFF721
:101B60007DFA824606E000BFFFF778FAA0EB0A0094
:101B700064284ED8DBF80000C005F5D5E0680128E0
:101B80000AD008B1052813D0286A20F00100286285
:101B9000286A20F0040002E0286A40F00100286270
:101BA000E06841F2883B98B1FFF758FA82460BE0B3
:101BB000286A40F004002862EEE700BFFFF74EFA03
:101BC000A0EB0A0159455AD8286A8007F6D50CE0DF
:101BD000FFF744FA824605E0FFF740FAA0EB0A015E
:101BE00059454CD8286A8007F6D41FB1E86920F01F
:101BF0008050E861E06988B36968C1F38101022916
:101C000044D00228C6F8608004D0FFF727FA0446C3
:101C100038E034E0FFF722FA074604E0FFF71EFA47
:101C2000C01B02282BD828688001F7D4206AB0F5A1
:101C3000803F05D16868A16820F4003008436860DF
:101C4000D4E908010843696821F474110843686005
:101C5000C6F86090FFF702FA044606E025E000BFF0
:101C6000FFF7FCF9001B022809D828688001F7D586
:101C70001BE000BFFFF7F2F9001B022802D9032086
:101C8000BDE8F88F28688001F4D40EE00128F7D071
:101C90006868226A00F48031914204D1616A00F4DC
:101CA0007010884201D00120EAE70020E8E7000038
:101CB00000100240000042428004424234000020F2
:101CC0000070004070B5040009D0606A002540B182
:101CD00025616561A56294F8510040B10CE00120D6
:101CE00070BD6068B0F5827FF4D0E561F2E784F8FA
:101CF0005050204600F040F8022084F8510020683F
:101D0000016821F040010160A088218900F48270FF
:101D100001F404410843A18901F400610843217CD6
:101D200001F002010843217D01F001010843218BEC
:101D300001F400710843217F01F03801084394F851
:101D4000201001F080010843218D01F40051084367
:101D500021680860A069042101EA104021684860F8
:101D60002068C16921F40061C1616565012084F8C2
:101D70005100002070BD000070B586B000210091B8
:101D8000019102910391234A01682348022403250B
:101D9000914218D1816941F480518161816901F4D6
:101DA00080510491816941F00401816180691B4E79
:101DB00000F004000490B020009069463046FFF720
:101DC0004BF840201CE0164A914220D1C16941F4F1
:101DD0008041C161C16901F480410491816941F090
:101DE0000801816180690F4E00F0080004904FF4F3
:101DF000A040009069463046FFF72EF84FF420408F
:101E0000CDE90004694603953046FFF725F806B092
:101E100070BD000000300140001002400008014089
:101E200000380040000C01407047704770B590F8D2
:101E30003C20012A26D0012480F83C40022280F870
:101E40003D2003685A689D6822F070060A68324394
:101E50005A600D4B02689A4208D0B2F1804F05D00B
:101E60000A4B9A4202D00A4B9A4204D1496825F0A3
:101E700080031943916080F83D40002180F83C10B8
:101E8000084670BD022070BD002C014000040040D7
:101E90000008004010B5040003D094F83D0010B1D4
:101EA00007E0012010BD002084F83C00204600F02F
:101EB0001FF8022084F83D00211D206801F01AFD62
:101EC000012084F8460084F83E0084F83F0084F83E
:101ED000400084F8410084F8420084F8430084F80C
:101EE000440084F8450084F83D00002010BD000047
:101EF00008B501681448B1F1804F14D0134A9142DB
:101F000020D1C16941F00201C161C069002200F025
:101F10000200009005211D20FFF716FC1D20BDE8E2
:101F20000840FFF703BCC16941F00101C161C0690C
:101F3000002200F00100009005211C20FFF704FCA6
:101F40001C20ECE708BD0000001002400004004027
:101F500090F83D10012901D001207047022180F83E
:101F60003D1000680B49884208D0B0F1804F05D081
:101F70000949884202D00949884204D1816801F0A8
:101F80000701062903D0016841F00101016000202A
:101F900070470000002C0140000400400008004091
:101FA00090F83D10012901D001207047022180F8EE
:101FB0003D100168CA6842F00102CA6000680B491E
:101FC000884208D0B0F1804F05D00949884202D03C
:101FD0000849884204D1816801F00701062903D02D
:101FE000016841F00101016000207047002C0140B0
:101FF000000400400008004070B5044690F83C0022
:102000000025012817D0012684F83C60022084F8BE
:102010003D002068826822F0770222F47F428260CD
:102020000868502838D00DDC20284FD005DC90B34C
:10203000102811D14AE0022070BD302846D0402837
:102040000AD13BE060282FD070280DD0B0F5805F1A
:1020500003D0B0F5005F12D0012584F83D60002068
:1020600084F83C00284670BDCB68D1E90121206886
:1020700001F089FC2068816841F0770109E0CB68B4
:10208000D1E90121206801F07EFC2068816841F4DB
:1020900080418160E1E719E0CA684968206801F081
:1020A00027FD5021206806E0CA684968206801F0D1
:1020B00030FD6021206801F070FCCEE7CA684968F5
:1020C000206801F015FD40212068F4E722680146F0
:1020D0001046F0E770472DE9F04104460068C668F5
:1020E00005694FF00007A90713D5B10711D5F91EEF
:1020F000016101202077206880698007204602D096
:10210000FFF7E8FF04E000F0A5F8204600F037F9FB
:102110002777680716D5700714D521686FF004007B
:102120000861022020772068806910F4407F2046F3
:1021300002D0FFF7CFFF04E000F08CF8204600F05B
:102140001EF92777280715D5300713D521686FF0BA
:1021500008000861042020772068C06980072046B5
:1021600002D0FFF7B7FF04E000F074F8204600F05B
:1021700006F92777E80616D5F00614D521686FF022
:1021800010000861082020772068C06910F4407FA3
:10219000204602D0FFF79EFF04E000F05BF82046E7
:1021A00000F0EDF82777E80708D0F00706D021689F
:1021B0006FF001000861204600F068F9280608D594
:1021C000300606D521686FF0800008612046FFF7D1
:1021D0002BFE680608D5700606D521686FF0400012
:1021E0000861204600F05CF9A8060AD5B00608D5BB
:1021F00021686FF0200008612046BDE8F041FFF73C
:1022000014BEBDE8F081000000B585B0002100914A
:1022100001910291039100680B49884211D10B484A
:10222000816941F0080181618069694600F0080018
:102230000490012000900220019003900448FEF7D2
:102240000BFE05B000BD000000040040001002407D
:10225000000C0140704770B5044690F83C00002621
:102260000D4601280FD0012084F83C006AB1042AF1
:102270001DD0082A2FD00C2A3FD00126002084F838
:102280003C00304670BD022070BD206801F08EFB1E
:102290002068816941F0080181612068816921F02D
:1022A00004018161206881692A69114311E0206875
:1022B00001F0A4FB2068816941F40061816120681C
:1022C000816921F480618161206881692A6941EA1C
:1022D00002218161D2E7206801F0BCFB2068C1695E
:1022E00041F00801C1612068C16921F00401C161A8
:1022F0002068C1692A69114311E0206801F0D6FB0A
:102300002068C16941F40061C1612068C16921F49C
:102310008061C1612068C1692A6941EA0221C16105
:10232000ACE710B5040003D094F83D0010B107E00D
:10233000012010BD002084F83C00204600F01EF86B
:10234000022084F83D00211D206801F0D3FA01200D
:1023500084F8460084F83E0084F83F0084F840008A
:1023600084F8410084F8420084F8430084F8440073
:1023700084F8450084F83D00002010BD7047704788
:1023800010B50446022249B104290ED0082913D001
:1023900094F84100012816D0012010BD94F83E00A9
:1023A0000128F9D184F83E200FE094F83F0001287D
:1023B000F2D184F83F2008E094F840000128EBD1E6
:1023C00084F8402001E084F841200122206801F0D7
:1023D000CDFA0F492068884203D1426C42F4004292
:1023E00042642068884208D0B0F1804F05D0094986
:1023F000884202D00849884204D1816801F007016F
:10240000062903D0016841F001010160002010BDE0
:10241000002C0140000400400008004030B5044694
:102420000D460068002201F0A1FA174B41F211118C
:1024300020688A10984209D1036A0B4206D1036AC8
:10244000134203D1436C23F4004343642068036ABE
:102450000B4206D1016A114203D1016821F001014A
:10246000016001203DB1042D08D0082D09D084F869
:102470004100002030BD84F83E00FAE784F83F00B8
:10248000F7E784F84000F4E7002C014000680349B6
:10249000884201D1FFF7C6B870470000002C014008
:1024A000704738B5044690F84200202801D0022039
:1024B00038BD51B14AB1012020630020606320463D
:1024C00001F0EEFC216B012901D0012038BD21680B
:1024D0000A684968009121680C3151E8002F42F0E8
:1024E000100241E80023002BF5D138BD70B51E4C19
:1024F0000546B2B0227921461C48921D01F0CCFD60
:10250000C8216846FDF785FE227969461748921D65
:1025100001F07FF916492868884219D19DF800001A
:102520005A2815D19DF80100A52811D19DF8020067
:102530005A280DD19DF804006E46001DC5B20DEB62
:1025400005004078D02805D0C8213046FDF761FE4F
:1025500032B070BD002404E03019407901F062FD12
:10256000641CAC42F8DDF3E7380E002000080020C0
:102570000038014010B50068074988420AD1074871
:102580000749006801F03CFDBDE8104040210448C7
:10259000FDF73FBE10BD0000003801403C000020A8
:1025A000380E0020F8B5016804460868CA684B690F
:1025B00010F00F0F4FF0000559D003F0010602F4A0
:1025C0009077374365D0C10705D0D10503D5616C3D
:1025D00041F001016164410705D5D90703D0616C61
:1025E00041F002016164810705D5D90703D0616C10
:1025F00041F004016164010707D502F02001314375
:1026000003D0616C41F008016164616C00293AD02B
:10261000800604D5900602D5204601F066FB2068AE
:102620004069616CC0F38010090700D460B3204694
:1026300001F026FB20684069400621D5206814304F
:1026400050E8001F21F0400140E80012002AF5D1B7
:10265000E06BA8B16D494163E06BFEF7A1FA002879
:1026600011D0E06B416B01B0BDE8F0400847830634
:102670000FD593060DD52046BDE8F84001F035BBD7
:102680002046FFF777FFF8BD2046FFF773FF65642C
:10269000F8BD266B2023012E7CD1C6067AD5D6063E
:1026A00078D508684868009048694FF002064006EF
:1026B00040D5E16B086840680004000CE8D0A28DAA
:1026C0008242E5D9E085886920282DD020680C3029
:1026D00050E8001F21F4807140E80012002AF5D173
:1026E0002068143050E8001F21F0010140E800127A
:1026F000002AF5D12068143050E8001F21F0400175
:1027000040E80012002AF5D184F8423025632068A1
:102710000C3050E8001F21F0100140E80012002AA0
:10272000F5D1E06BFEF718FA6663A08DE18D401AD3
:1027300081B22AE0A08DE18D401A81B2E08D00289F
:10274000A6D00029A4D022680C3252E8000F20F451
:10275000907042E80007002FF5D12068143050E84F
:10276000002F22F0010240E80027002FF5D184F865
:102770004230256320680C3050E8002F22F0100210
:1027800040E80023002BF5D166632046FFF7AEFE3C
:10279000F8BDFFE705062BD5150629D594F84100AD
:1027A0002128F5D1A068B0F5805F01D12069B0B1D2
:1027B000206A411C2162216800784860E08C401E3C
:1027C0000004000CE084E3D12068C16821F080019E
:1027D000C1602068C16841F04001C160D8E7206A4B
:1027E0000088C0F308004860206A801C2062E5E78A
:1027F0004006CDD55006CBD5CA68204622F040020F
:10280000CA6084F8413000F0FAF9C1E7373B0008AC
:1028100070B5040004D094F84100002510B106E022
:10282000012070BD84F84050204600F023F8242099
:1028300084F841002068C16821F40051C16020463D
:1028400001F0D2FA2068016921F490410161206809
:10285000416921F02A0141612068C16841F40051B9
:10286000C1606564202084F8410084F842006563FB
:10287000002070BD2DE9F04186B00025009501953E
:10288000029503950446DFF860C1036857480221AA
:102890000322574F80264FF0100863454DD18369BE
:1028A00043F480438361836903F480430493836921
:1028B00043F0040383618069039200F004000490F4
:1028C0000802CDE9000169463846FEF7C5FAF00076
:1028D000CDE900050120029069463846FEF7BCFAB2
:1028E000454F4448C7E90005C7E902563D617D618F
:1028F000BD613846FD61FEF749FA08B1FEF704F9FB
:10290000E7637C623C4F3B4844371438C7E90256C2
:102910003D617D61BD61FD61C7E900083846FEF794
:1029200035FA08B1FEF7F0F8A7630022052125204B
:102930007C62FEF709FF252051E0DFF8C0C0634547
:102940004FD1C36943F40033C361C36903F4003357
:102950000493836943F0040383618069039200F068
:10296000040004900420CDE9000169463846FEF7D2
:1029700073FA0820CDE90005694638460295FEF74E
:102980006BFA1D4F1B4888371430C7E90005C7E9AB
:1029900002563D617D61BD613846FD61FEF7F6F985
:1029A00008B1FEF7B1F8E7637C62134F1148CC37EA
:1029B0002830C7E902563D617D61BD61FD61C7E90F
:1029C00000083846FEF7E2F908B1FEF79DF8A76364
:1029D0000022052126207C62FEF7B6FE2620FEF7A7
:1029E000A5FE06B0BDE8F0810038014000100240AD
:1029F000000801405800024010060020004400403A
:102A00002DE9F84F044690F842009A4616460D46C6
:102A1000202802D00220BDE8F88FB5B1AEB1002069
:102A20006064222184F842102063FEF717FBA6851C
:102A30008146E685A0684FF480582027404501D1A3
:102A4000206920B12E46002529E00120E3E7002679
:102A500025E04B46002220212046CDF800A001F0C1
:102A600067FA18B184F842700320D4E726B1A06851
:102A700040451AD038B108E020684068C0F308002B
:102A800025F8020B08E0206978B12068406800F062
:102A90007F0000BF06F8010BE08D401EE085E08D51
:102AA0000028D6D184F84270B5E720684068F1E785
:102AB000704770472DE9F843044690F84100984666
:102AC00016460D46202802D00220BDE8F88385B1C5
:102AD0007EB100206064212084F84100FEF7BEFA38
:102AE000A6848146E684A0682027B0F5805F02D0E6
:102AF00003E00120E9E7206910B12E4600250EE031
:102B000000260CE08021204601F012FAA8B9C6B1D7
:102B100016F8010B21684860E08C401EE084E08CD0
:102B20004B464FF00002CDF800800028EAD14FF06C
:102B30004001204601F0FCF940B184F841700320C7
:102B4000C3E735F8020BC0F30800E3E784F84170EF
:102B50000020BAE770B5044690F84100202801D063
:102B6000022070BD49B342B32162A284E2840020F6
:102B70006064212384F84130A56B114BAB62A56BD7
:102B8000104BEB62A56B104B2B63A36B586325684E
:102B900013462A1DA06BFEF727F921686FF040004D
:102BA00008602068143050E8001F41F0800140E8C0
:102BB0000012002AF5D1002070BD012070BD000078
:102BC000353C0008773C0008473B000890F841304E
:102BD000202B01D00220704779B172B1016282844A
:102BE000C28400214164212180F841100068C1683D
:102BF00041F08001C160002070470120704770479C
:102C00007047FEE701684A69D24352050FD46FF45A
:102C100080624A61002140F8301F20224273817394
:102C2000026942F004020261017301207047002032
:102C3000704700002DE9F84F0446006889460B9D57
:102C400001689846174641F4806101602068016878
:102C500041F48071016000954FF0011B002259463C
:102C600020460A9B00F0E4F84FF4007A40B1206857
:102C70000068C00501D5C4F840A00320BDE8F88F66
:102C8000216809F0FE0008612B46284920460A9A6F
:102C900000F016F9F0BB20684169806900902A466F
:102CA00020460A9900F0A2F940B1206C04283AD1DC
:102CB0002068016841F40071016034E0FEB2B8F1AF
:102CC000010F09D02168380A08612A4620460A996E
:102CD00000F08CF90028E8D1206806612A462046D9
:102CE0000A9900F083F90028DFD12068016841F4D7
:102CF0008071016000950022594620460A9B00F031
:102D000097F80028B3D1216809F0FF0040F00100D6
:102D1000086100E007E02B46044920460A9A00F0CB
:102D2000CFF80028AAD00120A8E700000200010087
:102D30002DE9F843044600680D46DDE9089701686F
:102D40009846164641F4807101604B4600224FF0D0
:102D500001112046009700F06BF848B12068006828
:102D6000C00502D54FF4007020640320BDE8F8834D
:102D7000216805F0FE0008613B464A461549204699
:102D800000F09EF888B920684169806900903A4651
:102D90004946204600F02AF948B1206C042804D1A5
:102DA0002068016841F4007101600120DEE7F5B29E
:102DB000B8F1010F09D02168300A08613A46494646
:102DC000204600F013F90028E7D1206805610020B3
:102DD000CCE700000200010070B516460D4604461F
:102DE0001EE02046FFF70EFF08B1012070BD681CF1
:102DF00016D0FEF733F9801BA84200D885B92068A9
:102E00004069C04340070BD5002044F8300F202113
:102E10006173A073216941F0200121612073E4E70F
:102E200020684069C0434007DBD4002070BD00002B
:102E30002DE9F047984617460D460446C1F307466C
:102E4000DDF820902AE000BFB8F1FF3F26D0FEF762
:102E500005F9A0EB0901414502D8B8F1000F1DD1D9
:102E60002068012E16D0806925EA00000004000CBD
:102E700012D00020B84211D1002044F8300F202198
:102E80006173A073216941F0200121612073012049
:102E9000BDE8F0874069E7E70120EBE72068012EF5
:102EA0000AD0806925EA00000004000C06D000204A
:102EB000B842C9D00020EBE74069F3E70120F7E70B
:102EC0002DE9F047984616460D4604464FF0000996
:102ED0004FF0200AC1F3074723E020684069C04350
:102EE000400515D42068016841F400710160216833
:102EF0006FF480604861C4F8309084F83DA084F895
:102F00003E90216C41F00401216484F83C9021E062
:102F1000701C06D0FEF7A2F8A0EB0800B04203D860
:102F200016B1012F1FD021E02068012F15D0806934
:102F300025EA00000004000C18D000BF44F8309FC0
:102F400084F80DA084F80E90216941F020012161E0
:102F500084F80C900120BDE8F087406925EA000064
:102F60000004000CEAD12068406901E02068806913
:102F700025EA00000004000CAFD1ECE72DE9F04198
:102F8000002590460E460446202728E04069C043AD
:102F9000C0060CD454F8301B6FF01000486144F8A0
:102FA00010596777A577206A2062257714E0FEF72D
:102FB00055F8A0EB0800B04200D886B920684069F7
:102FC000C04340060BD544F8305F6773A573206992
:102FD00040F02000206125730120BDE8F0812068C9
:102FE0004169C9434906D1D40020F6E770B51646B9
:102FF0000D4604461EE02046FFF704FE08B10120FE
:1030000070BD681C16D0FEF729F8801BA84200D8B6
:1030100085B920684069C04300060BD5002044F8FC
:10302000300F20216173A073216941F020012161DB
:103030002073E4E720684069C0430006DBD4002029
:1030400070BD000003B583B00121009102460191DB
:1030500004AB7821024800F005F805B000BD00007F
:10306000E00D0020FEB5DDE908540CB1012400E0BC
:103070001024877B642617B1012F07D0FEE78DE867
:10308000680000682346FEF7E1F9FEBD8DE86800A0
:1030900000682346FEF7ACF8FEBD002804D0D0E956
:1030A0000010814201D101207047002070470028A4
:1030B0000AD001688268491CB1FBF2F302FB1311CC
:1030C0004068814201D10120704700207047000014
:1030D00010B500225149524801F04CFE50480022E0
:1030E00050492C3001F046FE4D4800224E495830E0
:1030F00001F040FE4A4800224C49843001F03AFE7B
:10310000474800224A49B03001F034FE44480022CA
:103110004849DC3001F02EFE474A0421404801F0C6
:103120004BFD454A05213E4801F046FD424A032138
:103130003B4801F041FD3A4801F036FE38483F4A2D
:1031400004212C3001F038FD35483C4A05212C3053
:1031500001F032FD3248394A03212C3001F02CFDB8
:103160002F482C3001F020FE2D48354A04215830DC
:1031700001F022FD2A48324A0521583001F01CFD99
:1031800027482F4A0321583001F016FD24485830B3
:1031900001F00AFE22482B4A0421843001F00CFD84
:1031A0001F48284A0521843001F006FD1C48254AA5
:1031B0000321843001F000FD1948843001F0F4FD52
:1031C0001748214A0421B03001F0F6FC14481E4A89
:1031D0000521B03001F0F0FC11481B4A0321B0304A
:1031E00001F0EAFC0E48B03001F0DEFD0C48174A51
:1031F0000421DC3001F0E0FC0948144A0521DC30F0
:1032000001F0DAFC0648114A0321DC3001F0D4FC5D
:103210000348BDE81040DC3001F0C6BD3D62000847
:10322000D80800204D620008596200086562000855
:10323000716200087D620008394A0008794A000876
:10324000B94A0008F94A0008394B0008794B0008D0
:10325000074910B5054808600846FDF757FC0028E7
:1032600003D0BDE81040FDF74FBC10BD0030024058
:1032700020000020154808B5416941F00101416175
:103280004069002200F00100009005210E20FEF7A9
:103290005BFA0E20FEF74AFA002205210F20FEF706
:1032A00053FA0F20FEF742FA002205211020FEF704
:1032B0004BFA1020FEF73AFA002205211120FEF702
:1032C00043FABDE808401120FEF730BA0010024072
:1032D00010B52D4BB6B031AC0FCB84E80F000021F8
:1032E00031A802F050FC294C27491C22E061103122
:1032F0006846FCF775FF0021684602F057FC22493A
:1033000020601C222C3107A8FCF76AFF002107A8C7
:1033100002F04CFC1C4960601C2248310EA8FCF7EE
:103320005FFF00210EA802F041FC1749A0601C229B
:10333000643115A8FCF754FF002115A802F036FCF3
:103340001149E0601C2280311CA8FCF749FF0021D4
:103350001CA802F02BFC0C4920611C229C3123A8E4
:10336000FCF73EFF002123A802F020FC0649606123
:103370001C22B8312AA8FCF733FF00212AA802F04A
:1033800015FCA06136B010BD708800080000002058
:103390002DE9F04385B0002534480095019502954C
:1033A0000395816941F010018161816901F010018B
:1033B0000491816941F020018161816901F020015E
:1033C0000491816941F004018161816901F0040186
:1033D0000491816941F0080181618069244F00F006
:1033E00008004FF480440490002221463846FDF73F
:1033F00030FEDFF88090002202214846FDF729FECA
:10340000DFF87480A611002231464046FDF721FE08
:103410000094012401940294694638460394FDF710
:103420001BFD0220CDE9000402946946484603943E
:10343000FDF712FDCDE9006402946946404603940D
:10344000FDF70AFDE003CDE9000569460294404618
:10345000FDF702FDF820CDE90005694602944846D3
:10346000FDF7FAFC05B0BDE8F08300000010024053
:1034700000100140000C0140000801400D4810B54B
:103480000B4901600C49416000214FF4804281608A
:10349000C0E9031241618161C1610162FDF7E4FD90
:1034A000002803D0BDE81040FDF72EBB10BD000082
:1034B0000054004098030020A08601000D4810B57C
:1034C0000B4901600C49416000214FF4804281604A
:1034D000C0E9031241618161C1610162FDF7C4FD70
:1034E000002803D0BDE81040FDF70EBB10BD000062
:1034F00000580040EC030020A08601000E4810B5E3
:103500000C49016000214FF400624160C0E90212E1
:103510000161416181610162416281620A21C1628E
:10352000FEF7D0FB002803D0BDE81040FDF7ECBA51
:1035300010BD000000300140400400200E4810B5CE
:103540000C4901604FF48271416000218160C160CB
:10355000016141618161C1610162416281620A214F
:10356000C162FEF7AFFB002803D0BDE81040FDF7B5
:10357000CBBA10BD003800409804002010B586B0CA
:1035800000241748009401940294039404944FF08B
:10359000804105940160C721C0E9011441F61F4133
:1035A000C0E9031480218161FEF774FC08B1FDF7C6
:1035B000ABFA4FF48050009069460948FEF71CFDB5
:1035C00008B1FDF7A1FA049404A905480594FEF793
:1035D0002DFC002801D0FDF797FA06B010BD0000C1
:1035E000F004002010B58EB00024079408940994CC
:1035F0000A940B941C2168460C94FCF70AFE1E48A2
:103600001C49C0E900144FF6FF71C0E90241046192
:103610008461FEF73FFC08B1FDF776FA4FF4805065
:10362000079007A91448FEF7E7FC08B1FDF76CFA0C
:103630001148FEF776FE08B1FDF766FA0B940BA968
:103640000D480C94FEF7F2FB08B1FDF75DFA60201F
:10365000CDE9000402940822694607480494FEF765
:10366000FAFD08B1FDF750FA0348FEF7CDFD0EB0A4
:1036700010BD000000040040380500200C4810B5C3
:103680000A4901604FF416514160002181600C220B
:10369000C160C0E904128161C161FFF7B9F8002877
:1036A00003D0BDE81040FDF72FBA10BD003801402F
:1036B000800500200C4810B50A4901604FF41651EE
:1036C0004160002181600C22C160C0E90412816167
:1036D000C161FFF79DF8002803D0BDE81040FDF759
:1036E00013BA10BD00440040C8050020FEE7FEE705
:1036F00070B5002404F1B000C0B200F0B1FC0020AD
:1037000000F0AEFC102000F0ABFC0025002000F023
:10371000ABFC6D1CEDB2802DF8D3641CE4B2082C18
:10372000E8D370BD10B500222D492E4801F078F97C
:10373000AE2000F095FC202000F092FC102000F05C
:103740008FFCB02000F08CFCC82000F089FC002029
:1037500000F086FC102000F083FC402000F080FC8C
:10376000812000F07DFCFF2000F07AFCA12000F019
:1037700077FCA62000F074FCA82000F071FC3F202C
:1037800000F06EFCA42000F06BFCD32000F068FC7D
:10379000002000F065FCD52000F062FCF02000F075
:1037A0005FFCD92000F05CFC222000F059FCDA20FC
:1037B00000F056FC122000F053FCDB2000F050FC1F
:1037C000202000F04DFC8D2000F04AFC142000F079
:1037D00047FCAF2000F044FCBDE81040FFF788BF75
:1037E00098030020E00D002000B50B4602000FD02A
:1037F000FFF753FC00280BD15168D068405C18706B
:10380000D2E90101401CB0FBF1F301FB1300506051
:1038100000BDF0B515460E46070008D0002404E0B0
:1038200031193846FFF7E0FF641CAC42F8D3F0BD15
:10383000002303604360C0E902217047012002F0C9
:1038400096F9FBE710B5502080F31188BFF34F8F36
:10385000BFF36F8F04F034FE18B104494FF080506D
:103860000860002080F3118810BD000004ED00E026
:1038700030B58FB028216846FCF7CBFC14210AA88C
:10388000FCF7C7FC01210804CDE9001000240294D4
:1038900002250491CDE907504FF4E01009906846E5
:1038A000FEF780F808B172B6FEE70F20CDE90A05F1
:1038B0004FF48060CDE90C4002210AA80E94FDF778
:1038C00075FF002801D072B6FEE70FB030BD70471B
:1038D0000148FEF700BC0000200700200148FEF769
:1038E000FABB0000F00400200148FEF7F4BB000022
:1038F00038050020F0B50268194B1A4C1A4D4FF0EC
:103900008047984205D0B84203D0A04201D0A842D7
:1039100003D122F070064A683243984205D0B8427B
:1039200003D0A04201D0A84203D122F44074CA6857
:1039300022434C6922F08002224302608A68C262FC
:103940000A688262984201D10969016301214161DB
:103950000169C90703D0016921F001010161F0BDCE
:10396000002C0140000400400008004010B501F0A8
:103970001F030121046A99408C430462016A9A4042
:103980001143016210BD10B5846842EA032224F499
:103990007F440A432243826010BD826822F0700295
:1039A0000A4342F0070181607047000030B5036AA6
:1039B000026A22F0010202624268846924F07305FF
:1039C0000C682C4323F002058B682B430A4DA84258
:1039D0000BD123F00805CB6822F440722B434D69CC
:1039E00023F0040315438A692A43426084614968CD
:1039F0004163036230BD0000002C014030B5026A13
:103A0000036A23F010030362436884690D6824F499
:103A1000E64444EA05248D6822F0200242EA0512B9
:103A20000B4DA8420ED1CD6822F0800242EA051269
:103A30004D6923F4406343EA85038D6922F0400217
:103A400043EA85034360846149688163026230BD53
:103A5000002C014030B5036A026A22F480720262CF
:103A60004268C46923F4007324F073050C682C4386
:103A70008D6843EA05230C4DA8420ED1CD6823F48E
:103A8000006343EA05234D6922F4405242EA0512DD
:103A90008D6923F4806342EA05124260C46149687B
:103AA000C163036230BD0000002C014030B5046AE0
:103AB000026A22F4805202624268C3690D6823F4EC
:103AC000E64343EA05238D6824F4005444EA0534B0
:103AD000064DA84204D14D6922F4804242EA851283
:103AE0004260C36149680164046230BD002C01403A
:103AF00010B5036A046A24F001040462846924F0A6
:103B0000F00444EA021423F00A020A4384610262C8
:103B100010BD10B5036A046A24F0100404628469BD
:103B200023F0A00324F4704444EA023243EA011172
:103B30008261016210BD10B5406A0021C185C18457
:103B4000FEF718FD10BD70B5446A2068406994F80E
:103B50004110C0F3C0100025212904D118B1E5841B
:103B6000204600F0B4F82068406994F84210C0F391
:103B70008010222904D118B1E585204600F080F894
:103B8000606C40F0100060642046FEF7F3FC70BDEE
:103B900010B50146406A096809684FF000028906BD
:103BA0002ED4C28501680C3151E8003F23F48073A4
:103BB00041E80034002CF5D10168143151E8003F90
:103BC00023F0010341E80034002CF5D101681431E1
:103BD00051E8003F23F0400341E80034002CF5D1C8
:103BE000202180F84210016B012909D101680C31B4
:103BF00051E8003F23F0100341E80034002CF5D1D8
:103C00004263016B012902D0FEF752FF10BD818D86
:103C1000FEF76CFC10BD10B5406A01214163016BD9
:103C2000012902D0FEF745FF10BD818D4908FEF73E
:103C30005DFC10BD10B50146406A09680968890637
:103C400016D40021C1840168143151E8002F22F0FC
:103C5000800241E80023002BF5D101680C3151E8C6
:103C6000002F42F0400241E80023002BF5D110BDA7
:103C7000FEF7C5FF10BD10B5406AFEF7C1FF10BDCD
:103C800001680C3151E8002F22F4907241E80023C2
:103C9000002BF5D10168143151E8002F22F0010208
:103CA00041E80023002BF5D1016B012909D10168FE
:103CB0000C3151E8002F22F0100241E80023002BC4
:103CC000F5D1202180F8421000210163704701687E
:103CD0000C3151E8002F22F0C00241E80023002BF4
:103CE000F5D1202180F84110704708B590F84210B6
:103CF000222901D0022008BD82684FF480539A42E5
:103D000001D1016921B1816A9A421BD04AB10AE00E
:103D10000268816A5268C2F308020A80816A891CBB
:103D200008E0026972B10268526802F07F020A700C
:103D3000816A491C8162C18D491E0904090CC18533
:103D400003D01BE002685268F1E70168CA6822F0FC
:103D50002002CA600168CA6822F48072CA600168E1
:103D60004A6922F001024A61202180F842100021B4
:103D70004163026B012A03D0FEF79AFE002008BDC2
:103D8000016301680C3151E8002F22F0100241E874
:103D90000023002BF5D101680A68D20602D50A6813
:103DA00049680091818DFEF7A1FBE7E718B502682D
:103DB00001248BB21268B4EB117F03D1D16819438F
:103DC000D1600AE00224B4EB117F03D111691943D9
:103DD000116102E05169194351610068006801688E
:103DE0004068009018BD000070B504460068016985
:103DF000E26821F44051114301612169A068084340
:103E0000616908432168CA6841F20C639A4302431E
:103E1000CA6020684169A26921F44071114341617F
:103E20001E492068884202D1FDF786FD01E0FDF7BA
:103E300073FD00EBC00101EB00126068642180009B
:103E4000B2FBF0F3B3FBF1F36FF018067343B2FB70
:103E5000F0F5B2FBF0F605EB8305322303EB051515
:103E6000B5FBF1F5B6FBF1F605F0F00505EB06152F
:103E7000B2FBF0F6B2FBF0F0B0FBF1F06FF018021D
:103E8000504306EB800003EB0010B0FBF1F021681B
:103E900000F00F002844886070BD00000038014029
:103EA00038B5816204468285002013466064222270
:103EB00084F84220E56B1B4AAA62E56B1A4AEA6263
:103EC000E56B1A4A2A63E26B50630A462168E06B8D
:103ED000091DFCF789FF206801684068009020698F
:103EE00048B120680C3050E8001F41F4807140E870
:103EF0000012002AF5D12068143050E8001F41F06C
:103F0000010140E80012002AF5D12068143050E881
:103F1000001F41F0400140E80012002AF5D10020C6
:103F200038BD0000913B0008173C0008473B0008E3
:103F30002DE9F843984617460D460446089E24E0AE
:103F4000701C22D0FDF78AF8A0EB0800B0421AD806
:103F5000CEB12068C168490717D5802D15D0402DF6
:103F600013D00168C94309070FD4016800254068D0
:103F700000902046FFF784FE0820606484F84050DB
:103F80000120BDE8F8830320FBE72068006835EADC
:103F9000000004D00020B842D2D00020F1E7012078
:103FA000F9E7000010B50448FEF7FCFABDE8104040
:103FB0000249014800F024B880050020380E002096
:103FC00010B50448FEF7EEFABDE81040024901487A
:103FD00000F016B8C8050020380E0020012B04D0D0
:103FE000022B06D0032B07D0FEE700686423FEF700
:103FF00061BD0068FEF7EABD0068FEF7ABBD0000DA
:1040000010B540220448FEF74CFA044800680168E5
:1040100021F00401016010BD800500201006002081
:10402000FEE7000038B500218DF800100B4911287B
:104030000C680ED012280ED0132809D15FF00300AF
:104040008DF8000000231A466946204603F0D4FF8D
:1040500038BD0120F4E70220F2E700001C00002038
:1040600001460020FEF7EEBF01464020FEF7EABF02
:1040700030B50D4604000ED0FFF719F800280AD11C
:104080002168E06845542068A168401CB0FBF1F24B
:1040900001FB1200206030BDF0B515460E4607004A
:1040A00008D0002404E0315D3846FFF7E1FF641CCE
:1040B000AC42F8D3F0BD00000FB4054B10B503A916
:1040C000044A029800F01EF910BC5DF814FB0000D1
:1040D000E9570008400100200FB47CB50C0009AD81
:1040E00001D0611E00E00021CDE90001064B6A46C7
:1040F0002946089800F006F9002C02D0009A002109
:1041000011707CBC5DF814FB0B4A00087CB50C00F8
:104110001D461646014601D0601E00E00020CDE994
:104120000010064B6A462946304600F0EBF8002C9A
:1041300002D0009A002111707CBD00000B4A0008DB
:104140000907090E002804DB00F1E02080F80014C4
:10415000704700F00F0000F1E02080F8141D704758
:1041600002E008C8121F08C1002AFAD17047704740
:10417000002001E001C1121F002AFBD1704700009E
:104180002DE9FF5F82B00021DDE90430020DDDF88A
:1041900040B0034318D044F61050A2F2FF3242431D
:1041A0001514119801281FD0A5EB0B00401C5FEAE5
:1041B000000A4FF000064E4FDFF83891B0465046E7
:1041C00015D5CAF1000413E0119801244AA301286F
:1041D00001D16FEA0B010298119AC0E90031C0E9E0
:1041E000024206B0BDE8F09FCBF10000DFE70446D5
:1041F0000021404A491842EB0450CDE9001012E07A
:10420000E00707D032463B4640464946FCF7E5F911
:104210008046894632463B4610461946FCF7DDF992
:1042200006460F466410002CEAD1DDE90401DDE901
:104230000023BAF1000F06DAFCF7CFF942464B46ED
:10424000FCF7CBF905E0FCF73AFA42464B46FCF79F
:1042500036FA04460E460022284BFCF7B7FA03D87C
:104260004FF0FF30014607E00022254B2046314643
:10427000FCF70CF9FCF792FA102409E0002C0ADB99
:104280000A220023FCF79AF8039B30321A55641E69
:1042900050EA0102F2D1641C039AC4F111031444E0
:1042A000119A012A03D0012208430DD10AE00843E4
:1042B00004D000204FF0110B119072E7A3EB0B0517
:1042C0006D1E0DE05B4504DD4FF0000205F10105B8
:1042D00004E003DA4FF00002A5F10105002AECD05A
:1042E00002981199C0E90231C0E9004579E7000060
:1042F000000014400000F03F300000000000F043D8
:104300000000E03F2DE9FF4F95B09A4688460646EB
:104310000025EEE1252877D100242746F94A01211E
:10432000039400E0044316F8013F203B01FA03F038
:104330001042F7D130782A2811D06FF02F0330784F
:10434000A0F13002092A16D8039A44F0020402EBC5
:10435000820203EB42021044761C0390EFE758F808
:10436000042B0392002A03DA504244F400540390D1
:1043700044F00204761C30782E2816D116F8010F6E
:1043800044F004042A280DD06FF02F023078A0F1F9
:104390003003092B09D807EB870302EB4303C71847
:1043A000761CF3E758F8047B761C30786C280FD025
:1043B00006DC4C2817D068280DD06A2814D104E0F8
:1043C000742810D07A280FD10DE044F400140AE0CC
:1043D00044F4801401E044F440147278824202D123
:1043E00004F58014761C761C307866280BD013DC1C
:1043F000582877D009DC002875D04528F6D0462803
:10440000F4D047281AD193E118E0632835D0642806
:1044100079D0652812D18BE1702873D008DC672829
:10442000F1D069286FD06E280DD06F2806D1ACE08E
:1044300073282CD0752874D0782853D052461799F9
:1044400090476D1C54E1C4F30250022809D00328A0
:104450000DD0D8F8001004280DD00D6008F1040824
:1044600046E1D8F80010EA17C1E90052F6E7D8F89B
:1044700000100D80F2E70D70F0E718F8041B8DF8BE
:10448000001000208DF80100EB46012003E058F8F1
:1044900004BB4FF0FF3061074FF0000102D40DE084
:1044A00009F101018946B9420FDA8145F8DB1BF8B1
:1044B00009100029F4D108E009F10101894681427F
:1044C000FADB1BF809100029F6D103985346A0EB3C
:1044D000090721463846179A00F080FA284400EB75
:1044E000090507E044E008E10DE01BF8010B524626
:1044F00017999047B9F10109F7D25346214638463A
:10450000179AF2E039E00A21C4F302524FF0000B8F
:104510000091022A06D058F8040BC117032A09D0CB
:104520000AE023E008F1070020F00702F2E80201A8
:10453000904605E000B2C117042A01D140B2C1176C
:10454000002906DA0A460021404261EB02012D22D1
:1045500002E0220504D52B228DF80420012203E07D
:10456000E20701D02022F7E7914657E00A2100E058
:1045700010214FF0000B00910BE010214FF0000BC9
:1045800044F004040827009103E008204FF0000BDA
:104590000090C4F30252022A05D058F8040B0021FF
:1045A000032A08D008E008F1070020F00702F2E82B
:1045B0000201904603E080B2042A00D1C0B24FF05D
:1045C000000922072AD53278702A07D0DDF800C00A
:1045D0008CF0100C5CEA0B0C05D00EE040228DF83C
:1045E0000420012208E050EA010306D030238DF8B0
:1045F00004308DF8052002229146009B83F00803C9
:1046000053EA0B030AD150EA010201D1620705D532
:1046100030228DF804204FF001097F1E3278582A8D
:1046200004D039A20C920CAA02920BE03BA2F9E74B
:104630005B46009AFBF7C2FE0C9B9B5C029A521EE3
:104640000292137050EA0102F2D1029804A9081AEA
:1046500000F1200B600702D524F4803400E001272C
:104660005F4502DDA7EB0B0000E0002000EB0B0133
:10467000009003984944401A0390E00306D453463F
:104680002146179A039800F0A9F90544002706E08F
:1046900001A85246C05D179990476D1C7F1C4F457D
:1046A000F6DBE0030CD553462146179A039800F039
:1046B00095F9054404E030205246179990476D1C47
:1046C0000099481E00900029F5DC08E00298029944
:1046D00052460078491C0291179990476D1CBBF116
:1046E0000001ABF1010BF1DC5BE100F065F9054481
:1046F000761C307800287FF40DAE19B02846BDE84E
:10470000F08F00000928010030313233343536375C
:10471000383961626364656600000000303132330D
:1047200034353637383941424344454600000000AD
:10473000600700D4062708F1070020F00700F0E822
:104740000223804603F0004C5FEA0C0001D097A0E2
:1047500009E0200501D596A005E0E00701D095A06D
:1047600001E0AFF24C001390307823F0004365284D
:104770000CD006DC452809D046281DD047287FD11B
:104780003BE0662818D067287AD136E00021112F47
:1047900001DB112000E0781CCDE9000104A90CA880
:1047A000FFF7EEFCDDE90D010C9A4FF0000B07F16D
:1047B0000109109200914EE04FF000400097CDE9C2
:1047C000011004A90CA8FFF7DBFCDDE90D020C9B2E
:1047D0000F994FF0000B91461093009211B9791C7C
:1047E00000EB0109B7EB090003D4C0F1FF3B07F16F
:1047F0000109A9EB0700019042E0012F00DA01272F
:104800000021112F01DD112000E03846CDE9000123
:1048100004A90CA8FFF7B4FCDDE90D010C9A009186
:104820004FF0000BB946109221070FD4009A4A4569
:1048300003DA914601E0A9F10109B9F1010F05DDA3
:10484000109AA9F10101515C3029F4D0B84202DA82
:1048500010F1040F03DA0121CDE9011010E0002866
:1048600003DC8344A9EB000102E0411C494500DD63
:104870008946A0EB0B00401C01904FF000400290D5
:10488000200705D40198484502DB4FF0FF30019026
:1048900000208DF84B0002980DF14B07B0F1004F4E
:1048A00025D002200C902B200D90029800280CDAC5
:1048B000404202902D200D9007E00A210298FBF75C
:1048C00067FD3031029007F8011D0C99481E0C90CD
:1048D0000029F2DC02980028EFD1791E0D980870AB
:1048E000307800F0200040F0450007F8020D11A8D4
:1048F000C01BC01D02901398007800B1012000EB8E
:104900000901019801EBE071029801440398401AF3
:10491000401E0390E00306D453462146179A03989D
:1049200000F05CF805441398007818B152461799C6
:1049300090476D1CE00323D553462146179A0398F0
:1049400000F04CF805441BE0BBF1000F07DB0098BA
:10495000584504DD1098179910F80B0001E01799DD
:1049600030205246904701980BF1010B401E05F193
:104970000105019004D12E205246179990476D1CD5
:10498000B9F10001A9F10109DEDC05E017F8010B1E
:104990005246179990476D1C0299481E02900029B3
:1049A000F4DC53462146179A03989EE62D0000003A
:1049B0002B000000200000002DE9F04104460025F6
:1049C0001E461746880404D405E039462020B04727
:1049D0006D1C641EF9D52846BDE8F0812DE9F04133
:1049E000044600251E469046C80301D5302700E046
:1049F0002027880404D505E041463846B0476D1CA1
:104A0000641EF9D52846BDE8F0814A68002A06D020
:104A10000A68531C0B6010704868401E486070475D
:104A200003681BB102730160002070474FF0FF3034
:104A3000704702710160704710B500F04FFF032806
:104A40000CD00C4904280ED0052811D10122A1F167
:104A50008600891CBDE8104000F0FABE054901221D
:104A6000A1F18600F6E7034801228638491CF1E7E8
:104A700010BD0000EE07002010B500F02FFF0D491B
:104A800003280BD004280ED0052811D10122A1F152
:104A90008600491DBDE8104000F0DABE054801223D
:104AA0008638C91CF6E7034801228638091DF1E75C
:104AB00010BD0000EE07002010B500F00FFF0D49FB
:104AC00003280BD004280ED0052811D1012208316B
:104AD000A1F18E00BDE8104000F0BABE05480122E9
:104AE0008638891DF6E7034801228638C91DF1E79B
:104AF00010BD0000EE07002010B500F0EFFE032807
:104B00000BD004280FD0052813D10A490122A1F1A6
:104B10009100BDE8104000F09BBE06490122891EAD
:104B2000A1F18F00F5E703490122491EA1F1900090
:104B3000EFE710BDF907002010B500F0CFFE032805
:104B40000BD004280FD0052813D10A490122A1F166
:104B50009400BDE8104000F07BBE06490122891E8A
:104B6000A1F19200F5E703490122491EA1F193004A
:104B7000EFE710BDFC07002010B500F0AFFE0328E2
:104B80000BD004280FD0052813D10A490122A1F126
:104B90009700BDE8104000F05BBE06490122891E67
:104BA000A1F19500F5E703490122491EA1F1960004
:104BB000EFE710BDFF07002000EB8100C2607047E7
:104BC00070B504460079A1688847E1784A0702D0A9
:104BD0002288521C2280B0EBD11F0CD04FF0005223
:104BE00002EBB1114FEAB161C1F3C202E170032AD5
:104BF00004D360F3C71121F03800E070E07800259D
:104C000000F00701062972D2DFE801F0031D3D7BA9
:104C1000B199C0F38011B1EBD01FA07820F0F00063
:104C20000ED1A070E16809B1204688472580A078A0
:104C300020F00F00401CA070E0787CE0E07070BDB8
:104C40008030A07070BDC0F38011B1EBD01F09D0CF
:104C5000A07820F0F0001030A0702169A9B32046A0
:104C600088475FE02088C828ECD9A07820F0F000C1
:104C70005030A070216A09B120468847E07820F0C2
:104C80000700401DDAE7C0F38011B1EBD01F1DD142
:104C9000A07820F0F000A070E16809B120468847B4
:104CA000A078C143090706D04FF0805101EB3010C6
:104CB0004FEA3070A070616909B1204688472580AD
:104CC000E07820F00700C01CB8E72BE020883C28E3
:104CD000B8D9A07800F00F01012902D0022907D02D
:104CE00044E020F0F0003030A070A16905E03EE023
:104CF00020F0F0004030A070E16991B32046884771
:104D000034E0C0F38011B1EBD01F11D0A07820F0B7
:104D1000F0001030A070216909B120468847208832
:104D20003C2823D22580E07820F00700801C85E70E
:104D300021883C2986D920F00700401C7EE7C0F37B
:104D40008011B1EBD01FA07820F0F0000AD16030C4
:104D5000A070616A00293FF475AF2046BDE870403D
:104D6000084703E01030A0702169C6E7E07820F022
:104D7000070063E770B50E46154604462C21FBF785
:104D800048FAA07820F0F0008030A070A660E078AB
:104D900035B120F0800000BF65F38610E07070BD73
:104DA00040F08000F8E70000074A11680B4605E074
:104DB000814202D14FF0FF307047896A0029F7D154
:104DC00083621060002070473800002008B503F0AF
:104DD00071FB009000F006F80521684602F0A0FD86
:104DE000F8E70000054810B5046803E02046FFF727
:104DF000E7FEA46A002CF9D110BD000038000020A5
:104E000008B51D4C00200090206800F013FF1B4DDA
:104E1000286800F00FFF1A4E306800F00BFF194FA2
:104E200000226946386803F047F9012820D100982C
:104E3000012804D002280AD0032819D10FE02868DD
:104E400000F0F8FE306800F0F5FE20680EE0206803
:104E500000F0F0FE306800F0EDFE286806E02868FB
:104E600000F0E8FE206800F0E5FE306800F0C8FEC3
:104E7000142002F02FFDD3E7140000200C000020C6
:104E8000100000201C00002010B500F095F8FF2154
:104E9000002000F08BFB1721012000F087FB172179
:104EA000022000F083FB1721032000F07FFBAF21DD
:104EB000042000F07BFBFF21052000F077FB0120A0
:104EC00000F0D0FBBDE8104000F0D2BBF0B585B0DB
:104ED000070007D11E484FF4F072036893B11D49D3
:104EE0001DA09847214D0024052695F8F000C0B17B
:104EF00000F060FA04EB4410411991F851000128C8
:104F000012D017E01348CDE90302009212A118A3B2
:104F1000CDE9013103461FA225A1002000F080F851
:104F2000FEE705B03046F0BD1E2238463231FBF7B1
:104F3000A2F930B1641CE4B2052CDBD300F060FAB6
:104F4000EFE704EB4410284490F83160F6E70000E6
:104F5000AC0000202E8A000874616720213D2028C3
:104F600028766F6964202A2930290000E421002076
:104F7000282573292068617320617373657274201A
:104F80006661696C65642061742025733A256C64E0
:104F90002E0000002E2E5C656173796C6F6767656B
:104FA000725C7372635C656C6F672E630000000057
:104FB000656C6F67000000002DE9F041174D00207F
:104FC00095F8F010012927D000F05CFA060023D1F3
:104FD000012000F0FFF9002785F8F37085F8F470E0
:104FE000012085F8F500052000F088FA0024B84675
:104FF00004EB4410471907F132001F21FBF709F9B0
:10500000641C87F83180E4B287F85180052CEFD317
:10501000012085F8F0003046BDE8F081E421002051
:105020000FB42DE9F04F06468BB08B460846FBF7D0
:105030000DF900240A940746A146099405940694A4
:1050400007940894052E08D9B24840F23E2203681E
:10505000002B7DD0B049B1A09847B74D95F8F1002D
:10506000002876D02878B04273D35846FFF72EFF39
:10507000B0426ED3691C5846FBF7D6F8002868D0BA
:105080000DF1680A00F096F9A84695F8F500A5F527
:10509000807570B12946A9A2204600F02DFB044678
:1050A0009C4829191C3050F82620204600F024FB8B
:1050B00004440121304600F015FC40B195482919FF
:1050C000001D50F82620204600F016FB0444022163
:1050D000304600F007FCC8B129195A46204600F0B6
:1050E0000BFB04440F2F0BD8C7F10F01202205A89A
:1050F000FBF788F8291905AA204600F0FDFA0444B8
:1051000029198FA2204600F0F7FA04441C213046EA
:1051100000F0E8FB00284BD029198AA2204600F0B5
:10512000EBFA04440421304600F0DCFBA8B100F0A7
:105130008BF902462919204600F0DEFA04441821B2
:10514000304600F0CFFB40B129197DA2204601E096
:1051500035E0DAE000F0D0FA04440821304600F0EF
:10516000C1FB90B100F05CF902462919204600F01D
:10517000C3FA04441021304600F0B4FB28B12919C9
:105180006FA2204600F0B8FA04441021304600F027
:10519000A9FB38B100F048F902462919204600F071
:1051A000ABFA0444291968A2204600F0A5FA044489
:1051B00020213046169A00F0F5FBE0B90EE0564883
:1051C000CDE90302009255A160A3CDE90131034668
:1051D00067A26EA10020FFF723FFFEE740213046C3
:1051E000179A00F0DFFB30B980213046189A00F0A2
:1051F000E2FB002856D0291966A2204600F07CFA6E
:10520000044420213046169A00F0CCFBD0B1291975
:105210002046169A00F070FA044440213046179A4E
:1052200000F0C0FB10B129195BA207E080213046D5
:10523000189A00F0C0FB28B1291941A2204600F0BD
:105240005BFA044480213046189A00F0B4FBB8B1F0
:1052500052A2052109A8189BFEF73EFF291909AAA9
:10526000204600F049FA044440213046179A00F0E5
:1052700099FB28B1291932A2204600F03DFA0444D6
:1052800040213046179A00F08DFB28B1291920469D
:10529000179A00F031FA0444291941A2204600F07F
:1052A0002BFA0444C4F5807128195346199AFEF765
:1052B0002DFF04444FF48072944204D8002802DB8E
:1052C000A01D904200D9FA2498F82000464640B12B
:1052D000194905F804902031A1F59070FAF7A4FF60
:1052E00088B196F8F50028B129192EA2204600F0C1
:1052F00003FA044429192DA2204600F0FDF90119F2
:105300002B4800F0DBF800F07BF80BB0BDE8F00FA5
:105310005DF814FBAC000020468A00086C657665D9
:105320006C203C3D20454C4F475F4C564C5F5645EA
:1053300052424F5345000000E42100201B5B000057
:10534000200000005B0000005D200000282573297C
:105350002068617320617373657274206661696C83
:1053600065642061742025733A256C642E0000006A
:105370002E2E5C656173796C6F676765725C737202
:10538000635C656C6F672E6300000000656C6F677F
:1053900000000000280000003A000000256C6400B6
:1053A000290000001B5B306D000000000D0A0000AA
:1053B000E420002070B5064C012594F8F20020B1DD
:1053C00000F084F884F8F45070BD84F8F35070BD98
:1053D000E42100200949002881F8F2000DD0074897
:1053E00091F8F41090F8F30019B1002805D100F0FD
:1053F00079B8002801D000F069B87047E421002096
:1054000070B5064C002594F8F20020B100F06AF85F
:1054100084F8F45070BD84F8F35070BDE42100208E
:1054200000A070470000000010B503F035F8012817
:1054300005D003F02BF8BDE8104000F001BC01A03E
:1054400010BD00000000000008B503F025F8012899
:105450000FD003F02FF84FF47A72B0FBF2F1B0FBEB
:10546000F2F302FB1101009103A210210448FEF7A0
:1054700033FE034808BD000025642E252E3364004A
:10548000DC22002010B50024012002F061FC044958
:10549000086018B903A0FEF70FFE0124204610BDD6
:1054A000E0000020656C6F672073656D2063726596
:1054B000617465206661696C0D0A0000024601A0F6
:1054C000FEF7FABD252E2A7320000000044800686C
:1054D000002803D04FF0FF3102F08ABE7047000071
:1054E000E000002004480068002804D000231A4689
:1054F000194602F0D1BC7047E000002010B586B01C
:105500000446052807D90D484FF4AD72036833B13E
:105510000B490CA098471248047006B010BD08480B
:10552000CDE90302009207A10EA3CDE901310346A4
:1055300015A21CA10020FFF773FDFEE7AC000020C0
:10554000028A00086C6576656C203C3D20454C4F16
:10555000475F4C564C5F564552424F534500000042
:10556000E42100202825732920686173206173736A
:10557000657274206661696C6564206174202573AE
:105580003A256C642E0000002E2E5C656173796CE8
:105590006F676765725C7372635C656C6F672E63BF
:1055A00000000000656C6F670000000030B585B03A
:1055B0000D460446052807D90E484FF4A07203682B
:1055C0004BB10D490DA09847134800EB8400C0F87B
:1055D000D85005B030BD0848CDE90302009207A1BC
:1055E0000EA3CDE90131034615A21CA10020FFF74F
:1055F00017FDFEE7AC000020E58900086C657665C4
:105600006C203C3D20454C4F475F4C564C5F564507
:1056100052424F5345000000E42100202825732901
:105620002068617320617373657274206661696CB0
:1056300065642061742025733A256C642E00000097
:105640002E2E5C656173796C6F676765725C73722F
:10565000635C656C6F672E6300000000656C6F67AC
:1056600000000000014981F8F5007047E4210020A6
:105670000EB50A4890F8F01000290DD0012180F8ED
:10568000F11007A208A1F6208DE80700104B11A227
:1056900017A10320FFF7C4FC0EBD0000E421002089
:1056A000322E322E39390000456173794C6F6767AD
:1056B00065722056257320697320696E697469616B
:1056C0006C697A6520737563636573732E000000DF
:1056D0009C8900082E2E5C656173796C6F67676525
:1056E000725C7372635C656C6F672E630000000010
:1056F000656C6F67000000002DE9F043DFF88C90C7
:10570000DFF88C8085B00D0006461446174606D19A
:10571000D8F800302BB12C2249461EA098477CB106
:105720002CE01CA202922C20CDE903901AA3CDE913
:105730000003164B21A229A10020FFF771FCFEE710
:10574000D8F8003023B12D22104926A0984715E043
:1057500024A202922D20CDE903900FA3CDE90003EE
:105760000A4B16A21DA10020FFF75AFCFEE73146A6
:10577000761CFF2905D805F8010B641C2078002849
:10578000F5D105B0E01BBDE8F08300007E8A00087B
:10579000AC000020647374002825732920686173AD
:1057A00020617373657274206661696C6564206141
:1057B000742025733A256C642E0000002E2E5C6543
:1057C0006173796C6F676765725C7372635C656C3B
:1057D0006F675F7574696C732E630000656C6F672B
:1057E000000000007372630013B501F0D1FF4FF6A3
:1057F000FF73012269460348FDF75CF901F0E8FFF9
:1058000000981CBDC805002070B50D460446032253
:105810000B490C48FFF70DF95A202070A521617043
:10582000A070E570D02084F8850007490548FEF790
:10583000BDFA044805490068BDE87040FEF7E0BBCA
:10584000800500203C00002010000010380E0020D1
:1058500070B50C460646154640211148FAF7D9FCAA
:105860000F4B30780521187070785870B0789870A8
:10587000F078D8701D7108466A1D03E0451A655D11
:105880001D54401C8242F9DCD0209854BDE8704081
:10589000921C92B2032302490248FEF79FBB00000C
:1058A000F80D00203C00002013460A46014601A0E6
:1058B000FEF702BC696E70757420696E743A20251B
:1058C000642C20636861723A2025632C2073747203
:1058D000696E673A2025730D0A0000008078000980
:1058E0007047000030B585B00D460446052807D93D
:1058F000104840F2DF22036863B10F490FA09847B8
:10590000154800EB8400D0F8D800284000D00120D2
:1059100005B030BD0848CDE90302009207A10FA3EE
:10592000CDE90131034616A21CA10020FFF778FB48
:10593000FEE70000AC000020528A00086C65766526
:105940006C203C3D20454C4F475F4C564C5F5645C4
:1059500052424F5345000000E421002028257329BE
:105960002068617320617373657274206661696C6D
:1059700065642061742025733A256C642E00000054
:105980002E2E5C656173796C6F676765725C7372EC
:10599000635C656C6F672E6300000000656C6F6769
:1059A0000000000010B522B1FFF79CFF08B10120F4
:1059B00010BD002010BD10B522B1FFF793FF08B154
:1059C000012010BD002010BDEFF30580002800D09D
:1059D000012070471CB50A4DCC264FF4807409A0F5
:1059E000CDE900600A4B0BA212A10320FFF718FBC0
:1059F00021462846FBF725FBC82001F06BFFEEE7A8
:105A0000000801406C6564315F72756E0000000033
:105A10007E8900082E2E5C4170706C696361746928
:105A20006F6E735C627574746F6E5F6D6F746F729E
:105A30002E630000427574746F6E5F6D6F74746FC7
:105A4000720000001CB50A4DD8264FF4804409A00E
:105A5000CDE900600A4B0BA212A10320FFF7E0FA88
:105A600021462846FBF7EDFAC82001F033FFEEE7A8
:105A7000001001406C6564325F72756E00000000BA
:105A8000888900082E2E5C4170706C6963617469AE
:105A90006F6E735C627574746F6E5F6D6F746F722E
:105AA0002E630000427574746F6E5F6D6F74746F57
:105AB000720000001CB5094CE42502212046FBF7CA
:105AC000C0FA07A0CDE90050084B09A210A103209D
:105AD000FFF7A6FAC82001F0FDFEEEE7000C01403A
