:020000040800F2
:1000000030520020850200087B210008791E00087C
:1000100079210008E1030008312A000800000000EF
:10002000000000000000000000000000C501000802
:10003000350500080000000021020008E321000847
:100040009F0200089F0200089F0200089F0200080C
:100050009F0200089F0200089F0200089F020008FC
:100060009F0200089F0200089F0200089F020008EC
:10007000610400089F0200086D0400089F02000848
:100080009F0200089F0200089F0200089F020008CC
:100090009F0200089F0200089F0200089F020008BC
:1000A0009F020008AD2200089F0200089F0200087E
:1000B0009F0200089F0200089F0200089F0200089C
:1000C0009F0200089F0200089F0200089F0200088C
:1000D0009F0200089F0200089F0200089F0200087C
:1000E0009F0200089F0200089F0200089F0200086C
:1000F0009F0200089F0200089F0200089F0200085C
:100100009F0200089F0200089F0200089F0200084B
:100110009F0200089F0200089F0200089F0200083B
:100120009F020008790400089F0200089F0200084F
:100130009F0200089F0200089F0200089F0200081B
:100140009F0200089F0200089F0200089F0200080B
:100150009F020008850400089F020008092A000881
:100160009F0200089F0200089F0200089F020008EB
:100170009F0200089F0200089F0200080000000084
:100180009F0200089F020008712500089F020008D6
:100190009F0200089F0200089F0200089F020008BB
:1001A00000000000000000009F020008DFF810D0EF
:1001B00000F004F900480047E12E0008AFF300808A
:1001C000305200202C4B19680868B0E8F04F80F3DB
:1001D0000988BFF36F8F4FF0000080F311887047DC
:1001E0000000000008480068006880F308884FF0AD
:1001F000000080F3148862B661B6BFF34F8FBFF37F
:100200006F8F00DF00BF00BF08ED00E0DFF80C00DB
:10021000016841F470010160704700BF88ED00E0A3
:10022000EFF30980BFF36F8F134B1A681EF0100FA6
:1002300008BF20ED108A20E9F04F106009B44FF09C
:10024000500080F31188BFF34F8FBFF36F8F03F01F
:1002500097FE4FF0000080F3118809BC1968086808
:10026000B0E8F04F1EF0100F08BFB0EC108A80F31A
:100270000988BFF36F8F704730000020EFF30580CF
:10028000704700000648804706480047FEE7FEE743
:10029000FEE7FEE7FEE7FEE7FEE7FEE7FEE7FEE736
:1002A0009D220008AD0100082DE9F05F0546002001
:1002B00092469B4688460646814640241BE02846D7
:1002C00041464746224600F069F853465A46C01A4E
:1002D000914110D311461846224600F050F82D1ACD
:1002E00067EB01084F4622460120002100F047F845
:1002F00017EB00094E41201EA4F10104DFDC484643
:1003000031462A464346BDE8F09F40EA01039B0779
:1003100003D009E008C9121F08C0042AFAD203E07A
:1003200011F8013B00F8013B521EF9D27047D2B2DE
:1003300001E000F8012B491EFBD270470022F6E7CE
:1003400010B513460A4604461946FFF7F0FF20464B
:1003500010BD30B50B46014600202022012409E0E3
:1003600021FA02F59D4205D303FA02F5491B04FA6E
:1003700002F52844151EA2F10102F1DC30BD202A4D
:1003800004DB203A00FA02F1002070479140C2F1EC
:10039000200320FA03F3194390407047202A04DB1E
:1003A000203A21FA02F00021704721FA02F3D040EE
:1003B000C2F120029140084319467047064C074D90
:1003C00006E0E06840F0010394E807009847103425
:1003D000AC42F6D3FFF7EEFE004E0008204E0008B8
:1003E000FEE700001B4910B5C822A1F1100001F082
:1003F000E9FE18481121243801701221417013219F
:1004000081702121C170222101712321417131218B
:1004100081713221C1713321017241214172422126
:1004200081724321C17251210173522141735321C1
:1004300081736121C173622101746321417406A03B
:1004400002F070FB03488221BDE81040B03802F092
:10045000F3BC0000D04C0020696E69740D0A0000E6
:10046000014800F0C5B80000E4010020014800F098
:10047000BFB8000084010020014800F0B9B80000B6
:1004800044020020014800F0B3B80000A40200209C
:1004900001681823CAB2103AB2FBF3F2054B6FF3AE
:1004A0000901032A9B5CC36500D9091D81650846C3
:1004B00070470000804D000810B5014600208B6990
:1004C0008A6A4FF0C07453B1B3F5005F15D072B1B2
:1004D000012A0CD0022A0AD0032A09D104E01AB159
:1004E000012A06D0022A03D1C96AC90100D5012018
:1004F00010BDC96AA142FAD010BD002AF7D0012A66
:10050000F2D0022AF3D0032AF3D010BD30B504682C
:10051000256825F480252560046863608368402B86
:10052000036803D099600068C26030BD9A600068BB
:10053000C16030BD704772B6FEE72DE9F041044658
:10054000876D00F0E1FA064694F835000025022890
:1005500006D08020606584F834500120BDE8F08129
:100560002068016821F0160101602068416921F0CE
:1005700080014161206C08B9A06C20B1206801683D
:1005800021F0080101602068016821F0010101608B
:100590000CE000F0B9FA801B052807D9202060651F
:1005A000032084F8350084F83450D7E720680068C9
:1005B000C007EED194F85C103F208840B86001205D
:1005C00084F8350084F834500020C7E790F83510DF
:1005D000022903D08021416501207047052180F860
:1005E00035100068016821F00101016000207047AA
:1005F0002DE9F84304464FF00009CDF80090634818
:100600004FF41651A56D0068B0FBF1F72E6894F811
:100610005C10082000FA01F131420FD021680A680D
:1006200052070BD50A6822F004020A6094F85C10A5
:100630008840A860606D40F00100606594F85C102F
:100640004FF0010808FA01F0304208D021684969EA
:10065000090604D5A860606D40F00200606594F85A
:100660005C1004208840304208D02168096889075E
:1006700004D5A860606D40F00400606594F85C10DB
:1006800010208840304218D021680968090714D525
:10069000A86020680168490304D50068000308D5F4
:1006A000A16C07E00168C90503D4016821F00801C5
:1006B0000160216C09B12046884794F85C10202025
:1006C0008840304231D021680968C9062DD5A8601C
:1006D00094F8350005282068016806D0490347D5FD
:1006E000006800031DD4616C1CE021F0160101605C
:1006F0002068416921F080014161206C08B9A06C3B
:1007000020B12068016821F00801016094F85C10B4
:100710003F208840A86084F8358084F83490216DAB
:100720001FE0E16B09B120468847606D00282BD09F
:10073000606DC00714D0052084F83500206801687A
:1007400021F0010101600098401C0090B84203D8DC
:1007500020680068C007F6D184F8358084F83490AA
:10076000E16C002910D001B02046BDE8F0430847F5
:100770000168C905D5D4016821F01001016084F831
:10078000358084F83490CCE7BDE8F8832C00002055
:100790002DE9F041044600F0B7F906465CB10220AD
:1007A00084F83500002584F834502068016821F071
:1007B000010101600DE00120BDE8F08100F0A4F925
:1007C000801B052805D920206065032084F83500AA
:1007D000F2E720680068C007F0D12268116820485D
:1007E0000140D4E901031843D4E9033633431843E5
:1007F00063691843A3691843E3691843236A1843DC
:100800000843616A042903D1D4E90B13194308434F
:10081000106020684069666A20F0070130460E4388
:10082000012704280CD1A06A0643E06A40B12046A3
:10083000FFF742FE20B14020606584F83570BAE7CA
:10084000206846612046FFF723FE94F85C203F2194
:1008500091408160656584F835700020ACE7000048
:100860003F8010F02DE9F0410446866D90F8340089
:10087000002501280DD0012084F8340094F835704B
:100880000020012F07D084F8340002252846BDE857
:10089000F0810220FBE7022784F83570606520466E
:1008A000FFF734FE94F85C103F208840B060206869
:1008B000016841F016010160206C20B120680168D8
:1008C00041F0080101602068016841F00101016008
:1008D000DCE700002DE9F84FDFF8F8A10022012441
:1008E00003254FF00F090AF1040BAAF1040E00BF13
:1008F0000B6804FA02F63340B34270D10F7907F067
:100900000307012F01D0022F16D187684FEA420852
:1009100005FA08FC27EA0C07D1F80CC00CFA08FC11
:100920004CEA070CC0F808C04768B7430E79C6F315
:10093000001696403E4346600E79F643B6070AD04D
:10094000C7684FEA420C05FA0CF6B7438E6806FA00
:100950000CF63E43C6600E7906F00306022E10D157
:10096000D60800EB8608D8F8206057074FEAD76C06
:1009700009FA0CF7BE430F6907FA0CF73743C8F8BA
:10098000207006684FEA420C05FA0CF7BE430F7957
:1009900007F0030707FA0CF7374307604E6816F4B1
:1009A000403F1CD04C4E376847F48047376036686C
:1009B00022F0030706F480460096484E07EB060C2B
:1009C000DCF8086897073F0F09FA07F826EA0806D7
:1009D000DFF80C81404503D14FF0000841E072E0A0
:1009E000DFF80081404502D14FF0010839E0DFF81F
:1009F000F880404502D14FF0020832E0DFF8EC8089
:100A0000404502D14FF003082BE0DFF8E480404579
:100A100002D14FF0040824E0DFF8D880404502D12D
:100A20004FF005081DE0DFF8D080404502D14FF0BF
:100A3000060816E0DFF8C480404502D14FF00708F1
:100A40000FE0DFF8BC80404502D14FF0080808E015
:100A5000DFF8B080404502D14FF0090801E04FF0C7
:100A60000A0808FA07F848EA0608CCF80888DAF80D
:100A700000605746D1F804C09E435FEACC2C00D5F5
:100A80001E433E60DBF800605F46D1F804C09E4321
:100A90005FEA8C2C00D51E433E60DEF8006077468E
:100AA000D1F804C09E435FEA8C3C00D51E433E60F3
:100AB000084F083F3E68D1F804C09E435FEACC3C33
:100AC00000D51E433E60521C102AFFF411AFBDE852
:100AD000F88F0000083C01404438024000300140DB
:100AE000000002400004024000080240000C0240E6
:100AF000001002400014024000180240001C024096
:100B00000020024000240240014880687047000035
:100B100020000020024881680278114481607047FB
:100B2000200000200B4810B5016841F400710160FD
:100B3000016841F480610160016841F480710160E5
:100B4000032000F099F80F2000F006F800F04AF8B2
:100B5000002010BD003C024030B505461C4887B05F
:100B60000024016841F001010160006806A900F05D
:100B70000100009001A800F075F900F0A3F91549F3
:100B80004000B0FBF1F11548134A491E026040F2E3
:100B9000E732C0E90324C0E90114846100F0D4FB0A
:100BA000040012D10D4800F00FFC04000DD11920F3
:100BB00000F034F8102D07D200222946192000F049
:100BC0003BF80748056000E0012407B0204630BD2F
:100BD0004438024040420F0000000140040300205E
:100BE000240000200C4882B0016841F4804101607B
:100BF000006800F4804000900748001F016841F041
:100C0000805101600068002200F0805000900F21A8
:100C1000901E02B000F010B844380240002809DBF2
:100C200000F01F02012191404009800000F1E02006
:100C3000C0F8001170470000F0B40E4B1B680C4662
:100C4000C3F30223C3F10705042D00D90425191DA0
:100C5000072901D2002300E0DB1E012606FA05F178
:100C6000491E214099409E40761E16403143F0BCFB
:100C700001F068BF0CED00E0064900F007020868CB
:100C80004FF6FF03184040EA0220034A1043086071
:100C9000704700000CED00E00000FA05BFF34F8F35
:100CA00005480168054A01F4E06111430160BFF3A2
:100CB0004F8F00BFFDE700000CED00E00400FA05D7
:100CC0002DE9F8431748016841F080510160006840
:100CD000154F00F08050012600903E64FFF714FF8E
:100CE00005464FF47A78114C05E000BFFFF70CFF82
:100CF000401B40450DD86068C003F7D57E64FFF700
:100D000003FF0546464607E0FFF7FEFE401BB042E4
:100D100002D90320BDE8F88360688003F4D5002081
:100D2000F8E700004038024000000E42007000402A
:100D30002DE9F0470E46050065D0DFF81481D8F89C
:100D40000000F7B200F00F00B04207D288F8007040
:100D5000D8F8000000F00F00B04254D128683D4C94
:100D6000810712D5400703D5206840F4E050206089
:100D70002878000703D5206840F460402060206890
:100D8000A96820F0F000084320602878C0072DD023
:100D9000304968680839012812D0022813D0032886
:100DA00011D00968890700292DDA216821F0030193
:100DB00001432160FFF7A8FE814641F2883A0EE028
:100DC00009688903EFE709688901ECE7FFF79CFEF2
:100DD000A0EB0901514502D90320BDE8F087206846
:100DE000696800F00C00B0EB810FEFD1D8F800106B
:100DF000404601F00F01B14207D90770006800F0CA
:100E00000F00B04201D00120E7E72878400705D560
:100E10002068E96820F4E050084320602878000743
:100E200006D52068296920F4604040EAC1002060AE
:100E300000F058F82168084AC1F30311515CC8401A
:100E40000649086006480068FFF786FE0020C4E7F0
:100E5000003C024008380240884D00082C00002069
:100E6000240000200F2202600C4A136803F00303E1
:100E70004360136803F0F0038360136803F4E053E6
:100E8000C36012684FF4E05303EAD20202610448DF
:100E9000006800F00F00086070470000083802404A
:100EA000003C02400448054900680968044AC1F34F
:100EB0008221515CC84070472C0000200838024055
:100EC000984D00080448054900680968044AC1F3C0
:100ED0004231515CC84070472C0000200838024065
:100EE000984D0008154810B5006810F00C02144821
:100EF00013D01449042A0FD0082A0ED10F4C241FF6
:100F00002268236802F03F025B0207D52068C0F325
:100F10008810A0FB010106E0084610BD2168C1F35E
:100F20008811A1FB00010023FFF7BEF92168C1F37E
:100F30000141491C4900B0FBF1F010BD08380240E6
:100F40000024F40040787D012DE9F84F04006ED0B4
:100F50002078DFF84C93C007A9F104054AD009F1C5
:100F600004000168C1F38101012908D00068C0F3C1
:100F7000810002280AD1D9F80000400206D528686D
:100F8000800337D560680028E1D033E06068B0F5B1
:100F9000803F10D0B0F5A02F286810D020F480300A
:100FA0002860286820F4802028606068A8B1FFF7D6
:100FB000ABFD06460DE0286840F48030F4E740F4CD
:100FC00080202860F7E700BFFFF79EFD801B6428A4
:100FD00073D828688003F7D50CE0FFF795FD064627
:100FE00005E000BFFFF790FD801B6428F0D828685B
:100FF0008003F7D42078DFF8AC8280074FF0000A36
:101000003ED5A748001D016811F00C0F08D00068FC
:10101000C0F3810002280BD1D9F80000400207D4A8
:101020002868800716D5E068012800D112E033E176
:10103000E068B8B10120C8F80000FFF765FD06467A
:1010400005E000BFFFF760FD801B0228C0D82868BC
:101050008007F7D52868216920F0F80040EAC10030
:1010600028600DE0C8F800A0FFF74EFD064604E03A
:10107000FFF74AFD801B02281FD828688007F7D495
:101080002078000722D5864F87486169703771B193
:1010900001210160FFF738FD064604E0FFF734FD4B
:1010A000801B022809D838688007F7D50EE0C0F801
:1010B00000A0FFF729FD064605E082E0FFF724FDCA
:1010C000801B02287DD838688007F7D42078400735
:1010D00068D5DFF8CCB100270BF13C0BDBF8000042
:1010E000C0000BD4DBF8001041F08051CBF80010A9
:1010F000DBF80000012700F0805000906B4E306854
:10110000C00510D4306840F480703060FFF7FCFCFC
:10111000009005E0FFF7F8FC0099401A022850D82B
:101120003068C005F6D55E4EA0686C3601280FD039
:101130000528306810D020F001003060306820F0C1
:1011400004003060A068B8B1FFF7DEFC00900FE04B
:10115000306840F00100F4E740F004003060F7E749
:10116000FFF7D2FC0099411A41F28830814266D8DB
:1011700030688007F4D50EE0FFF7C6FC009007E06A
:10118000FFF7C2FC0099411A41F28830814256D8DB
:1011900030688007F4D42FB1DBF8001021F08051C3
:1011A000CBF80010A069C8B33D49091D0968C1F317
:1011B000810102294AD00228504607D0C8F86000B1
:1011C00000E03CE0FFF7A0FC04463BE04746C8F8DF
:1011D0006000FFF799FC064605E000BFFFF794FCAE
:1011E000801B02282BD828688001F7D4D4E9070196
:1011F0000843A16A2E4A490802EB0141626A41EAAA
:101200008211084394F82C1040EA0161C9F80010DB
:1012100001203866FFF778FC044606E03EE000BF98
:10122000FFF772FC001B022809D828688001F7D557
:1012300034E000BFFFF768FC001B022802D903203E
:10124000BDE8F88F28688001F4D427E00128F7D0A2
:10125000D9F80000E26900F4800191421CD1226AB1
:1012600000F03F01914217D147F6C071626A014018
:10127000B1EB821F10D1A26A4FF0FF3300F440316E
:1012800003EB5202B1EB024F06D194F82C1000F0A0
:101290007060B0EB016F01D00120D1E70020CFE7F3
:1012A0000438024000004742800E47420070004070
:1012B0000000FFFF7047704770B590F83C20012A8E
:1012C00032D0012480F83C40022280F83D2003689F
:1012D0005A689D6822F070060A6832435A60134BC0
:1012E00002689A4214D0B2F1804F11D0104B9A424A
:1012F0000ED0104B9A420BD00F4B9A4208D00F4B96
:101300009A4205D00E4B9A4202D00E4B9A4204D11B
:10131000496825F080031943916080F83D40002121
:1013200080F83C10084670BD022070BD00000140EE
:101330000004004000080040000C00400004014090
:10134000004001400018004010B5040003D094F89C
:101350003D0010B107E0012010BD002084F83C00E2
:10136000204600F01FF8022084F83D00211D20686F
:1013700000F0A2FF012084F8460084F83E0084F8C3
:101380003F0084F8400084F8410084F8420084F86B
:10139000430084F8440084F8450084F83D000020B0
:1013A00010BD000008B50068B0F1804F08D10548B5
:1013B000016841F001010160006800F00100009047
:1013C00008BD00004038024090F83D10012901D0CE
:1013D00001207047022180F83D100168CA6842F080
:1013E0000102CA6000681149884214D0B0F1804FF0
:1013F00011D00F4988420ED00E4988420BD00E49B9
:10140000884208D00D49884205D00D49884202D053
:101410000C49884204D1816801F00701062903D0F4
:10142000016841F0010101600020704700000140A7
:101430000004004000080040000C0040000401408F
:10144000004001400018004070B5044690F83C0090
:101450000025012817D0012684F83C60022084F87A
:101460003D002068826822F0770222F47F42826089
:101470000868502838D00DDC20284FD005DC90B308
:10148000102811D14AE0022070BD302846D04028F3
:101490000AD13BE060282FD070280DD0B0F5805FD6
:1014A00003D0B0F5005F12D0012584F83D60002024
:1014B00084F83C00284670BDCB68D1E90121206842
:1014C00000F05EFF2068816841F0770109E0CB6899
:1014D000D1E90121206800F053FF2068816841F4C0
:1014E00080418160E1E719E0CA684968206801F03D
:1014F0001BF85021206806E0CA684968206801F09E
:1015000024F86021206800F045FFCEE7CA684968EA
:10151000206801F009F840212068F4E722680146BC
:101520001046F0E7704770B50446006801694FF057
:101530000005C943890715D4C168C943890711D477
:10154000E91E01610120207720688069800720461C
:1015500002D0FFF7E7FF04E000F0D4F8204600F0E7
:1015600066F9257720680169C943490717D4C1681E
:10157000C943490713D46FF00401016102202077A9
:101580002068806910F4407F204602D0FFF7CAFF30
:1015900004E000F0B7F8204600F049F9257720680C
:1015A0000169C943090716D4C168C943090712D4A0
:1015B0006FF008010161042020772068C06980076E
:1015C000204602D0FFF7AEFF04E000F09BF8204673
:1015D00000F02DF9257720680169C943C90617D4A1
:1015E000C168C943C90613D46FF010010161082016
:1015F00020772068C06910F4407F204602D0FFF7B2
:1016000091FF04E000F07EF8204600F010F9257705
:1016100020680169C943C90708D1C168C943C9071E
:1016200004D1891E0161204600F002F92068016999
:10163000C943090609D4C168C943090605D46FF036
:10164000800101612046FFF735FE20680169C9432A
:10165000490609D4C168C943490605D46FF0400161
:101660000161204600F0EEF820680169C94389064F
:101670000BD4C168C943890607D46FF0200101610A
:101680002046BDE87040FFF716BE70BD70B586B04D
:10169000044614216846FEF751FE2068B0F1804FE1
:1016A00028D115480024016841F002010160016859
:1016B00001F002010591016841F00101016000683B
:1016C000022500F00100059008200090CDE90154AA
:1016D0000126CDE9034669460848FFF7FBF848F2C2
:1016E0000C000090CDE90154CDE903466946044859
:1016F000FFF7F0F806B070BD303802400004024039
:1017000000000240704770B5044690F83C00002687
:101710000D4601280FD0012084F83C006AB1042A4C
:101720001DD0082A2FD00C2A3FD00126002084F893
:101730003C00304670BD022070BD206800F032FED3
:101740002068816941F0080181612068816921F088
:1017500004018161206881692A69114311E02068D0
:1017600000F050FE2068816941F4006181612068C9
:10177000816921F480618161206881692A6941EA77
:1017800002218161D2E7206800F072FE2068C16901
:1017900041F00801C1612068C16921F00401C16103
:1017A0002068C1692A69114311E0206800F094FEA5
:1017B0002068C16941F40061C1612068C16921F4F8
:1017C0008061C1612068C1692A6941EA0221C16161
:1017D000ACE710B5040003D094F83D0010B107E069
:1017E000012010BD002084F83C00204600F01EF8C7
:1017F000022084F83D00211D206800F05DFD0120DD
:1018000084F8460084F83E0084F83F0084F84000E5
:1018100084F8410084F8420084F8430084F84400CE
:1018200084F8450084F83D00002010BD70477047E3
:1018300000680349884201D1FFF76CB97047000086
:1018400000000140704738B5044690F83E0020285B
:1018500022D181B17AB194F83C0001281CD001203A
:1018600084F83C002063204601F048F8002803D1AA
:10187000216B012901D0012038BD21680A6849681F
:10188000009121680C3151E8002F42F0100241E82C
:101890000023002BF5D138BD022038BD70B51E4C99
:1018A0000546B2B0227921461C48921D01F02AF962
:1018B000C8216846FEF742FD227969461748921D05
:1018C00000F071FC16492868884219D19DF8000083
:1018D0005A2815D19DF80100A52811D19DF80200C4
:1018E0005A280DD19DF804006E46001DC5B20DEBBF
:1018F00005004078D02805D0C8213046FEF71EFDEF
:1019000032B070BD002404E03019407901F092F843
:10191000641CAC42F8DDF3E7D84D0020C04C002039
:101920000078004010B50068084988420CD108488A
:1019300007490068403901F06DF805484021BDE8CD
:1019400010404038FEF7FABC10BD00000010014006
:10195000184E0020F8B5016804460868CA684B694B
:1019600010F00F0F4FF0000559D003F0010602F4FC
:101970009077374365D0C10705D0D10503D5216CD9
:1019800041F001012164410705D5D90703D0216C3D
:1019900041F002012164810705D5D90703D0216CEC
:1019A00041F004012164010707D502F02001314311
:1019B00003D0216C41F008012164216C00293AD048
:1019C000800604D5900602D5204600F093FE2068DC
:1019D0004069216CC0F38010090700D460B3204631
:1019E00000F053FE20684069400621D5206814307D
:1019F00050E8001F21F0400140E80012002AF5D114
:101A0000A06BA8B16C490165A06BFEF7DFFD002853
:101A100011D0A06B016D01B0BDE8F040084783060E
:101A20000FD593060DD52046BDE8F84000F062BE04
:101A30002046FFF777FFF8BD2046FFF773FF2564C8
:101A4000F8BD266B2023012E79D1C60677D5D606A0
:101A500075D50868486800904869400640D5A16B74
:101A6000086840680004000CEAD0A28D8242E7D9E1
:101A7000E085C869B0F5807F2DD020680C3050E833
:101A8000001F21F4807140E80012002AF5D120687F
:101A9000143050E8001F21F0010140E80012002A34
:101AA000F5D12068143050E8001F21F0400140E8D3
:101AB0000012002AF5D184F83E30256320680C30EE
:101AC00050E8001F21F0100140E80012002AF5D173
:101AD000A06BFEF732FDA08DE18D401A81B229E0A6
:101AE000A08DE18D401A81B2E08D0028A8D0002998
:101AF000A6D020680C3050E8002F22F4907240E805
:101B00000026002EF5D12068143050E8002F22F076
:101B1000010240E80026002EF5D184F83E3025630E
:101B200020680C3050E8002F22F0100240E800231B
:101B3000002BF5D12046FFF7B1FEF8BDFFE7050603
:101B40002BD5150629D594F83D002128F5D1A0689C
:101B5000B0F5805F01D12069B0B1206A411C2162DB
:101B6000216800784860E08C401E0004000CE0848E
:101B7000E3D12068C16821F08001C1602068C1689C
:101B800041F04001C160D8E7206A0088C0F3080036
:101B90004860206A801C2062E5E74006CDD55006EB
:101BA000CBD5CA68204622F04002CA6084F83D3096
:101BB00000F061F9C1E700009525000870B5040048
:101BC00004D094F83D00002510B106E0012070BD5E
:101BD00084F83C50204600F023F8242084F83D008F
:101BE0002068C16821F40051C160204600F000FE69
:101BF0002068016921F4904101612068416921F068
:101C00002A0141612068C16841F40051C160256426
:101C1000202084F83D0084F83E00002070BD0000C4
:101C20002DE9F04786B0044614216846FEF786FB8E
:101C3000DFF868C126685A480221032208230025DC
:101C40004FF0400A4FF020674FF4806966454DD150
:101C5000534E1036D6F800C04CF0804CC6F800C089
:101C6000366806F080460596066846F0100606605F
:101C7000006800F010000590D0018DE8230069464F
:101C80004848CDE90323FEF725FE484E4648C8469E
:101C90003060C6E90175C6E903597561B561F56142
:101CA000356230467562FEF773FD08B1FEF743FCFE
:101CB000A663B4633D4E3C4860363038C6E90358ED
:101CC0007561B561F5613562756286E881043046FB
:101CD000FEF75EFD08B1FEF72EFC666300220521CB
:101CE0005220B463FEF7A8FF522052E0DFF8C0C0D4
:101CF000664550D12A4E1436D6F800C04CF0200C60
:101D0000C6F800C0366806F020060596066846F05C
:101D100040060660006800F0400005904FF48440E3
:101D20008DE8230069462348CDE90323FEF7D2FD61
:101D30001E4E2148C036B8463060C6E90175C6E976
:101D400003597561B561F56135624F46304675627C
:101D5000FEF71EFD08B1FEF7EEFBA663B463174E57
:101D60001548C6E903577561B561F561356278308C
:101D7000756286E801053046FEF70AFD08B1FEF7F8
:101D8000DAFB6663002205214720B463FEF754FFA7
:101D90004720FEF743FF06B0BDE8F087007800401B
:101DA0003038024000100240586002408401002098
:101DB000001401400018024028640240A4020020E0
:101DC000704770472DE9F843044690F83D001F46E0
:101DD00016460D4620284CD1C5B1BEB194F83C0042
:101DE000012846D0012084F83C004FF00008C4F8D8
:101DF0004080212084F83D00FEF786FEA6848146BF
:101E0000E684A068B0F5805F03D004E00120BDE85F
:101E1000F883206928B12E465FF0000584F83C80E5
:101E20000EE00026FAE78021204600F0B1FDA0B9BF
:101E3000AEB116F8010B21684860E08C401EE084CA
:101E4000E08C4B464FF0000200970028EBD14FF09A
:101E50004001204600F09CFD30B10320D7E735F863
:101E6000020BC0F30800E6E7202084F83D000020C4
:101E7000CDE70220CBE77047FEE7002804D0D0E989
:101E80000010814201D101207047002070470028D6
:101E90000AD001688268491CB1FBF2F302FB1311FE
:101EA0004068814201D10120704700207047000046
:101EB000194808B5016841F480010160016801F426
:101EC00080010091016841F4001101600068002266
:101ED00000F40010009005210C20FEF7ADFE0C2050
:101EE000FEF79CFE002205210E20FEF7A5FE0E2027
:101EF000FEF794FE002205213920FEF79DFE3920D1
:101F0000FEF78CFE002205214520FEF795FEBDE878
:101F100008404520FEF782BE3038024010B51B4A0B
:101F20000121102001F044F8194C184A0021A06149
:101F3000D83A184801F068F8144A2060B43A0021F1
:101F4000154801F061F8114A6060903A0021134889
:101F500001F05AF80D4AA0606C3A0021104801F0D7
:101F600053F80A4AE060483A00210E4801F04CF864
:101F7000064A2061243A00210B4801F045F86061CF
:101F80000248183000F0D0FFE06110BD584D000845
:101F900000000020D1210008ED2C0008152E0008BB
:101FA0008D2E0008A92E0008C52E000800B587B0A8
:101FB00014216846FEF7C2F920480021026842F069
:101FC00040020260026802F040020592026842F09C
:101FD00002020260026802F002020592026842F008
:101FE00001020260026802F001020592026842F0FA
:101FF00080020260026802F080020592026842F0EC
:1020000010020260026802F010020592026842F0BB
:1020100008020260006800F0080005904FF440706C
:1020200000900220CDE901010320039007200490D5
:1020300069460348FEF74EFC07B000BD3038024049
:10204000000C024010B58EB0002407940894099447
:102050000A940B941C2168460C94FEF76FF92948EA
:102060004FF08041C0E90014611EC0E902410461E3
:102070008461FFF769F908B1FEF75DFA4FF480500B
:10208000079007A91F48FFF7DFF908B1FEF753FAD9
:102090001C48FFF79EFB08B1FEF74DFA0B940BA905
:1020A00018480C94FFF708F908B1FEF744FA6020CD
:1020B000CDE9000402940022694612480494FFF717
:1020C00022FB08B1FEF737FA042269460D48FFF7F4
:1020D0001AFB08B1FEF72FFA082269460948FFF7F4
:1020E00012FB08B1FEF727FA0C2269460548FFF7F4
:1020F0000AFB08B1FEF71FFA0248FFF7C7FA0EB055
:1021000010BD0000B40000200C4810B50A49016061
:102110004FF416514160002181600C22C160C0E97A
:1021200004128161C161FFF749FD002803D0BDE8B9
:102130001040FEF700BA10BD00780040FC000020FF
:102140000C4810B50A4901604FF416514160002156
:1021500081600C22C160C0E904128161C161FFF796
:102160002DFD002803D0BDE81040FEF7E4B910BDF6
:102170000014014040010020FEE7FEE700B50B46D9
:1021800002000FD0FFF779FE00280BD15168D0680C
:10219000405C1870D2E90101401CB0FBF1F301FB77
:1021A0001300506000BDF0B515460E46070008D07C
:1021B000002404E031193846FFF7E0FF641CAC420C
:1021C000F8D3F0BD002303604360C0E902217047EB
:1021D000012000F09CFEFBE7012080F31388FEF74E
:1021E0005DBD10B54FF0E020006902F07FFB0128D3
:1021F00003D0BDE8104002F08DB810BD30B593B0EB
:1022000030216846FEF79AF814210CA8FEF796F8DC
:1022100020480025016841F080510160006800F00D
:10222000805011901C48016841F4404101600068F1
:10223000022400F4404011900120039010200490EB
:10224000009406940820CDE90750B420CDE9090494
:1022500004200B906846FEF777FE08B172B6FEE7E1
:10226000FEF72EFD08B172B6FEE70CA90F2081E83B
:1022700031004FF4A0500F904FF480501090052182
:102280000CA8FEF755FD002801D072B6FEE713B08A
:1022900030BD000040380240007000400248016834
:1022A00041F470010160704788ED00E00148FFF7DC
:1022B0003AB9000004030020F0B50268254C264D11
:1022C000264E274F274B4FF0804CA04209D0604547
:1022D00007D0A84205D0B04203D0B84201D09842FE
:1022E00004D122F0700E4A6842EA0E02A0421BD0CE
:1022F000604519D0A84217D0B04215D0B84213D0CB
:10230000984211D0184DA8420ED0184DA8420BD0BB
:10231000174DA84208D0174DA84205D0164DA84227
:1023200002D0164DA84203D122F44075CA682A4350
:102330004D6922F080022A4302608A68C2620A68FC
:102340008262A04201D0984201D109690163012152
:102350004161F0BD00000140000400400008004061
:10236000000C0040000401400040014000440140D6
:102370000048014000180040001C004000200040C0
:1023800010B5846842EA032224F47F440A432243BE
:10239000826010BD826822F070020A4342F0070199
:1023A00081607047F0B5026A22F001020262036A9E
:1023B00042688469124E24F073050C682C4323F0A4
:1023C00002058B682B430D4DA84201D0B04205D1C8
:1023D00023F00807CB683B4323F00403A84201D055
:1023E000B04205D14D6922F4407215438A692A43EF
:1023F00042608461496841630362F0BD00000140AE
:1024000000040140F0B5026A22F010020262026A82
:10241000436884690D6824F4E64444EA05248D6821
:1024200022F0200242EA05120F4D104EA84201D0C0
:10243000B04206D1CF6822F0800242EA071222F0B1
:102440004002A84201D0B04207D14D6923F4406355
:1024500043EA85038D6943EA8503436084614968E3
:1024600081630262F0BD00000000014000040140F1
:10247000F0B5026A22F480720262026A4368C4699B
:1024800022F4007224F073050C68124E2C438D6800
:1024900042EA05220E4DA84201D0B04206D1CF68D3
:1024A00022F4006242EA072222F48062A84201D0AC
:1024B000B04207D14D6923F4405343EA05138D69B7
:1024C00043EA05134360C4614968C1630262F0BD19
:1024D000000001400004014030B5026A22F480523D
:1024E0000262046A4268C3690D6823F4E64343EA62
:1024F00005238D6824F4005444EA0534084DA842AD
:1025000002D0084DA84204D14D6922F4804242EA2B
:1025100085124260C36149680164046230BD0000F5
:10252000000001400004014010B5036A046A24F071
:1025300001040462846924F0F00444EA021423F0E4
:102540000A020A438461026210BD10B5036A23F0D7
:10255000100303628369046A23F4704343EA02327E
:1025600024F0A00343EA01118261016210BD000062
:1025700010B50548FFF7EEF9044805490068BDE8C5
:10258000104000F047BA0000FC000020184E002068
:10259000D84D002010B5806B0021C185C184FFF7A4
:1025A000C1F910BD70B5846B2068406994F83D1086
:1025B000C0F3C0100025212904D118B1E5842046BC
:1025C00000F08AF82068406994F83E10C0F380104B
:1025D000222904D118B1E585204600F056F8206C78
:1025E00040F0100020642046FFF79CF970BD10B544
:1025F0000146806B09680968C9052FD40021C1858F
:1026000001680C3151E8002F22F4807241E8002368
:10261000002BF5D10168143151E8002F22F001029E
:1026200041E80023002BF5D10168143151E8002F57
:1026300022F0400241E80023002BF5D1202180F850
:102640003E10016B012909D101680C3151E8002FBE
:1026500022F0100241E80023002BF5D1016B012983
:1026600002D0FFF7ADFB10BD818DFFF717F910BD4C
:1026700010B5806B016B012902D0FFF7A2FB10BDE2
:10268000818D4908FFF70AF910BD01680C3151E846
:10269000002F22F4907241E80023002BF5D101684D
:1026A000143151E8002F22F0010241E80023002BF1
:1026B000F5D1016B012909D101680C3151E8002FD6
:1026C00022F0100241E80023002BF5D1202180F8F0
:1026D0003E1000210163704701680C3151E8002F62
:1026E00022F0C00241E80023002BF5D1202180F820
:1026F0003D10704708B590F83E10222901D0022005
:1027000008BD82684FF480539A4201D1016921B11A
:10271000816A9A421BD04AB10AE00268816A526813
:10272000C2F308020A80816A891C08E0026972B15A
:102730000268526802F07F020A70816A491C816255
:10274000C18D491E0904090CC18503D019E0026836
:102750005268F1E70168CA6822F02002CA60016885
:10276000CA6822F48072CA6001684A6922F00102D4
:102770004A61202180F83E10016B012903D0FFF748
:102780001FFB002008BD0021016301680C3151E8E6
:10279000002F22F0100241E80023002BF5D1016840
:1027A0000A68D20602D50A6849680091818DFFF750
:1027B00075F8E6E718B5026801248BB21268B4EB2D
:1027C000117F03D1D1681943D1600AE00224B4EB30
:1027D000117F03D111691943116102E05169194355
:1027E00051610068006801684068009018BD0000F1
:1027F00070B5044600680169E26821F44051114354
:1028000001612169A068E2690843616911430843D5
:102810002168CA6849F20C639A430243CA6020687F
:102820004169A26921F44071114341613149206835
:10283000884202D03049884202D1FEF743FB01E0D2
:10284000FEF730FBE2690023192164253226B2F538
:10285000004F626828D0A0FB0101930F9200FDF7A2
:1028600023FD0146B0FBF5F06FF01802504301EB79
:10287000800006EB0010B0FBF5F000F0F002B1FBB9
:10288000F5F002EB0012B1FBF5F06FF018035843BE
:1028900001EB800006EB0010B0FBF5F000F00F003C
:1028A00021681044886070BDA0FB010192185B4153
:1028B000FDF7FAFC0146B0FBF5F00201B1FBF5F0C3
:1028C0006FF01803584301EB800006EBC000B0FB2B
:1028D000F5F000F0F80002EB4002B1FBF5F05843D0
:1028E00001EB800006EBC000B0FBF5F000F0070044
:1028F000D6E70000001001400014014038B58162A5
:1029000082850025134604460564222084F83E0093
:10291000A26B1C48D063A26B1B481064A26B1B48BF
:10292000D064A06B0A4605652168A06B091DFDF700
:1029300099FF206801684068009084F83C50206945
:1029400048B120680C3050E8001F41F4807140E825
:102950000012002AF5D12068143050E8001F41F021
:10296000010140E80012002AF5D12068143050E837
:10297000001F41F0400140E80012002AF5D100207C
:1029800038BD0000EF25000871260008A5250008C5
:102990002DE9F041984617460E460446069D27E06D
:1029A000681C25D02DB1FEF7AFF8A0EB0800A842B7
:1029B0001ED920680C3050E8001F21F4D07140E887
:1029C0000012002AF5D12068143050E8001F21F0D1
:1029D000010140E80012002AF5D1202084F83D00D2
:1029E00084F83E00002084F83C000320BDE8F0811C
:1029F0002068006836EA000004D00020B842CFD03A
:102A00000020F3E70120F9E70148FEF7A3BF00002B
:102A10004001002010B54022FEF715FF0348006872
:102A2000016821F00801016010BD0000440200208F
:102A3000FEE7000038B51E4D04460F21286801F05E
:102A4000F1FA0020112C12D0122C18D0132C1ED009
:102A5000212C24D0222C09D100906A46102128680C
:102A600001F052FB13A000BF00F05CF838BD0090ED
:102A70006A460121286801F047FB10A0F4E70090A6
:102A80006A460221286801F03FFB0EA0ECE70090A7
:102A90006A460421286801F037FB0CA0E4E70090A7
:102AA0006A460821286801F02FFB0AA0DCE7000035
:102AB0001C00002064617461350D0A00646174615A
:102AC000310D0A0064617461320D0A006461746141
:102AD000330D0A0064617461340D0A0030B50D468F
:102AE00004000ED0FFF7D3F900280AD12168E0686E
:102AF00045542068A168401CB0FBF1F201FB1200B4
:102B0000206030BDF0B515460E46070008D0002401
:102B100004E0315D3846FFF7E1FF641CAC42F8D3B6
:102B2000F0BD00000FB4054B10B503A9044A02988C
:102B300000F028F810BC5DF814FB0000212E0008FE
:102B4000B00000200907090E002804DB00F1E02096
:102B500080F80014704700F00F0000F1E02080F8CA
:102B6000141D704702E008C8121F08C1002AFAD1DC
:102B700070477047002001E001C1121F002AFBD1FD
:102B8000704700002DE9FF4F89B09B4604460025A1
:102B900006E025280BD05A460B999047641C6D1C03
:102BA00020780028F5D10DB02846BDE8F08F002729
:102BB000B8460122474900E0074314F8013F203B93
:102BC00002FA03F00842F7D120782E2819D114F820
:102BD000010F47F004072A280ED06FF02F0220784B
:102BE000A0F1300109290CD808EB880102EB410162
:102BF00000EB0108641CF2E70A98641C50F8048B8F
:102C00000A9020780028CED0642808D0692806D001
:102C100075281ED05A460B9990476D1C58E00A99AA
:102C20004FF00A0901C90A91002802DA40422D2119
:102C300002E0390504D52B218DF82010012103E095
:102C4000F90704D02021F7E78A4608AE0DE00021FD
:102C5000FAE70A994FF00A0901C90A91F7E74946CC
:102C6000FDF777FB303106F8011D0028F7D1ADEBF9
:102C7000060000F12009780701D44FF00108C8458B
:102C800002DDA8EB090000E000208046002706E0F6
:102C900008A85A46C05D0B9990476D1C7F1C57458C
:102CA000F6DB04E030205A460B9990476D1CB8F1D2
:102CB0000001A8F10108F5DC05E016F8010B5A4601
:102CC0000B9990476D1CB9F10001A9F10109F4DCE1
:102CD000641C65E70928010030B5DDE90345C380C0
:102CE000826085810461016030BD000008B5294D16
:102CF000286800F0DEF9284E306800F0DAF9274F36
:102D0000386800F0D6F9DFF898904FF0FF38CDF82A
:102D10000080002301221F21D9F8000001F0FCF9F6
:102D2000044601461FA0FFF7FDFEE0070BD0306808
:102D300000F0BFF9386800F0BCF9286800F0A9F984
:102D40001DA0FFF7EFFEA0070BD5286800F0B1F932
:102D5000386800F0AEF9306800F09BF91DA0FFF76D
:102D6000E1FE60070BD5306800F0A3F9286800F099
:102D7000A0F9386800F08DF91DA0FFF7D3FE2007F9
:102D800004D5FFF729FA21A0FFF7CCFEC82000F0F8
:102D900057FFBCE70C0000201000002014000020AA
:102DA0001C0000206D794576656E74426974735F0E
:102DB000313D25640D0A0000C8CECEF131BBD6B836
:102DC000B4A3ACC6E4D3E0C8CECEF1B9D2C6F00D00
:102DD0000A000000C8CECEF132BBD6B8B4A3ACC650
:102DE000E4D3E0C8CECEF1B9D2C6F00D0A0000009F
:102DF000C8CECEF133BBD6B8B4A3ACC6E4D3E0C8DA
:102E0000CECEF1B9D2C6F00D0A0000007265740D85
:102E10000A0000004FF4FA64204600F011FFFBE7BF
:102E200013B54FF6FF73012269460248FEF7CAFF49
:102E300000981CBD400100207CB504464FF4807012
:102E40000E4ACDE900200D4643000D490D48FFF71D
:102E500043FF5A202070A5216170A070E570D0203A
:102E600084F8850008490748FFF7A4FC0548054990
:102E70000068BDE87C404039FFF7CCBD000C024043
:102E8000FC000020184E00201000001003A0FFF7E7
:102E900049FEC82000F0D4FEF8E70000B5E7C6BD43
:102EA000B7B4D7AA310D0A0003A0FFF73BFEC82034
:102EB00000F0C6FEF8E70000B5E7C6BDB7B4D7AA74
:102EC000320D0A0003A0FFF72DFEC82000F0B8FE67
:102ED000F8E70000B5E7C6BDB7B4D7AA330D0A00BE
:102EE000FDF720FEFFF78AF9FFF760F8FEF7E0FF35
:102EF000FFF7A8F8FFF724F9FFF706F9FDF772FAD4
:102F000000F028F8FFF70AF800F036F8FEE710B5F1
:102F1000EFF3058111B16FF0050403E0002408B15F
:102F200000F08EFE204610BD10B54FF00001EFF30B
:102F300005826AB948B1D0E902202AB1202807D316
:102F4000104601F085F802E010B901F073F801466F
:102F5000084610BDEFF3058010B16FF00500704713
:102F60000448016811B14FF0FF3070470121016042
:102F7000002070478000002010B5EFF3058010B1ED
:102F80006FF0050010BD08480168012902D04FF01C
:102F9000FF3010BD054A002182F8141D0221016096
:102FA00000F054FF002010BD800000200BE000E086
:102FB000F8B514464FF00005EFF3058212BB08B3D5
:102FC00001B3A4B1D4E9023263B1502A1AD3226901
:102FD000C2B1676900FB01F6B74213D3009501F057
:102FE000D0F907E072B9226962B9626952B9002268
:102FF00001F0A6F9050005D00CB1216800E0002120
:1030000000F0E8FD2846F8BD2DE9FF414FEA010335
:103010004FF00005EFF30581039549BB40B38027CE
:10302000182100244AB3166806B1344696691EB1C9
:103030003146761E382E02D21679F60703D00020CC
:1030400004B0BDE8F081566906B1B708D2F808C0EF
:10305000BCF1000F0DD0D5685C2D18D312693AB1C0
:1030600036B18DE806103A46214601F014FC039073
:103070000DE0D6685EB912694AB903AACDE900121B
:10308000BAB2214601F0DAFB012800D0039503987B
:10309000D6E710B5EFF3058111B16FF0050403E039
:1030A00020B1002400F094FE204610BD6FF0030410
:1030B000FAE710B5EFF3058111B16FF0050403E0F5
:1030C00020B1002400F006FF204610BD6FF003047D
:1030D000FAE700002DE9F041134C0F460546E6687B
:1030E0002068001D00F068FC681C07D137B121681A
:1030F000BDE8F0410D48091D00F0BEBC2068354414
:10310000B5424560216805D2A06BBDE8F041091DBC
:1031100000F09ABC606B091D00F096FCA06A854225
:1031200000D2A562BDE8F081300000203C080020FC
:103130002DE9F041054600F0ABFC2D4CA068401C89
:10314000A06020682B4F10B1606930B32BE0256080
:10315000A068012827D1002606EB860007EB800037
:1031600000F064FC761C382EF6D3234800F05EFC99
:103170002148143000F05AFC1F48283000F056FC5B
:103180001D483C3000F052FC1B48503000F04EFC13
:10319000194860631430A06305E02068E96AC06ADA
:1031A000884200D82560606A401C60626864E86AF2
:1031B0002169884200D9206100EB800007EB800084
:1031C000291D00F059FC00F083FC606900280CD038
:1031D0002068E96AC06A884207D208494FF08050E7
:1031E0000860BFF34F8FBFF36F8FBDE8F081000021
:1031F000300000208C030020EC07002004ED00E0EC
:1032000038B500F045FC104C2068C8B90F4800F0F4
:103210000DFC0E48143000F009FC0C48E06014303E
:1032200020610A4B0020F03B009003F15002102176
:103230000A2001F0A6F8206010B105A100F0CAFC38
:10324000BDE8384000F044BC6C000020400900207C
:10325000546D72510000000030B4026C0B46002A1D
:103260000BD0C1681144C1608468A14201D30168D8
:10327000C16030BC1846FDF748B830BC70472DE936
:10328000F041856B174604460026026C82B1C7B137
:10329000E068FDF73AF8E168206C091AE1602268FD
:1032A000914202D2A168081AE060022F16D017E0FE
:1032B0002068A8B9A06801F091FB06460020A06034
:1032C0000EE06068FDF721F8216C606808446060DA
:1032D000A168884204D32068606001E005B16D1EDA
:1032E0006D1CA5633046BDE8F08110B5044690F82A
:1032F000590058B101280CD002280FD0502080F37B
:103300001188BFF34F8FBFF36F8FFEE7206B00F084
:10331000F3FB2046BDE8104000F0EEBB10BD0000FE
:1033200010484FF47051420706D0C01D0D4920F0DF
:103330000700411AC1F570510B4A00230144C2E94C
:1033400000030839183A21F0070111604B600B6047
:103350000B1AC0E9001393604FF0004053605061B6
:1033600070470000201000209C000020144E154CD7
:10337000A6F29C474FF08058DFF84C9012E000BF57
:1033800000F086FBF068C568281D00F015FBA068FA
:10339000401EA0606068401E606000F099FB2846F7
:1033A000FFF7A3FF60680028EAD138680128F9D93F
:1033B000C9F80080BFF34F8FBFF36F8FF2E70000B3
:1033C000280800203000002004ED00E070B51D4604
:1033D000049C51B1C4F80020C4E90F01012120462A
:1033E00001F002F884F84C5070BD2460F4E700004E
:1033F0002DE9F05F8846DDE90B9415468346910080
:103400009A460A9EA522206BFCF791FF6FF00301FC
:10341000206B01EB8501084420F00707780707D0EF
:10342000502080F31188BFF34F8FBFF36F8FFEE7FB
:103430000025B8F1000F0FD05FF00000221818F837
:10344000001082F8341018F8001011B1401C102838
:10345000F4D384F8435001E084F83450382E00D37C
:103460003726E662C4E91365201D00F0EAFA04F18C
:10347000180000F0E6FA2461C6F138006462A06129
:10348000656584F8585052465946384600F07EFA31
:103490002060B9F1000F01D0C9F80040BDE8F09FED
:1034A00030B5114900E011460A688242FBD34B68EF
:1034B0005C18844203D14068184448600846436859
:1034C0001C18944209D1084C183C2468A24209D027
:1034D00052681A4442600A6812680260814200D051
:1034E000086030BD0460F9E79C00002070B500243E
:1034F00041600B4D0061914206D8D11A8269914218
:1035000006D2011D286907E09A4203D2994201D3ED
:10351000012403E0011DE86800F096FA204670BD22
:103520006C00002010B5044600F0B2FAA06B28B180
:103530005FF0000400F0CCFA204610BD0124F9E74A
:1035400030B589B03C4D6EE00498002806DADDE91C
:103550000601059A90470498002864DB069C606980
:1035600010B1201D00F028FA03A800F0D7F8024699
:1035700004980A2857D2DFE800F00505052D334AE4
:1035800005052D3394F8280040F0010084F8280048
:103590000599A069059B01442046FFF7A7FF68B382
:1035A000216A2046884794F8280040073BD5002030
:1035B00000900598A169002342181946204601F0A1
:1035C00017FBD8B9502080F31188BFF34F8FBFF39A
:1035D0006F8FFEE714F8280F20F00100207022E022
:1035E00094F8280040F0010084F828000598A061B4
:1035F00028B1811813462046FFF778FF13E05020CA
:1036000080F31188BFF34F8FBFF36F8FFEE794F8FD
:103610002800810703D4204600F06EFA03E020F072
:10362000010084F82800002204A9286801F030F87D
:10363000002889D109B030BD6C0000202DE9FC4183
:103640000F46054600F094FC01A800F067F8044618
:10365000019818B101F03AFABDE8FC81254EAFB1EE
:1036600030690068D0B30027291B3A46306800F063
:10367000C5FA01F02BFA0028EED11F494FF0805017
:103680000860BFF34F8FBFF36F8FE5E7A542EBD81C
:1036900001F01CFAF0682746C068C468201D00F0DD
:1036A0008BF994F82800410719D5A0692B464119D8
:1036B0003A462046FFF71AFFA8B10020034601460C
:1036C00000902A46204601F093FA60B9502080F31A
:1036D0001188BFF34F8FBFF36F8FFEE707E020F035
:1036E000010084F82800216A20468847B4E70127B2
:1036F000BAE700006C00002004ED00E00648416BD2
:10370000096829B1416BC968C96849688162704715
:103710004FF0FF31FAE700003000002070B5054699
:1037200001F0F2F8064E0446B068844203D200F07D
:1037300009F8012000E0002028602046B46070BD38
:103740006C000020F8B5194D20E0C068C468066818
:10375000201D00F031F9216A2046884794F828009E
:10376000400713D5A0693044B04206D92461606097
:10377000211DE86800F068F908E0002003460146D2
:1037800000903246204601F033FA38B1E86801680B
:103790000029DAD12969C5E90310F8BD502080F36A
:1037A0001188BFF34F8FBFF36F8FFEE76C000020CF
:1037B00008484068401C4FF0500080F3118804D046
:1037C000BFF34F8FBFF36F8FFEE7BFF34F8FBFF392
:1037D0006F8FFEE7A4000020002150B10A4B426920
:1037E0009A420FD1806AA3F1280290420AD040B1D8
:1037F00008E0502080F31188BFF34F8FBFF36F8F25
:10380000FEE70121084670473C08002003460020DF
:1038100012B1994302D070470B42FCD0012070478F
:10382000074CE068016841B1C0680021D0F8000091
:10383000FFF704FFFFF784FEF3E701210020F7E71D
:103840006C0000202DE9F041044600F021F994F9C4
:10385000455004F1240609E0606A48B1304601F0A1
:10386000FDF808B100F01AFA6D1E6DB2002DF3DC00
:103870004FF0FF3684F8456000F02AF900F008F9AF
:1038800094F9445004F1100709E0206948B1384622
:1038900001F0E4F808B100F001FA6D1E6DB2002DE0
:1038A000F3DC84F84460BDE8F04100F011B9000099
:1038B0002DE9F0410546002700F05AFB324E3068F2
:1038C00008B9FFF72DFD706905424ED1C5B3083523
:1038D00068070ED005F00700C0F10800054468072E
:1038E00007D0502080F31188BFF34F8FBFF36F8F45
:1038F000FEE72DB37068854237D82348183001465B
:103900000C6801E020460C466168A94202D2216899
:103910000029F7D131688C4227D0076821680160FF
:1039200060680837411B10290FD96019420708D079
:10393000502080F31188BFF34F8FBFF36F8FFEE7E6
:1039400013E041606560FFF7ABFD61687068401A85
:103950007060B268904200D2B0607069014300208C
:10396000C4E90001F068401CF06001F0AFF878078E
:1039700007D0502080F31188BFF34F8FBFF36F8FB4
:10398000FEE73846BDE8F0818400002010B5031F33
:103990004FF080741C601B1F21F001011960191F7A
:1039A000044B0B6014390A60091F6FF0020244389F
:1039B0000A6010BDB1370008D0E9013201699A6090
:1039C000D0E901235A604A68824201D182684A6084
:1039D000002202610868401E086008687047000005
:1039E000044908680A688069D26A0968C2F1380225
:1039F0008A61704730000020034B036003F15C00D4
:103A0000086080201060704768090020044B036044
:103A100003F15C0008604FF4807010607047000094
:103A2000C40B002000F0DEBA00F028BB00F1080152
:103A30004FF0FF32C0E90112C16001610021016055
:103A4000704700210161704730B50B685A1C02D0E5
:103A500000F1080202E0026904E022465468256889
:103A60009D42FAD953684B6099608A605160086141
:103A70000168491C016030BD42684A6093688B60F0
:103A800093685960916008610168491C0160704742
:103A9000502080F31188BFF34F8FBFF36F8F0A4917
:103AA0004868401C486001280CD10848006810F0A4
:103AB000FF0F07D0502080F31188BFF34F8FBFF363
:103AC0006F8FFEE770470000A400002004ED00E0C7
:103AD0000849486828B1401E486001D180F3118828
:103AE0007047502080F31188BFF34F8FBFF36F8F63
:103AF000FEE70000A400002070B500282AD0164D73
:103B0000A0F1080460686969084207D1502080F379
:103B10001188BFF34F8FBFF36F8FFEE722683AB172
:103B2000502080F31188BFF34F8FBFF36F8FFEE7F4
:103B30008843606000F01CFA606869680844686047
:103B40002046FFF7ADFC2869401C2861BDE87040A5
:103B500000F0BCBF70BD0000840000204FF0E020EA
:103B600000210161816105494FF47A720968B1FB56
:103B7000F2F1491E41610721016170472C000020CC
:103B800010B5FCF77BFB114910280ED300F1E020A3
:103B900090F8F0030A78904207D2502080F3118801
:103BA000BFF34F8FBFF36F8FFEE709480068896846
:103BB00000F4E060884207D9502080F31188BFF3F9
:103BC0004F8FBFF36F8FFEE710BD0000A4000020F1
:103BD0000CED00E010B5084B002200BF53F8324056
:103BE0001CB1521C082AF9D310BD43F8321003EB64
:103BF000C201486010BD00004C03002070B515469E
:103C00000E460446FFF744FF94F944100020491C77
:103C100001D184F8440094F94510491C01D184F87D
:103C20004500FFF755FFA06B28B92A46314604F13D
:103C3000240000F051F82046BDE87040FFF702BEB6
:103C400010B5020014D00F48006B38B1502080F33B
:103C50001188BFF34F8FBFF36F8FFEE700F088F935
:103C600000211046FFF736FA00F030FF002807D198
:103C700005494FF080500860BFF34F8FBFF36F8F3F
:103C800010BD00003000002004ED00E002490A6A87
:103C90000260C9684160704730000020014901207E
:103CA000C86170473000002010B50C4650B109497A
:103CB00009681831FFF7C8FE2046BDE81040012111
:103CC000FFF708BA502080F31188BFF34F8FBFF37E
:103CD0006F8FFEE73000002070B514460D4668B1C6
:103CE0000A4909681831FFF7C7FE0CB14FF0FF35DC
:103CF00021462846BDE87040FFF7ECB9502080F31C
:103D00001188BFF34F8FBFF36F8FFEE730000020A5
:103D100010B51446030011D01048026BB2B102680E
:103D200041F000419161016818461831FFF7A4FE87
:103D30002046BDE810400121FFF7CCB9502080F3A8
:103D40001188BFF34F8FBFF36F8FFEE7502080F3D2
:103D50001188BFF34F8FBFF36F8FFEE73000002055
:103D600070B5194D2A6BF2B141F000410160C46891
:103D70000CB3FFF721FE201DFFF71EFEE06A296944
:103D8000884200D92861114900EB800001EB8000D6
:103D9000211DFFF771FEE06A2968C96A884201D9CE
:103DA0000120E86170BD502080F31188BFF34F8F70
:103DB000BFF36F8FFEE7502080F31188BFF34F8F62
:103DC000BFF36F8FFEE70000300000208C0300205F
:103DD00070B504002AD01A4D286884422ED0FFF70F
:103DE00057FE2046FFF7F8FCE0B1201DFFF7E4FD89
:103DF000E06A2969884200D92861124900EB8000F5
:103E000001EB8000211DFFF737FEE06A2968C96ACF
:103E1000884207D30C494FF080500860BFF34F8FA2
:103E2000BFF36F8FBDE87040FFF752BE502080F3A4
:103E30001188BFF34F8FBFF36F8FFEE770BD000097
:103E4000300000208C03002004ED00E030B587B086
:103E50000024039405AA04A903A80494FFF7CCFD49
:103E6000DDE903010094CDE90110002315A11748F5
:103E7000059A00F010FD164D0028E8621FD000F0F2
:103E800087FE012809D0401C19D1502080F31188E9
:103E9000BFF34F8FBFF36F8FFEE7502080F3118881
:103EA000BFF34F8FBFF36F8F4FF0FF30A862012039
:103EB0006861EC6007B0BDE8304000F0B1B907B010
:103EC00030BD000049444C45000000006D3300083F
:103ED0003000002070B50446FFF7DAFD214D04B92B
:103EE0002C68201DFFF768FDA06A18B104F11800C6
:103EF000FFF762FD211D1C48FFF7BEFD94F8580036
:103F00000026012801D184F85860FFF7E1FD6869B7
:103F100028B1FFF7BDFDFFF7F1FBFFF7D9FD2868DA
:103F2000844213D1686990B1286B38B1502080F376
:103F30001188BFF34F8FBFF36F8FFEE70B494FF030
:103F400080500860BFF34F8FBFF36F8F70BD06487E
:103F50000068A968884201D12E6070BDBDE870403C
:103F600000F00EB8300000203C08002004ED00E016
:103F70000248016B491C01637047000030000020BB
:103F8000164810B5016B11B10121C16110BD0021AE
:103F9000C1610169124A01E0B9B1491E01EB810317
:103FA00052F82330002BF7D001EB810302EB8302A0
:103FB00002F1080453685B685360A34201D15B6857
:103FC0005360DA680260016110BD502080F31188EF
:103FD000BFF34F8FBFF36F8FFEE70000300000206C
:103FE0008C03002070B50E46040009D0300E0FD0AF
:103FF000502080F31188BFF34F8FBFF36F8FFEE720
:10400000502080F31188BFF34F8FBFF36F8FFEE70F
:10401000FFF73EFD256825EA06002060FFF758FD02
:10402000284670BD0A4601460023014800F014BE30
:10403000253A000870B52020FFF73AFC040005D0AF
:104040000025201D2560FFF7F1FC2577204670BD77
:1040500038B558B120210446002000912060201D71
:10406000FFF7E4FC01202077204638BD502080F384
:104070001188BFF34F8FBFF36F8FFEE72DE9F0413B
:104080000027884604000AD05FEA18600FD050204D
:1040900080F31188BFF34F8FBFF36F8FFEE750207F
:1040A00080F31188BFF34F8FBFF36F8FFEE7261D9C
:1040B00004F10C05FFF75CFF2168F06841EA080194
:1040C000216017E0D0E9001601F07F425301236818
:1040D00021F07F4102D40B4203D10AE031EA03030D
:1040E00007D1D20100D50F43216841F00071FFF7DD
:1040F00037FE3046A842E5D12068B843206000F082
:10410000E5FC2068BDE8F08113460A4601460148F7
:1041100000F0A2BD293A00082DE9F0479A46DDF8E3
:10412000209090460D4604004FF0000709D0280E5D
:104130000FD0502080F31188BFF34F8FBFF36F8FE4
:10414000FEE7502080F31188BFF34F8FBFF36F8FCE
:10415000FEE71DB100F0CAFB40B112E0502080F331
:104160001188BFF34F8FBFF36F8FFEE7B9F1000FD8
:1041700007D0502080F31188BFF34F8FBFF36F8FAC
:10418000FEE7FFF7F5FE2668524629463046FFF760
:104190003DFB30B1B8F1000F1AD02068A843206071
:1041A00016E0B9F1000F13D0B8F1000F01D04FF0B5
:1041B0008077BAF1000F01D047F0806745EA070128
:1041C0004A46201DFFF7A4FD00F080FC18B10AE06C
:1041D00000F07CFC1FE011494FF080500860BFF3F5
:1041E0004F8FBFF36F8FFFF7FBFB0646800110D4A4
:1041F000FFF74EFC2668524629463046FFF706FB7D
:1042000028B1B8F1000F02D02068A8432060FFF762
:104210005FFC26F07F463046BDE8F08704ED00E005
:104220001CB537480168374A914207D1502080F3C6
:104230001188BFF34F8FBFF36F8FFEE700683149DE
:10424000491E884207D1502080F31188BFF34F8F59
:10425000BFF36F8FFEE72C4908780190FF200870AC
:1042600008788DF800009DF800009DF8002000F00F
:10427000F000904207D0502080F31188BFF34F8F99
:10428000BFF36F8FFEE79DF80000204C00F0500058
:1042900020700720A06005E09DF8002052008DF8F6
:1042A0000020401E9DF800201206F5D4A0600328CF
:1042B00007D0502080F31188BFF34F8FBFF36F8F6B
:1042C000FEE74FF44070A060019808700C48203061
:1042D000016841F470010160016841F070410160C2
:1042E000FFF73CFC00206060FBF790FF0848016886
:1042F00041F040410160FBF775FF00201CBD00004C
:1043000000ED00E071C20F4100E400E0A4000020D5
:1043100034EF00E010B5502080F31188BFF34F8FC9
:10432000BFF36F8F00F0F6FA18B104494FF08050D8
:104330000860002080F3118810BD000004ED00E04B
:10434000F8B517460E46050013D005FB06F05030B1
:10435000FFF7AEFA04000AD0002084F8460004F10A
:1043600050023B46314628460094FFF72FF820467E
:10437000F8BD502080F31188BFF34F8FBFF36F8FCC
:10438000FEE738B5049D18B153B1CAB181B120E040
:10439000502080F31188BFF34F8FBFF36F8FFEE77C
:1043A000502080F31188BFF34F8FBFF36F8FFEE76C
:1043B000502080F31188BFF34F8FBFF36F8FFEE75C
:1043C00039B1502080F31188BFF34F8FBFF36F8F47
:1043D000FEE750241C46012384F846302B46009407
:1043E000FEF7F4FF204638BD70B50D46040025D019
:1043F000FFF74EFBD4E90F20216802FB0011A160FA
:104400000021A163216861600A46D4E90F01401EC2
:1044100000FB0121E16021464FF0FF3001F8440F1D
:10442000487004F110008DB1FFF700FB04F1240087
:10443000FFF7FCFAFFF74CFB012070BD502080F322
:104440001188BFF34F8FBFF36F8FFEE721690029FB
:10445000F0D000F003FB0028ECD004494FF080506E
:104460000860BFF34F8FBFF36F8FE3E704ED00E009
:104470002DE9FF4782B01D468A464FF00008040030
:1044800003D0BAF1000F08D011E0502080F311885A
:10449000BFF34F8FBFF36F8FFEE7206C38B1502012
:1044A00080F31188BFF34F8FBFF36F8FFEE7022DAC
:1044B0000AD1E06B012807D0502080F31188BFF3A8
:1044C0004F8FBFF36F8FFEE700F010FA3F4F4FF0B2
:1044D00000094FF0805648B9049838B1502080F355
:1044E0001188BFF34F8FBFF36F8FFEE7FFF7D0FA4E
:1044F000A06BE16B884207D3022D05D00498D0B1A0
:10450000B8F1000F1AD01EE02A4651462046FEF7A9
:10451000B6FE616A19B104F1240000F09FFA20B1DF
:104520003E60BFF34F8FBFF36F8FFFF7D1FA0120CB
:1045300006B0BDE8F087FFF7CBFA22E06846FFF748
:10454000A5FB4FF00108FFF7C3FAFFF711FDFFF7D6
:104550009FFA94F94400401C01D184F8449094F9E6
:104560004500401C01D184F84590FFF7B1FA04A939
:10457000684600F029F930B12046FFF763F900F0F2
:10458000A5FA0020D4E7FFF783FAA06BE16B88421D
:1045900013D1FFF79DFA04F110000499FFF784FB93
:1045A0002046FFF74FF900F091FA00289ED13E60B7
:1045B000BFF34F8FBFF36F8F98E7FFF789FA20465D
:1045C000FFF740F900F082FA90E7000004ED00E008
:1045D0002DE9F0471F4690468946040003D0B9F103
:1045E000000F08D011E0502080F31188BFF34F8FE7
:1045F000BFF36F8FFEE7206C38B1502080F3118835
:10460000BFF34F8FBFF36F8FFEE7022F0AD1E06B2E
:10461000012807D0502080F31188BFF34F8FBFF3DC
:104620006F8FFEE7FFF7ACFA5020EFF3118680F3AF
:104630001188BFF34F8FBFF36F8FA06BE16B884280
:1046400006D3022F04D0002086F31188BDE8F0873E
:1046500094F94550A06B3A4649462046FEF70FFEB6
:10466000681C04D06D1C84F845500120ECE7606A9A
:104670000028FAD004F1240000F0F0F90028F4D06A
:10468000B8F1000FF1D00121C8F80010EDE70000EB
:104690002DE9F747002683B08A46040003D0BAF11B
:1046A000000F08D011E0502080F31188BFF34F8F26
:1046B000BFF36F8FFEE7206C38B1502080F3118874
:1046C000BFF34F8FBFF36F8FFEE700F00FF9DFF8F6
:1046D000F4804FF000094FF0805748B9059838B181
:1046E000502080F31188BFF34F8FBFF36F8FFEE729
:1046F000FFF7CEF9A56BC5B151462046FEF7ACFDDC
:104700006D1EA563206950B104F1100000F0A6F9F8
:1047100028B1C8F80070BFF34F8FBFF36F8FFFF75A
:10472000D7F9012006B0BDE8F087059808B11EB1A1
:1047300006E0FFF7CDF927E06846FFF7A7FA012664
:10474000FFF7C6F9FFF714FCFFF7A2F994F944004C
:10475000401C01D184F8449094F94500401C01D1DB
:1047600084F84590FFF7B4F905A9684600F02CF8E5
:10477000002820460AD0FFF765F800F0A7F9204688
:10478000FEF7D0FE0028B3D00020CBE7FEF7CAFE2C
:1047900090B104F124000599FFF786FA2046FFF74F
:1047A00051F800F093F90028A2D1C8F80070BFF3C7
:1047B0004F8FBFF36F8F9BE72046FFF743F800F062
:1047C00085F995E704ED00E02DE9F0410C46050080
:1047D00011D0C4B1FFF75CF9174BDA686E68206836
:1047E000911B471C17D02F681B6A9F4219D0964215
:1047F00017D8012410E0502080F31188BFF34F8FA9
:10480000BFF36F8FFEE7502080F31188BFF34F8F07
:10481000BFF36F8FFEE70024FFF75AF92046BDE88B
:10482000F081884205D9401A20602846FFF72EFA09
:10483000F1E700202060DCE7300000202DE9FF5F79
:104840008346DDE90E87994616468A469000FFF7B3
:104850002FF805001CD05C20FFF72AF8040014D0C4
:104860000020256384F85900CDE90240CDE9008796
:104870004B46324651465846FEF7BAFD2046FEF7F3
:1048800057FC012004B0BDE8F09F2846FFF734F93B
:104890004FF0FF30F6E7F0B585B0DDE90B640A9D17
:1048A000A6B1DCB15C2700972663022684F8596024
:1048B000002604AFCDE90246CDE90057FEF798FD8A
:1048C0002046FEF735FC049805B0F0BD502080F37B
:1048D0001188BFF34F8FBFF36F8FFEE7502080F337
:1048E0001188BFF34F8FBFF36F8FFEE70548416913
:1048F00019B1006B18B100207047012070470220E9
:1049000070470000300000200148C0687047000078
:10491000300000202DE9F0412E4C0027206B28B1FB
:10492000A069401CA0613846BDE8F081E668761CAD
:10493000E66013D1606B006838B1502080F31188B5
:10494000BFF34F8FBFF36F8FFEE7606BA16B6163A7
:10495000A063206A401C2062FEF7D0FEA06ADFF848
:104960007880864209D3606B0068A0B1606BC06834
:10497000C5686868864211D2A0622068C06A00EBF0
:10498000800158F82100012800D90127E06900289A
:10499000C9D00127C7E74FF0FF30EDE7281DFFF72B
:1049A0000BF8A86A18B105F11800FFF705F8E86AD6
:1049B0002169884200D9206100EB800108EB810069
:1049C000291DFFF759F8E86A2168C96A8842CAD3E5
:1049D0000127C8E7300000208C03002070B50400D8
:1049E0004FF0000133D01B4D2868844207D050207F
:1049F00080F31188BFF34F8FBFF36F8FFEE7206DF9
:104A000038B1401E2065E36CE26A9A421FD040B183
:104A10001DE0502080F31188BFF34F8FBFF36F8FDD
:104A2000FEE7201DFEF7C8FFE06CE062C0F1380031
:104A3000A061E06A2969884200D92861064900EB33
:104A4000800001EB8000211DFFF716F801210846C8
:104A500070BD0000300000208C03002070B5C068DD
:104A6000C46854B104F118000646FEF7A5FF144DC2
:104A7000286B50B13146134815E0502080F311885F
:104A8000BFF34F8FBFF36F8FFEE7201DFEF794FF3C
:104A9000E06A2969884200D928610B4900EB80004F
:104AA00001EB8000211DFEF7E7FFE06A2968C96A73
:104AB000884202D90120E86170BD002070BD00006D
:104AC00030000020140800208C0300202DE9F0475E
:104AD0002C4D00242746286B38B1FEF7D9FF286BF0
:104AE000401E2863286B40B146E0502080F31188B7
:104AF000BFF34F8FBFF36F8FFEE7A968224E0120EF
:104B0000D1B3A6F5916980463068E0B1F068C46819
:104B100004F11800FEF750FF201DFEF74DFFE06A7C
:104B20002969884200D9286100EB800109EB8100E6
:104B3000211DFEF7A1FFE06A2968C96A8842E3D314
:104B4000C5F81C80E0E70CB1FEF7D8FDAC694CB1AC
:104B50004FEA0806FFF7DEFE00B1EE61641EF9D1F0
:104B60000020A861E86938B10849012738070860C2
:104B7000BFF34F8FBFF36F8FFEF7AAFF3846BDE834
:104B8000F0870000300000201408002004ED00E051
:104B900010B586B0FEF734FB114C2068B8B1002088
:104BA0000390049005AA04A903A8FEF72FFFDDE9EE
:104BB000032102208DE8070000230AA10B48059A73
:104BC000FFF769FE606010B106B0012010BD5020F3
:104BD00080F31188BFF34F8FBFF36F8FFEE70000A4
:104BE0006C000020546D7220537663002138000859
:104BF0002DE9FF411E46134602000A9D4FF00000BA
:104C000016D0144C2768002F0FD0CDE90013029264
:104C1000062917DAFFF76AFE02284FF000030FD0CB
:104C2000002269462068FFF723FC04B0BDE8F0814C
:104C3000502080F31188BFF34F8FBFF36F8FFEE7D3
:104C40002A46EEE70023324669463846FFF7C0FCA5
:104C5000EBE700006C0000201FB51C466FF001035D
:104C6000CDE90030CDE9021204480023224669460E
:104C70000068FFF7ADFC04B010BD00006C00002020
:104C8000B84D000800000000000000000000000017
:104C900000000000000200001800000000000000FA
:104CA00000000000E84D00080000000000000000C7
:104CB0000000000000000000000200000A000000E8
:104CC0000000000000000000F44D0008000000009B
:104CD00000000000000000000000000000020000D2
:104CE000090000000000000000000000C44D0008A2
:104CF00000000000000000000000000000000000B4
:104D00000002000009000000000000000000000098
:104D1000D04D00080000000000000000000000006E
:104D20000000000000020000090000000000000078
:104D300000000000DC4D0008000000000000000042
:104D40000000000000000000000200000900000058
:104D50000000000000000000AC4D00080000000052
:104D60000000000000000000000000000000000043
:104D7000A04D00080000000000000000000000003E
:104D800000061016000610160000000000000000CB
:104D900001020304060708090000000001020304E1
:104DA0004576656E744B65793100000071756575E7
:104DB000656B65793100000064656661756C7454DB
:104DC00061736B004C4544315F7461736B0000008C
:104DD0004C4544325F7461736B0000004C454433B2
:104DE0005F7461736B000000427574746F6E5F7462
:104DF00061736B0042757A7A65725F7461736B00E0
:104E0000204E000800000020B4000000642B0008C1
:104E1000D44E0008B40000207C510000742B000820
:104E20000000000000000000000000000000000082
:104E30000000000000000000000000000000000072
:104E40000100000010000000000000000024F40039
:104E50000000000000000000000000000000000052
:104E60000000000000000000000000000000000042
:104E70000000000000000000000000000000000032
:104E80000000000000000000000000000000000022
:104E90000000000000000000000000000000000012
:104EA0000000000000000000000000000000000002
:104EB00000000000000000000000000000000000F2
:104EC0000000000000000000AAAAAAAA000000003A
:044ED00000000000DE
:04000005080001AD41
:00000001FF
